{
	"projects/2Pack/src/contarcts/2Pack.sol": {
		"Pack": {
			"abi": [
				{
					"inputs": [
						{
							"internalType": "uint256",
							"name": "_postID",
							"type": "uint256"
						},
						{
							"internalType": "uint256",
							"name": "newPostPrice",
							"type": "uint256"
						}
					],
					"name": "changePrice",
					"outputs": [],
					"stateMutability": "nonpayable",
					"type": "function"
				},
				{
					"inputs": [
						{
							"internalType": "uint256",
							"name": "_postPrice",
							"type": "uint256"
						}
					],
					"name": "createPost",
					"outputs": [],
					"stateMutability": "nonpayable",
					"type": "function"
				},
				{
					"inputs": [],
					"name": "currentPostID",
					"outputs": [
						{
							"internalType": "uint256",
							"name": "",
							"type": "uint256"
						}
					],
					"stateMutability": "view",
					"type": "function"
				},
				{
					"inputs": [
						{
							"internalType": "uint256",
							"name": "_postID",
							"type": "uint256"
						}
					],
					"name": "deletePost",
					"outputs": [],
					"stateMutability": "nonpayable",
					"type": "function"
				},
				{
					"inputs": [],
					"name": "getUserPosts",
					"outputs": [
						{
							"components": [
								{
									"internalType": "uint256",
									"name": "postID",
									"type": "uint256"
								},
								{
									"internalType": "address",
									"name": "postAuthor",
									"type": "address"
								},
								{
									"internalType": "uint256",
									"name": "postPrice",
									"type": "uint256"
								},
								{
									"internalType": "uint256",
									"name": "postCreationTime",
									"type": "uint256"
								}
							],
							"internalType": "struct Pack.Post[]",
							"name": "",
							"type": "tuple[]"
						}
					],
					"stateMutability": "view",
					"type": "function"
				}
			],
			"devdoc": {
				"kind": "dev",
				"methods": {},
				"version": 1
			},
			"evm": {
				"assembly": "    /* \"projects/2Pack/src/contarcts/2Pack.sol\":70:2028  contract Pack{... */\n  mstore(0x40, 0x80)\n  callvalue\n  dup1\n  iszero\n  tag_1\n  jumpi\n  0x00\n  dup1\n  revert\ntag_1:\n  pop\n  dataSize(sub_0)\n  dup1\n  dataOffset(sub_0)\n  0x00\n  codecopy\n  0x00\n  return\nstop\n\nsub_0: assembly {\n        /* \"projects/2Pack/src/contarcts/2Pack.sol\":70:2028  contract Pack{... */\n      mstore(0x40, 0x80)\n      callvalue\n      dup1\n      iszero\n      tag_1\n      jumpi\n      0x00\n      dup1\n      revert\n    tag_1:\n      pop\n      jumpi(tag_2, lt(calldatasize, 0x04))\n      shr(0xe0, calldataload(0x00))\n      dup1\n      0x094cd5ee\n      eq\n      tag_3\n      jumpi\n      dup1\n      0x1d69bd48\n      eq\n      tag_4\n      jumpi\n      dup1\n      0x664b104b\n      eq\n      tag_5\n      jumpi\n      dup1\n      0xb3de019c\n      eq\n      tag_6\n      jumpi\n      dup1\n      0xcc4ef2cc\n      eq\n      tag_7\n      jumpi\n    tag_2:\n      0x00\n      dup1\n      revert\n        /* \"projects/2Pack/src/contarcts/2Pack.sol\":853:1458  function deletePost(uint _postID) public{... */\n    tag_3:\n      tag_8\n      0x04\n      dup1\n      calldatasize\n      sub\n      dup2\n      add\n      swap1\n      tag_9\n      swap2\n      swap1\n      tag_10\n      jump\t// in\n    tag_9:\n      tag_11\n      jump\t// in\n    tag_8:\n      stop\n        /* \"projects/2Pack/src/contarcts/2Pack.sol\":384:677  function createPost(uint _postPrice) public{  ... */\n    tag_4:\n      tag_12\n      0x04\n      dup1\n      calldatasize\n      sub\n      dup2\n      add\n      swap1\n      tag_13\n      swap2\n      swap1\n      tag_10\n      jump\t// in\n    tag_13:\n      tag_14\n      jump\t// in\n    tag_12:\n      stop\n        /* \"projects/2Pack/src/contarcts/2Pack.sol\":307:332  uint public currentPostID */\n    tag_5:\n      tag_15\n      tag_16\n      jump\t// in\n    tag_15:\n      mload(0x40)\n      tag_17\n      swap2\n      swap1\n      tag_18\n      jump\t// in\n    tag_17:\n      mload(0x40)\n      dup1\n      swap2\n      sub\n      swap1\n      return\n        /* \"projects/2Pack/src/contarcts/2Pack.sol\":1464:2024  function changePrice(uint _postID, uint newPostPrice) public{... */\n    tag_6:\n      tag_19\n      0x04\n      dup1\n      calldatasize\n      sub\n      dup2\n      add\n      swap1\n      tag_20\n      swap2\n      swap1\n      tag_21\n      jump\t// in\n    tag_20:\n      tag_22\n      jump\t// in\n    tag_19:\n      stop\n        /* \"projects/2Pack/src/contarcts/2Pack.sol\":684:846  function getUserPosts() view public returns (Post[] memory ){... */\n    tag_7:\n      tag_23\n      tag_24\n      jump\t// in\n    tag_23:\n      mload(0x40)\n      tag_25\n      swap2\n      swap1\n      tag_26\n      jump\t// in\n    tag_25:\n      mload(0x40)\n      dup1\n      swap2\n      sub\n      swap1\n      return\n        /* \"projects/2Pack/src/contarcts/2Pack.sol\":853:1458  function deletePost(uint _postID) public{... */\n    tag_11:\n        /* \"projects/2Pack/src/contarcts/2Pack.sol\":919:926  postMap */\n      0x01\n        /* \"projects/2Pack/src/contarcts/2Pack.sol\":919:938  postMap[msg.sender] */\n      0x00\n        /* \"projects/2Pack/src/contarcts/2Pack.sol\":927:937  msg.sender */\n      caller\n        /* \"projects/2Pack/src/contarcts/2Pack.sol\":919:938  postMap[msg.sender] */\n      0xffffffffffffffffffffffffffffffffffffffff\n      and\n      0xffffffffffffffffffffffffffffffffffffffff\n      and\n      dup2\n      mstore\n      0x20\n      add\n      swap1\n      dup2\n      mstore\n      0x20\n      add\n      0x00\n      keccak256\n        /* \"projects/2Pack/src/contarcts/2Pack.sol\":918:946  (postMap[msg.sender]).length */\n      dup1\n      sload\n      swap1\n      pop\n        /* \"projects/2Pack/src/contarcts/2Pack.sol\":907:914  _postID */\n      dup2\n        /* \"projects/2Pack/src/contarcts/2Pack.sol\":907:946  _postID >= (postMap[msg.sender]).length */\n      lt\n        /* \"projects/2Pack/src/contarcts/2Pack.sol\":903:1452  if (_postID >= (postMap[msg.sender]).length) return;... */\n      tag_28\n      jumpi\n        /* \"projects/2Pack/src/contarcts/2Pack.sol\":948:955  return; */\n      jump(tag_27)\n        /* \"projects/2Pack/src/contarcts/2Pack.sol\":903:1452  if (_postID >= (postMap[msg.sender]).length) return;... */\n    tag_28:\n        /* \"projects/2Pack/src/contarcts/2Pack.sol\":1086:1092  uint i */\n      0x00\n        /* \"projects/2Pack/src/contarcts/2Pack.sol\":1095:1102  _postID */\n      dup2\n        /* \"projects/2Pack/src/contarcts/2Pack.sol\":1086:1102  uint i = _postID */\n      swap1\n      pop\n        /* \"projects/2Pack/src/contarcts/2Pack.sol\":1081:1442  for (uint i = _postID; i< (postMap[msg.sender]).length-1; i++){... */\n    tag_30:\n        /* \"projects/2Pack/src/contarcts/2Pack.sol\":1136:1137  1 */\n      0x01\n        /* \"projects/2Pack/src/contarcts/2Pack.sol\":1108:1115  postMap */\n      dup1\n        /* \"projects/2Pack/src/contarcts/2Pack.sol\":1108:1127  postMap[msg.sender] */\n      0x00\n        /* \"projects/2Pack/src/contarcts/2Pack.sol\":1116:1126  msg.sender */\n      caller\n        /* \"projects/2Pack/src/contarcts/2Pack.sol\":1108:1127  postMap[msg.sender] */\n      0xffffffffffffffffffffffffffffffffffffffff\n      and\n      0xffffffffffffffffffffffffffffffffffffffff\n      and\n      dup2\n      mstore\n      0x20\n      add\n      swap1\n      dup2\n      mstore\n      0x20\n      add\n      0x00\n      keccak256\n        /* \"projects/2Pack/src/contarcts/2Pack.sol\":1107:1135  (postMap[msg.sender]).length */\n      dup1\n      sload\n      swap1\n      pop\n        /* \"projects/2Pack/src/contarcts/2Pack.sol\":1107:1137  (postMap[msg.sender]).length-1 */\n      tag_33\n      swap2\n      swap1\n      tag_34\n      jump\t// in\n    tag_33:\n        /* \"projects/2Pack/src/contarcts/2Pack.sol\":1104:1105  i */\n      dup2\n        /* \"projects/2Pack/src/contarcts/2Pack.sol\":1104:1137  i< (postMap[msg.sender]).length-1 */\n      lt\n        /* \"projects/2Pack/src/contarcts/2Pack.sol\":1081:1442  for (uint i = _postID; i< (postMap[msg.sender]).length-1; i++){... */\n      iszero\n      tag_31\n      jumpi\n        /* \"projects/2Pack/src/contarcts/2Pack.sol\":1174:1181  postMap */\n      0x01\n        /* \"projects/2Pack/src/contarcts/2Pack.sol\":1174:1193  postMap[msg.sender] */\n      0x00\n        /* \"projects/2Pack/src/contarcts/2Pack.sol\":1182:1192  msg.sender */\n      caller\n        /* \"projects/2Pack/src/contarcts/2Pack.sol\":1174:1193  postMap[msg.sender] */\n      0xffffffffffffffffffffffffffffffffffffffff\n      and\n      0xffffffffffffffffffffffffffffffffffffffff\n      and\n      dup2\n      mstore\n      0x20\n      add\n      swap1\n      dup2\n      mstore\n      0x20\n      add\n      0x00\n      keccak256\n        /* \"projects/2Pack/src/contarcts/2Pack.sol\":1194:1195  i */\n      dup2\n        /* \"projects/2Pack/src/contarcts/2Pack.sol\":1174:1196  postMap[msg.sender][i] */\n      dup2\n      sload\n      dup2\n      lt\n      tag_35\n      jumpi\n      tag_36\n      tag_37\n      jump\t// in\n    tag_36:\n    tag_35:\n      swap1\n      0x00\n      mstore\n      keccak256(0x00, 0x20)\n      swap1\n      0x04\n      mul\n      add\n        /* \"projects/2Pack/src/contarcts/2Pack.sol\":1174:1203  postMap[msg.sender][i].postID */\n      0x00\n      add\n      sload\n        /* \"projects/2Pack/src/contarcts/2Pack.sol\":1165:1172  _postID */\n      dup3\n        /* \"projects/2Pack/src/contarcts/2Pack.sol\":1165:1203  _postID==postMap[msg.sender][i].postID */\n      eq\n        /* \"projects/2Pack/src/contarcts/2Pack.sol\":1161:1428  if (_postID==postMap[msg.sender][i].postID){... */\n      iszero\n      tag_39\n      jumpi\n        /* \"projects/2Pack/src/contarcts/2Pack.sol\":1250:1257  postMap */\n      0x01\n        /* \"projects/2Pack/src/contarcts/2Pack.sol\":1250:1269  postMap[msg.sender] */\n      0x00\n        /* \"projects/2Pack/src/contarcts/2Pack.sol\":1258:1268  msg.sender */\n      caller\n        /* \"projects/2Pack/src/contarcts/2Pack.sol\":1250:1269  postMap[msg.sender] */\n      0xffffffffffffffffffffffffffffffffffffffff\n      and\n      0xffffffffffffffffffffffffffffffffffffffff\n      and\n      dup2\n      mstore\n      0x20\n      add\n      swap1\n      dup2\n      mstore\n      0x20\n      add\n      0x00\n      keccak256\n        /* \"projects/2Pack/src/contarcts/2Pack.sol\":1272:1273  1 */\n      0x01\n        /* \"projects/2Pack/src/contarcts/2Pack.sol\":1270:1271  i */\n      dup3\n        /* \"projects/2Pack/src/contarcts/2Pack.sol\":1270:1273  i+1 */\n      tag_40\n      swap2\n      swap1\n      tag_41\n      jump\t// in\n    tag_40:\n        /* \"projects/2Pack/src/contarcts/2Pack.sol\":1250:1274  postMap[msg.sender][i+1] */\n      dup2\n      sload\n      dup2\n      lt\n      tag_42\n      jumpi\n      tag_43\n      tag_37\n      jump\t// in\n    tag_43:\n    tag_42:\n      swap1\n      0x00\n      mstore\n      keccak256(0x00, 0x20)\n      swap1\n      0x04\n      mul\n      add\n        /* \"projects/2Pack/src/contarcts/2Pack.sol\":1226:1233  postMap */\n      0x01\n        /* \"projects/2Pack/src/contarcts/2Pack.sol\":1226:1245  postMap[msg.sender] */\n      0x00\n        /* \"projects/2Pack/src/contarcts/2Pack.sol\":1234:1244  msg.sender */\n      caller\n        /* \"projects/2Pack/src/contarcts/2Pack.sol\":1226:1245  postMap[msg.sender] */\n      0xffffffffffffffffffffffffffffffffffffffff\n      and\n      0xffffffffffffffffffffffffffffffffffffffff\n      and\n      dup2\n      mstore\n      0x20\n      add\n      swap1\n      dup2\n      mstore\n      0x20\n      add\n      0x00\n      keccak256\n        /* \"projects/2Pack/src/contarcts/2Pack.sol\":1246:1247  i */\n      dup3\n        /* \"projects/2Pack/src/contarcts/2Pack.sol\":1226:1248  postMap[msg.sender][i] */\n      dup2\n      sload\n      dup2\n      lt\n      tag_45\n      jumpi\n      tag_46\n      tag_37\n      jump\t// in\n    tag_46:\n    tag_45:\n      swap1\n      0x00\n      mstore\n      keccak256(0x00, 0x20)\n      swap1\n      0x04\n      mul\n      add\n        /* \"projects/2Pack/src/contarcts/2Pack.sol\":1226:1274  postMap[msg.sender][i]= postMap[msg.sender][i+1] */\n      0x00\n      dup3\n      add\n      sload\n      dup2\n      0x00\n      add\n      sstore\n      0x01\n      dup3\n      add\n      0x00\n      swap1\n      sload\n      swap1\n      0x0100\n      exp\n      swap1\n      div\n      0xffffffffffffffffffffffffffffffffffffffff\n      and\n      dup2\n      0x01\n      add\n      exp(0x0100, 0x00)\n      dup2\n      sload\n      dup2\n      0xffffffffffffffffffffffffffffffffffffffff\n      mul\n      not\n      and\n      swap1\n      dup4\n      0xffffffffffffffffffffffffffffffffffffffff\n      and\n      mul\n      or\n      swap1\n      sstore\n      pop\n      0x02\n      dup3\n      add\n      sload\n      dup2\n      0x02\n      add\n      sstore\n      0x03\n      dup3\n      add\n      sload\n      dup2\n      0x03\n      add\n      sstore\n      swap1\n      pop\n      pop\n        /* \"projects/2Pack/src/contarcts/2Pack.sol\":1299:1306  postMap */\n      0x01\n        /* \"projects/2Pack/src/contarcts/2Pack.sol\":1299:1318  postMap[msg.sender] */\n      0x00\n        /* \"projects/2Pack/src/contarcts/2Pack.sol\":1307:1317  msg.sender */\n      caller\n        /* \"projects/2Pack/src/contarcts/2Pack.sol\":1299:1318  postMap[msg.sender] */\n      0xffffffffffffffffffffffffffffffffffffffff\n      and\n      0xffffffffffffffffffffffffffffffffffffffff\n      and\n      dup2\n      mstore\n      0x20\n      add\n      swap1\n      dup2\n      mstore\n      0x20\n      add\n      0x00\n      keccak256\n        /* \"projects/2Pack/src/contarcts/2Pack.sol\":1299:1324  postMap[msg.sender].pop() */\n      dup1\n      sload\n      dup1\n      tag_48\n      jumpi\n      tag_49\n      tag_50\n      jump\t// in\n    tag_49:\n    tag_48:\n      0x01\n      swap1\n      sub\n      dup2\n      dup2\n      swap1\n      0x00\n      mstore\n      keccak256(0x00, 0x20)\n      swap1\n      0x04\n      mul\n      add\n      0x00\n      dup1\n      dup3\n      add\n      0x00\n      swap1\n      sstore\n      0x01\n      dup3\n      add\n      exp(0x0100, 0x00)\n      dup2\n      sload\n      swap1\n      0xffffffffffffffffffffffffffffffffffffffff\n      mul\n      not\n      and\n      swap1\n      sstore\n      0x02\n      dup3\n      add\n      0x00\n      swap1\n      sstore\n      0x03\n      dup3\n      add\n      0x00\n      swap1\n      sstore\n      pop\n      pop\n      swap1\n      sstore\n        /* \"projects/2Pack/src/contarcts/2Pack.sol\":1161:1428  if (_postID==postMap[msg.sender][i].postID){... */\n      jump(tag_52)\n    tag_39:\n        /* \"projects/2Pack/src/contarcts/2Pack.sol\":1387:1394  return; */\n      pop\n      jump(tag_27)\n        /* \"projects/2Pack/src/contarcts/2Pack.sol\":1161:1428  if (_postID==postMap[msg.sender][i].postID){... */\n    tag_52:\n        /* \"projects/2Pack/src/contarcts/2Pack.sol\":1139:1142  i++ */\n      dup1\n      dup1\n      tag_53\n      swap1\n      tag_54\n      jump\t// in\n    tag_53:\n      swap2\n      pop\n      pop\n        /* \"projects/2Pack/src/contarcts/2Pack.sol\":1081:1442  for (uint i = _postID; i< (postMap[msg.sender]).length-1; i++){... */\n      jump(tag_30)\n    tag_31:\n      pop\n        /* \"projects/2Pack/src/contarcts/2Pack.sol\":853:1458  function deletePost(uint _postID) public{... */\n    tag_27:\n      pop\n      jump\t// out\n        /* \"projects/2Pack/src/contarcts/2Pack.sol\":384:677  function createPost(uint _postPrice) public{  ... */\n    tag_14:\n        /* \"projects/2Pack/src/contarcts/2Pack.sol\":439:458  Post memory newPost */\n      0x00\n        /* \"projects/2Pack/src/contarcts/2Pack.sol\":461:582  Post({postID: currentPostID, postAuthor: msg.sender,... */\n      mload(0x40)\n      dup1\n      0x80\n      add\n      0x40\n      mstore\n      dup1\n        /* \"projects/2Pack/src/contarcts/2Pack.sol\":475:488  currentPostID */\n      sload(0x00)\n        /* \"projects/2Pack/src/contarcts/2Pack.sol\":461:582  Post({postID: currentPostID, postAuthor: msg.sender,... */\n      dup2\n      mstore\n      0x20\n      add\n        /* \"projects/2Pack/src/contarcts/2Pack.sol\":502:512  msg.sender */\n      caller\n        /* \"projects/2Pack/src/contarcts/2Pack.sol\":461:582  Post({postID: currentPostID, postAuthor: msg.sender,... */\n      0xffffffffffffffffffffffffffffffffffffffff\n      and\n      dup2\n      mstore\n      0x20\n      add\n        /* \"projects/2Pack/src/contarcts/2Pack.sol\":533:543  _postPrice */\n      dup4\n        /* \"projects/2Pack/src/contarcts/2Pack.sol\":461:582  Post({postID: currentPostID, postAuthor: msg.sender,... */\n      dup2\n      mstore\n      0x20\n      add\n        /* \"projects/2Pack/src/contarcts/2Pack.sol\":565:580  block.timestamp */\n      timestamp\n        /* \"projects/2Pack/src/contarcts/2Pack.sol\":461:582  Post({postID: currentPostID, postAuthor: msg.sender,... */\n      dup2\n      mstore\n      pop\n        /* \"projects/2Pack/src/contarcts/2Pack.sol\":439:582  Post memory newPost = Post({postID: currentPostID, postAuthor: msg.sender,... */\n      swap1\n      pop\n        /* \"projects/2Pack/src/contarcts/2Pack.sol\":592:599  postMap */\n      0x01\n        /* \"projects/2Pack/src/contarcts/2Pack.sol\":592:611  postMap[msg.sender] */\n      0x00\n        /* \"projects/2Pack/src/contarcts/2Pack.sol\":600:610  msg.sender */\n      caller\n        /* \"projects/2Pack/src/contarcts/2Pack.sol\":592:611  postMap[msg.sender] */\n      0xffffffffffffffffffffffffffffffffffffffff\n      and\n      0xffffffffffffffffffffffffffffffffffffffff\n      and\n      dup2\n      mstore\n      0x20\n      add\n      swap1\n      dup2\n      mstore\n      0x20\n      add\n      0x00\n      keccak256\n        /* \"projects/2Pack/src/contarcts/2Pack.sol\":617:624  newPost */\n      dup2\n        /* \"projects/2Pack/src/contarcts/2Pack.sol\":592:625  postMap[msg.sender].push(newPost) */\n      swap1\n      dup1\n      0x01\n      dup2\n      sload\n      add\n      dup1\n      dup3\n      sstore\n      dup1\n      swap2\n      pop\n      pop\n      0x01\n      swap1\n      sub\n      swap1\n      0x00\n      mstore\n      keccak256(0x00, 0x20)\n      swap1\n      0x04\n      mul\n      add\n      0x00\n      swap1\n      swap2\n      swap1\n      swap2\n      swap1\n      swap2\n      pop\n      0x00\n      dup3\n      add\n      mload\n      dup2\n      0x00\n      add\n      sstore\n      0x20\n      dup3\n      add\n      mload\n      dup2\n      0x01\n      add\n      exp(0x0100, 0x00)\n      dup2\n      sload\n      dup2\n      0xffffffffffffffffffffffffffffffffffffffff\n      mul\n      not\n      and\n      swap1\n      dup4\n      0xffffffffffffffffffffffffffffffffffffffff\n      and\n      mul\n      or\n      swap1\n      sstore\n      pop\n      0x40\n      dup3\n      add\n      mload\n      dup2\n      0x02\n      add\n      sstore\n      0x60\n      dup3\n      add\n      mload\n      dup2\n      0x03\n      add\n      sstore\n      pop\n      pop\n        /* \"projects/2Pack/src/contarcts/2Pack.sol\":666:667  1 */\n      0x01\n        /* \"projects/2Pack/src/contarcts/2Pack.sol\":651:664  currentPostID */\n      sload(0x00)\n        /* \"projects/2Pack/src/contarcts/2Pack.sol\":651:667  currentPostID +1 */\n      tag_57\n      swap2\n      swap1\n      tag_41\n      jump\t// in\n    tag_57:\n        /* \"projects/2Pack/src/contarcts/2Pack.sol\":635:648  currentPostID */\n      0x00\n        /* \"projects/2Pack/src/contarcts/2Pack.sol\":635:667  currentPostID = currentPostID +1 */\n      dup2\n      swap1\n      sstore\n      pop\n        /* \"projects/2Pack/src/contarcts/2Pack.sol\":427:677  {  ... */\n      pop\n        /* \"projects/2Pack/src/contarcts/2Pack.sol\":384:677  function createPost(uint _postPrice) public{  ... */\n      pop\n      jump\t// out\n        /* \"projects/2Pack/src/contarcts/2Pack.sol\":307:332  uint public currentPostID */\n    tag_16:\n      sload(0x00)\n      dup2\n      jump\t// out\n        /* \"projects/2Pack/src/contarcts/2Pack.sol\":1464:2024  function changePrice(uint _postID, uint newPostPrice) public{... */\n    tag_22:\n        /* \"projects/2Pack/src/contarcts/2Pack.sol\":1550:1557  postMap */\n      0x01\n        /* \"projects/2Pack/src/contarcts/2Pack.sol\":1550:1569  postMap[msg.sender] */\n      0x00\n        /* \"projects/2Pack/src/contarcts/2Pack.sol\":1558:1568  msg.sender */\n      caller\n        /* \"projects/2Pack/src/contarcts/2Pack.sol\":1550:1569  postMap[msg.sender] */\n      0xffffffffffffffffffffffffffffffffffffffff\n      and\n      0xffffffffffffffffffffffffffffffffffffffff\n      and\n      dup2\n      mstore\n      0x20\n      add\n      swap1\n      dup2\n      mstore\n      0x20\n      add\n      0x00\n      keccak256\n        /* \"projects/2Pack/src/contarcts/2Pack.sol\":1549:1577  (postMap[msg.sender]).length */\n      dup1\n      sload\n      swap1\n      pop\n        /* \"projects/2Pack/src/contarcts/2Pack.sol\":1538:1545  _postID */\n      dup3\n        /* \"projects/2Pack/src/contarcts/2Pack.sol\":1538:1577  _postID >= (postMap[msg.sender]).length */\n      lt\n        /* \"projects/2Pack/src/contarcts/2Pack.sol\":1534:2018  if (_postID >= (postMap[msg.sender]).length) return;... */\n      tag_59\n      jumpi\n        /* \"projects/2Pack/src/contarcts/2Pack.sol\":1579:1586  return; */\n      jump(tag_58)\n        /* \"projects/2Pack/src/contarcts/2Pack.sol\":1534:2018  if (_postID >= (postMap[msg.sender]).length) return;... */\n    tag_59:\n        /* \"projects/2Pack/src/contarcts/2Pack.sol\":1718:1724  uint i */\n      0x00\n        /* \"projects/2Pack/src/contarcts/2Pack.sol\":1713:2008  for (uint i; i< (postMap[msg.sender]).length; i++){... */\n    tag_61:\n        /* \"projects/2Pack/src/contarcts/2Pack.sol\":1730:1737  postMap */\n      0x01\n        /* \"projects/2Pack/src/contarcts/2Pack.sol\":1730:1749  postMap[msg.sender] */\n      0x00\n        /* \"projects/2Pack/src/contarcts/2Pack.sol\":1738:1748  msg.sender */\n      caller\n        /* \"projects/2Pack/src/contarcts/2Pack.sol\":1730:1749  postMap[msg.sender] */\n      0xffffffffffffffffffffffffffffffffffffffff\n      and\n      0xffffffffffffffffffffffffffffffffffffffff\n      and\n      dup2\n      mstore\n      0x20\n      add\n      swap1\n      dup2\n      mstore\n      0x20\n      add\n      0x00\n      keccak256\n        /* \"projects/2Pack/src/contarcts/2Pack.sol\":1729:1757  (postMap[msg.sender]).length */\n      dup1\n      sload\n      swap1\n      pop\n        /* \"projects/2Pack/src/contarcts/2Pack.sol\":1726:1727  i */\n      dup2\n        /* \"projects/2Pack/src/contarcts/2Pack.sol\":1726:1757  i< (postMap[msg.sender]).length */\n      lt\n        /* \"projects/2Pack/src/contarcts/2Pack.sol\":1713:2008  for (uint i; i< (postMap[msg.sender]).length; i++){... */\n      iszero\n      tag_62\n      jumpi\n        /* \"projects/2Pack/src/contarcts/2Pack.sol\":1794:1801  postMap */\n      0x01\n        /* \"projects/2Pack/src/contarcts/2Pack.sol\":1794:1813  postMap[msg.sender] */\n      0x00\n        /* \"projects/2Pack/src/contarcts/2Pack.sol\":1802:1812  msg.sender */\n      caller\n        /* \"projects/2Pack/src/contarcts/2Pack.sol\":1794:1813  postMap[msg.sender] */\n      0xffffffffffffffffffffffffffffffffffffffff\n      and\n      0xffffffffffffffffffffffffffffffffffffffff\n      and\n      dup2\n      mstore\n      0x20\n      add\n      swap1\n      dup2\n      mstore\n      0x20\n      add\n      0x00\n      keccak256\n        /* \"projects/2Pack/src/contarcts/2Pack.sol\":1814:1815  i */\n      dup2\n        /* \"projects/2Pack/src/contarcts/2Pack.sol\":1794:1816  postMap[msg.sender][i] */\n      dup2\n      sload\n      dup2\n      lt\n      tag_64\n      jumpi\n      tag_65\n      tag_37\n      jump\t// in\n    tag_65:\n    tag_64:\n      swap1\n      0x00\n      mstore\n      keccak256(0x00, 0x20)\n      swap1\n      0x04\n      mul\n      add\n        /* \"projects/2Pack/src/contarcts/2Pack.sol\":1794:1823  postMap[msg.sender][i].postID */\n      0x00\n      add\n      sload\n        /* \"projects/2Pack/src/contarcts/2Pack.sol\":1785:1792  _postID */\n      dup4\n        /* \"projects/2Pack/src/contarcts/2Pack.sol\":1785:1823  _postID==postMap[msg.sender][i].postID */\n      eq\n        /* \"projects/2Pack/src/contarcts/2Pack.sol\":1781:1994  if (_postID==postMap[msg.sender][i].postID){... */\n      iszero\n      tag_67\n      jumpi\n        /* \"projects/2Pack/src/contarcts/2Pack.sol\":1879:1891  newPostPrice */\n      dup2\n        /* \"projects/2Pack/src/contarcts/2Pack.sol\":1846:1853  postMap */\n      0x01\n        /* \"projects/2Pack/src/contarcts/2Pack.sol\":1846:1865  postMap[msg.sender] */\n      0x00\n        /* \"projects/2Pack/src/contarcts/2Pack.sol\":1854:1864  msg.sender */\n      caller\n        /* \"projects/2Pack/src/contarcts/2Pack.sol\":1846:1865  postMap[msg.sender] */\n      0xffffffffffffffffffffffffffffffffffffffff\n      and\n      0xffffffffffffffffffffffffffffffffffffffff\n      and\n      dup2\n      mstore\n      0x20\n      add\n      swap1\n      dup2\n      mstore\n      0x20\n      add\n      0x00\n      keccak256\n        /* \"projects/2Pack/src/contarcts/2Pack.sol\":1866:1867  i */\n      dup3\n        /* \"projects/2Pack/src/contarcts/2Pack.sol\":1846:1868  postMap[msg.sender][i] */\n      dup2\n      sload\n      dup2\n      lt\n      tag_68\n      jumpi\n      tag_69\n      tag_37\n      jump\t// in\n    tag_69:\n    tag_68:\n      swap1\n      0x00\n      mstore\n      keccak256(0x00, 0x20)\n      swap1\n      0x04\n      mul\n      add\n        /* \"projects/2Pack/src/contarcts/2Pack.sol\":1846:1878  postMap[msg.sender][i].postPrice */\n      0x02\n      add\n        /* \"projects/2Pack/src/contarcts/2Pack.sol\":1846:1891  postMap[msg.sender][i].postPrice=newPostPrice */\n      dup2\n      swap1\n      sstore\n      pop\n        /* \"projects/2Pack/src/contarcts/2Pack.sol\":1781:1994  if (_postID==postMap[msg.sender][i].postID){... */\n      jump(tag_71)\n    tag_67:\n        /* \"projects/2Pack/src/contarcts/2Pack.sol\":1953:1960  return; */\n      pop\n      jump(tag_58)\n        /* \"projects/2Pack/src/contarcts/2Pack.sol\":1781:1994  if (_postID==postMap[msg.sender][i].postID){... */\n    tag_71:\n        /* \"projects/2Pack/src/contarcts/2Pack.sol\":1759:1762  i++ */\n      dup1\n      dup1\n      tag_72\n      swap1\n      tag_54\n      jump\t// in\n    tag_72:\n      swap2\n      pop\n      pop\n        /* \"projects/2Pack/src/contarcts/2Pack.sol\":1713:2008  for (uint i; i< (postMap[msg.sender]).length; i++){... */\n      jump(tag_61)\n    tag_62:\n      pop\n        /* \"projects/2Pack/src/contarcts/2Pack.sol\":1464:2024  function changePrice(uint _postID, uint newPostPrice) public{... */\n    tag_58:\n      pop\n      pop\n      jump\t// out\n        /* \"projects/2Pack/src/contarcts/2Pack.sol\":684:846  function getUserPosts() view public returns (Post[] memory ){... */\n    tag_24:\n        /* \"projects/2Pack/src/contarcts/2Pack.sol\":729:742  Post[] memory */\n      0x60\n        /* \"projects/2Pack/src/contarcts/2Pack.sol\":820:827  postMap */\n      0x01\n        /* \"projects/2Pack/src/contarcts/2Pack.sol\":820:839  postMap[msg.sender] */\n      0x00\n        /* \"projects/2Pack/src/contarcts/2Pack.sol\":828:838  msg.sender */\n      caller\n        /* \"projects/2Pack/src/contarcts/2Pack.sol\":820:839  postMap[msg.sender] */\n      0xffffffffffffffffffffffffffffffffffffffff\n      and\n      0xffffffffffffffffffffffffffffffffffffffff\n      and\n      dup2\n      mstore\n      0x20\n      add\n      swap1\n      dup2\n      mstore\n      0x20\n      add\n      0x00\n      keccak256\n        /* \"projects/2Pack/src/contarcts/2Pack.sol\":812:839  return  postMap[msg.sender] */\n      dup1\n      sload\n      dup1\n      0x20\n      mul\n      0x20\n      add\n      mload(0x40)\n      swap1\n      dup2\n      add\n      0x40\n      mstore\n      dup1\n      swap3\n      swap2\n      swap1\n      dup2\n      dup2\n      mstore\n      0x20\n      add\n      0x00\n      swap1\n    tag_74:\n      dup3\n      dup3\n      lt\n      iszero\n      tag_75\n      jumpi\n      dup4\n      dup3\n      swap1\n      0x00\n      mstore\n      keccak256(0x00, 0x20)\n      swap1\n      0x04\n      mul\n      add\n      mload(0x40)\n      dup1\n      0x80\n      add\n      0x40\n      mstore\n      swap1\n      dup2\n      0x00\n      dup3\n      add\n      sload\n      dup2\n      mstore\n      0x20\n      add\n      0x01\n      dup3\n      add\n      0x00\n      swap1\n      sload\n      swap1\n      0x0100\n      exp\n      swap1\n      div\n      0xffffffffffffffffffffffffffffffffffffffff\n      and\n      0xffffffffffffffffffffffffffffffffffffffff\n      and\n      0xffffffffffffffffffffffffffffffffffffffff\n      and\n      dup2\n      mstore\n      0x20\n      add\n      0x02\n      dup3\n      add\n      sload\n      dup2\n      mstore\n      0x20\n      add\n      0x03\n      dup3\n      add\n      sload\n      dup2\n      mstore\n      pop\n      pop\n      dup2\n      mstore\n      0x20\n      add\n      swap1\n      0x01\n      add\n      swap1\n      jump(tag_74)\n    tag_75:\n      pop\n      pop\n      pop\n      pop\n      swap1\n      pop\n        /* \"projects/2Pack/src/contarcts/2Pack.sol\":684:846  function getUserPosts() view public returns (Post[] memory ){... */\n      swap1\n      jump\t// out\n        /* \"#utility.yul\":7:146   */\n    tag_78:\n        /* \"#utility.yul\":53:58   */\n      0x00\n        /* \"#utility.yul\":91:97   */\n      dup2\n        /* \"#utility.yul\":78:98   */\n      calldataload\n        /* \"#utility.yul\":69:98   */\n      swap1\n      pop\n        /* \"#utility.yul\":107:140   */\n      tag_80\n        /* \"#utility.yul\":134:139   */\n      dup2\n        /* \"#utility.yul\":107:140   */\n      tag_81\n      jump\t// in\n    tag_80:\n        /* \"#utility.yul\":7:146   */\n      swap3\n      swap2\n      pop\n      pop\n      jump\t// out\n        /* \"#utility.yul\":152:481   */\n    tag_10:\n        /* \"#utility.yul\":211:217   */\n      0x00\n        /* \"#utility.yul\":260:262   */\n      0x20\n        /* \"#utility.yul\":248:257   */\n      dup3\n        /* \"#utility.yul\":239:246   */\n      dup5\n        /* \"#utility.yul\":235:258   */\n      sub\n        /* \"#utility.yul\":231:263   */\n      slt\n        /* \"#utility.yul\":228:347   */\n      iszero\n      tag_83\n      jumpi\n        /* \"#utility.yul\":266:345   */\n      tag_84\n      tag_85\n      jump\t// in\n    tag_84:\n        /* \"#utility.yul\":228:347   */\n    tag_83:\n        /* \"#utility.yul\":386:387   */\n      0x00\n        /* \"#utility.yul\":411:464   */\n      tag_86\n        /* \"#utility.yul\":456:463   */\n      dup5\n        /* \"#utility.yul\":447:453   */\n      dup3\n        /* \"#utility.yul\":436:445   */\n      dup6\n        /* \"#utility.yul\":432:454   */\n      add\n        /* \"#utility.yul\":411:464   */\n      tag_78\n      jump\t// in\n    tag_86:\n        /* \"#utility.yul\":401:464   */\n      swap2\n      pop\n        /* \"#utility.yul\":357:474   */\n      pop\n        /* \"#utility.yul\":152:481   */\n      swap3\n      swap2\n      pop\n      pop\n      jump\t// out\n        /* \"#utility.yul\":487:961   */\n    tag_21:\n        /* \"#utility.yul\":555:561   */\n      0x00\n        /* \"#utility.yul\":563:569   */\n      dup1\n        /* \"#utility.yul\":612:614   */\n      0x40\n        /* \"#utility.yul\":600:609   */\n      dup4\n        /* \"#utility.yul\":591:598   */\n      dup6\n        /* \"#utility.yul\":587:610   */\n      sub\n        /* \"#utility.yul\":583:615   */\n      slt\n        /* \"#utility.yul\":580:699   */\n      iszero\n      tag_88\n      jumpi\n        /* \"#utility.yul\":618:697   */\n      tag_89\n      tag_85\n      jump\t// in\n    tag_89:\n        /* \"#utility.yul\":580:699   */\n    tag_88:\n        /* \"#utility.yul\":738:739   */\n      0x00\n        /* \"#utility.yul\":763:816   */\n      tag_90\n        /* \"#utility.yul\":808:815   */\n      dup6\n        /* \"#utility.yul\":799:805   */\n      dup3\n        /* \"#utility.yul\":788:797   */\n      dup7\n        /* \"#utility.yul\":784:806   */\n      add\n        /* \"#utility.yul\":763:816   */\n      tag_78\n      jump\t// in\n    tag_90:\n        /* \"#utility.yul\":753:816   */\n      swap3\n      pop\n        /* \"#utility.yul\":709:826   */\n      pop\n        /* \"#utility.yul\":865:867   */\n      0x20\n        /* \"#utility.yul\":891:944   */\n      tag_91\n        /* \"#utility.yul\":936:943   */\n      dup6\n        /* \"#utility.yul\":927:933   */\n      dup3\n        /* \"#utility.yul\":916:925   */\n      dup7\n        /* \"#utility.yul\":912:934   */\n      add\n        /* \"#utility.yul\":891:944   */\n      tag_78\n      jump\t// in\n    tag_91:\n        /* \"#utility.yul\":881:944   */\n      swap2\n      pop\n        /* \"#utility.yul\":836:954   */\n      pop\n        /* \"#utility.yul\":487:961   */\n      swap3\n      pop\n      swap3\n      swap1\n      pop\n      jump\t// out\n        /* \"#utility.yul\":967:1226   */\n    tag_92:\n        /* \"#utility.yul\":1076:1086   */\n      0x00\n        /* \"#utility.yul\":1097:1183   */\n      tag_94\n        /* \"#utility.yul\":1179:1182   */\n      dup4\n        /* \"#utility.yul\":1171:1177   */\n      dup4\n        /* \"#utility.yul\":1097:1183   */\n      tag_95\n      jump\t// in\n    tag_94:\n        /* \"#utility.yul\":1215:1219   */\n      0x80\n        /* \"#utility.yul\":1210:1213   */\n      dup4\n        /* \"#utility.yul\":1206:1220   */\n      add\n        /* \"#utility.yul\":1192:1220   */\n      swap1\n      pop\n        /* \"#utility.yul\":967:1226   */\n      swap3\n      swap2\n      pop\n      pop\n      jump\t// out\n        /* \"#utility.yul\":1232:1340   */\n    tag_96:\n        /* \"#utility.yul\":1309:1333   */\n      tag_98\n        /* \"#utility.yul\":1327:1332   */\n      dup2\n        /* \"#utility.yul\":1309:1333   */\n      tag_99\n      jump\t// in\n    tag_98:\n        /* \"#utility.yul\":1304:1307   */\n      dup3\n        /* \"#utility.yul\":1297:1334   */\n      mstore\n        /* \"#utility.yul\":1232:1340   */\n      pop\n      pop\n      jump\t// out\n        /* \"#utility.yul\":1394:2286   */\n    tag_100:\n        /* \"#utility.yul\":1553:1556   */\n      0x00\n        /* \"#utility.yul\":1582:1656   */\n      tag_102\n        /* \"#utility.yul\":1650:1655   */\n      dup3\n        /* \"#utility.yul\":1582:1656   */\n      tag_103\n      jump\t// in\n    tag_102:\n        /* \"#utility.yul\":1672:1778   */\n      tag_104\n        /* \"#utility.yul\":1771:1777   */\n      dup2\n        /* \"#utility.yul\":1766:1769   */\n      dup6\n        /* \"#utility.yul\":1672:1778   */\n      tag_105\n      jump\t// in\n    tag_104:\n        /* \"#utility.yul\":1665:1778   */\n      swap4\n      pop\n        /* \"#utility.yul\":1802:1878   */\n      tag_106\n        /* \"#utility.yul\":1872:1877   */\n      dup4\n        /* \"#utility.yul\":1802:1878   */\n      tag_107\n      jump\t// in\n    tag_106:\n        /* \"#utility.yul\":1901:1908   */\n      dup1\n        /* \"#utility.yul\":1932:1933   */\n      0x00\n        /* \"#utility.yul\":1917:2261   */\n    tag_108:\n        /* \"#utility.yul\":1942:1948   */\n      dup4\n        /* \"#utility.yul\":1939:1940   */\n      dup2\n        /* \"#utility.yul\":1936:1949   */\n      lt\n        /* \"#utility.yul\":1917:2261   */\n      iszero\n      tag_110\n      jumpi\n        /* \"#utility.yul\":2018:2024   */\n      dup2\n        /* \"#utility.yul\":2012:2025   */\n      mload\n        /* \"#utility.yul\":2045:2148   */\n      tag_111\n        /* \"#utility.yul\":2144:2147   */\n      dup9\n        /* \"#utility.yul\":2129:2142   */\n      dup3\n        /* \"#utility.yul\":2045:2148   */\n      tag_92\n      jump\t// in\n    tag_111:\n        /* \"#utility.yul\":2038:2148   */\n      swap8\n      pop\n        /* \"#utility.yul\":2171:2251   */\n      tag_112\n        /* \"#utility.yul\":2244:2250   */\n      dup4\n        /* \"#utility.yul\":2171:2251   */\n      tag_113\n      jump\t// in\n    tag_112:\n        /* \"#utility.yul\":2161:2251   */\n      swap3\n      pop\n        /* \"#utility.yul\":1977:2261   */\n      pop\n        /* \"#utility.yul\":1964:1965   */\n      0x01\n        /* \"#utility.yul\":1961:1962   */\n      dup2\n        /* \"#utility.yul\":1957:1966   */\n      add\n        /* \"#utility.yul\":1952:1966   */\n      swap1\n      pop\n        /* \"#utility.yul\":1917:2261   */\n      jump(tag_108)\n    tag_110:\n        /* \"#utility.yul\":1921:1935   */\n      pop\n        /* \"#utility.yul\":2277:2280   */\n      dup6\n        /* \"#utility.yul\":2270:2280   */\n      swap4\n      pop\n        /* \"#utility.yul\":1558:2286   */\n      pop\n      pop\n      pop\n        /* \"#utility.yul\":1394:2286   */\n      swap3\n      swap2\n      pop\n      pop\n      jump\t// out\n        /* \"#utility.yul\":2336:3196   */\n    tag_95:\n        /* \"#utility.yul\":2463:2467   */\n      0x80\n        /* \"#utility.yul\":2458:2461   */\n      dup3\n        /* \"#utility.yul\":2454:2468   */\n      add\n        /* \"#utility.yul\":2552:2556   */\n      0x00\n        /* \"#utility.yul\":2545:2550   */\n      dup3\n        /* \"#utility.yul\":2541:2557   */\n      add\n        /* \"#utility.yul\":2535:2558   */\n      mload\n        /* \"#utility.yul\":2571:2634   */\n      tag_115\n        /* \"#utility.yul\":2628:2632   */\n      0x00\n        /* \"#utility.yul\":2623:2626   */\n      dup6\n        /* \"#utility.yul\":2619:2633   */\n      add\n        /* \"#utility.yul\":2605:2617   */\n      dup3\n        /* \"#utility.yul\":2571:2634   */\n      tag_116\n      jump\t// in\n    tag_115:\n        /* \"#utility.yul\":2478:2644   */\n      pop\n        /* \"#utility.yul\":2732:2736   */\n      0x20\n        /* \"#utility.yul\":2725:2730   */\n      dup3\n        /* \"#utility.yul\":2721:2737   */\n      add\n        /* \"#utility.yul\":2715:2738   */\n      mload\n        /* \"#utility.yul\":2751:2814   */\n      tag_117\n        /* \"#utility.yul\":2808:2812   */\n      0x20\n        /* \"#utility.yul\":2803:2806   */\n      dup6\n        /* \"#utility.yul\":2799:2813   */\n      add\n        /* \"#utility.yul\":2785:2797   */\n      dup3\n        /* \"#utility.yul\":2751:2814   */\n      tag_96\n      jump\t// in\n    tag_117:\n        /* \"#utility.yul\":2654:2824   */\n      pop\n        /* \"#utility.yul\":2911:2915   */\n      0x40\n        /* \"#utility.yul\":2904:2909   */\n      dup3\n        /* \"#utility.yul\":2900:2916   */\n      add\n        /* \"#utility.yul\":2894:2917   */\n      mload\n        /* \"#utility.yul\":2930:2993   */\n      tag_118\n        /* \"#utility.yul\":2987:2991   */\n      0x40\n        /* \"#utility.yul\":2982:2985   */\n      dup6\n        /* \"#utility.yul\":2978:2992   */\n      add\n        /* \"#utility.yul\":2964:2976   */\n      dup3\n        /* \"#utility.yul\":2930:2993   */\n      tag_116\n      jump\t// in\n    tag_118:\n        /* \"#utility.yul\":2834:3003   */\n      pop\n        /* \"#utility.yul\":3097:3101   */\n      0x60\n        /* \"#utility.yul\":3090:3095   */\n      dup3\n        /* \"#utility.yul\":3086:3102   */\n      add\n        /* \"#utility.yul\":3080:3103   */\n      mload\n        /* \"#utility.yul\":3116:3179   */\n      tag_119\n        /* \"#utility.yul\":3173:3177   */\n      0x60\n        /* \"#utility.yul\":3168:3171   */\n      dup6\n        /* \"#utility.yul\":3164:3178   */\n      add\n        /* \"#utility.yul\":3150:3162   */\n      dup3\n        /* \"#utility.yul\":3116:3179   */\n      tag_116\n      jump\t// in\n    tag_119:\n        /* \"#utility.yul\":3013:3189   */\n      pop\n        /* \"#utility.yul\":2432:3196   */\n      pop\n        /* \"#utility.yul\":2336:3196   */\n      pop\n      pop\n      jump\t// out\n        /* \"#utility.yul\":3202:3310   */\n    tag_116:\n        /* \"#utility.yul\":3279:3303   */\n      tag_121\n        /* \"#utility.yul\":3297:3302   */\n      dup2\n        /* \"#utility.yul\":3279:3303   */\n      tag_122\n      jump\t// in\n    tag_121:\n        /* \"#utility.yul\":3274:3277   */\n      dup3\n        /* \"#utility.yul\":3267:3304   */\n      mstore\n        /* \"#utility.yul\":3202:3310   */\n      pop\n      pop\n      jump\t// out\n        /* \"#utility.yul\":3316:3434   */\n    tag_123:\n        /* \"#utility.yul\":3403:3427   */\n      tag_125\n        /* \"#utility.yul\":3421:3426   */\n      dup2\n        /* \"#utility.yul\":3403:3427   */\n      tag_122\n      jump\t// in\n    tag_125:\n        /* \"#utility.yul\":3398:3401   */\n      dup3\n        /* \"#utility.yul\":3391:3428   */\n      mstore\n        /* \"#utility.yul\":3316:3434   */\n      pop\n      pop\n      jump\t// out\n        /* \"#utility.yul\":3440:3893   */\n    tag_26:\n        /* \"#utility.yul\":3623:3627   */\n      0x00\n        /* \"#utility.yul\":3661:3663   */\n      0x20\n        /* \"#utility.yul\":3650:3659   */\n      dup3\n        /* \"#utility.yul\":3646:3664   */\n      add\n        /* \"#utility.yul\":3638:3664   */\n      swap1\n      pop\n        /* \"#utility.yul\":3710:3719   */\n      dup2\n        /* \"#utility.yul\":3704:3708   */\n      dup2\n        /* \"#utility.yul\":3700:3720   */\n      sub\n        /* \"#utility.yul\":3696:3697   */\n      0x00\n        /* \"#utility.yul\":3685:3694   */\n      dup4\n        /* \"#utility.yul\":3681:3698   */\n      add\n        /* \"#utility.yul\":3674:3721   */\n      mstore\n        /* \"#utility.yul\":3738:3886   */\n      tag_127\n        /* \"#utility.yul\":3881:3885   */\n      dup2\n        /* \"#utility.yul\":3872:3878   */\n      dup5\n        /* \"#utility.yul\":3738:3886   */\n      tag_100\n      jump\t// in\n    tag_127:\n        /* \"#utility.yul\":3730:3886   */\n      swap1\n      pop\n        /* \"#utility.yul\":3440:3893   */\n      swap3\n      swap2\n      pop\n      pop\n      jump\t// out\n        /* \"#utility.yul\":3899:4121   */\n    tag_18:\n        /* \"#utility.yul\":3992:3996   */\n      0x00\n        /* \"#utility.yul\":4030:4032   */\n      0x20\n        /* \"#utility.yul\":4019:4028   */\n      dup3\n        /* \"#utility.yul\":4015:4033   */\n      add\n        /* \"#utility.yul\":4007:4033   */\n      swap1\n      pop\n        /* \"#utility.yul\":4043:4114   */\n      tag_129\n        /* \"#utility.yul\":4111:4112   */\n      0x00\n        /* \"#utility.yul\":4100:4109   */\n      dup4\n        /* \"#utility.yul\":4096:4113   */\n      add\n        /* \"#utility.yul\":4087:4093   */\n      dup5\n        /* \"#utility.yul\":4043:4114   */\n      tag_123\n      jump\t// in\n    tag_129:\n        /* \"#utility.yul\":3899:4121   */\n      swap3\n      swap2\n      pop\n      pop\n      jump\t// out\n        /* \"#utility.yul\":4208:4360   */\n    tag_107:\n        /* \"#utility.yul\":4295:4299   */\n      0x00\n        /* \"#utility.yul\":4318:4321   */\n      dup2\n        /* \"#utility.yul\":4310:4321   */\n      swap1\n      pop\n        /* \"#utility.yul\":4348:4352   */\n      0x20\n        /* \"#utility.yul\":4343:4346   */\n      dup3\n        /* \"#utility.yul\":4339:4353   */\n      add\n        /* \"#utility.yul\":4331:4353   */\n      swap1\n      pop\n        /* \"#utility.yul\":4208:4360   */\n      swap2\n      swap1\n      pop\n      jump\t// out\n        /* \"#utility.yul\":4366:4500   */\n    tag_103:\n        /* \"#utility.yul\":4453:4459   */\n      0x00\n        /* \"#utility.yul\":4487:4492   */\n      dup2\n        /* \"#utility.yul\":4481:4493   */\n      mload\n        /* \"#utility.yul\":4471:4493   */\n      swap1\n      pop\n        /* \"#utility.yul\":4366:4500   */\n      swap2\n      swap1\n      pop\n      jump\t// out\n        /* \"#utility.yul\":4506:4639   */\n    tag_113:\n        /* \"#utility.yul\":4596:4600   */\n      0x00\n        /* \"#utility.yul\":4628:4632   */\n      0x20\n        /* \"#utility.yul\":4623:4626   */\n      dup3\n        /* \"#utility.yul\":4619:4633   */\n      add\n        /* \"#utility.yul\":4611:4633   */\n      swap1\n      pop\n        /* \"#utility.yul\":4506:4639   */\n      swap2\n      swap1\n      pop\n      jump\t// out\n        /* \"#utility.yul\":4645:4849   */\n    tag_105:\n        /* \"#utility.yul\":4764:4775   */\n      0x00\n        /* \"#utility.yul\":4798:4804   */\n      dup3\n        /* \"#utility.yul\":4793:4796   */\n      dup3\n        /* \"#utility.yul\":4786:4805   */\n      mstore\n        /* \"#utility.yul\":4838:4842   */\n      0x20\n        /* \"#utility.yul\":4833:4836   */\n      dup3\n        /* \"#utility.yul\":4829:4843   */\n      add\n        /* \"#utility.yul\":4814:4843   */\n      swap1\n      pop\n        /* \"#utility.yul\":4645:4849   */\n      swap3\n      swap2\n      pop\n      pop\n      jump\t// out\n        /* \"#utility.yul\":4855:5160   */\n    tag_41:\n        /* \"#utility.yul\":4895:4898   */\n      0x00\n        /* \"#utility.yul\":4914:4934   */\n      tag_137\n        /* \"#utility.yul\":4932:4933   */\n      dup3\n        /* \"#utility.yul\":4914:4934   */\n      tag_122\n      jump\t// in\n    tag_137:\n        /* \"#utility.yul\":4909:4934   */\n      swap2\n      pop\n        /* \"#utility.yul\":4948:4968   */\n      tag_138\n        /* \"#utility.yul\":4966:4967   */\n      dup4\n        /* \"#utility.yul\":4948:4968   */\n      tag_122\n      jump\t// in\n    tag_138:\n        /* \"#utility.yul\":4943:4968   */\n      swap3\n      pop\n        /* \"#utility.yul\":5102:5103   */\n      dup3\n        /* \"#utility.yul\":5034:5100   */\n      0xffffffffffffffffffffffffffffffffffffffffffffffffffffffffffffffff\n        /* \"#utility.yul\":5030:5104   */\n      sub\n        /* \"#utility.yul\":5027:5028   */\n      dup3\n        /* \"#utility.yul\":5024:5105   */\n      gt\n        /* \"#utility.yul\":5021:5128   */\n      iszero\n      tag_139\n      jumpi\n        /* \"#utility.yul\":5108:5126   */\n      tag_140\n      tag_141\n      jump\t// in\n    tag_140:\n        /* \"#utility.yul\":5021:5128   */\n    tag_139:\n        /* \"#utility.yul\":5152:5153   */\n      dup3\n        /* \"#utility.yul\":5149:5150   */\n      dup3\n        /* \"#utility.yul\":5145:5154   */\n      add\n        /* \"#utility.yul\":5138:5154   */\n      swap1\n      pop\n        /* \"#utility.yul\":4855:5160   */\n      swap3\n      swap2\n      pop\n      pop\n      jump\t// out\n        /* \"#utility.yul\":5166:5357   */\n    tag_34:\n        /* \"#utility.yul\":5206:5210   */\n      0x00\n        /* \"#utility.yul\":5226:5246   */\n      tag_143\n        /* \"#utility.yul\":5244:5245   */\n      dup3\n        /* \"#utility.yul\":5226:5246   */\n      tag_122\n      jump\t// in\n    tag_143:\n        /* \"#utility.yul\":5221:5246   */\n      swap2\n      pop\n        /* \"#utility.yul\":5260:5280   */\n      tag_144\n        /* \"#utility.yul\":5278:5279   */\n      dup4\n        /* \"#utility.yul\":5260:5280   */\n      tag_122\n      jump\t// in\n    tag_144:\n        /* \"#utility.yul\":5255:5280   */\n      swap3\n      pop\n        /* \"#utility.yul\":5299:5300   */\n      dup3\n        /* \"#utility.yul\":5296:5297   */\n      dup3\n        /* \"#utility.yul\":5293:5301   */\n      lt\n        /* \"#utility.yul\":5290:5324   */\n      iszero\n      tag_145\n      jumpi\n        /* \"#utility.yul\":5304:5322   */\n      tag_146\n      tag_141\n      jump\t// in\n    tag_146:\n        /* \"#utility.yul\":5290:5324   */\n    tag_145:\n        /* \"#utility.yul\":5349:5350   */\n      dup3\n        /* \"#utility.yul\":5346:5347   */\n      dup3\n        /* \"#utility.yul\":5342:5351   */\n      sub\n        /* \"#utility.yul\":5334:5351   */\n      swap1\n      pop\n        /* \"#utility.yul\":5166:5357   */\n      swap3\n      swap2\n      pop\n      pop\n      jump\t// out\n        /* \"#utility.yul\":5363:5459   */\n    tag_99:\n        /* \"#utility.yul\":5400:5407   */\n      0x00\n        /* \"#utility.yul\":5429:5453   */\n      tag_148\n        /* \"#utility.yul\":5447:5452   */\n      dup3\n        /* \"#utility.yul\":5429:5453   */\n      tag_149\n      jump\t// in\n    tag_148:\n        /* \"#utility.yul\":5418:5453   */\n      swap1\n      pop\n        /* \"#utility.yul\":5363:5459   */\n      swap2\n      swap1\n      pop\n      jump\t// out\n        /* \"#utility.yul\":5465:5591   */\n    tag_149:\n        /* \"#utility.yul\":5502:5509   */\n      0x00\n        /* \"#utility.yul\":5542:5584   */\n      0xffffffffffffffffffffffffffffffffffffffff\n        /* \"#utility.yul\":5535:5540   */\n      dup3\n        /* \"#utility.yul\":5531:5585   */\n      and\n        /* \"#utility.yul\":5520:5585   */\n      swap1\n      pop\n        /* \"#utility.yul\":5465:5591   */\n      swap2\n      swap1\n      pop\n      jump\t// out\n        /* \"#utility.yul\":5597:5674   */\n    tag_122:\n        /* \"#utility.yul\":5634:5641   */\n      0x00\n        /* \"#utility.yul\":5663:5668   */\n      dup2\n        /* \"#utility.yul\":5652:5668   */\n      swap1\n      pop\n        /* \"#utility.yul\":5597:5674   */\n      swap2\n      swap1\n      pop\n      jump\t// out\n        /* \"#utility.yul\":5680:5913   */\n    tag_54:\n        /* \"#utility.yul\":5719:5722   */\n      0x00\n        /* \"#utility.yul\":5742:5766   */\n      tag_153\n        /* \"#utility.yul\":5760:5765   */\n      dup3\n        /* \"#utility.yul\":5742:5766   */\n      tag_122\n      jump\t// in\n    tag_153:\n        /* \"#utility.yul\":5733:5766   */\n      swap2\n      pop\n        /* \"#utility.yul\":5788:5854   */\n      0xffffffffffffffffffffffffffffffffffffffffffffffffffffffffffffffff\n        /* \"#utility.yul\":5781:5786   */\n      dup3\n        /* \"#utility.yul\":5778:5855   */\n      eq\n        /* \"#utility.yul\":5775:5878   */\n      iszero\n      tag_154\n      jumpi\n        /* \"#utility.yul\":5858:5876   */\n      tag_155\n      tag_141\n      jump\t// in\n    tag_155:\n        /* \"#utility.yul\":5775:5878   */\n    tag_154:\n        /* \"#utility.yul\":5905:5906   */\n      0x01\n        /* \"#utility.yul\":5898:5903   */\n      dup3\n        /* \"#utility.yul\":5894:5907   */\n      add\n        /* \"#utility.yul\":5887:5907   */\n      swap1\n      pop\n        /* \"#utility.yul\":5680:5913   */\n      swap2\n      swap1\n      pop\n      jump\t// out\n        /* \"#utility.yul\":5919:6099   */\n    tag_141:\n        /* \"#utility.yul\":5967:6044   */\n      0x4e487b7100000000000000000000000000000000000000000000000000000000\n        /* \"#utility.yul\":5964:5965   */\n      0x00\n        /* \"#utility.yul\":5957:6045   */\n      mstore\n        /* \"#utility.yul\":6064:6068   */\n      0x11\n        /* \"#utility.yul\":6061:6062   */\n      0x04\n        /* \"#utility.yul\":6054:6069   */\n      mstore\n        /* \"#utility.yul\":6088:6092   */\n      0x24\n        /* \"#utility.yul\":6085:6086   */\n      0x00\n        /* \"#utility.yul\":6078:6093   */\n      revert\n        /* \"#utility.yul\":6105:6285   */\n    tag_50:\n        /* \"#utility.yul\":6153:6230   */\n      0x4e487b7100000000000000000000000000000000000000000000000000000000\n        /* \"#utility.yul\":6150:6151   */\n      0x00\n        /* \"#utility.yul\":6143:6231   */\n      mstore\n        /* \"#utility.yul\":6250:6254   */\n      0x31\n        /* \"#utility.yul\":6247:6248   */\n      0x04\n        /* \"#utility.yul\":6240:6255   */\n      mstore\n        /* \"#utility.yul\":6274:6278   */\n      0x24\n        /* \"#utility.yul\":6271:6272   */\n      0x00\n        /* \"#utility.yul\":6264:6279   */\n      revert\n        /* \"#utility.yul\":6291:6471   */\n    tag_37:\n        /* \"#utility.yul\":6339:6416   */\n      0x4e487b7100000000000000000000000000000000000000000000000000000000\n        /* \"#utility.yul\":6336:6337   */\n      0x00\n        /* \"#utility.yul\":6329:6417   */\n      mstore\n        /* \"#utility.yul\":6436:6440   */\n      0x32\n        /* \"#utility.yul\":6433:6434   */\n      0x04\n        /* \"#utility.yul\":6426:6441   */\n      mstore\n        /* \"#utility.yul\":6460:6464   */\n      0x24\n        /* \"#utility.yul\":6457:6458   */\n      0x00\n        /* \"#utility.yul\":6450:6465   */\n      revert\n        /* \"#utility.yul\":6600:6717   */\n    tag_85:\n        /* \"#utility.yul\":6709:6710   */\n      0x00\n        /* \"#utility.yul\":6706:6707   */\n      dup1\n        /* \"#utility.yul\":6699:6711   */\n      revert\n        /* \"#utility.yul\":6723:6845   */\n    tag_81:\n        /* \"#utility.yul\":6796:6820   */\n      tag_163\n        /* \"#utility.yul\":6814:6819   */\n      dup2\n        /* \"#utility.yul\":6796:6820   */\n      tag_122\n      jump\t// in\n    tag_163:\n        /* \"#utility.yul\":6789:6794   */\n      dup2\n        /* \"#utility.yul\":6786:6821   */\n      eq\n        /* \"#utility.yul\":6776:6839   */\n      tag_164\n      jumpi\n        /* \"#utility.yul\":6835:6836   */\n      0x00\n        /* \"#utility.yul\":6832:6833   */\n      dup1\n        /* \"#utility.yul\":6825:6837   */\n      revert\n        /* \"#utility.yul\":6776:6839   */\n    tag_164:\n        /* \"#utility.yul\":6723:6845   */\n      pop\n      jump\t// out\n\n    auxdata: 0xa2646970667358221220078914c09151a8fbab1af15384c46879257b717b4f334f983ee44e874e6f9c2664736f6c63430008070033\n}\n",
				"bytecode": {
					"linkReferences": {},
					"object": "608060405234801561001057600080fd5b50610bc5806100206000396000f3fe608060405234801561001057600080fd5b50600436106100575760003560e01c8063094cd5ee1461005c5780631d69bd4814610078578063664b104b14610094578063b3de019c146100b2578063cc4ef2cc146100ce575b600080fd5b610076600480360381019061007191906107fc565b6100ec565b005b610092600480360381019061008d91906107fc565b61041b565b005b61009c610541565b6040516100a99190610983565b60405180910390f35b6100cc60048036038101906100c79190610829565b610547565b005b6100d66106d7565b6040516100e39190610961565b60405180910390f35b600160003373ffffffffffffffffffffffffffffffffffffffff1673ffffffffffffffffffffffffffffffffffffffff16815260200190815260200160002080549050811061013a57610418565b60008190505b60018060003373ffffffffffffffffffffffffffffffffffffffff1673ffffffffffffffffffffffffffffffffffffffff1681526020019081526020016000208054905061018e9190610a2d565b81101561041657600160003373ffffffffffffffffffffffffffffffffffffffff1673ffffffffffffffffffffffffffffffffffffffff16815260200190815260200160002081815481106101e6576101e5610b44565b5b9060005260206000209060040201600001548214156103fd57600160003373ffffffffffffffffffffffffffffffffffffffff1673ffffffffffffffffffffffffffffffffffffffff16815260200190815260200160002060018261024b91906109d7565b8154811061025c5761025b610b44565b5b9060005260206000209060040201600160003373ffffffffffffffffffffffffffffffffffffffff1673ffffffffffffffffffffffffffffffffffffffff16815260200190815260200160002082815481106102bb576102ba610b44565b5b9060005260206000209060040201600082015481600001556001820160009054906101000a900473ffffffffffffffffffffffffffffffffffffffff168160010160006101000a81548173ffffffffffffffffffffffffffffffffffffffff021916908373ffffffffffffffffffffffffffffffffffffffff1602179055506002820154816002015560038201548160030155905050600160003373ffffffffffffffffffffffffffffffffffffffff1673ffffffffffffffffffffffffffffffffffffffff1681526020019081526020016000208054806103a05761039f610b15565b5b60019003818190600052602060002090600402016000808201600090556001820160006101000a81549073ffffffffffffffffffffffffffffffffffffffff02191690556002820160009055600382016000905550509055610403565b50610418565b808061040e90610a9d565b915050610140565b505b50565b6000604051806080016040528060005481526020013373ffffffffffffffffffffffffffffffffffffffff168152602001838152602001428152509050600160003373ffffffffffffffffffffffffffffffffffffffff1673ffffffffffffffffffffffffffffffffffffffff1681526020019081526020016000208190806001815401808255809150506001900390600052602060002090600402016000909190919091506000820151816000015560208201518160010160006101000a81548173ffffffffffffffffffffffffffffffffffffffff021916908373ffffffffffffffffffffffffffffffffffffffff16021790555060408201518160020155606082015181600301555050600160005461053791906109d7565b6000819055505050565b60005481565b600160003373ffffffffffffffffffffffffffffffffffffffff1673ffffffffffffffffffffffffffffffffffffffff168152602001908152602001600020805490508210610595576106d3565b60005b600160003373ffffffffffffffffffffffffffffffffffffffff1673ffffffffffffffffffffffffffffffffffffffff168152602001908152602001600020805490508110156106d157600160003373ffffffffffffffffffffffffffffffffffffffff1673ffffffffffffffffffffffffffffffffffffffff168152602001908152602001600020818154811061063357610632610b44565b5b9060005260206000209060040201600001548314156106b85781600160003373ffffffffffffffffffffffffffffffffffffffff1673ffffffffffffffffffffffffffffffffffffffff168152602001908152602001600020828154811061069e5761069d610b44565b5b9060005260206000209060040201600201819055506106be565b506106d3565b80806106c990610a9d565b915050610598565b505b5050565b6060600160003373ffffffffffffffffffffffffffffffffffffffff1673ffffffffffffffffffffffffffffffffffffffff168152602001908152602001600020805480602002602001604051908101604052809291908181526020016000905b828210156107de5783829060005260206000209060040201604051806080016040529081600082015481526020016001820160009054906101000a900473ffffffffffffffffffffffffffffffffffffffff1673ffffffffffffffffffffffffffffffffffffffff1673ffffffffffffffffffffffffffffffffffffffff1681526020016002820154815260200160038201548152505081526020019060010190610738565b50505050905090565b6000813590506107f681610b78565b92915050565b60006020828403121561081257610811610b73565b5b6000610820848285016107e7565b91505092915050565b600080604083850312156108405761083f610b73565b5b600061084e858286016107e7565b925050602061085f858286016107e7565b9150509250929050565b600061087583836108ee565b60808301905092915050565b61088a81610a61565b82525050565b600061089b826109ae565b6108a581856109c6565b93506108b08361099e565b8060005b838110156108e15781516108c88882610869565b97506108d3836109b9565b9250506001810190506108b4565b5085935050505092915050565b6080820160008201516109046000850182610943565b5060208201516109176020850182610881565b50604082015161092a6040850182610943565b50606082015161093d6060850182610943565b50505050565b61094c81610a93565b82525050565b61095b81610a93565b82525050565b6000602082019050818103600083015261097b8184610890565b905092915050565b60006020820190506109986000830184610952565b92915050565b6000819050602082019050919050565b600081519050919050565b6000602082019050919050565b600082825260208201905092915050565b60006109e282610a93565b91506109ed83610a93565b9250827fffffffffffffffffffffffffffffffffffffffffffffffffffffffffffffffff03821115610a2257610a21610ae6565b5b828201905092915050565b6000610a3882610a93565b9150610a4383610a93565b925082821015610a5657610a55610ae6565b5b828203905092915050565b6000610a6c82610a73565b9050919050565b600073ffffffffffffffffffffffffffffffffffffffff82169050919050565b6000819050919050565b6000610aa882610a93565b91507fffffffffffffffffffffffffffffffffffffffffffffffffffffffffffffffff821415610adb57610ada610ae6565b5b600182019050919050565b7f4e487b7100000000000000000000000000000000000000000000000000000000600052601160045260246000fd5b7f4e487b7100000000000000000000000000000000000000000000000000000000600052603160045260246000fd5b7f4e487b7100000000000000000000000000000000000000000000000000000000600052603260045260246000fd5b600080fd5b610b8181610a93565b8114610b8c57600080fd5b5056fea2646970667358221220078914c09151a8fbab1af15384c46879257b717b4f334f983ee44e874e6f9c2664736f6c63430008070033",
					"opcodes": "PUSH1 0x80 PUSH1 0x40 MSTORE CALLVALUE DUP1 ISZERO PUSH2 0x10 JUMPI PUSH1 0x0 DUP1 REVERT JUMPDEST POP PUSH2 0xBC5 DUP1 PUSH2 0x20 PUSH1 0x0 CODECOPY PUSH1 0x0 RETURN INVALID PUSH1 0x80 PUSH1 0x40 MSTORE CALLVALUE DUP1 ISZERO PUSH2 0x10 JUMPI PUSH1 0x0 DUP1 REVERT JUMPDEST POP PUSH1 0x4 CALLDATASIZE LT PUSH2 0x57 JUMPI PUSH1 0x0 CALLDATALOAD PUSH1 0xE0 SHR DUP1 PUSH4 0x94CD5EE EQ PUSH2 0x5C JUMPI DUP1 PUSH4 0x1D69BD48 EQ PUSH2 0x78 JUMPI DUP1 PUSH4 0x664B104B EQ PUSH2 0x94 JUMPI DUP1 PUSH4 0xB3DE019C EQ PUSH2 0xB2 JUMPI DUP1 PUSH4 0xCC4EF2CC EQ PUSH2 0xCE JUMPI JUMPDEST PUSH1 0x0 DUP1 REVERT JUMPDEST PUSH2 0x76 PUSH1 0x4 DUP1 CALLDATASIZE SUB DUP2 ADD SWAP1 PUSH2 0x71 SWAP2 SWAP1 PUSH2 0x7FC JUMP JUMPDEST PUSH2 0xEC JUMP JUMPDEST STOP JUMPDEST PUSH2 0x92 PUSH1 0x4 DUP1 CALLDATASIZE SUB DUP2 ADD SWAP1 PUSH2 0x8D SWAP2 SWAP1 PUSH2 0x7FC JUMP JUMPDEST PUSH2 0x41B JUMP JUMPDEST STOP JUMPDEST PUSH2 0x9C PUSH2 0x541 JUMP JUMPDEST PUSH1 0x40 MLOAD PUSH2 0xA9 SWAP2 SWAP1 PUSH2 0x983 JUMP JUMPDEST PUSH1 0x40 MLOAD DUP1 SWAP2 SUB SWAP1 RETURN JUMPDEST PUSH2 0xCC PUSH1 0x4 DUP1 CALLDATASIZE SUB DUP2 ADD SWAP1 PUSH2 0xC7 SWAP2 SWAP1 PUSH2 0x829 JUMP JUMPDEST PUSH2 0x547 JUMP JUMPDEST STOP JUMPDEST PUSH2 0xD6 PUSH2 0x6D7 JUMP JUMPDEST PUSH1 0x40 MLOAD PUSH2 0xE3 SWAP2 SWAP1 PUSH2 0x961 JUMP JUMPDEST PUSH1 0x40 MLOAD DUP1 SWAP2 SUB SWAP1 RETURN JUMPDEST PUSH1 0x1 PUSH1 0x0 CALLER PUSH20 0xFFFFFFFFFFFFFFFFFFFFFFFFFFFFFFFFFFFFFFFF AND PUSH20 0xFFFFFFFFFFFFFFFFFFFFFFFFFFFFFFFFFFFFFFFF AND DUP2 MSTORE PUSH1 0x20 ADD SWAP1 DUP2 MSTORE PUSH1 0x20 ADD PUSH1 0x0 KECCAK256 DUP1 SLOAD SWAP1 POP DUP2 LT PUSH2 0x13A JUMPI PUSH2 0x418 JUMP JUMPDEST PUSH1 0x0 DUP2 SWAP1 POP JUMPDEST PUSH1 0x1 DUP1 PUSH1 0x0 CALLER PUSH20 0xFFFFFFFFFFFFFFFFFFFFFFFFFFFFFFFFFFFFFFFF AND PUSH20 0xFFFFFFFFFFFFFFFFFFFFFFFFFFFFFFFFFFFFFFFF AND DUP2 MSTORE PUSH1 0x20 ADD SWAP1 DUP2 MSTORE PUSH1 0x20 ADD PUSH1 0x0 KECCAK256 DUP1 SLOAD SWAP1 POP PUSH2 0x18E SWAP2 SWAP1 PUSH2 0xA2D JUMP JUMPDEST DUP2 LT ISZERO PUSH2 0x416 JUMPI PUSH1 0x1 PUSH1 0x0 CALLER PUSH20 0xFFFFFFFFFFFFFFFFFFFFFFFFFFFFFFFFFFFFFFFF AND PUSH20 0xFFFFFFFFFFFFFFFFFFFFFFFFFFFFFFFFFFFFFFFF AND DUP2 MSTORE PUSH1 0x20 ADD SWAP1 DUP2 MSTORE PUSH1 0x20 ADD PUSH1 0x0 KECCAK256 DUP2 DUP2 SLOAD DUP2 LT PUSH2 0x1E6 JUMPI PUSH2 0x1E5 PUSH2 0xB44 JUMP JUMPDEST JUMPDEST SWAP1 PUSH1 0x0 MSTORE PUSH1 0x20 PUSH1 0x0 KECCAK256 SWAP1 PUSH1 0x4 MUL ADD PUSH1 0x0 ADD SLOAD DUP3 EQ ISZERO PUSH2 0x3FD JUMPI PUSH1 0x1 PUSH1 0x0 CALLER PUSH20 0xFFFFFFFFFFFFFFFFFFFFFFFFFFFFFFFFFFFFFFFF AND PUSH20 0xFFFFFFFFFFFFFFFFFFFFFFFFFFFFFFFFFFFFFFFF AND DUP2 MSTORE PUSH1 0x20 ADD SWAP1 DUP2 MSTORE PUSH1 0x20 ADD PUSH1 0x0 KECCAK256 PUSH1 0x1 DUP3 PUSH2 0x24B SWAP2 SWAP1 PUSH2 0x9D7 JUMP JUMPDEST DUP2 SLOAD DUP2 LT PUSH2 0x25C JUMPI PUSH2 0x25B PUSH2 0xB44 JUMP JUMPDEST JUMPDEST SWAP1 PUSH1 0x0 MSTORE PUSH1 0x20 PUSH1 0x0 KECCAK256 SWAP1 PUSH1 0x4 MUL ADD PUSH1 0x1 PUSH1 0x0 CALLER PUSH20 0xFFFFFFFFFFFFFFFFFFFFFFFFFFFFFFFFFFFFFFFF AND PUSH20 0xFFFFFFFFFFFFFFFFFFFFFFFFFFFFFFFFFFFFFFFF AND DUP2 MSTORE PUSH1 0x20 ADD SWAP1 DUP2 MSTORE PUSH1 0x20 ADD PUSH1 0x0 KECCAK256 DUP3 DUP2 SLOAD DUP2 LT PUSH2 0x2BB JUMPI PUSH2 0x2BA PUSH2 0xB44 JUMP JUMPDEST JUMPDEST SWAP1 PUSH1 0x0 MSTORE PUSH1 0x20 PUSH1 0x0 KECCAK256 SWAP1 PUSH1 0x4 MUL ADD PUSH1 0x0 DUP3 ADD SLOAD DUP2 PUSH1 0x0 ADD SSTORE PUSH1 0x1 DUP3 ADD PUSH1 0x0 SWAP1 SLOAD SWAP1 PUSH2 0x100 EXP SWAP1 DIV PUSH20 0xFFFFFFFFFFFFFFFFFFFFFFFFFFFFFFFFFFFFFFFF AND DUP2 PUSH1 0x1 ADD PUSH1 0x0 PUSH2 0x100 EXP DUP2 SLOAD DUP2 PUSH20 0xFFFFFFFFFFFFFFFFFFFFFFFFFFFFFFFFFFFFFFFF MUL NOT AND SWAP1 DUP4 PUSH20 0xFFFFFFFFFFFFFFFFFFFFFFFFFFFFFFFFFFFFFFFF AND MUL OR SWAP1 SSTORE POP PUSH1 0x2 DUP3 ADD SLOAD DUP2 PUSH1 0x2 ADD SSTORE PUSH1 0x3 DUP3 ADD SLOAD DUP2 PUSH1 0x3 ADD SSTORE SWAP1 POP POP PUSH1 0x1 PUSH1 0x0 CALLER PUSH20 0xFFFFFFFFFFFFFFFFFFFFFFFFFFFFFFFFFFFFFFFF AND PUSH20 0xFFFFFFFFFFFFFFFFFFFFFFFFFFFFFFFFFFFFFFFF AND DUP2 MSTORE PUSH1 0x20 ADD SWAP1 DUP2 MSTORE PUSH1 0x20 ADD PUSH1 0x0 KECCAK256 DUP1 SLOAD DUP1 PUSH2 0x3A0 JUMPI PUSH2 0x39F PUSH2 0xB15 JUMP JUMPDEST JUMPDEST PUSH1 0x1 SWAP1 SUB DUP2 DUP2 SWAP1 PUSH1 0x0 MSTORE PUSH1 0x20 PUSH1 0x0 KECCAK256 SWAP1 PUSH1 0x4 MUL ADD PUSH1 0x0 DUP1 DUP3 ADD PUSH1 0x0 SWAP1 SSTORE PUSH1 0x1 DUP3 ADD PUSH1 0x0 PUSH2 0x100 EXP DUP2 SLOAD SWAP1 PUSH20 0xFFFFFFFFFFFFFFFFFFFFFFFFFFFFFFFFFFFFFFFF MUL NOT AND SWAP1 SSTORE PUSH1 0x2 DUP3 ADD PUSH1 0x0 SWAP1 SSTORE PUSH1 0x3 DUP3 ADD PUSH1 0x0 SWAP1 SSTORE POP POP SWAP1 SSTORE PUSH2 0x403 JUMP JUMPDEST POP PUSH2 0x418 JUMP JUMPDEST DUP1 DUP1 PUSH2 0x40E SWAP1 PUSH2 0xA9D JUMP JUMPDEST SWAP2 POP POP PUSH2 0x140 JUMP JUMPDEST POP JUMPDEST POP JUMP JUMPDEST PUSH1 0x0 PUSH1 0x40 MLOAD DUP1 PUSH1 0x80 ADD PUSH1 0x40 MSTORE DUP1 PUSH1 0x0 SLOAD DUP2 MSTORE PUSH1 0x20 ADD CALLER PUSH20 0xFFFFFFFFFFFFFFFFFFFFFFFFFFFFFFFFFFFFFFFF AND DUP2 MSTORE PUSH1 0x20 ADD DUP4 DUP2 MSTORE PUSH1 0x20 ADD TIMESTAMP DUP2 MSTORE POP SWAP1 POP PUSH1 0x1 PUSH1 0x0 CALLER PUSH20 0xFFFFFFFFFFFFFFFFFFFFFFFFFFFFFFFFFFFFFFFF AND PUSH20 0xFFFFFFFFFFFFFFFFFFFFFFFFFFFFFFFFFFFFFFFF AND DUP2 MSTORE PUSH1 0x20 ADD SWAP1 DUP2 MSTORE PUSH1 0x20 ADD PUSH1 0x0 KECCAK256 DUP2 SWAP1 DUP1 PUSH1 0x1 DUP2 SLOAD ADD DUP1 DUP3 SSTORE DUP1 SWAP2 POP POP PUSH1 0x1 SWAP1 SUB SWAP1 PUSH1 0x0 MSTORE PUSH1 0x20 PUSH1 0x0 KECCAK256 SWAP1 PUSH1 0x4 MUL ADD PUSH1 0x0 SWAP1 SWAP2 SWAP1 SWAP2 SWAP1 SWAP2 POP PUSH1 0x0 DUP3 ADD MLOAD DUP2 PUSH1 0x0 ADD SSTORE PUSH1 0x20 DUP3 ADD MLOAD DUP2 PUSH1 0x1 ADD PUSH1 0x0 PUSH2 0x100 EXP DUP2 SLOAD DUP2 PUSH20 0xFFFFFFFFFFFFFFFFFFFFFFFFFFFFFFFFFFFFFFFF MUL NOT AND SWAP1 DUP4 PUSH20 0xFFFFFFFFFFFFFFFFFFFFFFFFFFFFFFFFFFFFFFFF AND MUL OR SWAP1 SSTORE POP PUSH1 0x40 DUP3 ADD MLOAD DUP2 PUSH1 0x2 ADD SSTORE PUSH1 0x60 DUP3 ADD MLOAD DUP2 PUSH1 0x3 ADD SSTORE POP POP PUSH1 0x1 PUSH1 0x0 SLOAD PUSH2 0x537 SWAP2 SWAP1 PUSH2 0x9D7 JUMP JUMPDEST PUSH1 0x0 DUP2 SWAP1 SSTORE POP POP POP JUMP JUMPDEST PUSH1 0x0 SLOAD DUP2 JUMP JUMPDEST PUSH1 0x1 PUSH1 0x0 CALLER PUSH20 0xFFFFFFFFFFFFFFFFFFFFFFFFFFFFFFFFFFFFFFFF AND PUSH20 0xFFFFFFFFFFFFFFFFFFFFFFFFFFFFFFFFFFFFFFFF AND DUP2 MSTORE PUSH1 0x20 ADD SWAP1 DUP2 MSTORE PUSH1 0x20 ADD PUSH1 0x0 KECCAK256 DUP1 SLOAD SWAP1 POP DUP3 LT PUSH2 0x595 JUMPI PUSH2 0x6D3 JUMP JUMPDEST PUSH1 0x0 JUMPDEST PUSH1 0x1 PUSH1 0x0 CALLER PUSH20 0xFFFFFFFFFFFFFFFFFFFFFFFFFFFFFFFFFFFFFFFF AND PUSH20 0xFFFFFFFFFFFFFFFFFFFFFFFFFFFFFFFFFFFFFFFF AND DUP2 MSTORE PUSH1 0x20 ADD SWAP1 DUP2 MSTORE PUSH1 0x20 ADD PUSH1 0x0 KECCAK256 DUP1 SLOAD SWAP1 POP DUP2 LT ISZERO PUSH2 0x6D1 JUMPI PUSH1 0x1 PUSH1 0x0 CALLER PUSH20 0xFFFFFFFFFFFFFFFFFFFFFFFFFFFFFFFFFFFFFFFF AND PUSH20 0xFFFFFFFFFFFFFFFFFFFFFFFFFFFFFFFFFFFFFFFF AND DUP2 MSTORE PUSH1 0x20 ADD SWAP1 DUP2 MSTORE PUSH1 0x20 ADD PUSH1 0x0 KECCAK256 DUP2 DUP2 SLOAD DUP2 LT PUSH2 0x633 JUMPI PUSH2 0x632 PUSH2 0xB44 JUMP JUMPDEST JUMPDEST SWAP1 PUSH1 0x0 MSTORE PUSH1 0x20 PUSH1 0x0 KECCAK256 SWAP1 PUSH1 0x4 MUL ADD PUSH1 0x0 ADD SLOAD DUP4 EQ ISZERO PUSH2 0x6B8 JUMPI DUP2 PUSH1 0x1 PUSH1 0x0 CALLER PUSH20 0xFFFFFFFFFFFFFFFFFFFFFFFFFFFFFFFFFFFFFFFF AND PUSH20 0xFFFFFFFFFFFFFFFFFFFFFFFFFFFFFFFFFFFFFFFF AND DUP2 MSTORE PUSH1 0x20 ADD SWAP1 DUP2 MSTORE PUSH1 0x20 ADD PUSH1 0x0 KECCAK256 DUP3 DUP2 SLOAD DUP2 LT PUSH2 0x69E JUMPI PUSH2 0x69D PUSH2 0xB44 JUMP JUMPDEST JUMPDEST SWAP1 PUSH1 0x0 MSTORE PUSH1 0x20 PUSH1 0x0 KECCAK256 SWAP1 PUSH1 0x4 MUL ADD PUSH1 0x2 ADD DUP2 SWAP1 SSTORE POP PUSH2 0x6BE JUMP JUMPDEST POP PUSH2 0x6D3 JUMP JUMPDEST DUP1 DUP1 PUSH2 0x6C9 SWAP1 PUSH2 0xA9D JUMP JUMPDEST SWAP2 POP POP PUSH2 0x598 JUMP JUMPDEST POP JUMPDEST POP POP JUMP JUMPDEST PUSH1 0x60 PUSH1 0x1 PUSH1 0x0 CALLER PUSH20 0xFFFFFFFFFFFFFFFFFFFFFFFFFFFFFFFFFFFFFFFF AND PUSH20 0xFFFFFFFFFFFFFFFFFFFFFFFFFFFFFFFFFFFFFFFF AND DUP2 MSTORE PUSH1 0x20 ADD SWAP1 DUP2 MSTORE PUSH1 0x20 ADD PUSH1 0x0 KECCAK256 DUP1 SLOAD DUP1 PUSH1 0x20 MUL PUSH1 0x20 ADD PUSH1 0x40 MLOAD SWAP1 DUP2 ADD PUSH1 0x40 MSTORE DUP1 SWAP3 SWAP2 SWAP1 DUP2 DUP2 MSTORE PUSH1 0x20 ADD PUSH1 0x0 SWAP1 JUMPDEST DUP3 DUP3 LT ISZERO PUSH2 0x7DE JUMPI DUP4 DUP3 SWAP1 PUSH1 0x0 MSTORE PUSH1 0x20 PUSH1 0x0 KECCAK256 SWAP1 PUSH1 0x4 MUL ADD PUSH1 0x40 MLOAD DUP1 PUSH1 0x80 ADD PUSH1 0x40 MSTORE SWAP1 DUP2 PUSH1 0x0 DUP3 ADD SLOAD DUP2 MSTORE PUSH1 0x20 ADD PUSH1 0x1 DUP3 ADD PUSH1 0x0 SWAP1 SLOAD SWAP1 PUSH2 0x100 EXP SWAP1 DIV PUSH20 0xFFFFFFFFFFFFFFFFFFFFFFFFFFFFFFFFFFFFFFFF AND PUSH20 0xFFFFFFFFFFFFFFFFFFFFFFFFFFFFFFFFFFFFFFFF AND PUSH20 0xFFFFFFFFFFFFFFFFFFFFFFFFFFFFFFFFFFFFFFFF AND DUP2 MSTORE PUSH1 0x20 ADD PUSH1 0x2 DUP3 ADD SLOAD DUP2 MSTORE PUSH1 0x20 ADD PUSH1 0x3 DUP3 ADD SLOAD DUP2 MSTORE POP POP DUP2 MSTORE PUSH1 0x20 ADD SWAP1 PUSH1 0x1 ADD SWAP1 PUSH2 0x738 JUMP JUMPDEST POP POP POP POP SWAP1 POP SWAP1 JUMP JUMPDEST PUSH1 0x0 DUP2 CALLDATALOAD SWAP1 POP PUSH2 0x7F6 DUP2 PUSH2 0xB78 JUMP JUMPDEST SWAP3 SWAP2 POP POP JUMP JUMPDEST PUSH1 0x0 PUSH1 0x20 DUP3 DUP5 SUB SLT ISZERO PUSH2 0x812 JUMPI PUSH2 0x811 PUSH2 0xB73 JUMP JUMPDEST JUMPDEST PUSH1 0x0 PUSH2 0x820 DUP5 DUP3 DUP6 ADD PUSH2 0x7E7 JUMP JUMPDEST SWAP2 POP POP SWAP3 SWAP2 POP POP JUMP JUMPDEST PUSH1 0x0 DUP1 PUSH1 0x40 DUP4 DUP6 SUB SLT ISZERO PUSH2 0x840 JUMPI PUSH2 0x83F PUSH2 0xB73 JUMP JUMPDEST JUMPDEST PUSH1 0x0 PUSH2 0x84E DUP6 DUP3 DUP7 ADD PUSH2 0x7E7 JUMP JUMPDEST SWAP3 POP POP PUSH1 0x20 PUSH2 0x85F DUP6 DUP3 DUP7 ADD PUSH2 0x7E7 JUMP JUMPDEST SWAP2 POP POP SWAP3 POP SWAP3 SWAP1 POP JUMP JUMPDEST PUSH1 0x0 PUSH2 0x875 DUP4 DUP4 PUSH2 0x8EE JUMP JUMPDEST PUSH1 0x80 DUP4 ADD SWAP1 POP SWAP3 SWAP2 POP POP JUMP JUMPDEST PUSH2 0x88A DUP2 PUSH2 0xA61 JUMP JUMPDEST DUP3 MSTORE POP POP JUMP JUMPDEST PUSH1 0x0 PUSH2 0x89B DUP3 PUSH2 0x9AE JUMP JUMPDEST PUSH2 0x8A5 DUP2 DUP6 PUSH2 0x9C6 JUMP JUMPDEST SWAP4 POP PUSH2 0x8B0 DUP4 PUSH2 0x99E JUMP JUMPDEST DUP1 PUSH1 0x0 JUMPDEST DUP4 DUP2 LT ISZERO PUSH2 0x8E1 JUMPI DUP2 MLOAD PUSH2 0x8C8 DUP9 DUP3 PUSH2 0x869 JUMP JUMPDEST SWAP8 POP PUSH2 0x8D3 DUP4 PUSH2 0x9B9 JUMP JUMPDEST SWAP3 POP POP PUSH1 0x1 DUP2 ADD SWAP1 POP PUSH2 0x8B4 JUMP JUMPDEST POP DUP6 SWAP4 POP POP POP POP SWAP3 SWAP2 POP POP JUMP JUMPDEST PUSH1 0x80 DUP3 ADD PUSH1 0x0 DUP3 ADD MLOAD PUSH2 0x904 PUSH1 0x0 DUP6 ADD DUP3 PUSH2 0x943 JUMP JUMPDEST POP PUSH1 0x20 DUP3 ADD MLOAD PUSH2 0x917 PUSH1 0x20 DUP6 ADD DUP3 PUSH2 0x881 JUMP JUMPDEST POP PUSH1 0x40 DUP3 ADD MLOAD PUSH2 0x92A PUSH1 0x40 DUP6 ADD DUP3 PUSH2 0x943 JUMP JUMPDEST POP PUSH1 0x60 DUP3 ADD MLOAD PUSH2 0x93D PUSH1 0x60 DUP6 ADD DUP3 PUSH2 0x943 JUMP JUMPDEST POP POP POP POP JUMP JUMPDEST PUSH2 0x94C DUP2 PUSH2 0xA93 JUMP JUMPDEST DUP3 MSTORE POP POP JUMP JUMPDEST PUSH2 0x95B DUP2 PUSH2 0xA93 JUMP JUMPDEST DUP3 MSTORE POP POP JUMP JUMPDEST PUSH1 0x0 PUSH1 0x20 DUP3 ADD SWAP1 POP DUP2 DUP2 SUB PUSH1 0x0 DUP4 ADD MSTORE PUSH2 0x97B DUP2 DUP5 PUSH2 0x890 JUMP JUMPDEST SWAP1 POP SWAP3 SWAP2 POP POP JUMP JUMPDEST PUSH1 0x0 PUSH1 0x20 DUP3 ADD SWAP1 POP PUSH2 0x998 PUSH1 0x0 DUP4 ADD DUP5 PUSH2 0x952 JUMP JUMPDEST SWAP3 SWAP2 POP POP JUMP JUMPDEST PUSH1 0x0 DUP2 SWAP1 POP PUSH1 0x20 DUP3 ADD SWAP1 POP SWAP2 SWAP1 POP JUMP JUMPDEST PUSH1 0x0 DUP2 MLOAD SWAP1 POP SWAP2 SWAP1 POP JUMP JUMPDEST PUSH1 0x0 PUSH1 0x20 DUP3 ADD SWAP1 POP SWAP2 SWAP1 POP JUMP JUMPDEST PUSH1 0x0 DUP3 DUP3 MSTORE PUSH1 0x20 DUP3 ADD SWAP1 POP SWAP3 SWAP2 POP POP JUMP JUMPDEST PUSH1 0x0 PUSH2 0x9E2 DUP3 PUSH2 0xA93 JUMP JUMPDEST SWAP2 POP PUSH2 0x9ED DUP4 PUSH2 0xA93 JUMP JUMPDEST SWAP3 POP DUP3 PUSH32 0xFFFFFFFFFFFFFFFFFFFFFFFFFFFFFFFFFFFFFFFFFFFFFFFFFFFFFFFFFFFFFFFF SUB DUP3 GT ISZERO PUSH2 0xA22 JUMPI PUSH2 0xA21 PUSH2 0xAE6 JUMP JUMPDEST JUMPDEST DUP3 DUP3 ADD SWAP1 POP SWAP3 SWAP2 POP POP JUMP JUMPDEST PUSH1 0x0 PUSH2 0xA38 DUP3 PUSH2 0xA93 JUMP JUMPDEST SWAP2 POP PUSH2 0xA43 DUP4 PUSH2 0xA93 JUMP JUMPDEST SWAP3 POP DUP3 DUP3 LT ISZERO PUSH2 0xA56 JUMPI PUSH2 0xA55 PUSH2 0xAE6 JUMP JUMPDEST JUMPDEST DUP3 DUP3 SUB SWAP1 POP SWAP3 SWAP2 POP POP JUMP JUMPDEST PUSH1 0x0 PUSH2 0xA6C DUP3 PUSH2 0xA73 JUMP JUMPDEST SWAP1 POP SWAP2 SWAP1 POP JUMP JUMPDEST PUSH1 0x0 PUSH20 0xFFFFFFFFFFFFFFFFFFFFFFFFFFFFFFFFFFFFFFFF DUP3 AND SWAP1 POP SWAP2 SWAP1 POP JUMP JUMPDEST PUSH1 0x0 DUP2 SWAP1 POP SWAP2 SWAP1 POP JUMP JUMPDEST PUSH1 0x0 PUSH2 0xAA8 DUP3 PUSH2 0xA93 JUMP JUMPDEST SWAP2 POP PUSH32 0xFFFFFFFFFFFFFFFFFFFFFFFFFFFFFFFFFFFFFFFFFFFFFFFFFFFFFFFFFFFFFFFF DUP3 EQ ISZERO PUSH2 0xADB JUMPI PUSH2 0xADA PUSH2 0xAE6 JUMP JUMPDEST JUMPDEST PUSH1 0x1 DUP3 ADD SWAP1 POP SWAP2 SWAP1 POP JUMP JUMPDEST PUSH32 0x4E487B7100000000000000000000000000000000000000000000000000000000 PUSH1 0x0 MSTORE PUSH1 0x11 PUSH1 0x4 MSTORE PUSH1 0x24 PUSH1 0x0 REVERT JUMPDEST PUSH32 0x4E487B7100000000000000000000000000000000000000000000000000000000 PUSH1 0x0 MSTORE PUSH1 0x31 PUSH1 0x4 MSTORE PUSH1 0x24 PUSH1 0x0 REVERT JUMPDEST PUSH32 0x4E487B7100000000000000000000000000000000000000000000000000000000 PUSH1 0x0 MSTORE PUSH1 0x32 PUSH1 0x4 MSTORE PUSH1 0x24 PUSH1 0x0 REVERT JUMPDEST PUSH1 0x0 DUP1 REVERT JUMPDEST PUSH2 0xB81 DUP2 PUSH2 0xA93 JUMP JUMPDEST DUP2 EQ PUSH2 0xB8C JUMPI PUSH1 0x0 DUP1 REVERT JUMPDEST POP JUMP INVALID LOG2 PUSH5 0x6970667358 0x22 SLT KECCAK256 SMOD DUP10 EQ 0xC0 SWAP2 MLOAD 0xA8 0xFB 0xAB BYTE CALL MSTORE8 DUP5 0xC4 PUSH9 0x79257B717B4F334F98 RETURNDATACOPY 0xE4 0x4E DUP8 0x4E PUSH16 0x9C2664736F6C63430008070033000000 "
				},
				"gasEstimates": {
					"creation": {
						"codeDepositCost": "602600",
						"executionCost": "638",
						"totalCost": "603238"
					},
					"external": {
						"changePrice(uint256,uint256)": "infinite",
						"createPost(uint256)": "infinite",
						"currentPostID()": "2451",
						"deletePost(uint256)": "infinite",
						"getUserPosts()": "infinite"
					}
				},
				"methodIdentifiers": {
					"changePrice(uint256,uint256)": "b3de019c",
					"createPost(uint256)": "1d69bd48",
					"currentPostID()": "664b104b",
					"deletePost(uint256)": "094cd5ee",
					"getUserPosts()": "cc4ef2cc"
				}
			},
			"storageLayout": {
				"storage": [
					{
						"astId": 12,
						"contract": "projects/2Pack/src/contarcts/2Pack.sol:Pack",
						"label": "currentPostID",
						"offset": 0,
						"slot": "0",
						"type": "t_uint256"
					},
					{
						"astId": 18,
						"contract": "projects/2Pack/src/contarcts/2Pack.sol:Pack",
						"label": "postMap",
						"offset": 0,
						"slot": "1",
						"type": "t_mapping(t_address,t_array(t_struct(Post)10_storage)dyn_storage)"
					}
				],
				"types": {
					"t_address": {
						"encoding": "inplace",
						"label": "address",
						"numberOfBytes": "20"
					},
					"t_array(t_struct(Post)10_storage)dyn_storage": {
						"base": "t_struct(Post)10_storage",
						"encoding": "dynamic_array",
						"label": "struct Pack.Post[]",
						"numberOfBytes": "32"
					},
					"t_mapping(t_address,t_array(t_struct(Post)10_storage)dyn_storage)": {
						"encoding": "mapping",
						"key": "t_address",
						"label": "mapping(address => struct Pack.Post[])",
						"numberOfBytes": "32",
						"value": "t_array(t_struct(Post)10_storage)dyn_storage"
					},
					"t_struct(Post)10_storage": {
						"encoding": "inplace",
						"label": "struct Pack.Post",
						"members": [
							{
								"astId": 3,
								"contract": "projects/2Pack/src/contarcts/2Pack.sol:Pack",
								"label": "postID",
								"offset": 0,
								"slot": "0",
								"type": "t_uint256"
							},
							{
								"astId": 5,
								"contract": "projects/2Pack/src/contarcts/2Pack.sol:Pack",
								"label": "postAuthor",
								"offset": 0,
								"slot": "1",
								"type": "t_address"
							},
							{
								"astId": 7,
								"contract": "projects/2Pack/src/contarcts/2Pack.sol:Pack",
								"label": "postPrice",
								"offset": 0,
								"slot": "2",
								"type": "t_uint256"
							},
							{
								"astId": 9,
								"contract": "projects/2Pack/src/contarcts/2Pack.sol:Pack",
								"label": "postCreationTime",
								"offset": 0,
								"slot": "3",
								"type": "t_uint256"
							}
						],
						"numberOfBytes": "128"
					},
					"t_uint256": {
						"encoding": "inplace",
						"label": "uint256",
						"numberOfBytes": "32"
					}
				}
			},
			"userdoc": {
				"kind": "user",
				"methods": {},
				"version": 1
			}
		}
	}
}