{
	"src/contarcts/2Pack.sol": {
		"Pack": {
			"abi": [
				{
					"inputs": [],
					"stateMutability": "nonpayable",
					"type": "constructor"
				},
				{
					"inputs": [
						{
							"internalType": "uint256",
							"name": "_postID",
							"type": "uint256"
						},
						{
							"internalType": "uint256",
							"name": "newPostPrice",
							"type": "uint256"
						}
					],
					"name": "changePrice",
					"outputs": [],
					"stateMutability": "nonpayable",
					"type": "function"
				},
				{
					"inputs": [
						{
							"internalType": "uint256",
							"name": "_postPrice",
							"type": "uint256"
						}
					],
					"name": "createPost",
					"outputs": [],
					"stateMutability": "nonpayable",
					"type": "function"
				},
				{
					"inputs": [
						{
							"internalType": "uint256",
							"name": "_postID",
							"type": "uint256"
						}
					],
					"name": "deletePost",
					"outputs": [],
					"stateMutability": "nonpayable",
					"type": "function"
				},
				{
					"inputs": [],
					"name": "getUserPosts",
					"outputs": [
						{
							"components": [
								{
									"internalType": "uint256",
									"name": "postID",
									"type": "uint256"
								},
								{
									"internalType": "address",
									"name": "postAuthor",
									"type": "address"
								},
								{
									"internalType": "uint256",
									"name": "postPrice",
									"type": "uint256"
								},
								{
									"internalType": "uint256",
									"name": "postCreationTime",
									"type": "uint256"
								},
								{
									"internalType": "uint256",
									"name": "deliverTime",
									"type": "uint256"
								}
							],
							"internalType": "struct Pack.Post[]",
							"name": "",
							"type": "tuple[]"
						}
					],
					"stateMutability": "view",
					"type": "function"
				},
				{
					"inputs": [
						{
							"internalType": "address",
							"name": "receiver",
							"type": "address"
						},
						{
							"internalType": "uint256",
							"name": "amount",
							"type": "uint256"
						}
					],
					"name": "transfer",
					"outputs": [],
					"stateMutability": "payable",
					"type": "function"
				},
				{
					"inputs": [
						{
							"internalType": "address",
							"name": "",
							"type": "address"
						}
					],
					"name": "usersBalnce",
					"outputs": [
						{
							"internalType": "uint256",
							"name": "",
							"type": "uint256"
						}
					],
					"stateMutability": "view",
					"type": "function"
				}
			],
			"devdoc": {
				"kind": "dev",
				"methods": {},
				"version": 1
			},
			"evm": {
				"assembly": "    /* \"src/contarcts/2Pack.sol\":70:2708  contract Pack{... */\n  mstore(0x40, 0x80)\n    /* \"src/contarcts/2Pack.sol\":559:642  constructor()  {... */\n  callvalue\n  dup1\n  iszero\n  tag_1\n  jumpi\n  0x00\n  dup1\n  revert\ntag_1:\n  pop\n    /* \"src/contarcts/2Pack.sol\":616:626  msg.sender */\n  caller\n    /* \"src/contarcts/2Pack.sol\":608:635  address(msg.sender).balance */\n  0xffffffffffffffffffffffffffffffffffffffff\n  and\n  balance\n    /* \"src/contarcts/2Pack.sol\":584:595  usersBalnce */\n  0x02\n    /* \"src/contarcts/2Pack.sol\":584:607  usersBalnce[msg.sender] */\n  0x00\n    /* \"src/contarcts/2Pack.sol\":596:606  msg.sender */\n  caller\n    /* \"src/contarcts/2Pack.sol\":584:607  usersBalnce[msg.sender] */\n  0xffffffffffffffffffffffffffffffffffffffff\n  and\n  0xffffffffffffffffffffffffffffffffffffffff\n  and\n  dup2\n  mstore\n  0x20\n  add\n  swap1\n  dup2\n  mstore\n  0x20\n  add\n  0x00\n  keccak256\n    /* \"src/contarcts/2Pack.sol\":584:635  usersBalnce[msg.sender]=address(msg.sender).balance */\n  dup2\n  swap1\n  sstore\n  pop\n    /* \"src/contarcts/2Pack.sol\":70:2708  contract Pack{... */\n  dataSize(sub_0)\n  dup1\n  dataOffset(sub_0)\n  0x00\n  codecopy\n  0x00\n  return\nstop\n\nsub_0: assembly {\n        /* \"src/contarcts/2Pack.sol\":70:2708  contract Pack{... */\n      mstore(0x40, 0x80)\n      jumpi(tag_1, lt(calldatasize, 0x04))\n      shr(0xe0, calldataload(0x00))\n      dup1\n      0x094cd5ee\n      eq\n      tag_2\n      jumpi\n      dup1\n      0x1d69bd48\n      eq\n      tag_3\n      jumpi\n      dup1\n      0xa9059cbb\n      eq\n      tag_4\n      jumpi\n      dup1\n      0xb3de019c\n      eq\n      tag_5\n      jumpi\n      dup1\n      0xcc4ef2cc\n      eq\n      tag_6\n      jumpi\n      dup1\n      0xcca003f4\n      eq\n      tag_7\n      jumpi\n    tag_1:\n      0x00\n      dup1\n      revert\n        /* \"src/contarcts/2Pack.sol\":1460:1986  function deletePost(uint _postID) public{... */\n    tag_2:\n      callvalue\n      dup1\n      iszero\n      tag_8\n      jumpi\n      0x00\n      dup1\n      revert\n    tag_8:\n      pop\n      tag_9\n      0x04\n      dup1\n      calldatasize\n      sub\n      dup2\n      add\n      swap1\n      tag_10\n      swap2\n      swap1\n      tag_11\n      jump\t// in\n    tag_10:\n      tag_12\n      jump\t// in\n    tag_9:\n      stop\n        /* \"src/contarcts/2Pack.sol\":649:1283  function createPost(uint _postPrice) public{  ... */\n    tag_3:\n      callvalue\n      dup1\n      iszero\n      tag_13\n      jumpi\n      0x00\n      dup1\n      revert\n    tag_13:\n      pop\n      tag_14\n      0x04\n      dup1\n      calldatasize\n      sub\n      dup2\n      add\n      swap1\n      tag_15\n      swap2\n      swap1\n      tag_11\n      jump\t// in\n    tag_15:\n      tag_16\n      jump\t// in\n    tag_14:\n      stop\n        /* \"src/contarcts/2Pack.sol\":2368:2705  function transfer(address receiver, uint amount) public payable{... */\n    tag_4:\n      tag_17\n      0x04\n      dup1\n      calldatasize\n      sub\n      dup2\n      add\n      swap1\n      tag_18\n      swap2\n      swap1\n      tag_19\n      jump\t// in\n    tag_18:\n      tag_20\n      jump\t// in\n    tag_17:\n      stop\n        /* \"src/contarcts/2Pack.sol\":1998:2362  function changePrice(uint _postID, uint newPostPrice) public{... */\n    tag_5:\n      callvalue\n      dup1\n      iszero\n      tag_21\n      jumpi\n      0x00\n      dup1\n      revert\n    tag_21:\n      pop\n      tag_22\n      0x04\n      dup1\n      calldatasize\n      sub\n      dup2\n      add\n      swap1\n      tag_23\n      swap2\n      swap1\n      tag_24\n      jump\t// in\n    tag_23:\n      tag_25\n      jump\t// in\n    tag_22:\n      stop\n        /* \"src/contarcts/2Pack.sol\":1290:1453  function getUserPosts() view public returns (Post[] memory ){... */\n    tag_6:\n      callvalue\n      dup1\n      iszero\n      tag_26\n      jumpi\n      0x00\n      dup1\n      revert\n    tag_26:\n      pop\n      tag_27\n      tag_28\n      jump\t// in\n    tag_27:\n      mload(0x40)\n      tag_29\n      swap2\n      swap1\n      tag_30\n      jump\t// in\n    tag_29:\n      mload(0x40)\n      dup1\n      swap2\n      sub\n      swap1\n      return\n        /* \"src/contarcts/2Pack.sol\":479:523  mapping (address => uint) public usersBalnce */\n    tag_7:\n      callvalue\n      dup1\n      iszero\n      tag_31\n      jumpi\n      0x00\n      dup1\n      revert\n    tag_31:\n      pop\n      tag_32\n      0x04\n      dup1\n      calldatasize\n      sub\n      dup2\n      add\n      swap1\n      tag_33\n      swap2\n      swap1\n      tag_34\n      jump\t// in\n    tag_33:\n      tag_35\n      jump\t// in\n    tag_32:\n      mload(0x40)\n      tag_36\n      swap2\n      swap1\n      tag_37\n      jump\t// in\n    tag_36:\n      mload(0x40)\n      dup1\n      swap2\n      sub\n      swap1\n      return\n        /* \"src/contarcts/2Pack.sol\":1460:1986  function deletePost(uint _postID) public{... */\n    tag_12:\n        /* \"src/contarcts/2Pack.sol\":1597:1603  uint i */\n      0x00\n        /* \"src/contarcts/2Pack.sol\":1592:1978  for (uint i = 0; i< (postMap[msg.sender]).length; i++){... */\n    tag_39:\n        /* \"src/contarcts/2Pack.sol\":1613:1620  postMap */\n      0x01\n        /* \"src/contarcts/2Pack.sol\":1613:1632  postMap[msg.sender] */\n      0x00\n        /* \"src/contarcts/2Pack.sol\":1621:1631  msg.sender */\n      caller\n        /* \"src/contarcts/2Pack.sol\":1613:1632  postMap[msg.sender] */\n      0xffffffffffffffffffffffffffffffffffffffff\n      and\n      0xffffffffffffffffffffffffffffffffffffffff\n      and\n      dup2\n      mstore\n      0x20\n      add\n      swap1\n      dup2\n      mstore\n      0x20\n      add\n      0x00\n      keccak256\n        /* \"src/contarcts/2Pack.sol\":1612:1640  (postMap[msg.sender]).length */\n      dup1\n      sload\n      swap1\n      pop\n        /* \"src/contarcts/2Pack.sol\":1609:1610  i */\n      dup2\n        /* \"src/contarcts/2Pack.sol\":1609:1640  i< (postMap[msg.sender]).length */\n      lt\n        /* \"src/contarcts/2Pack.sol\":1592:1978  for (uint i = 0; i< (postMap[msg.sender]).length; i++){... */\n      iszero\n      tag_40\n      jumpi\n        /* \"src/contarcts/2Pack.sol\":1673:1680  postMap */\n      0x01\n        /* \"src/contarcts/2Pack.sol\":1673:1692  postMap[msg.sender] */\n      0x00\n        /* \"src/contarcts/2Pack.sol\":1681:1691  msg.sender */\n      caller\n        /* \"src/contarcts/2Pack.sol\":1673:1692  postMap[msg.sender] */\n      0xffffffffffffffffffffffffffffffffffffffff\n      and\n      0xffffffffffffffffffffffffffffffffffffffff\n      and\n      dup2\n      mstore\n      0x20\n      add\n      swap1\n      dup2\n      mstore\n      0x20\n      add\n      0x00\n      keccak256\n        /* \"src/contarcts/2Pack.sol\":1693:1694  i */\n      dup2\n        /* \"src/contarcts/2Pack.sol\":1673:1695  postMap[msg.sender][i] */\n      dup2\n      sload\n      dup2\n      lt\n      tag_42\n      jumpi\n      tag_43\n      tag_44\n      jump\t// in\n    tag_43:\n    tag_42:\n      swap1\n      0x00\n      mstore\n      keccak256(0x00, 0x20)\n      swap1\n      0x05\n      mul\n      add\n        /* \"src/contarcts/2Pack.sol\":1673:1702  postMap[msg.sender][i].postID */\n      0x00\n      add\n      sload\n        /* \"src/contarcts/2Pack.sol\":1664:1671  _postID */\n      dup3\n        /* \"src/contarcts/2Pack.sol\":1664:1702  _postID==postMap[msg.sender][i].postID */\n      eq\n        /* \"src/contarcts/2Pack.sol\":1660:1968  if (_postID==postMap[msg.sender][i].postID){... */\n      iszero\n      tag_46\n      jumpi\n        /* \"src/contarcts/2Pack.sol\":1834:1841  postMap */\n      0x01\n        /* \"src/contarcts/2Pack.sol\":1834:1853  postMap[msg.sender] */\n      0x00\n        /* \"src/contarcts/2Pack.sol\":1842:1852  msg.sender */\n      caller\n        /* \"src/contarcts/2Pack.sol\":1834:1853  postMap[msg.sender] */\n      0xffffffffffffffffffffffffffffffffffffffff\n      and\n      0xffffffffffffffffffffffffffffffffffffffff\n      and\n      dup2\n      mstore\n      0x20\n      add\n      swap1\n      dup2\n      mstore\n      0x20\n      add\n      0x00\n      keccak256\n        /* \"src/contarcts/2Pack.sol\":1883:1884  1 */\n      0x01\n        /* \"src/contarcts/2Pack.sol\":1855:1862  postMap */\n      dup1\n        /* \"src/contarcts/2Pack.sol\":1855:1874  postMap[msg.sender] */\n      0x00\n        /* \"src/contarcts/2Pack.sol\":1863:1873  msg.sender */\n      caller\n        /* \"src/contarcts/2Pack.sol\":1855:1874  postMap[msg.sender] */\n      0xffffffffffffffffffffffffffffffffffffffff\n      and\n      0xffffffffffffffffffffffffffffffffffffffff\n      and\n      dup2\n      mstore\n      0x20\n      add\n      swap1\n      dup2\n      mstore\n      0x20\n      add\n      0x00\n      keccak256\n        /* \"src/contarcts/2Pack.sol\":1854:1882  (postMap[msg.sender]).length */\n      dup1\n      sload\n      swap1\n      pop\n        /* \"src/contarcts/2Pack.sol\":1854:1884  (postMap[msg.sender]).length-1 */\n      tag_47\n      swap2\n      swap1\n      tag_48\n      jump\t// in\n    tag_47:\n        /* \"src/contarcts/2Pack.sol\":1834:1885  postMap[msg.sender][(postMap[msg.sender]).length-1] */\n      dup2\n      sload\n      dup2\n      lt\n      tag_49\n      jumpi\n      tag_50\n      tag_44\n      jump\t// in\n    tag_50:\n    tag_49:\n      swap1\n      0x00\n      mstore\n      keccak256(0x00, 0x20)\n      swap1\n      0x05\n      mul\n      add\n        /* \"src/contarcts/2Pack.sol\":1811:1818  postMap */\n      0x01\n        /* \"src/contarcts/2Pack.sol\":1811:1830  postMap[msg.sender] */\n      0x00\n        /* \"src/contarcts/2Pack.sol\":1819:1829  msg.sender */\n      caller\n        /* \"src/contarcts/2Pack.sol\":1811:1830  postMap[msg.sender] */\n      0xffffffffffffffffffffffffffffffffffffffff\n      and\n      0xffffffffffffffffffffffffffffffffffffffff\n      and\n      dup2\n      mstore\n      0x20\n      add\n      swap1\n      dup2\n      mstore\n      0x20\n      add\n      0x00\n      keccak256\n        /* \"src/contarcts/2Pack.sol\":1831:1832  i */\n      dup3\n        /* \"src/contarcts/2Pack.sol\":1811:1833  postMap[msg.sender][i] */\n      dup2\n      sload\n      dup2\n      lt\n      tag_52\n      jumpi\n      tag_53\n      tag_44\n      jump\t// in\n    tag_53:\n    tag_52:\n      swap1\n      0x00\n      mstore\n      keccak256(0x00, 0x20)\n      swap1\n      0x05\n      mul\n      add\n        /* \"src/contarcts/2Pack.sol\":1811:1885  postMap[msg.sender][i]=postMap[msg.sender][(postMap[msg.sender]).length-1] */\n      0x00\n      dup3\n      add\n      sload\n      dup2\n      0x00\n      add\n      sstore\n      0x01\n      dup3\n      add\n      0x00\n      swap1\n      sload\n      swap1\n      0x0100\n      exp\n      swap1\n      div\n      0xffffffffffffffffffffffffffffffffffffffff\n      and\n      dup2\n      0x01\n      add\n      exp(0x0100, 0x00)\n      dup2\n      sload\n      dup2\n      0xffffffffffffffffffffffffffffffffffffffff\n      mul\n      not\n      and\n      swap1\n      dup4\n      0xffffffffffffffffffffffffffffffffffffffff\n      and\n      mul\n      or\n      swap1\n      sstore\n      pop\n      0x02\n      dup3\n      add\n      sload\n      dup2\n      0x02\n      add\n      sstore\n      0x03\n      dup3\n      add\n      sload\n      dup2\n      0x03\n      add\n      sstore\n      0x04\n      dup3\n      add\n      sload\n      dup2\n      0x04\n      add\n      sstore\n      swap1\n      pop\n      pop\n        /* \"src/contarcts/2Pack.sol\":1904:1911  postMap */\n      0x01\n        /* \"src/contarcts/2Pack.sol\":1904:1923  postMap[msg.sender] */\n      0x00\n        /* \"src/contarcts/2Pack.sol\":1912:1922  msg.sender */\n      caller\n        /* \"src/contarcts/2Pack.sol\":1904:1923  postMap[msg.sender] */\n      0xffffffffffffffffffffffffffffffffffffffff\n      and\n      0xffffffffffffffffffffffffffffffffffffffff\n      and\n      dup2\n      mstore\n      0x20\n      add\n      swap1\n      dup2\n      mstore\n      0x20\n      add\n      0x00\n      keccak256\n        /* \"src/contarcts/2Pack.sol\":1904:1929  postMap[msg.sender].pop() */\n      dup1\n      sload\n      dup1\n      tag_55\n      jumpi\n      tag_56\n      tag_57\n      jump\t// in\n    tag_56:\n    tag_55:\n      0x01\n      swap1\n      sub\n      dup2\n      dup2\n      swap1\n      0x00\n      mstore\n      keccak256(0x00, 0x20)\n      swap1\n      0x05\n      mul\n      add\n      0x00\n      dup1\n      dup3\n      add\n      0x00\n      swap1\n      sstore\n      0x01\n      dup3\n      add\n      exp(0x0100, 0x00)\n      dup2\n      sload\n      swap1\n      0xffffffffffffffffffffffffffffffffffffffff\n      mul\n      not\n      and\n      swap1\n      sstore\n      0x02\n      dup3\n      add\n      0x00\n      swap1\n      sstore\n      0x03\n      dup3\n      add\n      0x00\n      swap1\n      sstore\n      0x04\n      dup3\n      add\n      0x00\n      swap1\n      sstore\n      pop\n      pop\n      swap1\n      sstore\n        /* \"src/contarcts/2Pack.sol\":1948:1953  break */\n      jump(tag_40)\n        /* \"src/contarcts/2Pack.sol\":1660:1968  if (_postID==postMap[msg.sender][i].postID){... */\n    tag_46:\n        /* \"src/contarcts/2Pack.sol\":1642:1645  i++ */\n      dup1\n      dup1\n      tag_59\n      swap1\n      tag_60\n      jump\t// in\n    tag_59:\n      swap2\n      pop\n      pop\n        /* \"src/contarcts/2Pack.sol\":1592:1978  for (uint i = 0; i< (postMap[msg.sender]).length; i++){... */\n      jump(tag_39)\n    tag_40:\n      pop\n        /* \"src/contarcts/2Pack.sol\":1460:1986  function deletePost(uint _postID) public{... */\n      pop\n      jump\t// out\n        /* \"src/contarcts/2Pack.sol\":649:1283  function createPost(uint _postPrice) public{  ... */\n    tag_16:\n        /* \"src/contarcts/2Pack.sol\":822:841  Post memory newPost */\n      0x00\n        /* \"src/contarcts/2Pack.sol\":844:980  Post({postID: currentPostID, postAuthor: msg.sender,... */\n      mload(0x40)\n      dup1\n      0xa0\n      add\n      0x40\n      mstore\n      dup1\n        /* \"src/contarcts/2Pack.sol\":858:871  currentPostID */\n      sload(0x00)\n        /* \"src/contarcts/2Pack.sol\":844:980  Post({postID: currentPostID, postAuthor: msg.sender,... */\n      dup2\n      mstore\n      0x20\n      add\n        /* \"src/contarcts/2Pack.sol\":885:895  msg.sender */\n      caller\n        /* \"src/contarcts/2Pack.sol\":844:980  Post({postID: currentPostID, postAuthor: msg.sender,... */\n      0xffffffffffffffffffffffffffffffffffffffff\n      and\n      dup2\n      mstore\n      0x20\n      add\n        /* \"src/contarcts/2Pack.sol\":916:926  _postPrice */\n      dup4\n        /* \"src/contarcts/2Pack.sol\":844:980  Post({postID: currentPostID, postAuthor: msg.sender,... */\n      dup2\n      mstore\n      0x20\n      add\n        /* \"src/contarcts/2Pack.sol\":946:961  block.timestamp */\n      timestamp\n        /* \"src/contarcts/2Pack.sol\":844:980  Post({postID: currentPostID, postAuthor: msg.sender,... */\n      dup2\n      mstore\n      0x20\n      add\n        /* \"src/contarcts/2Pack.sol\":976:977  0 */\n      0x00\n        /* \"src/contarcts/2Pack.sol\":844:980  Post({postID: currentPostID, postAuthor: msg.sender,... */\n      dup2\n      mstore\n      pop\n        /* \"src/contarcts/2Pack.sol\":822:980  Post memory newPost = Post({postID: currentPostID, postAuthor: msg.sender,... */\n      swap1\n      pop\n        /* \"src/contarcts/2Pack.sol\":990:997  postMap */\n      0x01\n        /* \"src/contarcts/2Pack.sol\":990:1009  postMap[msg.sender] */\n      0x00\n        /* \"src/contarcts/2Pack.sol\":998:1008  msg.sender */\n      caller\n        /* \"src/contarcts/2Pack.sol\":990:1009  postMap[msg.sender] */\n      0xffffffffffffffffffffffffffffffffffffffff\n      and\n      0xffffffffffffffffffffffffffffffffffffffff\n      and\n      dup2\n      mstore\n      0x20\n      add\n      swap1\n      dup2\n      mstore\n      0x20\n      add\n      0x00\n      keccak256\n        /* \"src/contarcts/2Pack.sol\":1015:1022  newPost */\n      dup2\n        /* \"src/contarcts/2Pack.sol\":990:1023  postMap[msg.sender].push(newPost) */\n      swap1\n      dup1\n      0x01\n      dup2\n      sload\n      add\n      dup1\n      dup3\n      sstore\n      dup1\n      swap2\n      pop\n      pop\n      0x01\n      swap1\n      sub\n      swap1\n      0x00\n      mstore\n      keccak256(0x00, 0x20)\n      swap1\n      0x05\n      mul\n      add\n      0x00\n      swap1\n      swap2\n      swap1\n      swap2\n      swap1\n      swap2\n      pop\n      0x00\n      dup3\n      add\n      mload\n      dup2\n      0x00\n      add\n      sstore\n      0x20\n      dup3\n      add\n      mload\n      dup2\n      0x01\n      add\n      exp(0x0100, 0x00)\n      dup2\n      sload\n      dup2\n      0xffffffffffffffffffffffffffffffffffffffff\n      mul\n      not\n      and\n      swap1\n      dup4\n      0xffffffffffffffffffffffffffffffffffffffff\n      and\n      mul\n      or\n      swap1\n      sstore\n      pop\n      0x40\n      dup3\n      add\n      mload\n      dup2\n      0x02\n      add\n      sstore\n      0x60\n      dup3\n      add\n      mload\n      dup2\n      0x03\n      add\n      sstore\n      0x80\n      dup3\n      add\n      mload\n      dup2\n      0x04\n      add\n      sstore\n      pop\n      pop\n        /* \"src/contarcts/2Pack.sol\":1065:1066  1 */\n      0x01\n        /* \"src/contarcts/2Pack.sol\":1050:1063  currentPostID */\n      sload(0x00)\n        /* \"src/contarcts/2Pack.sol\":1050:1066  currentPostID +1 */\n      tag_63\n      swap2\n      swap1\n      tag_64\n      jump\t// in\n    tag_63:\n        /* \"src/contarcts/2Pack.sol\":1034:1047  currentPostID */\n      0x00\n        /* \"src/contarcts/2Pack.sol\":1034:1066  currentPostID = currentPostID +1 */\n      dup2\n      swap1\n      sstore\n      pop\n        /* \"src/contarcts/2Pack.sol\":1099:1110  usersBalnce */\n      0x02\n        /* \"src/contarcts/2Pack.sol\":1099:1122  usersBalnce[msg.sender] */\n      0x00\n        /* \"src/contarcts/2Pack.sol\":1111:1121  msg.sender */\n      caller\n        /* \"src/contarcts/2Pack.sol\":1099:1122  usersBalnce[msg.sender] */\n      0xffffffffffffffffffffffffffffffffffffffff\n      and\n      0xffffffffffffffffffffffffffffffffffffffff\n      and\n      dup2\n      mstore\n      0x20\n      add\n      swap1\n      dup2\n      mstore\n      0x20\n      add\n      0x00\n      keccak256\n      sload\n        /* \"src/contarcts/2Pack.sol\":1084:1094  _postPrice */\n      dup3\n        /* \"src/contarcts/2Pack.sol\":1084:1122  _postPrice  <= usersBalnce[msg.sender] */\n      gt\n        /* \"src/contarcts/2Pack.sol\":1080:1277  if (_postPrice  <= usersBalnce[msg.sender]){... */\n      tag_65\n      jumpi\n        /* \"src/contarcts/2Pack.sol\":1190:1225  transfer(address(this), _postPrice) */\n      tag_66\n        /* \"src/contarcts/2Pack.sol\":1207:1211  this */\n      address\n        /* \"src/contarcts/2Pack.sol\":1214:1224  _postPrice */\n      dup4\n        /* \"src/contarcts/2Pack.sol\":1190:1198  transfer */\n      tag_20\n        /* \"src/contarcts/2Pack.sol\":1190:1225  transfer(address(this), _postPrice) */\n      jump\t// in\n    tag_66:\n        /* \"src/contarcts/2Pack.sol\":1080:1277  if (_postPrice  <= usersBalnce[msg.sender]){... */\n    tag_65:\n        /* \"src/contarcts/2Pack.sol\":692:1283  {  ... */\n      pop\n        /* \"src/contarcts/2Pack.sol\":649:1283  function createPost(uint _postPrice) public{  ... */\n      pop\n      jump\t// out\n        /* \"src/contarcts/2Pack.sol\":2368:2705  function transfer(address receiver, uint amount) public payable{... */\n    tag_20:\n        /* \"src/contarcts/2Pack.sol\":2504:2510  amount */\n      dup1\n        /* \"src/contarcts/2Pack.sol\":2478:2489  usersBalnce */\n      0x02\n        /* \"src/contarcts/2Pack.sol\":2478:2501  usersBalnce[msg.sender] */\n      0x00\n        /* \"src/contarcts/2Pack.sol\":2490:2500  msg.sender */\n      caller\n        /* \"src/contarcts/2Pack.sol\":2478:2501  usersBalnce[msg.sender] */\n      0xffffffffffffffffffffffffffffffffffffffff\n      and\n      0xffffffffffffffffffffffffffffffffffffffff\n      and\n      dup2\n      mstore\n      0x20\n      add\n      swap1\n      dup2\n      mstore\n      0x20\n      add\n      0x00\n      keccak256\n      sload\n        /* \"src/contarcts/2Pack.sol\":2478:2510  usersBalnce[msg.sender] >=amount */\n      lt\n      iszero\n        /* \"src/contarcts/2Pack.sol\":2470:2511  require(usersBalnce[msg.sender] >=amount) */\n      tag_68\n      jumpi\n      0x00\n      dup1\n      revert\n    tag_68:\n        /* \"src/contarcts/2Pack.sol\":2573:2584  usersBalnce */\n      0x02\n        /* \"src/contarcts/2Pack.sol\":2573:2594  usersBalnce[receiver] */\n      0x00\n        /* \"src/contarcts/2Pack.sol\":2585:2593  receiver */\n      dup4\n        /* \"src/contarcts/2Pack.sol\":2573:2594  usersBalnce[receiver] */\n      0xffffffffffffffffffffffffffffffffffffffff\n      and\n      0xffffffffffffffffffffffffffffffffffffffff\n      and\n      dup2\n      mstore\n      0x20\n      add\n      swap1\n      dup2\n      mstore\n      0x20\n      add\n      0x00\n      keccak256\n      sload\n        /* \"src/contarcts/2Pack.sol\":2563:2569  amount */\n      dup2\n        /* \"src/contarcts/2Pack.sol\":2540:2551  usersBalnce */\n      0x02\n        /* \"src/contarcts/2Pack.sol\":2540:2561  usersBalnce[receiver] */\n      0x00\n        /* \"src/contarcts/2Pack.sol\":2552:2560  receiver */\n      dup6\n        /* \"src/contarcts/2Pack.sol\":2540:2561  usersBalnce[receiver] */\n      0xffffffffffffffffffffffffffffffffffffffff\n      and\n      0xffffffffffffffffffffffffffffffffffffffff\n      and\n      dup2\n      mstore\n      0x20\n      add\n      swap1\n      dup2\n      mstore\n      0x20\n      add\n      0x00\n      keccak256\n      sload\n        /* \"src/contarcts/2Pack.sol\":2540:2569  usersBalnce[receiver] +amount */\n      tag_69\n      swap2\n      swap1\n      tag_64\n      jump\t// in\n    tag_69:\n        /* \"src/contarcts/2Pack.sol\":2540:2594  usersBalnce[receiver] +amount >= usersBalnce[receiver] */\n      lt\n      iszero\n        /* \"src/contarcts/2Pack.sol\":2532:2595  require(usersBalnce[receiver] +amount >= usersBalnce[receiver]) */\n      tag_70\n      jumpi\n      0x00\n      dup1\n      revert\n    tag_70:\n        /* \"src/contarcts/2Pack.sol\":2631:2637  amount */\n      dup1\n        /* \"src/contarcts/2Pack.sol\":2605:2616  usersBalnce */\n      0x02\n        /* \"src/contarcts/2Pack.sol\":2605:2628  usersBalnce[msg.sender] */\n      0x00\n        /* \"src/contarcts/2Pack.sol\":2617:2627  msg.sender */\n      caller\n        /* \"src/contarcts/2Pack.sol\":2605:2628  usersBalnce[msg.sender] */\n      0xffffffffffffffffffffffffffffffffffffffff\n      and\n      0xffffffffffffffffffffffffffffffffffffffff\n      and\n      dup2\n      mstore\n      0x20\n      add\n      swap1\n      dup2\n      mstore\n      0x20\n      add\n      0x00\n      keccak256\n      0x00\n        /* \"src/contarcts/2Pack.sol\":2605:2637  usersBalnce[msg.sender] -=amount */\n      dup3\n      dup3\n      sload\n      tag_71\n      swap2\n      swap1\n      tag_48\n      jump\t// in\n    tag_71:\n      swap3\n      pop\n      pop\n      dup2\n      swap1\n      sstore\n      pop\n        /* \"src/contarcts/2Pack.sol\":2691:2697  amount */\n      dup1\n        /* \"src/contarcts/2Pack.sol\":2667:2678  usersBalnce */\n      0x02\n        /* \"src/contarcts/2Pack.sol\":2667:2688  usersBalnce[receiver] */\n      0x00\n        /* \"src/contarcts/2Pack.sol\":2679:2687  receiver */\n      dup5\n        /* \"src/contarcts/2Pack.sol\":2667:2688  usersBalnce[receiver] */\n      0xffffffffffffffffffffffffffffffffffffffff\n      and\n      0xffffffffffffffffffffffffffffffffffffffff\n      and\n      dup2\n      mstore\n      0x20\n      add\n      swap1\n      dup2\n      mstore\n      0x20\n      add\n      0x00\n      keccak256\n      0x00\n        /* \"src/contarcts/2Pack.sol\":2667:2697  usersBalnce[receiver] +=amount */\n      dup3\n      dup3\n      sload\n      tag_72\n      swap2\n      swap1\n      tag_64\n      jump\t// in\n    tag_72:\n      swap3\n      pop\n      pop\n      dup2\n      swap1\n      sstore\n      pop\n        /* \"src/contarcts/2Pack.sol\":2368:2705  function transfer(address receiver, uint amount) public payable{... */\n      pop\n      pop\n      jump\t// out\n        /* \"src/contarcts/2Pack.sol\":1998:2362  function changePrice(uint _postID, uint newPostPrice) public{... */\n    tag_25:\n        /* \"src/contarcts/2Pack.sol\":2139:2145  uint i */\n      0x00\n        /* \"src/contarcts/2Pack.sol\":2134:2356  for (uint i = 0; i< (postMap[msg.sender]).length; i++){... */\n    tag_74:\n        /* \"src/contarcts/2Pack.sol\":2155:2162  postMap */\n      0x01\n        /* \"src/contarcts/2Pack.sol\":2155:2174  postMap[msg.sender] */\n      0x00\n        /* \"src/contarcts/2Pack.sol\":2163:2173  msg.sender */\n      caller\n        /* \"src/contarcts/2Pack.sol\":2155:2174  postMap[msg.sender] */\n      0xffffffffffffffffffffffffffffffffffffffff\n      and\n      0xffffffffffffffffffffffffffffffffffffffff\n      and\n      dup2\n      mstore\n      0x20\n      add\n      swap1\n      dup2\n      mstore\n      0x20\n      add\n      0x00\n      keccak256\n        /* \"src/contarcts/2Pack.sol\":2154:2182  (postMap[msg.sender]).length */\n      dup1\n      sload\n      swap1\n      pop\n        /* \"src/contarcts/2Pack.sol\":2151:2152  i */\n      dup2\n        /* \"src/contarcts/2Pack.sol\":2151:2182  i< (postMap[msg.sender]).length */\n      lt\n        /* \"src/contarcts/2Pack.sol\":2134:2356  for (uint i = 0; i< (postMap[msg.sender]).length; i++){... */\n      iszero\n      tag_75\n      jumpi\n        /* \"src/contarcts/2Pack.sol\":2215:2222  postMap */\n      0x01\n        /* \"src/contarcts/2Pack.sol\":2215:2234  postMap[msg.sender] */\n      0x00\n        /* \"src/contarcts/2Pack.sol\":2223:2233  msg.sender */\n      caller\n        /* \"src/contarcts/2Pack.sol\":2215:2234  postMap[msg.sender] */\n      0xffffffffffffffffffffffffffffffffffffffff\n      and\n      0xffffffffffffffffffffffffffffffffffffffff\n      and\n      dup2\n      mstore\n      0x20\n      add\n      swap1\n      dup2\n      mstore\n      0x20\n      add\n      0x00\n      keccak256\n        /* \"src/contarcts/2Pack.sol\":2235:2236  i */\n      dup2\n        /* \"src/contarcts/2Pack.sol\":2215:2237  postMap[msg.sender][i] */\n      dup2\n      sload\n      dup2\n      lt\n      tag_77\n      jumpi\n      tag_78\n      tag_44\n      jump\t// in\n    tag_78:\n    tag_77:\n      swap1\n      0x00\n      mstore\n      keccak256(0x00, 0x20)\n      swap1\n      0x05\n      mul\n      add\n        /* \"src/contarcts/2Pack.sol\":2215:2244  postMap[msg.sender][i].postID */\n      0x00\n      add\n      sload\n        /* \"src/contarcts/2Pack.sol\":2206:2213  _postID */\n      dup4\n        /* \"src/contarcts/2Pack.sol\":2206:2244  _postID==postMap[msg.sender][i].postID */\n      eq\n        /* \"src/contarcts/2Pack.sol\":2202:2346  if (_postID==postMap[msg.sender][i].postID){... */\n      iszero\n      tag_80\n      jumpi\n        /* \"src/contarcts/2Pack.sol\":2296:2308  newPostPrice */\n      dup2\n        /* \"src/contarcts/2Pack.sol\":2263:2270  postMap */\n      0x01\n        /* \"src/contarcts/2Pack.sol\":2263:2282  postMap[msg.sender] */\n      0x00\n        /* \"src/contarcts/2Pack.sol\":2271:2281  msg.sender */\n      caller\n        /* \"src/contarcts/2Pack.sol\":2263:2282  postMap[msg.sender] */\n      0xffffffffffffffffffffffffffffffffffffffff\n      and\n      0xffffffffffffffffffffffffffffffffffffffff\n      and\n      dup2\n      mstore\n      0x20\n      add\n      swap1\n      dup2\n      mstore\n      0x20\n      add\n      0x00\n      keccak256\n        /* \"src/contarcts/2Pack.sol\":2283:2284  i */\n      dup3\n        /* \"src/contarcts/2Pack.sol\":2263:2285  postMap[msg.sender][i] */\n      dup2\n      sload\n      dup2\n      lt\n      tag_81\n      jumpi\n      tag_82\n      tag_44\n      jump\t// in\n    tag_82:\n    tag_81:\n      swap1\n      0x00\n      mstore\n      keccak256(0x00, 0x20)\n      swap1\n      0x05\n      mul\n      add\n        /* \"src/contarcts/2Pack.sol\":2263:2295  postMap[msg.sender][i].postPrice */\n      0x02\n      add\n        /* \"src/contarcts/2Pack.sol\":2263:2308  postMap[msg.sender][i].postPrice=newPostPrice */\n      dup2\n      swap1\n      sstore\n      pop\n        /* \"src/contarcts/2Pack.sol\":2326:2331  break */\n      jump(tag_75)\n        /* \"src/contarcts/2Pack.sol\":2202:2346  if (_postID==postMap[msg.sender][i].postID){... */\n    tag_80:\n        /* \"src/contarcts/2Pack.sol\":2184:2187  i++ */\n      dup1\n      dup1\n      tag_84\n      swap1\n      tag_60\n      jump\t// in\n    tag_84:\n      swap2\n      pop\n      pop\n        /* \"src/contarcts/2Pack.sol\":2134:2356  for (uint i = 0; i< (postMap[msg.sender]).length; i++){... */\n      jump(tag_74)\n    tag_75:\n      pop\n        /* \"src/contarcts/2Pack.sol\":1998:2362  function changePrice(uint _postID, uint newPostPrice) public{... */\n      pop\n      pop\n      jump\t// out\n        /* \"src/contarcts/2Pack.sol\":1290:1453  function getUserPosts() view public returns (Post[] memory ){... */\n    tag_28:\n        /* \"src/contarcts/2Pack.sol\":1335:1348  Post[] memory */\n      0x60\n        /* \"src/contarcts/2Pack.sol\":1427:1434  postMap */\n      0x01\n        /* \"src/contarcts/2Pack.sol\":1427:1446  postMap[msg.sender] */\n      0x00\n        /* \"src/contarcts/2Pack.sol\":1435:1445  msg.sender */\n      caller\n        /* \"src/contarcts/2Pack.sol\":1427:1446  postMap[msg.sender] */\n      0xffffffffffffffffffffffffffffffffffffffff\n      and\n      0xffffffffffffffffffffffffffffffffffffffff\n      and\n      dup2\n      mstore\n      0x20\n      add\n      swap1\n      dup2\n      mstore\n      0x20\n      add\n      0x00\n      keccak256\n        /* \"src/contarcts/2Pack.sol\":1419:1446  return  postMap[msg.sender] */\n      dup1\n      sload\n      dup1\n      0x20\n      mul\n      0x20\n      add\n      mload(0x40)\n      swap1\n      dup2\n      add\n      0x40\n      mstore\n      dup1\n      swap3\n      swap2\n      swap1\n      dup2\n      dup2\n      mstore\n      0x20\n      add\n      0x00\n      swap1\n    tag_86:\n      dup3\n      dup3\n      lt\n      iszero\n      tag_87\n      jumpi\n      dup4\n      dup3\n      swap1\n      0x00\n      mstore\n      keccak256(0x00, 0x20)\n      swap1\n      0x05\n      mul\n      add\n      mload(0x40)\n      dup1\n      0xa0\n      add\n      0x40\n      mstore\n      swap1\n      dup2\n      0x00\n      dup3\n      add\n      sload\n      dup2\n      mstore\n      0x20\n      add\n      0x01\n      dup3\n      add\n      0x00\n      swap1\n      sload\n      swap1\n      0x0100\n      exp\n      swap1\n      div\n      0xffffffffffffffffffffffffffffffffffffffff\n      and\n      0xffffffffffffffffffffffffffffffffffffffff\n      and\n      0xffffffffffffffffffffffffffffffffffffffff\n      and\n      dup2\n      mstore\n      0x20\n      add\n      0x02\n      dup3\n      add\n      sload\n      dup2\n      mstore\n      0x20\n      add\n      0x03\n      dup3\n      add\n      sload\n      dup2\n      mstore\n      0x20\n      add\n      0x04\n      dup3\n      add\n      sload\n      dup2\n      mstore\n      pop\n      pop\n      dup2\n      mstore\n      0x20\n      add\n      swap1\n      0x01\n      add\n      swap1\n      jump(tag_86)\n    tag_87:\n      pop\n      pop\n      pop\n      pop\n      swap1\n      pop\n        /* \"src/contarcts/2Pack.sol\":1290:1453  function getUserPosts() view public returns (Post[] memory ){... */\n      swap1\n      jump\t// out\n        /* \"src/contarcts/2Pack.sol\":479:523  mapping (address => uint) public usersBalnce */\n    tag_35:\n      mstore(0x20, 0x02)\n      dup1\n      0x00\n      mstore\n      keccak256(0x00, 0x40)\n      0x00\n      swap2\n      pop\n      swap1\n      pop\n      sload\n      dup2\n      jump\t// out\n        /* \"#utility.yul\":7:146   */\n    tag_90:\n        /* \"#utility.yul\":53:58   */\n      0x00\n        /* \"#utility.yul\":91:97   */\n      dup2\n        /* \"#utility.yul\":78:98   */\n      calldataload\n        /* \"#utility.yul\":69:98   */\n      swap1\n      pop\n        /* \"#utility.yul\":107:140   */\n      tag_92\n        /* \"#utility.yul\":134:139   */\n      dup2\n        /* \"#utility.yul\":107:140   */\n      tag_93\n      jump\t// in\n    tag_92:\n        /* \"#utility.yul\":7:146   */\n      swap3\n      swap2\n      pop\n      pop\n      jump\t// out\n        /* \"#utility.yul\":152:291   */\n    tag_94:\n        /* \"#utility.yul\":198:203   */\n      0x00\n        /* \"#utility.yul\":236:242   */\n      dup2\n        /* \"#utility.yul\":223:243   */\n      calldataload\n        /* \"#utility.yul\":214:243   */\n      swap1\n      pop\n        /* \"#utility.yul\":252:285   */\n      tag_96\n        /* \"#utility.yul\":279:284   */\n      dup2\n        /* \"#utility.yul\":252:285   */\n      tag_97\n      jump\t// in\n    tag_96:\n        /* \"#utility.yul\":152:291   */\n      swap3\n      swap2\n      pop\n      pop\n      jump\t// out\n        /* \"#utility.yul\":297:626   */\n    tag_34:\n        /* \"#utility.yul\":356:362   */\n      0x00\n        /* \"#utility.yul\":405:407   */\n      0x20\n        /* \"#utility.yul\":393:402   */\n      dup3\n        /* \"#utility.yul\":384:391   */\n      dup5\n        /* \"#utility.yul\":380:403   */\n      sub\n        /* \"#utility.yul\":376:408   */\n      slt\n        /* \"#utility.yul\":373:492   */\n      iszero\n      tag_99\n      jumpi\n        /* \"#utility.yul\":411:490   */\n      tag_100\n      tag_101\n      jump\t// in\n    tag_100:\n        /* \"#utility.yul\":373:492   */\n    tag_99:\n        /* \"#utility.yul\":531:532   */\n      0x00\n        /* \"#utility.yul\":556:609   */\n      tag_102\n        /* \"#utility.yul\":601:608   */\n      dup5\n        /* \"#utility.yul\":592:598   */\n      dup3\n        /* \"#utility.yul\":581:590   */\n      dup6\n        /* \"#utility.yul\":577:599   */\n      add\n        /* \"#utility.yul\":556:609   */\n      tag_90\n      jump\t// in\n    tag_102:\n        /* \"#utility.yul\":546:609   */\n      swap2\n      pop\n        /* \"#utility.yul\":502:619   */\n      pop\n        /* \"#utility.yul\":297:626   */\n      swap3\n      swap2\n      pop\n      pop\n      jump\t// out\n        /* \"#utility.yul\":632:1106   */\n    tag_19:\n        /* \"#utility.yul\":700:706   */\n      0x00\n        /* \"#utility.yul\":708:714   */\n      dup1\n        /* \"#utility.yul\":757:759   */\n      0x40\n        /* \"#utility.yul\":745:754   */\n      dup4\n        /* \"#utility.yul\":736:743   */\n      dup6\n        /* \"#utility.yul\":732:755   */\n      sub\n        /* \"#utility.yul\":728:760   */\n      slt\n        /* \"#utility.yul\":725:844   */\n      iszero\n      tag_104\n      jumpi\n        /* \"#utility.yul\":763:842   */\n      tag_105\n      tag_101\n      jump\t// in\n    tag_105:\n        /* \"#utility.yul\":725:844   */\n    tag_104:\n        /* \"#utility.yul\":883:884   */\n      0x00\n        /* \"#utility.yul\":908:961   */\n      tag_106\n        /* \"#utility.yul\":953:960   */\n      dup6\n        /* \"#utility.yul\":944:950   */\n      dup3\n        /* \"#utility.yul\":933:942   */\n      dup7\n        /* \"#utility.yul\":929:951   */\n      add\n        /* \"#utility.yul\":908:961   */\n      tag_90\n      jump\t// in\n    tag_106:\n        /* \"#utility.yul\":898:961   */\n      swap3\n      pop\n        /* \"#utility.yul\":854:971   */\n      pop\n        /* \"#utility.yul\":1010:1012   */\n      0x20\n        /* \"#utility.yul\":1036:1089   */\n      tag_107\n        /* \"#utility.yul\":1081:1088   */\n      dup6\n        /* \"#utility.yul\":1072:1078   */\n      dup3\n        /* \"#utility.yul\":1061:1070   */\n      dup7\n        /* \"#utility.yul\":1057:1079   */\n      add\n        /* \"#utility.yul\":1036:1089   */\n      tag_94\n      jump\t// in\n    tag_107:\n        /* \"#utility.yul\":1026:1089   */\n      swap2\n      pop\n        /* \"#utility.yul\":981:1099   */\n      pop\n        /* \"#utility.yul\":632:1106   */\n      swap3\n      pop\n      swap3\n      swap1\n      pop\n      jump\t// out\n        /* \"#utility.yul\":1112:1441   */\n    tag_11:\n        /* \"#utility.yul\":1171:1177   */\n      0x00\n        /* \"#utility.yul\":1220:1222   */\n      0x20\n        /* \"#utility.yul\":1208:1217   */\n      dup3\n        /* \"#utility.yul\":1199:1206   */\n      dup5\n        /* \"#utility.yul\":1195:1218   */\n      sub\n        /* \"#utility.yul\":1191:1223   */\n      slt\n        /* \"#utility.yul\":1188:1307   */\n      iszero\n      tag_109\n      jumpi\n        /* \"#utility.yul\":1226:1305   */\n      tag_110\n      tag_101\n      jump\t// in\n    tag_110:\n        /* \"#utility.yul\":1188:1307   */\n    tag_109:\n        /* \"#utility.yul\":1346:1347   */\n      0x00\n        /* \"#utility.yul\":1371:1424   */\n      tag_111\n        /* \"#utility.yul\":1416:1423   */\n      dup5\n        /* \"#utility.yul\":1407:1413   */\n      dup3\n        /* \"#utility.yul\":1396:1405   */\n      dup6\n        /* \"#utility.yul\":1392:1414   */\n      add\n        /* \"#utility.yul\":1371:1424   */\n      tag_94\n      jump\t// in\n    tag_111:\n        /* \"#utility.yul\":1361:1424   */\n      swap2\n      pop\n        /* \"#utility.yul\":1317:1434   */\n      pop\n        /* \"#utility.yul\":1112:1441   */\n      swap3\n      swap2\n      pop\n      pop\n      jump\t// out\n        /* \"#utility.yul\":1447:1921   */\n    tag_24:\n        /* \"#utility.yul\":1515:1521   */\n      0x00\n        /* \"#utility.yul\":1523:1529   */\n      dup1\n        /* \"#utility.yul\":1572:1574   */\n      0x40\n        /* \"#utility.yul\":1560:1569   */\n      dup4\n        /* \"#utility.yul\":1551:1558   */\n      dup6\n        /* \"#utility.yul\":1547:1570   */\n      sub\n        /* \"#utility.yul\":1543:1575   */\n      slt\n        /* \"#utility.yul\":1540:1659   */\n      iszero\n      tag_113\n      jumpi\n        /* \"#utility.yul\":1578:1657   */\n      tag_114\n      tag_101\n      jump\t// in\n    tag_114:\n        /* \"#utility.yul\":1540:1659   */\n    tag_113:\n        /* \"#utility.yul\":1698:1699   */\n      0x00\n        /* \"#utility.yul\":1723:1776   */\n      tag_115\n        /* \"#utility.yul\":1768:1775   */\n      dup6\n        /* \"#utility.yul\":1759:1765   */\n      dup3\n        /* \"#utility.yul\":1748:1757   */\n      dup7\n        /* \"#utility.yul\":1744:1766   */\n      add\n        /* \"#utility.yul\":1723:1776   */\n      tag_94\n      jump\t// in\n    tag_115:\n        /* \"#utility.yul\":1713:1776   */\n      swap3\n      pop\n        /* \"#utility.yul\":1669:1786   */\n      pop\n        /* \"#utility.yul\":1825:1827   */\n      0x20\n        /* \"#utility.yul\":1851:1904   */\n      tag_116\n        /* \"#utility.yul\":1896:1903   */\n      dup6\n        /* \"#utility.yul\":1887:1893   */\n      dup3\n        /* \"#utility.yul\":1876:1885   */\n      dup7\n        /* \"#utility.yul\":1872:1894   */\n      add\n        /* \"#utility.yul\":1851:1904   */\n      tag_94\n      jump\t// in\n    tag_116:\n        /* \"#utility.yul\":1841:1904   */\n      swap2\n      pop\n        /* \"#utility.yul\":1796:1914   */\n      pop\n        /* \"#utility.yul\":1447:1921   */\n      swap3\n      pop\n      swap3\n      swap1\n      pop\n      jump\t// out\n        /* \"#utility.yul\":1927:2186   */\n    tag_117:\n        /* \"#utility.yul\":2036:2046   */\n      0x00\n        /* \"#utility.yul\":2057:2143   */\n      tag_119\n        /* \"#utility.yul\":2139:2142   */\n      dup4\n        /* \"#utility.yul\":2131:2137   */\n      dup4\n        /* \"#utility.yul\":2057:2143   */\n      tag_120\n      jump\t// in\n    tag_119:\n        /* \"#utility.yul\":2175:2179   */\n      0xa0\n        /* \"#utility.yul\":2170:2173   */\n      dup4\n        /* \"#utility.yul\":2166:2180   */\n      add\n        /* \"#utility.yul\":2152:2180   */\n      swap1\n      pop\n        /* \"#utility.yul\":1927:2186   */\n      swap3\n      swap2\n      pop\n      pop\n      jump\t// out\n        /* \"#utility.yul\":2192:2300   */\n    tag_121:\n        /* \"#utility.yul\":2269:2293   */\n      tag_123\n        /* \"#utility.yul\":2287:2292   */\n      dup2\n        /* \"#utility.yul\":2269:2293   */\n      tag_124\n      jump\t// in\n    tag_123:\n        /* \"#utility.yul\":2264:2267   */\n      dup3\n        /* \"#utility.yul\":2257:2294   */\n      mstore\n        /* \"#utility.yul\":2192:2300   */\n      pop\n      pop\n      jump\t// out\n        /* \"#utility.yul\":2354:3246   */\n    tag_125:\n        /* \"#utility.yul\":2513:2516   */\n      0x00\n        /* \"#utility.yul\":2542:2616   */\n      tag_127\n        /* \"#utility.yul\":2610:2615   */\n      dup3\n        /* \"#utility.yul\":2542:2616   */\n      tag_128\n      jump\t// in\n    tag_127:\n        /* \"#utility.yul\":2632:2738   */\n      tag_129\n        /* \"#utility.yul\":2731:2737   */\n      dup2\n        /* \"#utility.yul\":2726:2729   */\n      dup6\n        /* \"#utility.yul\":2632:2738   */\n      tag_130\n      jump\t// in\n    tag_129:\n        /* \"#utility.yul\":2625:2738   */\n      swap4\n      pop\n        /* \"#utility.yul\":2762:2838   */\n      tag_131\n        /* \"#utility.yul\":2832:2837   */\n      dup4\n        /* \"#utility.yul\":2762:2838   */\n      tag_132\n      jump\t// in\n    tag_131:\n        /* \"#utility.yul\":2861:2868   */\n      dup1\n        /* \"#utility.yul\":2892:2893   */\n      0x00\n        /* \"#utility.yul\":2877:3221   */\n    tag_133:\n        /* \"#utility.yul\":2902:2908   */\n      dup4\n        /* \"#utility.yul\":2899:2900   */\n      dup2\n        /* \"#utility.yul\":2896:2909   */\n      lt\n        /* \"#utility.yul\":2877:3221   */\n      iszero\n      tag_135\n      jumpi\n        /* \"#utility.yul\":2978:2984   */\n      dup2\n        /* \"#utility.yul\":2972:2985   */\n      mload\n        /* \"#utility.yul\":3005:3108   */\n      tag_136\n        /* \"#utility.yul\":3104:3107   */\n      dup9\n        /* \"#utility.yul\":3089:3102   */\n      dup3\n        /* \"#utility.yul\":3005:3108   */\n      tag_117\n      jump\t// in\n    tag_136:\n        /* \"#utility.yul\":2998:3108   */\n      swap8\n      pop\n        /* \"#utility.yul\":3131:3211   */\n      tag_137\n        /* \"#utility.yul\":3204:3210   */\n      dup4\n        /* \"#utility.yul\":3131:3211   */\n      tag_138\n      jump\t// in\n    tag_137:\n        /* \"#utility.yul\":3121:3211   */\n      swap3\n      pop\n        /* \"#utility.yul\":2937:3221   */\n      pop\n        /* \"#utility.yul\":2924:2925   */\n      0x01\n        /* \"#utility.yul\":2921:2922   */\n      dup2\n        /* \"#utility.yul\":2917:2926   */\n      add\n        /* \"#utility.yul\":2912:2926   */\n      swap1\n      pop\n        /* \"#utility.yul\":2877:3221   */\n      jump(tag_133)\n    tag_135:\n        /* \"#utility.yul\":2881:2895   */\n      pop\n        /* \"#utility.yul\":3237:3240   */\n      dup6\n        /* \"#utility.yul\":3230:3240   */\n      swap4\n      pop\n        /* \"#utility.yul\":2518:3246   */\n      pop\n      pop\n      pop\n        /* \"#utility.yul\":2354:3246   */\n      swap3\n      swap2\n      pop\n      pop\n      jump\t// out\n        /* \"#utility.yul\":3296:4337   */\n    tag_120:\n        /* \"#utility.yul\":3423:3427   */\n      0xa0\n        /* \"#utility.yul\":3418:3421   */\n      dup3\n        /* \"#utility.yul\":3414:3428   */\n      add\n        /* \"#utility.yul\":3512:3516   */\n      0x00\n        /* \"#utility.yul\":3505:3510   */\n      dup3\n        /* \"#utility.yul\":3501:3517   */\n      add\n        /* \"#utility.yul\":3495:3518   */\n      mload\n        /* \"#utility.yul\":3531:3594   */\n      tag_140\n        /* \"#utility.yul\":3588:3592   */\n      0x00\n        /* \"#utility.yul\":3583:3586   */\n      dup6\n        /* \"#utility.yul\":3579:3593   */\n      add\n        /* \"#utility.yul\":3565:3577   */\n      dup3\n        /* \"#utility.yul\":3531:3594   */\n      tag_141\n      jump\t// in\n    tag_140:\n        /* \"#utility.yul\":3438:3604   */\n      pop\n        /* \"#utility.yul\":3692:3696   */\n      0x20\n        /* \"#utility.yul\":3685:3690   */\n      dup3\n        /* \"#utility.yul\":3681:3697   */\n      add\n        /* \"#utility.yul\":3675:3698   */\n      mload\n        /* \"#utility.yul\":3711:3774   */\n      tag_142\n        /* \"#utility.yul\":3768:3772   */\n      0x20\n        /* \"#utility.yul\":3763:3766   */\n      dup6\n        /* \"#utility.yul\":3759:3773   */\n      add\n        /* \"#utility.yul\":3745:3757   */\n      dup3\n        /* \"#utility.yul\":3711:3774   */\n      tag_121\n      jump\t// in\n    tag_142:\n        /* \"#utility.yul\":3614:3784   */\n      pop\n        /* \"#utility.yul\":3871:3875   */\n      0x40\n        /* \"#utility.yul\":3864:3869   */\n      dup3\n        /* \"#utility.yul\":3860:3876   */\n      add\n        /* \"#utility.yul\":3854:3877   */\n      mload\n        /* \"#utility.yul\":3890:3953   */\n      tag_143\n        /* \"#utility.yul\":3947:3951   */\n      0x40\n        /* \"#utility.yul\":3942:3945   */\n      dup6\n        /* \"#utility.yul\":3938:3952   */\n      add\n        /* \"#utility.yul\":3924:3936   */\n      dup3\n        /* \"#utility.yul\":3890:3953   */\n      tag_141\n      jump\t// in\n    tag_143:\n        /* \"#utility.yul\":3794:3963   */\n      pop\n        /* \"#utility.yul\":4057:4061   */\n      0x60\n        /* \"#utility.yul\":4050:4055   */\n      dup3\n        /* \"#utility.yul\":4046:4062   */\n      add\n        /* \"#utility.yul\":4040:4063   */\n      mload\n        /* \"#utility.yul\":4076:4139   */\n      tag_144\n        /* \"#utility.yul\":4133:4137   */\n      0x60\n        /* \"#utility.yul\":4128:4131   */\n      dup6\n        /* \"#utility.yul\":4124:4138   */\n      add\n        /* \"#utility.yul\":4110:4122   */\n      dup3\n        /* \"#utility.yul\":4076:4139   */\n      tag_141\n      jump\t// in\n    tag_144:\n        /* \"#utility.yul\":3973:4149   */\n      pop\n        /* \"#utility.yul\":4238:4242   */\n      0x80\n        /* \"#utility.yul\":4231:4236   */\n      dup3\n        /* \"#utility.yul\":4227:4243   */\n      add\n        /* \"#utility.yul\":4221:4244   */\n      mload\n        /* \"#utility.yul\":4257:4320   */\n      tag_145\n        /* \"#utility.yul\":4314:4318   */\n      0x80\n        /* \"#utility.yul\":4309:4312   */\n      dup6\n        /* \"#utility.yul\":4305:4319   */\n      add\n        /* \"#utility.yul\":4291:4303   */\n      dup3\n        /* \"#utility.yul\":4257:4320   */\n      tag_141\n      jump\t// in\n    tag_145:\n        /* \"#utility.yul\":4159:4330   */\n      pop\n        /* \"#utility.yul\":3392:4337   */\n      pop\n        /* \"#utility.yul\":3296:4337   */\n      pop\n      pop\n      jump\t// out\n        /* \"#utility.yul\":4343:4451   */\n    tag_141:\n        /* \"#utility.yul\":4420:4444   */\n      tag_147\n        /* \"#utility.yul\":4438:4443   */\n      dup2\n        /* \"#utility.yul\":4420:4444   */\n      tag_148\n      jump\t// in\n    tag_147:\n        /* \"#utility.yul\":4415:4418   */\n      dup3\n        /* \"#utility.yul\":4408:4445   */\n      mstore\n        /* \"#utility.yul\":4343:4451   */\n      pop\n      pop\n      jump\t// out\n        /* \"#utility.yul\":4457:4575   */\n    tag_149:\n        /* \"#utility.yul\":4544:4568   */\n      tag_151\n        /* \"#utility.yul\":4562:4567   */\n      dup2\n        /* \"#utility.yul\":4544:4568   */\n      tag_148\n      jump\t// in\n    tag_151:\n        /* \"#utility.yul\":4539:4542   */\n      dup3\n        /* \"#utility.yul\":4532:4569   */\n      mstore\n        /* \"#utility.yul\":4457:4575   */\n      pop\n      pop\n      jump\t// out\n        /* \"#utility.yul\":4581:5034   */\n    tag_30:\n        /* \"#utility.yul\":4764:4768   */\n      0x00\n        /* \"#utility.yul\":4802:4804   */\n      0x20\n        /* \"#utility.yul\":4791:4800   */\n      dup3\n        /* \"#utility.yul\":4787:4805   */\n      add\n        /* \"#utility.yul\":4779:4805   */\n      swap1\n      pop\n        /* \"#utility.yul\":4851:4860   */\n      dup2\n        /* \"#utility.yul\":4845:4849   */\n      dup2\n        /* \"#utility.yul\":4841:4861   */\n      sub\n        /* \"#utility.yul\":4837:4838   */\n      0x00\n        /* \"#utility.yul\":4826:4835   */\n      dup4\n        /* \"#utility.yul\":4822:4839   */\n      add\n        /* \"#utility.yul\":4815:4862   */\n      mstore\n        /* \"#utility.yul\":4879:5027   */\n      tag_153\n        /* \"#utility.yul\":5022:5026   */\n      dup2\n        /* \"#utility.yul\":5013:5019   */\n      dup5\n        /* \"#utility.yul\":4879:5027   */\n      tag_125\n      jump\t// in\n    tag_153:\n        /* \"#utility.yul\":4871:5027   */\n      swap1\n      pop\n        /* \"#utility.yul\":4581:5034   */\n      swap3\n      swap2\n      pop\n      pop\n      jump\t// out\n        /* \"#utility.yul\":5040:5262   */\n    tag_37:\n        /* \"#utility.yul\":5133:5137   */\n      0x00\n        /* \"#utility.yul\":5171:5173   */\n      0x20\n        /* \"#utility.yul\":5160:5169   */\n      dup3\n        /* \"#utility.yul\":5156:5174   */\n      add\n        /* \"#utility.yul\":5148:5174   */\n      swap1\n      pop\n        /* \"#utility.yul\":5184:5255   */\n      tag_155\n        /* \"#utility.yul\":5252:5253   */\n      0x00\n        /* \"#utility.yul\":5241:5250   */\n      dup4\n        /* \"#utility.yul\":5237:5254   */\n      add\n        /* \"#utility.yul\":5228:5234   */\n      dup5\n        /* \"#utility.yul\":5184:5255   */\n      tag_149\n      jump\t// in\n    tag_155:\n        /* \"#utility.yul\":5040:5262   */\n      swap3\n      swap2\n      pop\n      pop\n      jump\t// out\n        /* \"#utility.yul\":5349:5501   */\n    tag_132:\n        /* \"#utility.yul\":5436:5440   */\n      0x00\n        /* \"#utility.yul\":5459:5462   */\n      dup2\n        /* \"#utility.yul\":5451:5462   */\n      swap1\n      pop\n        /* \"#utility.yul\":5489:5493   */\n      0x20\n        /* \"#utility.yul\":5484:5487   */\n      dup3\n        /* \"#utility.yul\":5480:5494   */\n      add\n        /* \"#utility.yul\":5472:5494   */\n      swap1\n      pop\n        /* \"#utility.yul\":5349:5501   */\n      swap2\n      swap1\n      pop\n      jump\t// out\n        /* \"#utility.yul\":5507:5641   */\n    tag_128:\n        /* \"#utility.yul\":5594:5600   */\n      0x00\n        /* \"#utility.yul\":5628:5633   */\n      dup2\n        /* \"#utility.yul\":5622:5634   */\n      mload\n        /* \"#utility.yul\":5612:5634   */\n      swap1\n      pop\n        /* \"#utility.yul\":5507:5641   */\n      swap2\n      swap1\n      pop\n      jump\t// out\n        /* \"#utility.yul\":5647:5780   */\n    tag_138:\n        /* \"#utility.yul\":5737:5741   */\n      0x00\n        /* \"#utility.yul\":5769:5773   */\n      0x20\n        /* \"#utility.yul\":5764:5767   */\n      dup3\n        /* \"#utility.yul\":5760:5774   */\n      add\n        /* \"#utility.yul\":5752:5774   */\n      swap1\n      pop\n        /* \"#utility.yul\":5647:5780   */\n      swap2\n      swap1\n      pop\n      jump\t// out\n        /* \"#utility.yul\":5786:5990   */\n    tag_130:\n        /* \"#utility.yul\":5905:5916   */\n      0x00\n        /* \"#utility.yul\":5939:5945   */\n      dup3\n        /* \"#utility.yul\":5934:5937   */\n      dup3\n        /* \"#utility.yul\":5927:5946   */\n      mstore\n        /* \"#utility.yul\":5979:5983   */\n      0x20\n        /* \"#utility.yul\":5974:5977   */\n      dup3\n        /* \"#utility.yul\":5970:5984   */\n      add\n        /* \"#utility.yul\":5955:5984   */\n      swap1\n      pop\n        /* \"#utility.yul\":5786:5990   */\n      swap3\n      swap2\n      pop\n      pop\n      jump\t// out\n        /* \"#utility.yul\":5996:6301   */\n    tag_64:\n        /* \"#utility.yul\":6036:6039   */\n      0x00\n        /* \"#utility.yul\":6055:6075   */\n      tag_163\n        /* \"#utility.yul\":6073:6074   */\n      dup3\n        /* \"#utility.yul\":6055:6075   */\n      tag_148\n      jump\t// in\n    tag_163:\n        /* \"#utility.yul\":6050:6075   */\n      swap2\n      pop\n        /* \"#utility.yul\":6089:6109   */\n      tag_164\n        /* \"#utility.yul\":6107:6108   */\n      dup4\n        /* \"#utility.yul\":6089:6109   */\n      tag_148\n      jump\t// in\n    tag_164:\n        /* \"#utility.yul\":6084:6109   */\n      swap3\n      pop\n        /* \"#utility.yul\":6243:6244   */\n      dup3\n        /* \"#utility.yul\":6175:6241   */\n      0xffffffffffffffffffffffffffffffffffffffffffffffffffffffffffffffff\n        /* \"#utility.yul\":6171:6245   */\n      sub\n        /* \"#utility.yul\":6168:6169   */\n      dup3\n        /* \"#utility.yul\":6165:6246   */\n      gt\n        /* \"#utility.yul\":6162:6269   */\n      iszero\n      tag_165\n      jumpi\n        /* \"#utility.yul\":6249:6267   */\n      tag_166\n      tag_167\n      jump\t// in\n    tag_166:\n        /* \"#utility.yul\":6162:6269   */\n    tag_165:\n        /* \"#utility.yul\":6293:6294   */\n      dup3\n        /* \"#utility.yul\":6290:6291   */\n      dup3\n        /* \"#utility.yul\":6286:6295   */\n      add\n        /* \"#utility.yul\":6279:6295   */\n      swap1\n      pop\n        /* \"#utility.yul\":5996:6301   */\n      swap3\n      swap2\n      pop\n      pop\n      jump\t// out\n        /* \"#utility.yul\":6307:6498   */\n    tag_48:\n        /* \"#utility.yul\":6347:6351   */\n      0x00\n        /* \"#utility.yul\":6367:6387   */\n      tag_169\n        /* \"#utility.yul\":6385:6386   */\n      dup3\n        /* \"#utility.yul\":6367:6387   */\n      tag_148\n      jump\t// in\n    tag_169:\n        /* \"#utility.yul\":6362:6387   */\n      swap2\n      pop\n        /* \"#utility.yul\":6401:6421   */\n      tag_170\n        /* \"#utility.yul\":6419:6420   */\n      dup4\n        /* \"#utility.yul\":6401:6421   */\n      tag_148\n      jump\t// in\n    tag_170:\n        /* \"#utility.yul\":6396:6421   */\n      swap3\n      pop\n        /* \"#utility.yul\":6440:6441   */\n      dup3\n        /* \"#utility.yul\":6437:6438   */\n      dup3\n        /* \"#utility.yul\":6434:6442   */\n      lt\n        /* \"#utility.yul\":6431:6465   */\n      iszero\n      tag_171\n      jumpi\n        /* \"#utility.yul\":6445:6463   */\n      tag_172\n      tag_167\n      jump\t// in\n    tag_172:\n        /* \"#utility.yul\":6431:6465   */\n    tag_171:\n        /* \"#utility.yul\":6490:6491   */\n      dup3\n        /* \"#utility.yul\":6487:6488   */\n      dup3\n        /* \"#utility.yul\":6483:6492   */\n      sub\n        /* \"#utility.yul\":6475:6492   */\n      swap1\n      pop\n        /* \"#utility.yul\":6307:6498   */\n      swap3\n      swap2\n      pop\n      pop\n      jump\t// out\n        /* \"#utility.yul\":6504:6600   */\n    tag_124:\n        /* \"#utility.yul\":6541:6548   */\n      0x00\n        /* \"#utility.yul\":6570:6594   */\n      tag_174\n        /* \"#utility.yul\":6588:6593   */\n      dup3\n        /* \"#utility.yul\":6570:6594   */\n      tag_175\n      jump\t// in\n    tag_174:\n        /* \"#utility.yul\":6559:6594   */\n      swap1\n      pop\n        /* \"#utility.yul\":6504:6600   */\n      swap2\n      swap1\n      pop\n      jump\t// out\n        /* \"#utility.yul\":6606:6732   */\n    tag_175:\n        /* \"#utility.yul\":6643:6650   */\n      0x00\n        /* \"#utility.yul\":6683:6725   */\n      0xffffffffffffffffffffffffffffffffffffffff\n        /* \"#utility.yul\":6676:6681   */\n      dup3\n        /* \"#utility.yul\":6672:6726   */\n      and\n        /* \"#utility.yul\":6661:6726   */\n      swap1\n      pop\n        /* \"#utility.yul\":6606:6732   */\n      swap2\n      swap1\n      pop\n      jump\t// out\n        /* \"#utility.yul\":6738:6815   */\n    tag_148:\n        /* \"#utility.yul\":6775:6782   */\n      0x00\n        /* \"#utility.yul\":6804:6809   */\n      dup2\n        /* \"#utility.yul\":6793:6809   */\n      swap1\n      pop\n        /* \"#utility.yul\":6738:6815   */\n      swap2\n      swap1\n      pop\n      jump\t// out\n        /* \"#utility.yul\":6821:7054   */\n    tag_60:\n        /* \"#utility.yul\":6860:6863   */\n      0x00\n        /* \"#utility.yul\":6883:6907   */\n      tag_179\n        /* \"#utility.yul\":6901:6906   */\n      dup3\n        /* \"#utility.yul\":6883:6907   */\n      tag_148\n      jump\t// in\n    tag_179:\n        /* \"#utility.yul\":6874:6907   */\n      swap2\n      pop\n        /* \"#utility.yul\":6929:6995   */\n      0xffffffffffffffffffffffffffffffffffffffffffffffffffffffffffffffff\n        /* \"#utility.yul\":6922:6927   */\n      dup3\n        /* \"#utility.yul\":6919:6996   */\n      eq\n        /* \"#utility.yul\":6916:7019   */\n      iszero\n      tag_180\n      jumpi\n        /* \"#utility.yul\":6999:7017   */\n      tag_181\n      tag_167\n      jump\t// in\n    tag_181:\n        /* \"#utility.yul\":6916:7019   */\n    tag_180:\n        /* \"#utility.yul\":7046:7047   */\n      0x01\n        /* \"#utility.yul\":7039:7044   */\n      dup3\n        /* \"#utility.yul\":7035:7048   */\n      add\n        /* \"#utility.yul\":7028:7048   */\n      swap1\n      pop\n        /* \"#utility.yul\":6821:7054   */\n      swap2\n      swap1\n      pop\n      jump\t// out\n        /* \"#utility.yul\":7060:7240   */\n    tag_167:\n        /* \"#utility.yul\":7108:7185   */\n      0x4e487b7100000000000000000000000000000000000000000000000000000000\n        /* \"#utility.yul\":7105:7106   */\n      0x00\n        /* \"#utility.yul\":7098:7186   */\n      mstore\n        /* \"#utility.yul\":7205:7209   */\n      0x11\n        /* \"#utility.yul\":7202:7203   */\n      0x04\n        /* \"#utility.yul\":7195:7210   */\n      mstore\n        /* \"#utility.yul\":7229:7233   */\n      0x24\n        /* \"#utility.yul\":7226:7227   */\n      0x00\n        /* \"#utility.yul\":7219:7234   */\n      revert\n        /* \"#utility.yul\":7246:7426   */\n    tag_57:\n        /* \"#utility.yul\":7294:7371   */\n      0x4e487b7100000000000000000000000000000000000000000000000000000000\n        /* \"#utility.yul\":7291:7292   */\n      0x00\n        /* \"#utility.yul\":7284:7372   */\n      mstore\n        /* \"#utility.yul\":7391:7395   */\n      0x31\n        /* \"#utility.yul\":7388:7389   */\n      0x04\n        /* \"#utility.yul\":7381:7396   */\n      mstore\n        /* \"#utility.yul\":7415:7419   */\n      0x24\n        /* \"#utility.yul\":7412:7413   */\n      0x00\n        /* \"#utility.yul\":7405:7420   */\n      revert\n        /* \"#utility.yul\":7432:7612   */\n    tag_44:\n        /* \"#utility.yul\":7480:7557   */\n      0x4e487b7100000000000000000000000000000000000000000000000000000000\n        /* \"#utility.yul\":7477:7478   */\n      0x00\n        /* \"#utility.yul\":7470:7558   */\n      mstore\n        /* \"#utility.yul\":7577:7581   */\n      0x32\n        /* \"#utility.yul\":7574:7575   */\n      0x04\n        /* \"#utility.yul\":7567:7582   */\n      mstore\n        /* \"#utility.yul\":7601:7605   */\n      0x24\n        /* \"#utility.yul\":7598:7599   */\n      0x00\n        /* \"#utility.yul\":7591:7606   */\n      revert\n        /* \"#utility.yul\":7741:7858   */\n    tag_101:\n        /* \"#utility.yul\":7850:7851   */\n      0x00\n        /* \"#utility.yul\":7847:7848   */\n      dup1\n        /* \"#utility.yul\":7840:7852   */\n      revert\n        /* \"#utility.yul\":7864:7986   */\n    tag_93:\n        /* \"#utility.yul\":7937:7961   */\n      tag_189\n        /* \"#utility.yul\":7955:7960   */\n      dup2\n        /* \"#utility.yul\":7937:7961   */\n      tag_124\n      jump\t// in\n    tag_189:\n        /* \"#utility.yul\":7930:7935   */\n      dup2\n        /* \"#utility.yul\":7927:7962   */\n      eq\n        /* \"#utility.yul\":7917:7980   */\n      tag_190\n      jumpi\n        /* \"#utility.yul\":7976:7977   */\n      0x00\n        /* \"#utility.yul\":7973:7974   */\n      dup1\n        /* \"#utility.yul\":7966:7978   */\n      revert\n        /* \"#utility.yul\":7917:7980   */\n    tag_190:\n        /* \"#utility.yul\":7864:7986   */\n      pop\n      jump\t// out\n        /* \"#utility.yul\":7992:8114   */\n    tag_97:\n        /* \"#utility.yul\":8065:8089   */\n      tag_192\n        /* \"#utility.yul\":8083:8088   */\n      dup2\n        /* \"#utility.yul\":8065:8089   */\n      tag_148\n      jump\t// in\n    tag_192:\n        /* \"#utility.yul\":8058:8063   */\n      dup2\n        /* \"#utility.yul\":8055:8090   */\n      eq\n        /* \"#utility.yul\":8045:8108   */\n      tag_193\n      jumpi\n        /* \"#utility.yul\":8104:8105   */\n      0x00\n        /* \"#utility.yul\":8101:8102   */\n      dup1\n        /* \"#utility.yul\":8094:8106   */\n      revert\n        /* \"#utility.yul\":8045:8108   */\n    tag_193:\n        /* \"#utility.yul\":7992:8114   */\n      pop\n      jump\t// out\n\n    auxdata: 0xa2646970667358221220cfdd76176a5136537d6a4bfe77e0f06ab8c432d3ceae5b010323077e5a4ff77664736f6c63430008070033\n}\n",
				"bytecode": {
					"linkReferences": {},
					"object": "608060405234801561001057600080fd5b503373ffffffffffffffffffffffffffffffffffffffff1631600260003373ffffffffffffffffffffffffffffffffffffffff1673ffffffffffffffffffffffffffffffffffffffff16815260200190815260200160002081905550610e898061007b6000396000f3fe6080604052600436106100555760003560e01c8063094cd5ee1461005a5780631d69bd4814610083578063a9059cbb146100ac578063b3de019c146100c8578063cc4ef2cc146100f1578063cca003f41461011c575b600080fd5b34801561006657600080fd5b50610081600480360381019061007c9190610a96565b610159565b005b34801561008f57600080fd5b506100aa60048036038101906100a59190610a96565b610478565b005b6100c660048036038101906100c19190610a56565b610600565b005b3480156100d457600080fd5b506100ef60048036038101906100ea9190610ac3565b610792565b005b3480156100fd57600080fd5b506101066108cd565b6040516101139190610c0e565b60405180910390f35b34801561012857600080fd5b50610143600480360381019061013e9190610a29565b6109e7565b6040516101509190610c30565b60405180910390f35b60005b600160003373ffffffffffffffffffffffffffffffffffffffff1673ffffffffffffffffffffffffffffffffffffffff1681526020019081526020016000208054905081101561047457600160003373ffffffffffffffffffffffffffffffffffffffff1673ffffffffffffffffffffffffffffffffffffffff16815260200190815260200160002081815481106101f7576101f6610df1565b5b90600052602060002090600502016000015482141561046157600160003373ffffffffffffffffffffffffffffffffffffffff1673ffffffffffffffffffffffffffffffffffffffff16815260200190815260200160002060018060003373ffffffffffffffffffffffffffffffffffffffff1673ffffffffffffffffffffffffffffffffffffffff1681526020019081526020016000208054905061029d9190610cda565b815481106102ae576102ad610df1565b5b9060005260206000209060050201600160003373ffffffffffffffffffffffffffffffffffffffff1673ffffffffffffffffffffffffffffffffffffffff168152602001908152602001600020828154811061030d5761030c610df1565b5b9060005260206000209060050201600082015481600001556001820160009054906101000a900473ffffffffffffffffffffffffffffffffffffffff168160010160006101000a81548173ffffffffffffffffffffffffffffffffffffffff021916908373ffffffffffffffffffffffffffffffffffffffff160217905550600282015481600201556003820154816003015560048201548160040155905050600160003373ffffffffffffffffffffffffffffffffffffffff1673ffffffffffffffffffffffffffffffffffffffff1681526020019081526020016000208054806103fc576103fb610dc2565b5b60019003818190600052602060002090600502016000808201600090556001820160006101000a81549073ffffffffffffffffffffffffffffffffffffffff021916905560028201600090556003820160009055600482016000905550509055610474565b808061046c90610d4a565b91505061015c565b5050565b60006040518060a0016040528060005481526020013373ffffffffffffffffffffffffffffffffffffffff16815260200183815260200142815260200160008152509050600160003373ffffffffffffffffffffffffffffffffffffffff1673ffffffffffffffffffffffffffffffffffffffff1681526020019081526020016000208190806001815401808255809150506001900390600052602060002090600502016000909190919091506000820151816000015560208201518160010160006101000a81548173ffffffffffffffffffffffffffffffffffffffff021916908373ffffffffffffffffffffffffffffffffffffffff160217905550604082015181600201556060820151816003015560808201518160040155505060016000546105a59190610c84565b600081905550600260003373ffffffffffffffffffffffffffffffffffffffff1673ffffffffffffffffffffffffffffffffffffffff1681526020019081526020016000205482116105fc576105fb3083610600565b5b5050565b80600260003373ffffffffffffffffffffffffffffffffffffffff1673ffffffffffffffffffffffffffffffffffffffff16815260200190815260200160002054101561064c57600080fd5b600260008373ffffffffffffffffffffffffffffffffffffffff1673ffffffffffffffffffffffffffffffffffffffff1681526020019081526020016000205481600260008573ffffffffffffffffffffffffffffffffffffffff1673ffffffffffffffffffffffffffffffffffffffff168152602001908152602001600020546106d79190610c84565b10156106e257600080fd5b80600260003373ffffffffffffffffffffffffffffffffffffffff1673ffffffffffffffffffffffffffffffffffffffff16815260200190815260200160002060008282546107319190610cda565b9250508190555080600260008473ffffffffffffffffffffffffffffffffffffffff1673ffffffffffffffffffffffffffffffffffffffff16815260200190815260200160002060008282546107879190610c84565b925050819055505050565b60005b600160003373ffffffffffffffffffffffffffffffffffffffff1673ffffffffffffffffffffffffffffffffffffffff168152602001908152602001600020805490508110156108c857600160003373ffffffffffffffffffffffffffffffffffffffff1673ffffffffffffffffffffffffffffffffffffffff16815260200190815260200160002081815481106108305761082f610df1565b5b9060005260206000209060050201600001548314156108b55781600160003373ffffffffffffffffffffffffffffffffffffffff1673ffffffffffffffffffffffffffffffffffffffff168152602001908152602001600020828154811061089b5761089a610df1565b5b9060005260206000209060050201600201819055506108c8565b80806108c090610d4a565b915050610795565b505050565b6060600160003373ffffffffffffffffffffffffffffffffffffffff1673ffffffffffffffffffffffffffffffffffffffff168152602001908152602001600020805480602002602001604051908101604052809291908181526020016000905b828210156109de57838290600052602060002090600502016040518060a0016040529081600082015481526020016001820160009054906101000a900473ffffffffffffffffffffffffffffffffffffffff1673ffffffffffffffffffffffffffffffffffffffff1673ffffffffffffffffffffffffffffffffffffffff16815260200160028201548152602001600382015481526020016004820154815250508152602001906001019061092e565b50505050905090565b60026020528060005260406000206000915090505481565b600081359050610a0e81610e25565b92915050565b600081359050610a2381610e3c565b92915050565b600060208284031215610a3f57610a3e610e20565b5b6000610a4d848285016109ff565b91505092915050565b60008060408385031215610a6d57610a6c610e20565b5b6000610a7b858286016109ff565b9250506020610a8c85828601610a14565b9150509250929050565b600060208284031215610aac57610aab610e20565b5b6000610aba84828501610a14565b91505092915050565b60008060408385031215610ada57610ad9610e20565b5b6000610ae885828601610a14565b9250506020610af985828601610a14565b9150509250929050565b6000610b0f8383610b88565b60a08301905092915050565b610b2481610d0e565b82525050565b6000610b3582610c5b565b610b3f8185610c73565b9350610b4a83610c4b565b8060005b83811015610b7b578151610b628882610b03565b9750610b6d83610c66565b925050600181019050610b4e565b5085935050505092915050565b60a082016000820151610b9e6000850182610bf0565b506020820151610bb16020850182610b1b565b506040820151610bc46040850182610bf0565b506060820151610bd76060850182610bf0565b506080820151610bea6080850182610bf0565b50505050565b610bf981610d40565b82525050565b610c0881610d40565b82525050565b60006020820190508181036000830152610c288184610b2a565b905092915050565b6000602082019050610c456000830184610bff565b92915050565b6000819050602082019050919050565b600081519050919050565b6000602082019050919050565b600082825260208201905092915050565b6000610c8f82610d40565b9150610c9a83610d40565b9250827fffffffffffffffffffffffffffffffffffffffffffffffffffffffffffffffff03821115610ccf57610cce610d93565b5b828201905092915050565b6000610ce582610d40565b9150610cf083610d40565b925082821015610d0357610d02610d93565b5b828203905092915050565b6000610d1982610d20565b9050919050565b600073ffffffffffffffffffffffffffffffffffffffff82169050919050565b6000819050919050565b6000610d5582610d40565b91507fffffffffffffffffffffffffffffffffffffffffffffffffffffffffffffffff821415610d8857610d87610d93565b5b600182019050919050565b7f4e487b7100000000000000000000000000000000000000000000000000000000600052601160045260246000fd5b7f4e487b7100000000000000000000000000000000000000000000000000000000600052603160045260246000fd5b7f4e487b7100000000000000000000000000000000000000000000000000000000600052603260045260246000fd5b600080fd5b610e2e81610d0e565b8114610e3957600080fd5b50565b610e4581610d40565b8114610e5057600080fd5b5056fea2646970667358221220cfdd76176a5136537d6a4bfe77e0f06ab8c432d3ceae5b010323077e5a4ff77664736f6c63430008070033",
					"opcodes": "PUSH1 0x80 PUSH1 0x40 MSTORE CALLVALUE DUP1 ISZERO PUSH2 0x10 JUMPI PUSH1 0x0 DUP1 REVERT JUMPDEST POP CALLER PUSH20 0xFFFFFFFFFFFFFFFFFFFFFFFFFFFFFFFFFFFFFFFF AND BALANCE PUSH1 0x2 PUSH1 0x0 CALLER PUSH20 0xFFFFFFFFFFFFFFFFFFFFFFFFFFFFFFFFFFFFFFFF AND PUSH20 0xFFFFFFFFFFFFFFFFFFFFFFFFFFFFFFFFFFFFFFFF AND DUP2 MSTORE PUSH1 0x20 ADD SWAP1 DUP2 MSTORE PUSH1 0x20 ADD PUSH1 0x0 KECCAK256 DUP2 SWAP1 SSTORE POP PUSH2 0xE89 DUP1 PUSH2 0x7B PUSH1 0x0 CODECOPY PUSH1 0x0 RETURN INVALID PUSH1 0x80 PUSH1 0x40 MSTORE PUSH1 0x4 CALLDATASIZE LT PUSH2 0x55 JUMPI PUSH1 0x0 CALLDATALOAD PUSH1 0xE0 SHR DUP1 PUSH4 0x94CD5EE EQ PUSH2 0x5A JUMPI DUP1 PUSH4 0x1D69BD48 EQ PUSH2 0x83 JUMPI DUP1 PUSH4 0xA9059CBB EQ PUSH2 0xAC JUMPI DUP1 PUSH4 0xB3DE019C EQ PUSH2 0xC8 JUMPI DUP1 PUSH4 0xCC4EF2CC EQ PUSH2 0xF1 JUMPI DUP1 PUSH4 0xCCA003F4 EQ PUSH2 0x11C JUMPI JUMPDEST PUSH1 0x0 DUP1 REVERT JUMPDEST CALLVALUE DUP1 ISZERO PUSH2 0x66 JUMPI PUSH1 0x0 DUP1 REVERT JUMPDEST POP PUSH2 0x81 PUSH1 0x4 DUP1 CALLDATASIZE SUB DUP2 ADD SWAP1 PUSH2 0x7C SWAP2 SWAP1 PUSH2 0xA96 JUMP JUMPDEST PUSH2 0x159 JUMP JUMPDEST STOP JUMPDEST CALLVALUE DUP1 ISZERO PUSH2 0x8F JUMPI PUSH1 0x0 DUP1 REVERT JUMPDEST POP PUSH2 0xAA PUSH1 0x4 DUP1 CALLDATASIZE SUB DUP2 ADD SWAP1 PUSH2 0xA5 SWAP2 SWAP1 PUSH2 0xA96 JUMP JUMPDEST PUSH2 0x478 JUMP JUMPDEST STOP JUMPDEST PUSH2 0xC6 PUSH1 0x4 DUP1 CALLDATASIZE SUB DUP2 ADD SWAP1 PUSH2 0xC1 SWAP2 SWAP1 PUSH2 0xA56 JUMP JUMPDEST PUSH2 0x600 JUMP JUMPDEST STOP JUMPDEST CALLVALUE DUP1 ISZERO PUSH2 0xD4 JUMPI PUSH1 0x0 DUP1 REVERT JUMPDEST POP PUSH2 0xEF PUSH1 0x4 DUP1 CALLDATASIZE SUB DUP2 ADD SWAP1 PUSH2 0xEA SWAP2 SWAP1 PUSH2 0xAC3 JUMP JUMPDEST PUSH2 0x792 JUMP JUMPDEST STOP JUMPDEST CALLVALUE DUP1 ISZERO PUSH2 0xFD JUMPI PUSH1 0x0 DUP1 REVERT JUMPDEST POP PUSH2 0x106 PUSH2 0x8CD JUMP JUMPDEST PUSH1 0x40 MLOAD PUSH2 0x113 SWAP2 SWAP1 PUSH2 0xC0E JUMP JUMPDEST PUSH1 0x40 MLOAD DUP1 SWAP2 SUB SWAP1 RETURN JUMPDEST CALLVALUE DUP1 ISZERO PUSH2 0x128 JUMPI PUSH1 0x0 DUP1 REVERT JUMPDEST POP PUSH2 0x143 PUSH1 0x4 DUP1 CALLDATASIZE SUB DUP2 ADD SWAP1 PUSH2 0x13E SWAP2 SWAP1 PUSH2 0xA29 JUMP JUMPDEST PUSH2 0x9E7 JUMP JUMPDEST PUSH1 0x40 MLOAD PUSH2 0x150 SWAP2 SWAP1 PUSH2 0xC30 JUMP JUMPDEST PUSH1 0x40 MLOAD DUP1 SWAP2 SUB SWAP1 RETURN JUMPDEST PUSH1 0x0 JUMPDEST PUSH1 0x1 PUSH1 0x0 CALLER PUSH20 0xFFFFFFFFFFFFFFFFFFFFFFFFFFFFFFFFFFFFFFFF AND PUSH20 0xFFFFFFFFFFFFFFFFFFFFFFFFFFFFFFFFFFFFFFFF AND DUP2 MSTORE PUSH1 0x20 ADD SWAP1 DUP2 MSTORE PUSH1 0x20 ADD PUSH1 0x0 KECCAK256 DUP1 SLOAD SWAP1 POP DUP2 LT ISZERO PUSH2 0x474 JUMPI PUSH1 0x1 PUSH1 0x0 CALLER PUSH20 0xFFFFFFFFFFFFFFFFFFFFFFFFFFFFFFFFFFFFFFFF AND PUSH20 0xFFFFFFFFFFFFFFFFFFFFFFFFFFFFFFFFFFFFFFFF AND DUP2 MSTORE PUSH1 0x20 ADD SWAP1 DUP2 MSTORE PUSH1 0x20 ADD PUSH1 0x0 KECCAK256 DUP2 DUP2 SLOAD DUP2 LT PUSH2 0x1F7 JUMPI PUSH2 0x1F6 PUSH2 0xDF1 JUMP JUMPDEST JUMPDEST SWAP1 PUSH1 0x0 MSTORE PUSH1 0x20 PUSH1 0x0 KECCAK256 SWAP1 PUSH1 0x5 MUL ADD PUSH1 0x0 ADD SLOAD DUP3 EQ ISZERO PUSH2 0x461 JUMPI PUSH1 0x1 PUSH1 0x0 CALLER PUSH20 0xFFFFFFFFFFFFFFFFFFFFFFFFFFFFFFFFFFFFFFFF AND PUSH20 0xFFFFFFFFFFFFFFFFFFFFFFFFFFFFFFFFFFFFFFFF AND DUP2 MSTORE PUSH1 0x20 ADD SWAP1 DUP2 MSTORE PUSH1 0x20 ADD PUSH1 0x0 KECCAK256 PUSH1 0x1 DUP1 PUSH1 0x0 CALLER PUSH20 0xFFFFFFFFFFFFFFFFFFFFFFFFFFFFFFFFFFFFFFFF AND PUSH20 0xFFFFFFFFFFFFFFFFFFFFFFFFFFFFFFFFFFFFFFFF AND DUP2 MSTORE PUSH1 0x20 ADD SWAP1 DUP2 MSTORE PUSH1 0x20 ADD PUSH1 0x0 KECCAK256 DUP1 SLOAD SWAP1 POP PUSH2 0x29D SWAP2 SWAP1 PUSH2 0xCDA JUMP JUMPDEST DUP2 SLOAD DUP2 LT PUSH2 0x2AE JUMPI PUSH2 0x2AD PUSH2 0xDF1 JUMP JUMPDEST JUMPDEST SWAP1 PUSH1 0x0 MSTORE PUSH1 0x20 PUSH1 0x0 KECCAK256 SWAP1 PUSH1 0x5 MUL ADD PUSH1 0x1 PUSH1 0x0 CALLER PUSH20 0xFFFFFFFFFFFFFFFFFFFFFFFFFFFFFFFFFFFFFFFF AND PUSH20 0xFFFFFFFFFFFFFFFFFFFFFFFFFFFFFFFFFFFFFFFF AND DUP2 MSTORE PUSH1 0x20 ADD SWAP1 DUP2 MSTORE PUSH1 0x20 ADD PUSH1 0x0 KECCAK256 DUP3 DUP2 SLOAD DUP2 LT PUSH2 0x30D JUMPI PUSH2 0x30C PUSH2 0xDF1 JUMP JUMPDEST JUMPDEST SWAP1 PUSH1 0x0 MSTORE PUSH1 0x20 PUSH1 0x0 KECCAK256 SWAP1 PUSH1 0x5 MUL ADD PUSH1 0x0 DUP3 ADD SLOAD DUP2 PUSH1 0x0 ADD SSTORE PUSH1 0x1 DUP3 ADD PUSH1 0x0 SWAP1 SLOAD SWAP1 PUSH2 0x100 EXP SWAP1 DIV PUSH20 0xFFFFFFFFFFFFFFFFFFFFFFFFFFFFFFFFFFFFFFFF AND DUP2 PUSH1 0x1 ADD PUSH1 0x0 PUSH2 0x100 EXP DUP2 SLOAD DUP2 PUSH20 0xFFFFFFFFFFFFFFFFFFFFFFFFFFFFFFFFFFFFFFFF MUL NOT AND SWAP1 DUP4 PUSH20 0xFFFFFFFFFFFFFFFFFFFFFFFFFFFFFFFFFFFFFFFF AND MUL OR SWAP1 SSTORE POP PUSH1 0x2 DUP3 ADD SLOAD DUP2 PUSH1 0x2 ADD SSTORE PUSH1 0x3 DUP3 ADD SLOAD DUP2 PUSH1 0x3 ADD SSTORE PUSH1 0x4 DUP3 ADD SLOAD DUP2 PUSH1 0x4 ADD SSTORE SWAP1 POP POP PUSH1 0x1 PUSH1 0x0 CALLER PUSH20 0xFFFFFFFFFFFFFFFFFFFFFFFFFFFFFFFFFFFFFFFF AND PUSH20 0xFFFFFFFFFFFFFFFFFFFFFFFFFFFFFFFFFFFFFFFF AND DUP2 MSTORE PUSH1 0x20 ADD SWAP1 DUP2 MSTORE PUSH1 0x20 ADD PUSH1 0x0 KECCAK256 DUP1 SLOAD DUP1 PUSH2 0x3FC JUMPI PUSH2 0x3FB PUSH2 0xDC2 JUMP JUMPDEST JUMPDEST PUSH1 0x1 SWAP1 SUB DUP2 DUP2 SWAP1 PUSH1 0x0 MSTORE PUSH1 0x20 PUSH1 0x0 KECCAK256 SWAP1 PUSH1 0x5 MUL ADD PUSH1 0x0 DUP1 DUP3 ADD PUSH1 0x0 SWAP1 SSTORE PUSH1 0x1 DUP3 ADD PUSH1 0x0 PUSH2 0x100 EXP DUP2 SLOAD SWAP1 PUSH20 0xFFFFFFFFFFFFFFFFFFFFFFFFFFFFFFFFFFFFFFFF MUL NOT AND SWAP1 SSTORE PUSH1 0x2 DUP3 ADD PUSH1 0x0 SWAP1 SSTORE PUSH1 0x3 DUP3 ADD PUSH1 0x0 SWAP1 SSTORE PUSH1 0x4 DUP3 ADD PUSH1 0x0 SWAP1 SSTORE POP POP SWAP1 SSTORE PUSH2 0x474 JUMP JUMPDEST DUP1 DUP1 PUSH2 0x46C SWAP1 PUSH2 0xD4A JUMP JUMPDEST SWAP2 POP POP PUSH2 0x15C JUMP JUMPDEST POP POP JUMP JUMPDEST PUSH1 0x0 PUSH1 0x40 MLOAD DUP1 PUSH1 0xA0 ADD PUSH1 0x40 MSTORE DUP1 PUSH1 0x0 SLOAD DUP2 MSTORE PUSH1 0x20 ADD CALLER PUSH20 0xFFFFFFFFFFFFFFFFFFFFFFFFFFFFFFFFFFFFFFFF AND DUP2 MSTORE PUSH1 0x20 ADD DUP4 DUP2 MSTORE PUSH1 0x20 ADD TIMESTAMP DUP2 MSTORE PUSH1 0x20 ADD PUSH1 0x0 DUP2 MSTORE POP SWAP1 POP PUSH1 0x1 PUSH1 0x0 CALLER PUSH20 0xFFFFFFFFFFFFFFFFFFFFFFFFFFFFFFFFFFFFFFFF AND PUSH20 0xFFFFFFFFFFFFFFFFFFFFFFFFFFFFFFFFFFFFFFFF AND DUP2 MSTORE PUSH1 0x20 ADD SWAP1 DUP2 MSTORE PUSH1 0x20 ADD PUSH1 0x0 KECCAK256 DUP2 SWAP1 DUP1 PUSH1 0x1 DUP2 SLOAD ADD DUP1 DUP3 SSTORE DUP1 SWAP2 POP POP PUSH1 0x1 SWAP1 SUB SWAP1 PUSH1 0x0 MSTORE PUSH1 0x20 PUSH1 0x0 KECCAK256 SWAP1 PUSH1 0x5 MUL ADD PUSH1 0x0 SWAP1 SWAP2 SWAP1 SWAP2 SWAP1 SWAP2 POP PUSH1 0x0 DUP3 ADD MLOAD DUP2 PUSH1 0x0 ADD SSTORE PUSH1 0x20 DUP3 ADD MLOAD DUP2 PUSH1 0x1 ADD PUSH1 0x0 PUSH2 0x100 EXP DUP2 SLOAD DUP2 PUSH20 0xFFFFFFFFFFFFFFFFFFFFFFFFFFFFFFFFFFFFFFFF MUL NOT AND SWAP1 DUP4 PUSH20 0xFFFFFFFFFFFFFFFFFFFFFFFFFFFFFFFFFFFFFFFF AND MUL OR SWAP1 SSTORE POP PUSH1 0x40 DUP3 ADD MLOAD DUP2 PUSH1 0x2 ADD SSTORE PUSH1 0x60 DUP3 ADD MLOAD DUP2 PUSH1 0x3 ADD SSTORE PUSH1 0x80 DUP3 ADD MLOAD DUP2 PUSH1 0x4 ADD SSTORE POP POP PUSH1 0x1 PUSH1 0x0 SLOAD PUSH2 0x5A5 SWAP2 SWAP1 PUSH2 0xC84 JUMP JUMPDEST PUSH1 0x0 DUP2 SWAP1 SSTORE POP PUSH1 0x2 PUSH1 0x0 CALLER PUSH20 0xFFFFFFFFFFFFFFFFFFFFFFFFFFFFFFFFFFFFFFFF AND PUSH20 0xFFFFFFFFFFFFFFFFFFFFFFFFFFFFFFFFFFFFFFFF AND DUP2 MSTORE PUSH1 0x20 ADD SWAP1 DUP2 MSTORE PUSH1 0x20 ADD PUSH1 0x0 KECCAK256 SLOAD DUP3 GT PUSH2 0x5FC JUMPI PUSH2 0x5FB ADDRESS DUP4 PUSH2 0x600 JUMP JUMPDEST JUMPDEST POP POP JUMP JUMPDEST DUP1 PUSH1 0x2 PUSH1 0x0 CALLER PUSH20 0xFFFFFFFFFFFFFFFFFFFFFFFFFFFFFFFFFFFFFFFF AND PUSH20 0xFFFFFFFFFFFFFFFFFFFFFFFFFFFFFFFFFFFFFFFF AND DUP2 MSTORE PUSH1 0x20 ADD SWAP1 DUP2 MSTORE PUSH1 0x20 ADD PUSH1 0x0 KECCAK256 SLOAD LT ISZERO PUSH2 0x64C JUMPI PUSH1 0x0 DUP1 REVERT JUMPDEST PUSH1 0x2 PUSH1 0x0 DUP4 PUSH20 0xFFFFFFFFFFFFFFFFFFFFFFFFFFFFFFFFFFFFFFFF AND PUSH20 0xFFFFFFFFFFFFFFFFFFFFFFFFFFFFFFFFFFFFFFFF AND DUP2 MSTORE PUSH1 0x20 ADD SWAP1 DUP2 MSTORE PUSH1 0x20 ADD PUSH1 0x0 KECCAK256 SLOAD DUP2 PUSH1 0x2 PUSH1 0x0 DUP6 PUSH20 0xFFFFFFFFFFFFFFFFFFFFFFFFFFFFFFFFFFFFFFFF AND PUSH20 0xFFFFFFFFFFFFFFFFFFFFFFFFFFFFFFFFFFFFFFFF AND DUP2 MSTORE PUSH1 0x20 ADD SWAP1 DUP2 MSTORE PUSH1 0x20 ADD PUSH1 0x0 KECCAK256 SLOAD PUSH2 0x6D7 SWAP2 SWAP1 PUSH2 0xC84 JUMP JUMPDEST LT ISZERO PUSH2 0x6E2 JUMPI PUSH1 0x0 DUP1 REVERT JUMPDEST DUP1 PUSH1 0x2 PUSH1 0x0 CALLER PUSH20 0xFFFFFFFFFFFFFFFFFFFFFFFFFFFFFFFFFFFFFFFF AND PUSH20 0xFFFFFFFFFFFFFFFFFFFFFFFFFFFFFFFFFFFFFFFF AND DUP2 MSTORE PUSH1 0x20 ADD SWAP1 DUP2 MSTORE PUSH1 0x20 ADD PUSH1 0x0 KECCAK256 PUSH1 0x0 DUP3 DUP3 SLOAD PUSH2 0x731 SWAP2 SWAP1 PUSH2 0xCDA JUMP JUMPDEST SWAP3 POP POP DUP2 SWAP1 SSTORE POP DUP1 PUSH1 0x2 PUSH1 0x0 DUP5 PUSH20 0xFFFFFFFFFFFFFFFFFFFFFFFFFFFFFFFFFFFFFFFF AND PUSH20 0xFFFFFFFFFFFFFFFFFFFFFFFFFFFFFFFFFFFFFFFF AND DUP2 MSTORE PUSH1 0x20 ADD SWAP1 DUP2 MSTORE PUSH1 0x20 ADD PUSH1 0x0 KECCAK256 PUSH1 0x0 DUP3 DUP3 SLOAD PUSH2 0x787 SWAP2 SWAP1 PUSH2 0xC84 JUMP JUMPDEST SWAP3 POP POP DUP2 SWAP1 SSTORE POP POP POP JUMP JUMPDEST PUSH1 0x0 JUMPDEST PUSH1 0x1 PUSH1 0x0 CALLER PUSH20 0xFFFFFFFFFFFFFFFFFFFFFFFFFFFFFFFFFFFFFFFF AND PUSH20 0xFFFFFFFFFFFFFFFFFFFFFFFFFFFFFFFFFFFFFFFF AND DUP2 MSTORE PUSH1 0x20 ADD SWAP1 DUP2 MSTORE PUSH1 0x20 ADD PUSH1 0x0 KECCAK256 DUP1 SLOAD SWAP1 POP DUP2 LT ISZERO PUSH2 0x8C8 JUMPI PUSH1 0x1 PUSH1 0x0 CALLER PUSH20 0xFFFFFFFFFFFFFFFFFFFFFFFFFFFFFFFFFFFFFFFF AND PUSH20 0xFFFFFFFFFFFFFFFFFFFFFFFFFFFFFFFFFFFFFFFF AND DUP2 MSTORE PUSH1 0x20 ADD SWAP1 DUP2 MSTORE PUSH1 0x20 ADD PUSH1 0x0 KECCAK256 DUP2 DUP2 SLOAD DUP2 LT PUSH2 0x830 JUMPI PUSH2 0x82F PUSH2 0xDF1 JUMP JUMPDEST JUMPDEST SWAP1 PUSH1 0x0 MSTORE PUSH1 0x20 PUSH1 0x0 KECCAK256 SWAP1 PUSH1 0x5 MUL ADD PUSH1 0x0 ADD SLOAD DUP4 EQ ISZERO PUSH2 0x8B5 JUMPI DUP2 PUSH1 0x1 PUSH1 0x0 CALLER PUSH20 0xFFFFFFFFFFFFFFFFFFFFFFFFFFFFFFFFFFFFFFFF AND PUSH20 0xFFFFFFFFFFFFFFFFFFFFFFFFFFFFFFFFFFFFFFFF AND DUP2 MSTORE PUSH1 0x20 ADD SWAP1 DUP2 MSTORE PUSH1 0x20 ADD PUSH1 0x0 KECCAK256 DUP3 DUP2 SLOAD DUP2 LT PUSH2 0x89B JUMPI PUSH2 0x89A PUSH2 0xDF1 JUMP JUMPDEST JUMPDEST SWAP1 PUSH1 0x0 MSTORE PUSH1 0x20 PUSH1 0x0 KECCAK256 SWAP1 PUSH1 0x5 MUL ADD PUSH1 0x2 ADD DUP2 SWAP1 SSTORE POP PUSH2 0x8C8 JUMP JUMPDEST DUP1 DUP1 PUSH2 0x8C0 SWAP1 PUSH2 0xD4A JUMP JUMPDEST SWAP2 POP POP PUSH2 0x795 JUMP JUMPDEST POP POP POP JUMP JUMPDEST PUSH1 0x60 PUSH1 0x1 PUSH1 0x0 CALLER PUSH20 0xFFFFFFFFFFFFFFFFFFFFFFFFFFFFFFFFFFFFFFFF AND PUSH20 0xFFFFFFFFFFFFFFFFFFFFFFFFFFFFFFFFFFFFFFFF AND DUP2 MSTORE PUSH1 0x20 ADD SWAP1 DUP2 MSTORE PUSH1 0x20 ADD PUSH1 0x0 KECCAK256 DUP1 SLOAD DUP1 PUSH1 0x20 MUL PUSH1 0x20 ADD PUSH1 0x40 MLOAD SWAP1 DUP2 ADD PUSH1 0x40 MSTORE DUP1 SWAP3 SWAP2 SWAP1 DUP2 DUP2 MSTORE PUSH1 0x20 ADD PUSH1 0x0 SWAP1 JUMPDEST DUP3 DUP3 LT ISZERO PUSH2 0x9DE JUMPI DUP4 DUP3 SWAP1 PUSH1 0x0 MSTORE PUSH1 0x20 PUSH1 0x0 KECCAK256 SWAP1 PUSH1 0x5 MUL ADD PUSH1 0x40 MLOAD DUP1 PUSH1 0xA0 ADD PUSH1 0x40 MSTORE SWAP1 DUP2 PUSH1 0x0 DUP3 ADD SLOAD DUP2 MSTORE PUSH1 0x20 ADD PUSH1 0x1 DUP3 ADD PUSH1 0x0 SWAP1 SLOAD SWAP1 PUSH2 0x100 EXP SWAP1 DIV PUSH20 0xFFFFFFFFFFFFFFFFFFFFFFFFFFFFFFFFFFFFFFFF AND PUSH20 0xFFFFFFFFFFFFFFFFFFFFFFFFFFFFFFFFFFFFFFFF AND PUSH20 0xFFFFFFFFFFFFFFFFFFFFFFFFFFFFFFFFFFFFFFFF AND DUP2 MSTORE PUSH1 0x20 ADD PUSH1 0x2 DUP3 ADD SLOAD DUP2 MSTORE PUSH1 0x20 ADD PUSH1 0x3 DUP3 ADD SLOAD DUP2 MSTORE PUSH1 0x20 ADD PUSH1 0x4 DUP3 ADD SLOAD DUP2 MSTORE POP POP DUP2 MSTORE PUSH1 0x20 ADD SWAP1 PUSH1 0x1 ADD SWAP1 PUSH2 0x92E JUMP JUMPDEST POP POP POP POP SWAP1 POP SWAP1 JUMP JUMPDEST PUSH1 0x2 PUSH1 0x20 MSTORE DUP1 PUSH1 0x0 MSTORE PUSH1 0x40 PUSH1 0x0 KECCAK256 PUSH1 0x0 SWAP2 POP SWAP1 POP SLOAD DUP2 JUMP JUMPDEST PUSH1 0x0 DUP2 CALLDATALOAD SWAP1 POP PUSH2 0xA0E DUP2 PUSH2 0xE25 JUMP JUMPDEST SWAP3 SWAP2 POP POP JUMP JUMPDEST PUSH1 0x0 DUP2 CALLDATALOAD SWAP1 POP PUSH2 0xA23 DUP2 PUSH2 0xE3C JUMP JUMPDEST SWAP3 SWAP2 POP POP JUMP JUMPDEST PUSH1 0x0 PUSH1 0x20 DUP3 DUP5 SUB SLT ISZERO PUSH2 0xA3F JUMPI PUSH2 0xA3E PUSH2 0xE20 JUMP JUMPDEST JUMPDEST PUSH1 0x0 PUSH2 0xA4D DUP5 DUP3 DUP6 ADD PUSH2 0x9FF JUMP JUMPDEST SWAP2 POP POP SWAP3 SWAP2 POP POP JUMP JUMPDEST PUSH1 0x0 DUP1 PUSH1 0x40 DUP4 DUP6 SUB SLT ISZERO PUSH2 0xA6D JUMPI PUSH2 0xA6C PUSH2 0xE20 JUMP JUMPDEST JUMPDEST PUSH1 0x0 PUSH2 0xA7B DUP6 DUP3 DUP7 ADD PUSH2 0x9FF JUMP JUMPDEST SWAP3 POP POP PUSH1 0x20 PUSH2 0xA8C DUP6 DUP3 DUP7 ADD PUSH2 0xA14 JUMP JUMPDEST SWAP2 POP POP SWAP3 POP SWAP3 SWAP1 POP JUMP JUMPDEST PUSH1 0x0 PUSH1 0x20 DUP3 DUP5 SUB SLT ISZERO PUSH2 0xAAC JUMPI PUSH2 0xAAB PUSH2 0xE20 JUMP JUMPDEST JUMPDEST PUSH1 0x0 PUSH2 0xABA DUP5 DUP3 DUP6 ADD PUSH2 0xA14 JUMP JUMPDEST SWAP2 POP POP SWAP3 SWAP2 POP POP JUMP JUMPDEST PUSH1 0x0 DUP1 PUSH1 0x40 DUP4 DUP6 SUB SLT ISZERO PUSH2 0xADA JUMPI PUSH2 0xAD9 PUSH2 0xE20 JUMP JUMPDEST JUMPDEST PUSH1 0x0 PUSH2 0xAE8 DUP6 DUP3 DUP7 ADD PUSH2 0xA14 JUMP JUMPDEST SWAP3 POP POP PUSH1 0x20 PUSH2 0xAF9 DUP6 DUP3 DUP7 ADD PUSH2 0xA14 JUMP JUMPDEST SWAP2 POP POP SWAP3 POP SWAP3 SWAP1 POP JUMP JUMPDEST PUSH1 0x0 PUSH2 0xB0F DUP4 DUP4 PUSH2 0xB88 JUMP JUMPDEST PUSH1 0xA0 DUP4 ADD SWAP1 POP SWAP3 SWAP2 POP POP JUMP JUMPDEST PUSH2 0xB24 DUP2 PUSH2 0xD0E JUMP JUMPDEST DUP3 MSTORE POP POP JUMP JUMPDEST PUSH1 0x0 PUSH2 0xB35 DUP3 PUSH2 0xC5B JUMP JUMPDEST PUSH2 0xB3F DUP2 DUP6 PUSH2 0xC73 JUMP JUMPDEST SWAP4 POP PUSH2 0xB4A DUP4 PUSH2 0xC4B JUMP JUMPDEST DUP1 PUSH1 0x0 JUMPDEST DUP4 DUP2 LT ISZERO PUSH2 0xB7B JUMPI DUP2 MLOAD PUSH2 0xB62 DUP9 DUP3 PUSH2 0xB03 JUMP JUMPDEST SWAP8 POP PUSH2 0xB6D DUP4 PUSH2 0xC66 JUMP JUMPDEST SWAP3 POP POP PUSH1 0x1 DUP2 ADD SWAP1 POP PUSH2 0xB4E JUMP JUMPDEST POP DUP6 SWAP4 POP POP POP POP SWAP3 SWAP2 POP POP JUMP JUMPDEST PUSH1 0xA0 DUP3 ADD PUSH1 0x0 DUP3 ADD MLOAD PUSH2 0xB9E PUSH1 0x0 DUP6 ADD DUP3 PUSH2 0xBF0 JUMP JUMPDEST POP PUSH1 0x20 DUP3 ADD MLOAD PUSH2 0xBB1 PUSH1 0x20 DUP6 ADD DUP3 PUSH2 0xB1B JUMP JUMPDEST POP PUSH1 0x40 DUP3 ADD MLOAD PUSH2 0xBC4 PUSH1 0x40 DUP6 ADD DUP3 PUSH2 0xBF0 JUMP JUMPDEST POP PUSH1 0x60 DUP3 ADD MLOAD PUSH2 0xBD7 PUSH1 0x60 DUP6 ADD DUP3 PUSH2 0xBF0 JUMP JUMPDEST POP PUSH1 0x80 DUP3 ADD MLOAD PUSH2 0xBEA PUSH1 0x80 DUP6 ADD DUP3 PUSH2 0xBF0 JUMP JUMPDEST POP POP POP POP JUMP JUMPDEST PUSH2 0xBF9 DUP2 PUSH2 0xD40 JUMP JUMPDEST DUP3 MSTORE POP POP JUMP JUMPDEST PUSH2 0xC08 DUP2 PUSH2 0xD40 JUMP JUMPDEST DUP3 MSTORE POP POP JUMP JUMPDEST PUSH1 0x0 PUSH1 0x20 DUP3 ADD SWAP1 POP DUP2 DUP2 SUB PUSH1 0x0 DUP4 ADD MSTORE PUSH2 0xC28 DUP2 DUP5 PUSH2 0xB2A JUMP JUMPDEST SWAP1 POP SWAP3 SWAP2 POP POP JUMP JUMPDEST PUSH1 0x0 PUSH1 0x20 DUP3 ADD SWAP1 POP PUSH2 0xC45 PUSH1 0x0 DUP4 ADD DUP5 PUSH2 0xBFF JUMP JUMPDEST SWAP3 SWAP2 POP POP JUMP JUMPDEST PUSH1 0x0 DUP2 SWAP1 POP PUSH1 0x20 DUP3 ADD SWAP1 POP SWAP2 SWAP1 POP JUMP JUMPDEST PUSH1 0x0 DUP2 MLOAD SWAP1 POP SWAP2 SWAP1 POP JUMP JUMPDEST PUSH1 0x0 PUSH1 0x20 DUP3 ADD SWAP1 POP SWAP2 SWAP1 POP JUMP JUMPDEST PUSH1 0x0 DUP3 DUP3 MSTORE PUSH1 0x20 DUP3 ADD SWAP1 POP SWAP3 SWAP2 POP POP JUMP JUMPDEST PUSH1 0x0 PUSH2 0xC8F DUP3 PUSH2 0xD40 JUMP JUMPDEST SWAP2 POP PUSH2 0xC9A DUP4 PUSH2 0xD40 JUMP JUMPDEST SWAP3 POP DUP3 PUSH32 0xFFFFFFFFFFFFFFFFFFFFFFFFFFFFFFFFFFFFFFFFFFFFFFFFFFFFFFFFFFFFFFFF SUB DUP3 GT ISZERO PUSH2 0xCCF JUMPI PUSH2 0xCCE PUSH2 0xD93 JUMP JUMPDEST JUMPDEST DUP3 DUP3 ADD SWAP1 POP SWAP3 SWAP2 POP POP JUMP JUMPDEST PUSH1 0x0 PUSH2 0xCE5 DUP3 PUSH2 0xD40 JUMP JUMPDEST SWAP2 POP PUSH2 0xCF0 DUP4 PUSH2 0xD40 JUMP JUMPDEST SWAP3 POP DUP3 DUP3 LT ISZERO PUSH2 0xD03 JUMPI PUSH2 0xD02 PUSH2 0xD93 JUMP JUMPDEST JUMPDEST DUP3 DUP3 SUB SWAP1 POP SWAP3 SWAP2 POP POP JUMP JUMPDEST PUSH1 0x0 PUSH2 0xD19 DUP3 PUSH2 0xD20 JUMP JUMPDEST SWAP1 POP SWAP2 SWAP1 POP JUMP JUMPDEST PUSH1 0x0 PUSH20 0xFFFFFFFFFFFFFFFFFFFFFFFFFFFFFFFFFFFFFFFF DUP3 AND SWAP1 POP SWAP2 SWAP1 POP JUMP JUMPDEST PUSH1 0x0 DUP2 SWAP1 POP SWAP2 SWAP1 POP JUMP JUMPDEST PUSH1 0x0 PUSH2 0xD55 DUP3 PUSH2 0xD40 JUMP JUMPDEST SWAP2 POP PUSH32 0xFFFFFFFFFFFFFFFFFFFFFFFFFFFFFFFFFFFFFFFFFFFFFFFFFFFFFFFFFFFFFFFF DUP3 EQ ISZERO PUSH2 0xD88 JUMPI PUSH2 0xD87 PUSH2 0xD93 JUMP JUMPDEST JUMPDEST PUSH1 0x1 DUP3 ADD SWAP1 POP SWAP2 SWAP1 POP JUMP JUMPDEST PUSH32 0x4E487B7100000000000000000000000000000000000000000000000000000000 PUSH1 0x0 MSTORE PUSH1 0x11 PUSH1 0x4 MSTORE PUSH1 0x24 PUSH1 0x0 REVERT JUMPDEST PUSH32 0x4E487B7100000000000000000000000000000000000000000000000000000000 PUSH1 0x0 MSTORE PUSH1 0x31 PUSH1 0x4 MSTORE PUSH1 0x24 PUSH1 0x0 REVERT JUMPDEST PUSH32 0x4E487B7100000000000000000000000000000000000000000000000000000000 PUSH1 0x0 MSTORE PUSH1 0x32 PUSH1 0x4 MSTORE PUSH1 0x24 PUSH1 0x0 REVERT JUMPDEST PUSH1 0x0 DUP1 REVERT JUMPDEST PUSH2 0xE2E DUP2 PUSH2 0xD0E JUMP JUMPDEST DUP2 EQ PUSH2 0xE39 JUMPI PUSH1 0x0 DUP1 REVERT JUMPDEST POP JUMP JUMPDEST PUSH2 0xE45 DUP2 PUSH2 0xD40 JUMP JUMPDEST DUP2 EQ PUSH2 0xE50 JUMPI PUSH1 0x0 DUP1 REVERT JUMPDEST POP JUMP INVALID LOG2 PUSH5 0x6970667358 0x22 SLT KECCAK256 0xCF 0xDD PUSH23 0x176A5136537D6A4BFE77E0F06AB8C432D3CEAE5B010323 SMOD PUSH31 0x5A4FF77664736F6C6343000807003300000000000000000000000000000000 "
				},
				"gasEstimates": {
					"creation": {
						"codeDepositCost": "744200",
						"executionCost": "25587",
						"totalCost": "769787"
					},
					"external": {
						"changePrice(uint256,uint256)": "infinite",
						"createPost(uint256)": "infinite",
						"deletePost(uint256)": "infinite",
						"getUserPosts()": "infinite",
						"transfer(address,uint256)": "infinite",
						"usersBalnce(address)": "2902"
					}
				},
				"methodIdentifiers": {
					"changePrice(uint256,uint256)": "b3de019c",
					"createPost(uint256)": "1d69bd48",
					"deletePost(uint256)": "094cd5ee",
					"getUserPosts()": "cc4ef2cc",
					"transfer(address,uint256)": "a9059cbb",
					"usersBalnce(address)": "cca003f4"
				}
			},
			"storageLayout": {
				"storage": [
					{
						"astId": 14,
						"contract": "src/contarcts/2Pack.sol:Pack",
						"label": "currentPostID",
						"offset": 0,
						"slot": "0",
						"type": "t_uint256"
					},
					{
						"astId": 20,
						"contract": "src/contarcts/2Pack.sol:Pack",
						"label": "postMap",
						"offset": 0,
						"slot": "1",
						"type": "t_mapping(t_address,t_array(t_struct(Post)12_storage)dyn_storage)"
					},
					{
						"astId": 24,
						"contract": "src/contarcts/2Pack.sol:Pack",
						"label": "usersBalnce",
						"offset": 0,
						"slot": "2",
						"type": "t_mapping(t_address,t_uint256)"
					}
				],
				"types": {
					"t_address": {
						"encoding": "inplace",
						"label": "address",
						"numberOfBytes": "20"
					},
					"t_array(t_struct(Post)12_storage)dyn_storage": {
						"base": "t_struct(Post)12_storage",
						"encoding": "dynamic_array",
						"label": "struct Pack.Post[]",
						"numberOfBytes": "32"
					},
					"t_mapping(t_address,t_array(t_struct(Post)12_storage)dyn_storage)": {
						"encoding": "mapping",
						"key": "t_address",
						"label": "mapping(address => struct Pack.Post[])",
						"numberOfBytes": "32",
						"value": "t_array(t_struct(Post)12_storage)dyn_storage"
					},
					"t_mapping(t_address,t_uint256)": {
						"encoding": "mapping",
						"key": "t_address",
						"label": "mapping(address => uint256)",
						"numberOfBytes": "32",
						"value": "t_uint256"
					},
					"t_struct(Post)12_storage": {
						"encoding": "inplace",
						"label": "struct Pack.Post",
						"members": [
							{
								"astId": 3,
								"contract": "src/contarcts/2Pack.sol:Pack",
								"label": "postID",
								"offset": 0,
								"slot": "0",
								"type": "t_uint256"
							},
							{
								"astId": 5,
								"contract": "src/contarcts/2Pack.sol:Pack",
								"label": "postAuthor",
								"offset": 0,
								"slot": "1",
								"type": "t_address"
							},
							{
								"astId": 7,
								"contract": "src/contarcts/2Pack.sol:Pack",
								"label": "postPrice",
								"offset": 0,
								"slot": "2",
								"type": "t_uint256"
							},
							{
								"astId": 9,
								"contract": "src/contarcts/2Pack.sol:Pack",
								"label": "postCreationTime",
								"offset": 0,
								"slot": "3",
								"type": "t_uint256"
							},
							{
								"astId": 11,
								"contract": "src/contarcts/2Pack.sol:Pack",
								"label": "deliverTime",
								"offset": 0,
								"slot": "4",
								"type": "t_uint256"
							}
						],
						"numberOfBytes": "160"
					},
					"t_uint256": {
						"encoding": "inplace",
						"label": "uint256",
						"numberOfBytes": "32"
					}
				}
			},
			"userdoc": {
				"kind": "user",
				"methods": {},
				"version": 1
			}
		}
	}
}