{
	"ToPack/src/contarcts/Pack.sol": {
		"Pack": {
			"abi": [
				{
					"inputs": [],
					"stateMutability": "nonpayable",
					"type": "constructor"
				},
				{
					"inputs": [
						{
							"internalType": "string",
							"name": "message",
							"type": "string"
						}
					],
					"name": "Message",
					"type": "error"
				},
				{
					"inputs": [
						{
							"internalType": "uint256",
							"name": "_postID",
							"type": "uint256"
						},
						{
							"internalType": "uint256",
							"name": "newDeliveryTime",
							"type": "uint256"
						}
					],
					"name": "changeDeliveryTime",
					"outputs": [],
					"stateMutability": "nonpayable",
					"type": "function"
				},
				{
					"inputs": [
						{
							"internalType": "uint256",
							"name": "_postPrice",
							"type": "uint256"
						}
					],
					"name": "createPost",
					"outputs": [],
					"stateMutability": "nonpayable",
					"type": "function"
				},
				{
					"inputs": [
						{
							"internalType": "uint256",
							"name": "_postID",
							"type": "uint256"
						}
					],
					"name": "deletePost",
					"outputs": [],
					"stateMutability": "payable",
					"type": "function"
				},
				{
					"inputs": [],
					"name": "getUserPosts",
					"outputs": [
						{
							"components": [
								{
									"internalType": "uint256",
									"name": "postID",
									"type": "uint256"
								},
								{
									"internalType": "address",
									"name": "postAuthor",
									"type": "address"
								},
								{
									"internalType": "uint256",
									"name": "postPrice",
									"type": "uint256"
								},
								{
									"internalType": "uint256",
									"name": "postCreationTime",
									"type": "uint256"
								},
								{
									"internalType": "uint256",
									"name": "deliverTime",
									"type": "uint256"
								}
							],
							"internalType": "struct Pack.Post[]",
							"name": "",
							"type": "tuple[]"
						}
					],
					"stateMutability": "view",
					"type": "function"
				},
				{
					"inputs": [
						{
							"internalType": "address",
							"name": "receiver",
							"type": "address"
						},
						{
							"internalType": "uint256",
							"name": "amount",
							"type": "uint256"
						}
					],
					"name": "transfer",
					"outputs": [],
					"stateMutability": "payable",
					"type": "function"
				},
				{
					"inputs": [
						{
							"internalType": "address",
							"name": "",
							"type": "address"
						}
					],
					"name": "usersBalnce",
					"outputs": [
						{
							"internalType": "uint256",
							"name": "",
							"type": "uint256"
						}
					],
					"stateMutability": "view",
					"type": "function"
				}
			],
			"devdoc": {
				"kind": "dev",
				"methods": {},
				"version": 1
			},
			"evm": {
				"assembly": "    /* \"ToPack/src/contarcts/Pack.sol\":70:4098  contract Pack{... */\n  mstore(0x40, 0x80)\n    /* \"ToPack/src/contarcts/Pack.sol\":584:667  constructor()  {... */\n  callvalue\n  dup1\n  iszero\n  tag_1\n  jumpi\n  0x00\n  dup1\n  revert\ntag_1:\n  pop\n    /* \"ToPack/src/contarcts/Pack.sol\":641:651  msg.sender */\n  caller\n    /* \"ToPack/src/contarcts/Pack.sol\":633:660  address(msg.sender).balance */\n  0xffffffffffffffffffffffffffffffffffffffff\n  and\n  balance\n    /* \"ToPack/src/contarcts/Pack.sol\":609:620  usersBalnce */\n  0x02\n    /* \"ToPack/src/contarcts/Pack.sol\":609:632  usersBalnce[msg.sender] */\n  0x00\n    /* \"ToPack/src/contarcts/Pack.sol\":621:631  msg.sender */\n  caller\n    /* \"ToPack/src/contarcts/Pack.sol\":609:632  usersBalnce[msg.sender] */\n  0xffffffffffffffffffffffffffffffffffffffff\n  and\n  0xffffffffffffffffffffffffffffffffffffffff\n  and\n  dup2\n  mstore\n  0x20\n  add\n  swap1\n  dup2\n  mstore\n  0x20\n  add\n  0x00\n  keccak256\n    /* \"ToPack/src/contarcts/Pack.sol\":609:660  usersBalnce[msg.sender]=address(msg.sender).balance */\n  dup2\n  swap1\n  sstore\n  pop\n    /* \"ToPack/src/contarcts/Pack.sol\":70:4098  contract Pack{... */\n  dataSize(sub_0)\n  dup1\n  dataOffset(sub_0)\n  0x00\n  codecopy\n  0x00\n  return\nstop\n\nsub_0: assembly {\n        /* \"ToPack/src/contarcts/Pack.sol\":70:4098  contract Pack{... */\n      mstore(0x40, 0x80)\n      jumpi(tag_1, lt(calldatasize, 0x04))\n      shr(0xe0, calldataload(0x00))\n      dup1\n      0x094cd5ee\n      eq\n      tag_2\n      jumpi\n      dup1\n      0x1d69bd48\n      eq\n      tag_3\n      jumpi\n      dup1\n      0xa9059cbb\n      eq\n      tag_4\n      jumpi\n      dup1\n      0xcc4ef2cc\n      eq\n      tag_5\n      jumpi\n      dup1\n      0xcca003f4\n      eq\n      tag_6\n      jumpi\n      dup1\n      0xeca8b567\n      eq\n      tag_7\n      jumpi\n    tag_1:\n      0x00\n      dup1\n      revert\n        /* \"ToPack/src/contarcts/Pack.sol\":1563:3222  function deletePost(uint _postID) public payable {... */\n    tag_2:\n      tag_8\n      0x04\n      dup1\n      calldatasize\n      sub\n      dup2\n      add\n      swap1\n      tag_9\n      swap2\n      swap1\n      tag_10\n      jump\t// in\n    tag_9:\n      tag_11\n      jump\t// in\n    tag_8:\n      stop\n        /* \"ToPack/src/contarcts/Pack.sol\":710:1385  function createPost(uint _postPrice) public{  ... */\n    tag_3:\n      callvalue\n      dup1\n      iszero\n      tag_12\n      jumpi\n      0x00\n      dup1\n      revert\n    tag_12:\n      pop\n      tag_13\n      0x04\n      dup1\n      calldatasize\n      sub\n      dup2\n      add\n      swap1\n      tag_14\n      swap2\n      swap1\n      tag_10\n      jump\t// in\n    tag_14:\n      tag_15\n      jump\t// in\n    tag_13:\n      stop\n        /* \"ToPack/src/contarcts/Pack.sol\":3717:4095  function transfer(address receiver, uint amount) public payable{... */\n    tag_4:\n      tag_16\n      0x04\n      dup1\n      calldatasize\n      sub\n      dup2\n      add\n      swap1\n      tag_17\n      swap2\n      swap1\n      tag_18\n      jump\t// in\n    tag_17:\n      tag_19\n      jump\t// in\n    tag_16:\n      stop\n        /* \"ToPack/src/contarcts/Pack.sol\":1392:1556  function getUserPosts() view public returns (Post[] memory ){... */\n    tag_5:\n      callvalue\n      dup1\n      iszero\n      tag_20\n      jumpi\n      0x00\n      dup1\n      revert\n    tag_20:\n      pop\n      tag_21\n      tag_22\n      jump\t// in\n    tag_21:\n      mload(0x40)\n      tag_23\n      swap2\n      swap1\n      tag_24\n      jump\t// in\n    tag_23:\n      mload(0x40)\n      dup1\n      swap2\n      sub\n      swap1\n      return\n        /* \"ToPack/src/contarcts/Pack.sol\":504:548  mapping (address => uint) public usersBalnce */\n    tag_6:\n      callvalue\n      dup1\n      iszero\n      tag_25\n      jumpi\n      0x00\n      dup1\n      revert\n    tag_25:\n      pop\n      tag_26\n      0x04\n      dup1\n      calldatasize\n      sub\n      dup2\n      add\n      swap1\n      tag_27\n      swap2\n      swap1\n      tag_28\n      jump\t// in\n    tag_27:\n      tag_29\n      jump\t// in\n    tag_26:\n      mload(0x40)\n      tag_30\n      swap2\n      swap1\n      tag_31\n      jump\t// in\n    tag_30:\n      mload(0x40)\n      dup1\n      swap2\n      sub\n      swap1\n      return\n        /* \"ToPack/src/contarcts/Pack.sol\":3235:3710  function changeDeliveryTime(uint _postID, uint newDeliveryTime) public{... */\n    tag_7:\n      callvalue\n      dup1\n      iszero\n      tag_32\n      jumpi\n      0x00\n      dup1\n      revert\n    tag_32:\n      pop\n      tag_33\n      0x04\n      dup1\n      calldatasize\n      sub\n      dup2\n      add\n      swap1\n      tag_34\n      swap2\n      swap1\n      tag_35\n      jump\t// in\n    tag_34:\n      tag_36\n      jump\t// in\n    tag_33:\n      stop\n        /* \"ToPack/src/contarcts/Pack.sol\":1563:3222  function deletePost(uint _postID) public payable {... */\n    tag_11:\n        /* \"ToPack/src/contarcts/Pack.sol\":1772:1779  postMap */\n      0x01\n        /* \"ToPack/src/contarcts/Pack.sol\":1772:1791  postMap[msg.sender] */\n      0x00\n        /* \"ToPack/src/contarcts/Pack.sol\":1780:1790  msg.sender */\n      caller\n        /* \"ToPack/src/contarcts/Pack.sol\":1772:1791  postMap[msg.sender] */\n      0xffffffffffffffffffffffffffffffffffffffff\n      and\n      0xffffffffffffffffffffffffffffffffffffffff\n      and\n      dup2\n      mstore\n      0x20\n      add\n      swap1\n      dup2\n      mstore\n      0x20\n      add\n      0x00\n      keccak256\n        /* \"ToPack/src/contarcts/Pack.sol\":1821:1822  1 */\n      0x01\n        /* \"ToPack/src/contarcts/Pack.sol\":1793:1800  postMap */\n      dup1\n        /* \"ToPack/src/contarcts/Pack.sol\":1793:1812  postMap[msg.sender] */\n      0x00\n        /* \"ToPack/src/contarcts/Pack.sol\":1801:1811  msg.sender */\n      caller\n        /* \"ToPack/src/contarcts/Pack.sol\":1793:1812  postMap[msg.sender] */\n      0xffffffffffffffffffffffffffffffffffffffff\n      and\n      0xffffffffffffffffffffffffffffffffffffffff\n      and\n      dup2\n      mstore\n      0x20\n      add\n      swap1\n      dup2\n      mstore\n      0x20\n      add\n      0x00\n      keccak256\n        /* \"ToPack/src/contarcts/Pack.sol\":1792:1820  (postMap[msg.sender]).length */\n      dup1\n      sload\n      swap1\n      pop\n        /* \"ToPack/src/contarcts/Pack.sol\":1792:1822  (postMap[msg.sender]).length-1 */\n      tag_38\n      swap2\n      swap1\n      tag_39\n      jump\t// in\n    tag_38:\n        /* \"ToPack/src/contarcts/Pack.sol\":1772:1823  postMap[msg.sender][(postMap[msg.sender]).length-1] */\n      dup2\n      sload\n      dup2\n      lt\n      tag_40\n      jumpi\n      tag_41\n      tag_42\n      jump\t// in\n    tag_41:\n    tag_40:\n      swap1\n      0x00\n      mstore\n      keccak256(0x00, 0x20)\n      swap1\n      0x05\n      mul\n      add\n        /* \"ToPack/src/contarcts/Pack.sol\":1772:1830  postMap[msg.sender][(postMap[msg.sender]).length-1].postID */\n      0x00\n      add\n      sload\n        /* \"ToPack/src/contarcts/Pack.sol\":1762:1769  _postID */\n      dup2\n        /* \"ToPack/src/contarcts/Pack.sol\":1762:1831  _postID==(postMap[msg.sender][(postMap[msg.sender]).length-1].postID) */\n      eq\n        /* \"ToPack/src/contarcts/Pack.sol\":1759:3216  if(_postID==(postMap[msg.sender][(postMap[msg.sender]).length-1].postID)) {... */\n      iszero\n      tag_44\n      jumpi\n        /* \"ToPack/src/contarcts/Pack.sol\":1851:1934  transfer(msg.sender, postMap[msg.sender][(postMap[msg.sender]).length-1].postPrice) */\n      tag_45\n        /* \"ToPack/src/contarcts/Pack.sol\":1860:1870  msg.sender */\n      caller\n        /* \"ToPack/src/contarcts/Pack.sol\":1872:1879  postMap */\n      0x01\n        /* \"ToPack/src/contarcts/Pack.sol\":1872:1891  postMap[msg.sender] */\n      0x00\n        /* \"ToPack/src/contarcts/Pack.sol\":1880:1890  msg.sender */\n      caller\n        /* \"ToPack/src/contarcts/Pack.sol\":1872:1891  postMap[msg.sender] */\n      0xffffffffffffffffffffffffffffffffffffffff\n      and\n      0xffffffffffffffffffffffffffffffffffffffff\n      and\n      dup2\n      mstore\n      0x20\n      add\n      swap1\n      dup2\n      mstore\n      0x20\n      add\n      0x00\n      keccak256\n        /* \"ToPack/src/contarcts/Pack.sol\":1921:1922  1 */\n      0x01\n        /* \"ToPack/src/contarcts/Pack.sol\":1893:1900  postMap */\n      dup1\n        /* \"ToPack/src/contarcts/Pack.sol\":1893:1912  postMap[msg.sender] */\n      0x00\n        /* \"ToPack/src/contarcts/Pack.sol\":1901:1911  msg.sender */\n      caller\n        /* \"ToPack/src/contarcts/Pack.sol\":1893:1912  postMap[msg.sender] */\n      0xffffffffffffffffffffffffffffffffffffffff\n      and\n      0xffffffffffffffffffffffffffffffffffffffff\n      and\n      dup2\n      mstore\n      0x20\n      add\n      swap1\n      dup2\n      mstore\n      0x20\n      add\n      0x00\n      keccak256\n        /* \"ToPack/src/contarcts/Pack.sol\":1892:1920  (postMap[msg.sender]).length */\n      dup1\n      sload\n      swap1\n      pop\n        /* \"ToPack/src/contarcts/Pack.sol\":1892:1922  (postMap[msg.sender]).length-1 */\n      tag_46\n      swap2\n      swap1\n      tag_39\n      jump\t// in\n    tag_46:\n        /* \"ToPack/src/contarcts/Pack.sol\":1872:1923  postMap[msg.sender][(postMap[msg.sender]).length-1] */\n      dup2\n      sload\n      dup2\n      lt\n      tag_47\n      jumpi\n      tag_48\n      tag_42\n      jump\t// in\n    tag_48:\n    tag_47:\n      swap1\n      0x00\n      mstore\n      keccak256(0x00, 0x20)\n      swap1\n      0x05\n      mul\n      add\n        /* \"ToPack/src/contarcts/Pack.sol\":1872:1933  postMap[msg.sender][(postMap[msg.sender]).length-1].postPrice */\n      0x02\n      add\n      sload\n        /* \"ToPack/src/contarcts/Pack.sol\":1851:1859  transfer */\n      tag_19\n        /* \"ToPack/src/contarcts/Pack.sol\":1851:1934  transfer(msg.sender, postMap[msg.sender][(postMap[msg.sender]).length-1].postPrice) */\n      jump\t// in\n    tag_45:\n        /* \"ToPack/src/contarcts/Pack.sol\":1953:1960  postMap */\n      0x01\n        /* \"ToPack/src/contarcts/Pack.sol\":1953:1972  postMap[msg.sender] */\n      0x00\n        /* \"ToPack/src/contarcts/Pack.sol\":1961:1971  msg.sender */\n      caller\n        /* \"ToPack/src/contarcts/Pack.sol\":1953:1972  postMap[msg.sender] */\n      0xffffffffffffffffffffffffffffffffffffffff\n      and\n      0xffffffffffffffffffffffffffffffffffffffff\n      and\n      dup2\n      mstore\n      0x20\n      add\n      swap1\n      dup2\n      mstore\n      0x20\n      add\n      0x00\n      keccak256\n        /* \"ToPack/src/contarcts/Pack.sol\":1953:1978  postMap[msg.sender].pop() */\n      dup1\n      sload\n      dup1\n      tag_50\n      jumpi\n      tag_51\n      tag_52\n      jump\t// in\n    tag_51:\n    tag_50:\n      0x01\n      swap1\n      sub\n      dup2\n      dup2\n      swap1\n      0x00\n      mstore\n      keccak256(0x00, 0x20)\n      swap1\n      0x05\n      mul\n      add\n      0x00\n      dup1\n      dup3\n      add\n      0x00\n      swap1\n      sstore\n      0x01\n      dup3\n      add\n      exp(0x0100, 0x00)\n      dup2\n      sload\n      swap1\n      0xffffffffffffffffffffffffffffffffffffffff\n      mul\n      not\n      and\n      swap1\n      sstore\n      0x02\n      dup3\n      add\n      0x00\n      swap1\n      sstore\n      0x03\n      dup3\n      add\n      0x00\n      swap1\n      sstore\n      0x04\n      dup3\n      add\n      0x00\n      swap1\n      sstore\n      pop\n      pop\n      swap1\n      sstore\n        /* \"ToPack/src/contarcts/Pack.sol\":1759:3216  if(_postID==(postMap[msg.sender][(postMap[msg.sender]).length-1].postID)) {... */\n      jump(tag_54)\n    tag_44:\n        /* \"ToPack/src/contarcts/Pack.sol\":2112:2113  1 */\n      0x01\n        /* \"ToPack/src/contarcts/Pack.sol\":2083:2090  postMap */\n      dup1\n        /* \"ToPack/src/contarcts/Pack.sol\":2083:2102  postMap[msg.sender] */\n      0x00\n        /* \"ToPack/src/contarcts/Pack.sol\":2091:2101  msg.sender */\n      caller\n        /* \"ToPack/src/contarcts/Pack.sol\":2083:2102  postMap[msg.sender] */\n      0xffffffffffffffffffffffffffffffffffffffff\n      and\n      0xffffffffffffffffffffffffffffffffffffffff\n      and\n      dup2\n      mstore\n      0x20\n      add\n      swap1\n      dup2\n      mstore\n      0x20\n      add\n      0x00\n      keccak256\n        /* \"ToPack/src/contarcts/Pack.sol\":2082:2110  (postMap[msg.sender]).length */\n      dup1\n      sload\n      swap1\n      pop\n        /* \"ToPack/src/contarcts/Pack.sol\":2082:2113  (postMap[msg.sender]).length==1 */\n      eq\n        /* \"ToPack/src/contarcts/Pack.sol\":2082:2155  (postMap[msg.sender]).length==1 && _postID==postMap[msg.sender][0].postID */\n      dup1\n      iszero\n      tag_55\n      jumpi\n      pop\n        /* \"ToPack/src/contarcts/Pack.sol\":2126:2133  postMap */\n      0x01\n        /* \"ToPack/src/contarcts/Pack.sol\":2126:2145  postMap[msg.sender] */\n      0x00\n        /* \"ToPack/src/contarcts/Pack.sol\":2134:2144  msg.sender */\n      caller\n        /* \"ToPack/src/contarcts/Pack.sol\":2126:2145  postMap[msg.sender] */\n      0xffffffffffffffffffffffffffffffffffffffff\n      and\n      0xffffffffffffffffffffffffffffffffffffffff\n      and\n      dup2\n      mstore\n      0x20\n      add\n      swap1\n      dup2\n      mstore\n      0x20\n      add\n      0x00\n      keccak256\n        /* \"ToPack/src/contarcts/Pack.sol\":2146:2147  0 */\n      0x00\n        /* \"ToPack/src/contarcts/Pack.sol\":2126:2148  postMap[msg.sender][0] */\n      dup2\n      sload\n      dup2\n      lt\n      tag_56\n      jumpi\n      tag_57\n      tag_42\n      jump\t// in\n    tag_57:\n    tag_56:\n      swap1\n      0x00\n      mstore\n      keccak256(0x00, 0x20)\n      swap1\n      0x05\n      mul\n      add\n        /* \"ToPack/src/contarcts/Pack.sol\":2126:2155  postMap[msg.sender][0].postID */\n      0x00\n      add\n      sload\n        /* \"ToPack/src/contarcts/Pack.sol\":2117:2124  _postID */\n      dup2\n        /* \"ToPack/src/contarcts/Pack.sol\":2117:2155  _postID==postMap[msg.sender][0].postID */\n      eq\n        /* \"ToPack/src/contarcts/Pack.sol\":2082:2155  (postMap[msg.sender]).length==1 && _postID==postMap[msg.sender][0].postID */\n    tag_55:\n        /* \"ToPack/src/contarcts/Pack.sol\":2078:3216  if ((postMap[msg.sender]).length==1 && _postID==postMap[msg.sender][0].postID){... */\n      iszero\n      tag_59\n      jumpi\n        /* \"ToPack/src/contarcts/Pack.sol\":2174:2228  transfer(msg.sender, postMap[msg.sender][0].postPrice) */\n      tag_60\n        /* \"ToPack/src/contarcts/Pack.sol\":2183:2193  msg.sender */\n      caller\n        /* \"ToPack/src/contarcts/Pack.sol\":2195:2202  postMap */\n      0x01\n        /* \"ToPack/src/contarcts/Pack.sol\":2195:2214  postMap[msg.sender] */\n      0x00\n        /* \"ToPack/src/contarcts/Pack.sol\":2203:2213  msg.sender */\n      caller\n        /* \"ToPack/src/contarcts/Pack.sol\":2195:2214  postMap[msg.sender] */\n      0xffffffffffffffffffffffffffffffffffffffff\n      and\n      0xffffffffffffffffffffffffffffffffffffffff\n      and\n      dup2\n      mstore\n      0x20\n      add\n      swap1\n      dup2\n      mstore\n      0x20\n      add\n      0x00\n      keccak256\n        /* \"ToPack/src/contarcts/Pack.sol\":2215:2216  0 */\n      0x00\n        /* \"ToPack/src/contarcts/Pack.sol\":2195:2217  postMap[msg.sender][0] */\n      dup2\n      sload\n      dup2\n      lt\n      tag_61\n      jumpi\n      tag_62\n      tag_42\n      jump\t// in\n    tag_62:\n    tag_61:\n      swap1\n      0x00\n      mstore\n      keccak256(0x00, 0x20)\n      swap1\n      0x05\n      mul\n      add\n        /* \"ToPack/src/contarcts/Pack.sol\":2195:2227  postMap[msg.sender][0].postPrice */\n      0x02\n      add\n      sload\n        /* \"ToPack/src/contarcts/Pack.sol\":2174:2182  transfer */\n      tag_19\n        /* \"ToPack/src/contarcts/Pack.sol\":2174:2228  transfer(msg.sender, postMap[msg.sender][0].postPrice) */\n      jump\t// in\n    tag_60:\n        /* \"ToPack/src/contarcts/Pack.sol\":2247:2254  postMap */\n      0x01\n        /* \"ToPack/src/contarcts/Pack.sol\":2247:2266  postMap[msg.sender] */\n      0x00\n        /* \"ToPack/src/contarcts/Pack.sol\":2255:2265  msg.sender */\n      caller\n        /* \"ToPack/src/contarcts/Pack.sol\":2247:2266  postMap[msg.sender] */\n      0xffffffffffffffffffffffffffffffffffffffff\n      and\n      0xffffffffffffffffffffffffffffffffffffffff\n      and\n      dup2\n      mstore\n      0x20\n      add\n      swap1\n      dup2\n      mstore\n      0x20\n      add\n      0x00\n      keccak256\n        /* \"ToPack/src/contarcts/Pack.sol\":2247:2272  postMap[msg.sender].pop() */\n      dup1\n      sload\n      dup1\n      tag_64\n      jumpi\n      tag_65\n      tag_52\n      jump\t// in\n    tag_65:\n    tag_64:\n      0x01\n      swap1\n      sub\n      dup2\n      dup2\n      swap1\n      0x00\n      mstore\n      keccak256(0x00, 0x20)\n      swap1\n      0x05\n      mul\n      add\n      0x00\n      dup1\n      dup3\n      add\n      0x00\n      swap1\n      sstore\n      0x01\n      dup3\n      add\n      exp(0x0100, 0x00)\n      dup2\n      sload\n      swap1\n      0xffffffffffffffffffffffffffffffffffffffff\n      mul\n      not\n      and\n      swap1\n      sstore\n      0x02\n      dup3\n      add\n      0x00\n      swap1\n      sstore\n      0x03\n      dup3\n      add\n      0x00\n      swap1\n      sstore\n      0x04\n      dup3\n      add\n      0x00\n      swap1\n      sstore\n      pop\n      pop\n      swap1\n      sstore\n        /* \"ToPack/src/contarcts/Pack.sol\":2078:3216  if ((postMap[msg.sender]).length==1 && _postID==postMap[msg.sender][0].postID){... */\n      jump(tag_67)\n    tag_59:\n        /* \"ToPack/src/contarcts/Pack.sol\":2334:2335  1 */\n      0x01\n        /* \"ToPack/src/contarcts/Pack.sol\":2305:2312  postMap */\n      dup1\n        /* \"ToPack/src/contarcts/Pack.sol\":2305:2324  postMap[msg.sender] */\n      0x00\n        /* \"ToPack/src/contarcts/Pack.sol\":2313:2323  msg.sender */\n      caller\n        /* \"ToPack/src/contarcts/Pack.sol\":2305:2324  postMap[msg.sender] */\n      0xffffffffffffffffffffffffffffffffffffffff\n      and\n      0xffffffffffffffffffffffffffffffffffffffff\n      and\n      dup2\n      mstore\n      0x20\n      add\n      swap1\n      dup2\n      mstore\n      0x20\n      add\n      0x00\n      keccak256\n        /* \"ToPack/src/contarcts/Pack.sol\":2304:2332  (postMap[msg.sender]).length */\n      dup1\n      sload\n      swap1\n      pop\n        /* \"ToPack/src/contarcts/Pack.sol\":2304:2335  (postMap[msg.sender]).length!=1 */\n      eq\n        /* \"ToPack/src/contarcts/Pack.sol\":2300:3216  if ((postMap[msg.sender]).length!=1){   ... */\n      tag_68\n      jumpi\n        /* \"ToPack/src/contarcts/Pack.sol\":2358:2364  uint i */\n      0x00\n        /* \"ToPack/src/contarcts/Pack.sol\":2353:2936  for (uint i = 0; i< (postMap[msg.sender]).length; i++){... */\n    tag_69:\n        /* \"ToPack/src/contarcts/Pack.sol\":2374:2381  postMap */\n      0x01\n        /* \"ToPack/src/contarcts/Pack.sol\":2374:2393  postMap[msg.sender] */\n      0x00\n        /* \"ToPack/src/contarcts/Pack.sol\":2382:2392  msg.sender */\n      caller\n        /* \"ToPack/src/contarcts/Pack.sol\":2374:2393  postMap[msg.sender] */\n      0xffffffffffffffffffffffffffffffffffffffff\n      and\n      0xffffffffffffffffffffffffffffffffffffffff\n      and\n      dup2\n      mstore\n      0x20\n      add\n      swap1\n      dup2\n      mstore\n      0x20\n      add\n      0x00\n      keccak256\n        /* \"ToPack/src/contarcts/Pack.sol\":2373:2401  (postMap[msg.sender]).length */\n      dup1\n      sload\n      swap1\n      pop\n        /* \"ToPack/src/contarcts/Pack.sol\":2370:2371  i */\n      dup2\n        /* \"ToPack/src/contarcts/Pack.sol\":2370:2401  i< (postMap[msg.sender]).length */\n      lt\n        /* \"ToPack/src/contarcts/Pack.sol\":2353:2936  for (uint i = 0; i< (postMap[msg.sender]).length; i++){... */\n      iszero\n      tag_70\n      jumpi\n        /* \"ToPack/src/contarcts/Pack.sol\":2438:2445  postMap */\n      0x01\n        /* \"ToPack/src/contarcts/Pack.sol\":2438:2457  postMap[msg.sender] */\n      0x00\n        /* \"ToPack/src/contarcts/Pack.sol\":2446:2456  msg.sender */\n      caller\n        /* \"ToPack/src/contarcts/Pack.sol\":2438:2457  postMap[msg.sender] */\n      0xffffffffffffffffffffffffffffffffffffffff\n      and\n      0xffffffffffffffffffffffffffffffffffffffff\n      and\n      dup2\n      mstore\n      0x20\n      add\n      swap1\n      dup2\n      mstore\n      0x20\n      add\n      0x00\n      keccak256\n        /* \"ToPack/src/contarcts/Pack.sol\":2458:2459  i */\n      dup2\n        /* \"ToPack/src/contarcts/Pack.sol\":2438:2460  postMap[msg.sender][i] */\n      dup2\n      sload\n      dup2\n      lt\n      tag_72\n      jumpi\n      tag_73\n      tag_42\n      jump\t// in\n    tag_73:\n    tag_72:\n      swap1\n      0x00\n      mstore\n      keccak256(0x00, 0x20)\n      swap1\n      0x05\n      mul\n      add\n        /* \"ToPack/src/contarcts/Pack.sol\":2438:2467  postMap[msg.sender][i].postID */\n      0x00\n      add\n      sload\n        /* \"ToPack/src/contarcts/Pack.sol\":2429:2436  _postID */\n      dup3\n        /* \"ToPack/src/contarcts/Pack.sol\":2429:2467  _postID==postMap[msg.sender][i].postID */\n      eq\n        /* \"ToPack/src/contarcts/Pack.sol\":2425:2922  if (_postID==postMap[msg.sender][i].postID){... */\n      iszero\n      tag_75\n      jumpi\n        /* \"ToPack/src/contarcts/Pack.sol\":2583:2637  transfer(msg.sender, postMap[msg.sender][i].postPrice) */\n      tag_76\n        /* \"ToPack/src/contarcts/Pack.sol\":2592:2602  msg.sender */\n      caller\n        /* \"ToPack/src/contarcts/Pack.sol\":2604:2611  postMap */\n      0x01\n        /* \"ToPack/src/contarcts/Pack.sol\":2604:2623  postMap[msg.sender] */\n      0x00\n        /* \"ToPack/src/contarcts/Pack.sol\":2612:2622  msg.sender */\n      caller\n        /* \"ToPack/src/contarcts/Pack.sol\":2604:2623  postMap[msg.sender] */\n      0xffffffffffffffffffffffffffffffffffffffff\n      and\n      0xffffffffffffffffffffffffffffffffffffffff\n      and\n      dup2\n      mstore\n      0x20\n      add\n      swap1\n      dup2\n      mstore\n      0x20\n      add\n      0x00\n      keccak256\n        /* \"ToPack/src/contarcts/Pack.sol\":2624:2625  i */\n      dup4\n        /* \"ToPack/src/contarcts/Pack.sol\":2604:2626  postMap[msg.sender][i] */\n      dup2\n      sload\n      dup2\n      lt\n      tag_77\n      jumpi\n      tag_78\n      tag_42\n      jump\t// in\n    tag_78:\n    tag_77:\n      swap1\n      0x00\n      mstore\n      keccak256(0x00, 0x20)\n      swap1\n      0x05\n      mul\n      add\n        /* \"ToPack/src/contarcts/Pack.sol\":2604:2636  postMap[msg.sender][i].postPrice */\n      0x02\n      add\n      sload\n        /* \"ToPack/src/contarcts/Pack.sol\":2583:2591  transfer */\n      tag_19\n        /* \"ToPack/src/contarcts/Pack.sol\":2583:2637  transfer(msg.sender, postMap[msg.sender][i].postPrice) */\n      jump\t// in\n    tag_76:\n        /* \"ToPack/src/contarcts/Pack.sol\":2777:2784  postMap */\n      0x01\n        /* \"ToPack/src/contarcts/Pack.sol\":2777:2796  postMap[msg.sender] */\n      0x00\n        /* \"ToPack/src/contarcts/Pack.sol\":2785:2795  msg.sender */\n      caller\n        /* \"ToPack/src/contarcts/Pack.sol\":2777:2796  postMap[msg.sender] */\n      0xffffffffffffffffffffffffffffffffffffffff\n      and\n      0xffffffffffffffffffffffffffffffffffffffff\n      and\n      dup2\n      mstore\n      0x20\n      add\n      swap1\n      dup2\n      mstore\n      0x20\n      add\n      0x00\n      keccak256\n        /* \"ToPack/src/contarcts/Pack.sol\":2826:2827  1 */\n      0x01\n        /* \"ToPack/src/contarcts/Pack.sol\":2798:2805  postMap */\n      dup1\n        /* \"ToPack/src/contarcts/Pack.sol\":2798:2817  postMap[msg.sender] */\n      0x00\n        /* \"ToPack/src/contarcts/Pack.sol\":2806:2816  msg.sender */\n      caller\n        /* \"ToPack/src/contarcts/Pack.sol\":2798:2817  postMap[msg.sender] */\n      0xffffffffffffffffffffffffffffffffffffffff\n      and\n      0xffffffffffffffffffffffffffffffffffffffff\n      and\n      dup2\n      mstore\n      0x20\n      add\n      swap1\n      dup2\n      mstore\n      0x20\n      add\n      0x00\n      keccak256\n        /* \"ToPack/src/contarcts/Pack.sol\":2797:2825  (postMap[msg.sender]).length */\n      dup1\n      sload\n      swap1\n      pop\n        /* \"ToPack/src/contarcts/Pack.sol\":2797:2827  (postMap[msg.sender]).length-1 */\n      tag_80\n      swap2\n      swap1\n      tag_39\n      jump\t// in\n    tag_80:\n        /* \"ToPack/src/contarcts/Pack.sol\":2777:2828  postMap[msg.sender][(postMap[msg.sender]).length-1] */\n      dup2\n      sload\n      dup2\n      lt\n      tag_81\n      jumpi\n      tag_82\n      tag_42\n      jump\t// in\n    tag_82:\n    tag_81:\n      swap1\n      0x00\n      mstore\n      keccak256(0x00, 0x20)\n      swap1\n      0x05\n      mul\n      add\n        /* \"ToPack/src/contarcts/Pack.sol\":2754:2761  postMap */\n      0x01\n        /* \"ToPack/src/contarcts/Pack.sol\":2754:2773  postMap[msg.sender] */\n      0x00\n        /* \"ToPack/src/contarcts/Pack.sol\":2762:2772  msg.sender */\n      caller\n        /* \"ToPack/src/contarcts/Pack.sol\":2754:2773  postMap[msg.sender] */\n      0xffffffffffffffffffffffffffffffffffffffff\n      and\n      0xffffffffffffffffffffffffffffffffffffffff\n      and\n      dup2\n      mstore\n      0x20\n      add\n      swap1\n      dup2\n      mstore\n      0x20\n      add\n      0x00\n      keccak256\n        /* \"ToPack/src/contarcts/Pack.sol\":2774:2775  i */\n      dup3\n        /* \"ToPack/src/contarcts/Pack.sol\":2754:2776  postMap[msg.sender][i] */\n      dup2\n      sload\n      dup2\n      lt\n      tag_84\n      jumpi\n      tag_85\n      tag_42\n      jump\t// in\n    tag_85:\n    tag_84:\n      swap1\n      0x00\n      mstore\n      keccak256(0x00, 0x20)\n      swap1\n      0x05\n      mul\n      add\n        /* \"ToPack/src/contarcts/Pack.sol\":2754:2828  postMap[msg.sender][i]=postMap[msg.sender][(postMap[msg.sender]).length-1] */\n      0x00\n      dup3\n      add\n      sload\n      dup2\n      0x00\n      add\n      sstore\n      0x01\n      dup3\n      add\n      0x00\n      swap1\n      sload\n      swap1\n      0x0100\n      exp\n      swap1\n      div\n      0xffffffffffffffffffffffffffffffffffffffff\n      and\n      dup2\n      0x01\n      add\n      exp(0x0100, 0x00)\n      dup2\n      sload\n      dup2\n      0xffffffffffffffffffffffffffffffffffffffff\n      mul\n      not\n      and\n      swap1\n      dup4\n      0xffffffffffffffffffffffffffffffffffffffff\n      and\n      mul\n      or\n      swap1\n      sstore\n      pop\n      0x02\n      dup3\n      add\n      sload\n      dup2\n      0x02\n      add\n      sstore\n      0x03\n      dup3\n      add\n      sload\n      dup2\n      0x03\n      add\n      sstore\n      0x04\n      dup3\n      add\n      sload\n      dup2\n      0x04\n      add\n      sstore\n      swap1\n      pop\n      pop\n        /* \"ToPack/src/contarcts/Pack.sol\":2851:2858  postMap */\n      0x01\n        /* \"ToPack/src/contarcts/Pack.sol\":2851:2870  postMap[msg.sender] */\n      0x00\n        /* \"ToPack/src/contarcts/Pack.sol\":2859:2869  msg.sender */\n      caller\n        /* \"ToPack/src/contarcts/Pack.sol\":2851:2870  postMap[msg.sender] */\n      0xffffffffffffffffffffffffffffffffffffffff\n      and\n      0xffffffffffffffffffffffffffffffffffffffff\n      and\n      dup2\n      mstore\n      0x20\n      add\n      swap1\n      dup2\n      mstore\n      0x20\n      add\n      0x00\n      keccak256\n        /* \"ToPack/src/contarcts/Pack.sol\":2851:2876  postMap[msg.sender].pop() */\n      dup1\n      sload\n      dup1\n      tag_87\n      jumpi\n      tag_88\n      tag_52\n      jump\t// in\n    tag_88:\n    tag_87:\n      0x01\n      swap1\n      sub\n      dup2\n      dup2\n      swap1\n      0x00\n      mstore\n      keccak256(0x00, 0x20)\n      swap1\n      0x05\n      mul\n      add\n      0x00\n      dup1\n      dup3\n      add\n      0x00\n      swap1\n      sstore\n      0x01\n      dup3\n      add\n      exp(0x0100, 0x00)\n      dup2\n      sload\n      swap1\n      0xffffffffffffffffffffffffffffffffffffffff\n      mul\n      not\n      and\n      swap1\n      sstore\n      0x02\n      dup3\n      add\n      0x00\n      swap1\n      sstore\n      0x03\n      dup3\n      add\n      0x00\n      swap1\n      sstore\n      0x04\n      dup3\n      add\n      0x00\n      swap1\n      sstore\n      pop\n      pop\n      swap1\n      sstore\n        /* \"ToPack/src/contarcts/Pack.sol\":2898:2903  break */\n      jump(tag_70)\n        /* \"ToPack/src/contarcts/Pack.sol\":2425:2922  if (_postID==postMap[msg.sender][i].postID){... */\n    tag_75:\n        /* \"ToPack/src/contarcts/Pack.sol\":2403:2406  i++ */\n      dup1\n      dup1\n      tag_90\n      swap1\n      tag_91\n      jump\t// in\n    tag_90:\n      swap2\n      pop\n      pop\n        /* \"ToPack/src/contarcts/Pack.sol\":2353:2936  for (uint i = 0; i< (postMap[msg.sender]).length; i++){... */\n      jump(tag_69)\n    tag_70:\n      pop\n        /* \"ToPack/src/contarcts/Pack.sol\":2300:3216  if ((postMap[msg.sender]).length!=1){   ... */\n      jump(tag_92)\n    tag_68:\n        /* \"ToPack/src/contarcts/Pack.sol\":3165:3205  Message( \"Value must be greater than 0\") */\n      mload(0x40)\n      0x51a7f65c00000000000000000000000000000000000000000000000000000000\n      dup2\n      mstore\n      0x04\n      add\n      tag_93\n      swap1\n      tag_94\n      jump\t// in\n    tag_93:\n      mload(0x40)\n      dup1\n      swap2\n      sub\n      swap1\n      revert\n        /* \"ToPack/src/contarcts/Pack.sol\":2300:3216  if ((postMap[msg.sender]).length!=1){   ... */\n    tag_92:\n        /* \"ToPack/src/contarcts/Pack.sol\":2078:3216  if ((postMap[msg.sender]).length==1 && _postID==postMap[msg.sender][0].postID){... */\n    tag_67:\n        /* \"ToPack/src/contarcts/Pack.sol\":1759:3216  if(_postID==(postMap[msg.sender][(postMap[msg.sender]).length-1].postID)) {... */\n    tag_54:\n        /* \"ToPack/src/contarcts/Pack.sol\":1563:3222  function deletePost(uint _postID) public payable {... */\n      pop\n      jump\t// out\n        /* \"ToPack/src/contarcts/Pack.sol\":710:1385  function createPost(uint _postPrice) public{  ... */\n    tag_15:\n        /* \"ToPack/src/contarcts/Pack.sol\":857:876  Post memory newPost */\n      0x00\n        /* \"ToPack/src/contarcts/Pack.sol\":879:1015  Post({postID: currentPostID, postAuthor: msg.sender,... */\n      mload(0x40)\n      dup1\n      0xa0\n      add\n      0x40\n      mstore\n      dup1\n        /* \"ToPack/src/contarcts/Pack.sol\":893:906  currentPostID */\n      sload(0x00)\n        /* \"ToPack/src/contarcts/Pack.sol\":879:1015  Post({postID: currentPostID, postAuthor: msg.sender,... */\n      dup2\n      mstore\n      0x20\n      add\n        /* \"ToPack/src/contarcts/Pack.sol\":920:930  msg.sender */\n      caller\n        /* \"ToPack/src/contarcts/Pack.sol\":879:1015  Post({postID: currentPostID, postAuthor: msg.sender,... */\n      0xffffffffffffffffffffffffffffffffffffffff\n      and\n      dup2\n      mstore\n      0x20\n      add\n        /* \"ToPack/src/contarcts/Pack.sol\":951:961  _postPrice */\n      dup4\n        /* \"ToPack/src/contarcts/Pack.sol\":879:1015  Post({postID: currentPostID, postAuthor: msg.sender,... */\n      dup2\n      mstore\n      0x20\n      add\n        /* \"ToPack/src/contarcts/Pack.sol\":981:996  block.timestamp */\n      timestamp\n        /* \"ToPack/src/contarcts/Pack.sol\":879:1015  Post({postID: currentPostID, postAuthor: msg.sender,... */\n      dup2\n      mstore\n      0x20\n      add\n        /* \"ToPack/src/contarcts/Pack.sol\":1011:1012  0 */\n      0x00\n        /* \"ToPack/src/contarcts/Pack.sol\":879:1015  Post({postID: currentPostID, postAuthor: msg.sender,... */\n      dup2\n      mstore\n      pop\n        /* \"ToPack/src/contarcts/Pack.sol\":857:1015  Post memory newPost = Post({postID: currentPostID, postAuthor: msg.sender,... */\n      swap1\n      pop\n        /* \"ToPack/src/contarcts/Pack.sol\":1025:1032  postMap */\n      0x01\n        /* \"ToPack/src/contarcts/Pack.sol\":1025:1044  postMap[msg.sender] */\n      0x00\n        /* \"ToPack/src/contarcts/Pack.sol\":1033:1043  msg.sender */\n      caller\n        /* \"ToPack/src/contarcts/Pack.sol\":1025:1044  postMap[msg.sender] */\n      0xffffffffffffffffffffffffffffffffffffffff\n      and\n      0xffffffffffffffffffffffffffffffffffffffff\n      and\n      dup2\n      mstore\n      0x20\n      add\n      swap1\n      dup2\n      mstore\n      0x20\n      add\n      0x00\n      keccak256\n        /* \"ToPack/src/contarcts/Pack.sol\":1050:1057  newPost */\n      dup2\n        /* \"ToPack/src/contarcts/Pack.sol\":1025:1058  postMap[msg.sender].push(newPost) */\n      swap1\n      dup1\n      0x01\n      dup2\n      sload\n      add\n      dup1\n      dup3\n      sstore\n      dup1\n      swap2\n      pop\n      pop\n      0x01\n      swap1\n      sub\n      swap1\n      0x00\n      mstore\n      keccak256(0x00, 0x20)\n      swap1\n      0x05\n      mul\n      add\n      0x00\n      swap1\n      swap2\n      swap1\n      swap2\n      swap1\n      swap2\n      pop\n      0x00\n      dup3\n      add\n      mload\n      dup2\n      0x00\n      add\n      sstore\n      0x20\n      dup3\n      add\n      mload\n      dup2\n      0x01\n      add\n      exp(0x0100, 0x00)\n      dup2\n      sload\n      dup2\n      0xffffffffffffffffffffffffffffffffffffffff\n      mul\n      not\n      and\n      swap1\n      dup4\n      0xffffffffffffffffffffffffffffffffffffffff\n      and\n      mul\n      or\n      swap1\n      sstore\n      pop\n      0x40\n      dup3\n      add\n      mload\n      dup2\n      0x02\n      add\n      sstore\n      0x60\n      dup3\n      add\n      mload\n      dup2\n      0x03\n      add\n      sstore\n      0x80\n      dup3\n      add\n      mload\n      dup2\n      0x04\n      add\n      sstore\n      pop\n      pop\n        /* \"ToPack/src/contarcts/Pack.sol\":1100:1101  1 */\n      0x01\n        /* \"ToPack/src/contarcts/Pack.sol\":1085:1098  currentPostID */\n      sload(0x00)\n        /* \"ToPack/src/contarcts/Pack.sol\":1085:1101  currentPostID +1 */\n      tag_97\n      swap2\n      swap1\n      tag_98\n      jump\t// in\n    tag_97:\n        /* \"ToPack/src/contarcts/Pack.sol\":1069:1082  currentPostID */\n      0x00\n        /* \"ToPack/src/contarcts/Pack.sol\":1069:1101  currentPostID = currentPostID +1 */\n      dup2\n      swap1\n      sstore\n      pop\n        /* \"ToPack/src/contarcts/Pack.sol\":1134:1145  usersBalnce */\n      0x02\n        /* \"ToPack/src/contarcts/Pack.sol\":1134:1157  usersBalnce[msg.sender] */\n      0x00\n        /* \"ToPack/src/contarcts/Pack.sol\":1146:1156  msg.sender */\n      caller\n        /* \"ToPack/src/contarcts/Pack.sol\":1134:1157  usersBalnce[msg.sender] */\n      0xffffffffffffffffffffffffffffffffffffffff\n      and\n      0xffffffffffffffffffffffffffffffffffffffff\n      and\n      dup2\n      mstore\n      0x20\n      add\n      swap1\n      dup2\n      mstore\n      0x20\n      add\n      0x00\n      keccak256\n      sload\n        /* \"ToPack/src/contarcts/Pack.sol\":1119:1129  _postPrice */\n      dup3\n        /* \"ToPack/src/contarcts/Pack.sol\":1119:1157  _postPrice  <= usersBalnce[msg.sender] */\n      gt\n        /* \"ToPack/src/contarcts/Pack.sol\":1115:1379  if (_postPrice  <= usersBalnce[msg.sender]){... */\n      tag_99\n      jumpi\n        /* \"ToPack/src/contarcts/Pack.sol\":1292:1327  transfer(address(this), _postPrice) */\n      tag_100\n        /* \"ToPack/src/contarcts/Pack.sol\":1309:1313  this */\n      address\n        /* \"ToPack/src/contarcts/Pack.sol\":1316:1326  _postPrice */\n      dup4\n        /* \"ToPack/src/contarcts/Pack.sol\":1292:1300  transfer */\n      tag_19\n        /* \"ToPack/src/contarcts/Pack.sol\":1292:1327  transfer(address(this), _postPrice) */\n      jump\t// in\n    tag_100:\n        /* \"ToPack/src/contarcts/Pack.sol\":1115:1379  if (_postPrice  <= usersBalnce[msg.sender]){... */\n    tag_99:\n        /* \"ToPack/src/contarcts/Pack.sol\":753:1385  {  ... */\n      pop\n        /* \"ToPack/src/contarcts/Pack.sol\":710:1385  function createPost(uint _postPrice) public{  ... */\n      pop\n      jump\t// out\n        /* \"ToPack/src/contarcts/Pack.sol\":3717:4095  function transfer(address receiver, uint amount) public payable{... */\n    tag_19:\n        /* \"ToPack/src/contarcts/Pack.sol\":3894:3900  amount */\n      dup1\n        /* \"ToPack/src/contarcts/Pack.sol\":3868:3879  usersBalnce */\n      0x02\n        /* \"ToPack/src/contarcts/Pack.sol\":3868:3891  usersBalnce[msg.sender] */\n      0x00\n        /* \"ToPack/src/contarcts/Pack.sol\":3880:3890  msg.sender */\n      caller\n        /* \"ToPack/src/contarcts/Pack.sol\":3868:3891  usersBalnce[msg.sender] */\n      0xffffffffffffffffffffffffffffffffffffffff\n      and\n      0xffffffffffffffffffffffffffffffffffffffff\n      and\n      dup2\n      mstore\n      0x20\n      add\n      swap1\n      dup2\n      mstore\n      0x20\n      add\n      0x00\n      keccak256\n      sload\n        /* \"ToPack/src/contarcts/Pack.sol\":3868:3900  usersBalnce[msg.sender] >=amount */\n      lt\n      iszero\n        /* \"ToPack/src/contarcts/Pack.sol\":3860:3901  require(usersBalnce[msg.sender] >=amount) */\n      tag_102\n      jumpi\n      0x00\n      dup1\n      revert\n    tag_102:\n        /* \"ToPack/src/contarcts/Pack.sol\":3963:3974  usersBalnce */\n      0x02\n        /* \"ToPack/src/contarcts/Pack.sol\":3963:3984  usersBalnce[receiver] */\n      0x00\n        /* \"ToPack/src/contarcts/Pack.sol\":3975:3983  receiver */\n      dup4\n        /* \"ToPack/src/contarcts/Pack.sol\":3963:3984  usersBalnce[receiver] */\n      0xffffffffffffffffffffffffffffffffffffffff\n      and\n      0xffffffffffffffffffffffffffffffffffffffff\n      and\n      dup2\n      mstore\n      0x20\n      add\n      swap1\n      dup2\n      mstore\n      0x20\n      add\n      0x00\n      keccak256\n      sload\n        /* \"ToPack/src/contarcts/Pack.sol\":3953:3959  amount */\n      dup2\n        /* \"ToPack/src/contarcts/Pack.sol\":3930:3941  usersBalnce */\n      0x02\n        /* \"ToPack/src/contarcts/Pack.sol\":3930:3951  usersBalnce[receiver] */\n      0x00\n        /* \"ToPack/src/contarcts/Pack.sol\":3942:3950  receiver */\n      dup6\n        /* \"ToPack/src/contarcts/Pack.sol\":3930:3951  usersBalnce[receiver] */\n      0xffffffffffffffffffffffffffffffffffffffff\n      and\n      0xffffffffffffffffffffffffffffffffffffffff\n      and\n      dup2\n      mstore\n      0x20\n      add\n      swap1\n      dup2\n      mstore\n      0x20\n      add\n      0x00\n      keccak256\n      sload\n        /* \"ToPack/src/contarcts/Pack.sol\":3930:3959  usersBalnce[receiver] +amount */\n      tag_103\n      swap2\n      swap1\n      tag_98\n      jump\t// in\n    tag_103:\n        /* \"ToPack/src/contarcts/Pack.sol\":3930:3984  usersBalnce[receiver] +amount >= usersBalnce[receiver] */\n      lt\n      iszero\n        /* \"ToPack/src/contarcts/Pack.sol\":3922:3985  require(usersBalnce[receiver] +amount >= usersBalnce[receiver]) */\n      tag_104\n      jumpi\n      0x00\n      dup1\n      revert\n    tag_104:\n        /* \"ToPack/src/contarcts/Pack.sol\":4021:4027  amount */\n      dup1\n        /* \"ToPack/src/contarcts/Pack.sol\":3995:4006  usersBalnce */\n      0x02\n        /* \"ToPack/src/contarcts/Pack.sol\":3995:4018  usersBalnce[msg.sender] */\n      0x00\n        /* \"ToPack/src/contarcts/Pack.sol\":4007:4017  msg.sender */\n      caller\n        /* \"ToPack/src/contarcts/Pack.sol\":3995:4018  usersBalnce[msg.sender] */\n      0xffffffffffffffffffffffffffffffffffffffff\n      and\n      0xffffffffffffffffffffffffffffffffffffffff\n      and\n      dup2\n      mstore\n      0x20\n      add\n      swap1\n      dup2\n      mstore\n      0x20\n      add\n      0x00\n      keccak256\n      0x00\n        /* \"ToPack/src/contarcts/Pack.sol\":3995:4027  usersBalnce[msg.sender] -=amount */\n      dup3\n      dup3\n      sload\n      tag_105\n      swap2\n      swap1\n      tag_39\n      jump\t// in\n    tag_105:\n      swap3\n      pop\n      pop\n      dup2\n      swap1\n      sstore\n      pop\n        /* \"ToPack/src/contarcts/Pack.sol\":4081:4087  amount */\n      dup1\n        /* \"ToPack/src/contarcts/Pack.sol\":4057:4068  usersBalnce */\n      0x02\n        /* \"ToPack/src/contarcts/Pack.sol\":4057:4078  usersBalnce[receiver] */\n      0x00\n        /* \"ToPack/src/contarcts/Pack.sol\":4069:4077  receiver */\n      dup5\n        /* \"ToPack/src/contarcts/Pack.sol\":4057:4078  usersBalnce[receiver] */\n      0xffffffffffffffffffffffffffffffffffffffff\n      and\n      0xffffffffffffffffffffffffffffffffffffffff\n      and\n      dup2\n      mstore\n      0x20\n      add\n      swap1\n      dup2\n      mstore\n      0x20\n      add\n      0x00\n      keccak256\n      0x00\n        /* \"ToPack/src/contarcts/Pack.sol\":4057:4087  usersBalnce[receiver] +=amount */\n      dup3\n      dup3\n      sload\n      tag_106\n      swap2\n      swap1\n      tag_98\n      jump\t// in\n    tag_106:\n      swap3\n      pop\n      pop\n      dup2\n      swap1\n      sstore\n      pop\n        /* \"ToPack/src/contarcts/Pack.sol\":3717:4095  function transfer(address receiver, uint amount) public payable{... */\n      pop\n      pop\n      jump\t// out\n        /* \"ToPack/src/contarcts/Pack.sol\":1392:1556  function getUserPosts() view public returns (Post[] memory ){... */\n    tag_22:\n        /* \"ToPack/src/contarcts/Pack.sol\":1437:1450  Post[] memory */\n      0x60\n        /* \"ToPack/src/contarcts/Pack.sol\":1530:1537  postMap */\n      0x01\n        /* \"ToPack/src/contarcts/Pack.sol\":1530:1549  postMap[msg.sender] */\n      0x00\n        /* \"ToPack/src/contarcts/Pack.sol\":1538:1548  msg.sender */\n      caller\n        /* \"ToPack/src/contarcts/Pack.sol\":1530:1549  postMap[msg.sender] */\n      0xffffffffffffffffffffffffffffffffffffffff\n      and\n      0xffffffffffffffffffffffffffffffffffffffff\n      and\n      dup2\n      mstore\n      0x20\n      add\n      swap1\n      dup2\n      mstore\n      0x20\n      add\n      0x00\n      keccak256\n        /* \"ToPack/src/contarcts/Pack.sol\":1522:1549  return  postMap[msg.sender] */\n      dup1\n      sload\n      dup1\n      0x20\n      mul\n      0x20\n      add\n      mload(0x40)\n      swap1\n      dup2\n      add\n      0x40\n      mstore\n      dup1\n      swap3\n      swap2\n      swap1\n      dup2\n      dup2\n      mstore\n      0x20\n      add\n      0x00\n      swap1\n    tag_108:\n      dup3\n      dup3\n      lt\n      iszero\n      tag_109\n      jumpi\n      dup4\n      dup3\n      swap1\n      0x00\n      mstore\n      keccak256(0x00, 0x20)\n      swap1\n      0x05\n      mul\n      add\n      mload(0x40)\n      dup1\n      0xa0\n      add\n      0x40\n      mstore\n      swap1\n      dup2\n      0x00\n      dup3\n      add\n      sload\n      dup2\n      mstore\n      0x20\n      add\n      0x01\n      dup3\n      add\n      0x00\n      swap1\n      sload\n      swap1\n      0x0100\n      exp\n      swap1\n      div\n      0xffffffffffffffffffffffffffffffffffffffff\n      and\n      0xffffffffffffffffffffffffffffffffffffffff\n      and\n      0xffffffffffffffffffffffffffffffffffffffff\n      and\n      dup2\n      mstore\n      0x20\n      add\n      0x02\n      dup3\n      add\n      sload\n      dup2\n      mstore\n      0x20\n      add\n      0x03\n      dup3\n      add\n      sload\n      dup2\n      mstore\n      0x20\n      add\n      0x04\n      dup3\n      add\n      sload\n      dup2\n      mstore\n      pop\n      pop\n      dup2\n      mstore\n      0x20\n      add\n      swap1\n      0x01\n      add\n      swap1\n      jump(tag_108)\n    tag_109:\n      pop\n      pop\n      pop\n      pop\n      swap1\n      pop\n        /* \"ToPack/src/contarcts/Pack.sol\":1392:1556  function getUserPosts() view public returns (Post[] memory ){... */\n      swap1\n      jump\t// out\n        /* \"ToPack/src/contarcts/Pack.sol\":504:548  mapping (address => uint) public usersBalnce */\n    tag_29:\n      mstore(0x20, 0x02)\n      dup1\n      0x00\n      mstore\n      keccak256(0x00, 0x40)\n      0x00\n      swap2\n      pop\n      swap1\n      pop\n      sload\n      dup2\n      jump\t// out\n        /* \"ToPack/src/contarcts/Pack.sol\":3235:3710  function changeDeliveryTime(uint _postID, uint newDeliveryTime) public{... */\n    tag_36:\n        /* \"ToPack/src/contarcts/Pack.sol\":3482:3488  uint i */\n      0x00\n        /* \"ToPack/src/contarcts/Pack.sol\":3477:3704  for (uint i = 0; i< (postMap[msg.sender]).length; i++){... */\n    tag_112:\n        /* \"ToPack/src/contarcts/Pack.sol\":3498:3505  postMap */\n      0x01\n        /* \"ToPack/src/contarcts/Pack.sol\":3498:3517  postMap[msg.sender] */\n      0x00\n        /* \"ToPack/src/contarcts/Pack.sol\":3506:3516  msg.sender */\n      caller\n        /* \"ToPack/src/contarcts/Pack.sol\":3498:3517  postMap[msg.sender] */\n      0xffffffffffffffffffffffffffffffffffffffff\n      and\n      0xffffffffffffffffffffffffffffffffffffffff\n      and\n      dup2\n      mstore\n      0x20\n      add\n      swap1\n      dup2\n      mstore\n      0x20\n      add\n      0x00\n      keccak256\n        /* \"ToPack/src/contarcts/Pack.sol\":3497:3525  (postMap[msg.sender]).length */\n      dup1\n      sload\n      swap1\n      pop\n        /* \"ToPack/src/contarcts/Pack.sol\":3494:3495  i */\n      dup2\n        /* \"ToPack/src/contarcts/Pack.sol\":3494:3525  i< (postMap[msg.sender]).length */\n      lt\n        /* \"ToPack/src/contarcts/Pack.sol\":3477:3704  for (uint i = 0; i< (postMap[msg.sender]).length; i++){... */\n      iszero\n      tag_113\n      jumpi\n        /* \"ToPack/src/contarcts/Pack.sol\":3558:3565  postMap */\n      0x01\n        /* \"ToPack/src/contarcts/Pack.sol\":3558:3577  postMap[msg.sender] */\n      0x00\n        /* \"ToPack/src/contarcts/Pack.sol\":3566:3576  msg.sender */\n      caller\n        /* \"ToPack/src/contarcts/Pack.sol\":3558:3577  postMap[msg.sender] */\n      0xffffffffffffffffffffffffffffffffffffffff\n      and\n      0xffffffffffffffffffffffffffffffffffffffff\n      and\n      dup2\n      mstore\n      0x20\n      add\n      swap1\n      dup2\n      mstore\n      0x20\n      add\n      0x00\n      keccak256\n        /* \"ToPack/src/contarcts/Pack.sol\":3578:3579  i */\n      dup2\n        /* \"ToPack/src/contarcts/Pack.sol\":3558:3580  postMap[msg.sender][i] */\n      dup2\n      sload\n      dup2\n      lt\n      tag_115\n      jumpi\n      tag_116\n      tag_42\n      jump\t// in\n    tag_116:\n    tag_115:\n      swap1\n      0x00\n      mstore\n      keccak256(0x00, 0x20)\n      swap1\n      0x05\n      mul\n      add\n        /* \"ToPack/src/contarcts/Pack.sol\":3558:3587  postMap[msg.sender][i].postID */\n      0x00\n      add\n      sload\n        /* \"ToPack/src/contarcts/Pack.sol\":3549:3556  _postID */\n      dup4\n        /* \"ToPack/src/contarcts/Pack.sol\":3549:3587  _postID==postMap[msg.sender][i].postID */\n      eq\n        /* \"ToPack/src/contarcts/Pack.sol\":3545:3694  if (_postID==postMap[msg.sender][i].postID){... */\n      iszero\n      tag_118\n      jumpi\n        /* \"ToPack/src/contarcts/Pack.sol\":3641:3656  newDeliveryTime */\n      dup2\n        /* \"ToPack/src/contarcts/Pack.sol\":3606:3613  postMap */\n      0x01\n        /* \"ToPack/src/contarcts/Pack.sol\":3606:3625  postMap[msg.sender] */\n      0x00\n        /* \"ToPack/src/contarcts/Pack.sol\":3614:3624  msg.sender */\n      caller\n        /* \"ToPack/src/contarcts/Pack.sol\":3606:3625  postMap[msg.sender] */\n      0xffffffffffffffffffffffffffffffffffffffff\n      and\n      0xffffffffffffffffffffffffffffffffffffffff\n      and\n      dup2\n      mstore\n      0x20\n      add\n      swap1\n      dup2\n      mstore\n      0x20\n      add\n      0x00\n      keccak256\n        /* \"ToPack/src/contarcts/Pack.sol\":3626:3627  i */\n      dup3\n        /* \"ToPack/src/contarcts/Pack.sol\":3606:3628  postMap[msg.sender][i] */\n      dup2\n      sload\n      dup2\n      lt\n      tag_119\n      jumpi\n      tag_120\n      tag_42\n      jump\t// in\n    tag_120:\n    tag_119:\n      swap1\n      0x00\n      mstore\n      keccak256(0x00, 0x20)\n      swap1\n      0x05\n      mul\n      add\n        /* \"ToPack/src/contarcts/Pack.sol\":3606:3640  postMap[msg.sender][i].deliverTime */\n      0x04\n      add\n        /* \"ToPack/src/contarcts/Pack.sol\":3606:3656  postMap[msg.sender][i].deliverTime=newDeliveryTime */\n      dup2\n      swap1\n      sstore\n      pop\n        /* \"ToPack/src/contarcts/Pack.sol\":3674:3679  break */\n      jump(tag_113)\n        /* \"ToPack/src/contarcts/Pack.sol\":3545:3694  if (_postID==postMap[msg.sender][i].postID){... */\n    tag_118:\n        /* \"ToPack/src/contarcts/Pack.sol\":3527:3530  i++ */\n      dup1\n      dup1\n      tag_122\n      swap1\n      tag_91\n      jump\t// in\n    tag_122:\n      swap2\n      pop\n      pop\n        /* \"ToPack/src/contarcts/Pack.sol\":3477:3704  for (uint i = 0; i< (postMap[msg.sender]).length; i++){... */\n      jump(tag_112)\n    tag_113:\n      pop\n        /* \"ToPack/src/contarcts/Pack.sol\":3235:3710  function changeDeliveryTime(uint _postID, uint newDeliveryTime) public{... */\n      pop\n      pop\n      jump\t// out\n        /* \"#utility.yul\":7:146   */\n    tag_124:\n        /* \"#utility.yul\":53:58   */\n      0x00\n        /* \"#utility.yul\":91:97   */\n      dup2\n        /* \"#utility.yul\":78:98   */\n      calldataload\n        /* \"#utility.yul\":69:98   */\n      swap1\n      pop\n        /* \"#utility.yul\":107:140   */\n      tag_126\n        /* \"#utility.yul\":134:139   */\n      dup2\n        /* \"#utility.yul\":107:140   */\n      tag_127\n      jump\t// in\n    tag_126:\n        /* \"#utility.yul\":7:146   */\n      swap3\n      swap2\n      pop\n      pop\n      jump\t// out\n        /* \"#utility.yul\":152:291   */\n    tag_128:\n        /* \"#utility.yul\":198:203   */\n      0x00\n        /* \"#utility.yul\":236:242   */\n      dup2\n        /* \"#utility.yul\":223:243   */\n      calldataload\n        /* \"#utility.yul\":214:243   */\n      swap1\n      pop\n        /* \"#utility.yul\":252:285   */\n      tag_130\n        /* \"#utility.yul\":279:284   */\n      dup2\n        /* \"#utility.yul\":252:285   */\n      tag_131\n      jump\t// in\n    tag_130:\n        /* \"#utility.yul\":152:291   */\n      swap3\n      swap2\n      pop\n      pop\n      jump\t// out\n        /* \"#utility.yul\":297:626   */\n    tag_28:\n        /* \"#utility.yul\":356:362   */\n      0x00\n        /* \"#utility.yul\":405:407   */\n      0x20\n        /* \"#utility.yul\":393:402   */\n      dup3\n        /* \"#utility.yul\":384:391   */\n      dup5\n        /* \"#utility.yul\":380:403   */\n      sub\n        /* \"#utility.yul\":376:408   */\n      slt\n        /* \"#utility.yul\":373:492   */\n      iszero\n      tag_133\n      jumpi\n        /* \"#utility.yul\":411:490   */\n      tag_134\n      tag_135\n      jump\t// in\n    tag_134:\n        /* \"#utility.yul\":373:492   */\n    tag_133:\n        /* \"#utility.yul\":531:532   */\n      0x00\n        /* \"#utility.yul\":556:609   */\n      tag_136\n        /* \"#utility.yul\":601:608   */\n      dup5\n        /* \"#utility.yul\":592:598   */\n      dup3\n        /* \"#utility.yul\":581:590   */\n      dup6\n        /* \"#utility.yul\":577:599   */\n      add\n        /* \"#utility.yul\":556:609   */\n      tag_124\n      jump\t// in\n    tag_136:\n        /* \"#utility.yul\":546:609   */\n      swap2\n      pop\n        /* \"#utility.yul\":502:619   */\n      pop\n        /* \"#utility.yul\":297:626   */\n      swap3\n      swap2\n      pop\n      pop\n      jump\t// out\n        /* \"#utility.yul\":632:1106   */\n    tag_18:\n        /* \"#utility.yul\":700:706   */\n      0x00\n        /* \"#utility.yul\":708:714   */\n      dup1\n        /* \"#utility.yul\":757:759   */\n      0x40\n        /* \"#utility.yul\":745:754   */\n      dup4\n        /* \"#utility.yul\":736:743   */\n      dup6\n        /* \"#utility.yul\":732:755   */\n      sub\n        /* \"#utility.yul\":728:760   */\n      slt\n        /* \"#utility.yul\":725:844   */\n      iszero\n      tag_138\n      jumpi\n        /* \"#utility.yul\":763:842   */\n      tag_139\n      tag_135\n      jump\t// in\n    tag_139:\n        /* \"#utility.yul\":725:844   */\n    tag_138:\n        /* \"#utility.yul\":883:884   */\n      0x00\n        /* \"#utility.yul\":908:961   */\n      tag_140\n        /* \"#utility.yul\":953:960   */\n      dup6\n        /* \"#utility.yul\":944:950   */\n      dup3\n        /* \"#utility.yul\":933:942   */\n      dup7\n        /* \"#utility.yul\":929:951   */\n      add\n        /* \"#utility.yul\":908:961   */\n      tag_124\n      jump\t// in\n    tag_140:\n        /* \"#utility.yul\":898:961   */\n      swap3\n      pop\n        /* \"#utility.yul\":854:971   */\n      pop\n        /* \"#utility.yul\":1010:1012   */\n      0x20\n        /* \"#utility.yul\":1036:1089   */\n      tag_141\n        /* \"#utility.yul\":1081:1088   */\n      dup6\n        /* \"#utility.yul\":1072:1078   */\n      dup3\n        /* \"#utility.yul\":1061:1070   */\n      dup7\n        /* \"#utility.yul\":1057:1079   */\n      add\n        /* \"#utility.yul\":1036:1089   */\n      tag_128\n      jump\t// in\n    tag_141:\n        /* \"#utility.yul\":1026:1089   */\n      swap2\n      pop\n        /* \"#utility.yul\":981:1099   */\n      pop\n        /* \"#utility.yul\":632:1106   */\n      swap3\n      pop\n      swap3\n      swap1\n      pop\n      jump\t// out\n        /* \"#utility.yul\":1112:1441   */\n    tag_10:\n        /* \"#utility.yul\":1171:1177   */\n      0x00\n        /* \"#utility.yul\":1220:1222   */\n      0x20\n        /* \"#utility.yul\":1208:1217   */\n      dup3\n        /* \"#utility.yul\":1199:1206   */\n      dup5\n        /* \"#utility.yul\":1195:1218   */\n      sub\n        /* \"#utility.yul\":1191:1223   */\n      slt\n        /* \"#utility.yul\":1188:1307   */\n      iszero\n      tag_143\n      jumpi\n        /* \"#utility.yul\":1226:1305   */\n      tag_144\n      tag_135\n      jump\t// in\n    tag_144:\n        /* \"#utility.yul\":1188:1307   */\n    tag_143:\n        /* \"#utility.yul\":1346:1347   */\n      0x00\n        /* \"#utility.yul\":1371:1424   */\n      tag_145\n        /* \"#utility.yul\":1416:1423   */\n      dup5\n        /* \"#utility.yul\":1407:1413   */\n      dup3\n        /* \"#utility.yul\":1396:1405   */\n      dup6\n        /* \"#utility.yul\":1392:1414   */\n      add\n        /* \"#utility.yul\":1371:1424   */\n      tag_128\n      jump\t// in\n    tag_145:\n        /* \"#utility.yul\":1361:1424   */\n      swap2\n      pop\n        /* \"#utility.yul\":1317:1434   */\n      pop\n        /* \"#utility.yul\":1112:1441   */\n      swap3\n      swap2\n      pop\n      pop\n      jump\t// out\n        /* \"#utility.yul\":1447:1921   */\n    tag_35:\n        /* \"#utility.yul\":1515:1521   */\n      0x00\n        /* \"#utility.yul\":1523:1529   */\n      dup1\n        /* \"#utility.yul\":1572:1574   */\n      0x40\n        /* \"#utility.yul\":1560:1569   */\n      dup4\n        /* \"#utility.yul\":1551:1558   */\n      dup6\n        /* \"#utility.yul\":1547:1570   */\n      sub\n        /* \"#utility.yul\":1543:1575   */\n      slt\n        /* \"#utility.yul\":1540:1659   */\n      iszero\n      tag_147\n      jumpi\n        /* \"#utility.yul\":1578:1657   */\n      tag_148\n      tag_135\n      jump\t// in\n    tag_148:\n        /* \"#utility.yul\":1540:1659   */\n    tag_147:\n        /* \"#utility.yul\":1698:1699   */\n      0x00\n        /* \"#utility.yul\":1723:1776   */\n      tag_149\n        /* \"#utility.yul\":1768:1775   */\n      dup6\n        /* \"#utility.yul\":1759:1765   */\n      dup3\n        /* \"#utility.yul\":1748:1757   */\n      dup7\n        /* \"#utility.yul\":1744:1766   */\n      add\n        /* \"#utility.yul\":1723:1776   */\n      tag_128\n      jump\t// in\n    tag_149:\n        /* \"#utility.yul\":1713:1776   */\n      swap3\n      pop\n        /* \"#utility.yul\":1669:1786   */\n      pop\n        /* \"#utility.yul\":1825:1827   */\n      0x20\n        /* \"#utility.yul\":1851:1904   */\n      tag_150\n        /* \"#utility.yul\":1896:1903   */\n      dup6\n        /* \"#utility.yul\":1887:1893   */\n      dup3\n        /* \"#utility.yul\":1876:1885   */\n      dup7\n        /* \"#utility.yul\":1872:1894   */\n      add\n        /* \"#utility.yul\":1851:1904   */\n      tag_128\n      jump\t// in\n    tag_150:\n        /* \"#utility.yul\":1841:1904   */\n      swap2\n      pop\n        /* \"#utility.yul\":1796:1914   */\n      pop\n        /* \"#utility.yul\":1447:1921   */\n      swap3\n      pop\n      swap3\n      swap1\n      pop\n      jump\t// out\n        /* \"#utility.yul\":1927:2186   */\n    tag_151:\n        /* \"#utility.yul\":2036:2046   */\n      0x00\n        /* \"#utility.yul\":2057:2143   */\n      tag_153\n        /* \"#utility.yul\":2139:2142   */\n      dup4\n        /* \"#utility.yul\":2131:2137   */\n      dup4\n        /* \"#utility.yul\":2057:2143   */\n      tag_154\n      jump\t// in\n    tag_153:\n        /* \"#utility.yul\":2175:2179   */\n      0xa0\n        /* \"#utility.yul\":2170:2173   */\n      dup4\n        /* \"#utility.yul\":2166:2180   */\n      add\n        /* \"#utility.yul\":2152:2180   */\n      swap1\n      pop\n        /* \"#utility.yul\":1927:2186   */\n      swap3\n      swap2\n      pop\n      pop\n      jump\t// out\n        /* \"#utility.yul\":2192:2300   */\n    tag_155:\n        /* \"#utility.yul\":2269:2293   */\n      tag_157\n        /* \"#utility.yul\":2287:2292   */\n      dup2\n        /* \"#utility.yul\":2269:2293   */\n      tag_158\n      jump\t// in\n    tag_157:\n        /* \"#utility.yul\":2264:2267   */\n      dup3\n        /* \"#utility.yul\":2257:2294   */\n      mstore\n        /* \"#utility.yul\":2192:2300   */\n      pop\n      pop\n      jump\t// out\n        /* \"#utility.yul\":2354:3246   */\n    tag_159:\n        /* \"#utility.yul\":2513:2516   */\n      0x00\n        /* \"#utility.yul\":2542:2616   */\n      tag_161\n        /* \"#utility.yul\":2610:2615   */\n      dup3\n        /* \"#utility.yul\":2542:2616   */\n      tag_162\n      jump\t// in\n    tag_161:\n        /* \"#utility.yul\":2632:2738   */\n      tag_163\n        /* \"#utility.yul\":2731:2737   */\n      dup2\n        /* \"#utility.yul\":2726:2729   */\n      dup6\n        /* \"#utility.yul\":2632:2738   */\n      tag_164\n      jump\t// in\n    tag_163:\n        /* \"#utility.yul\":2625:2738   */\n      swap4\n      pop\n        /* \"#utility.yul\":2762:2838   */\n      tag_165\n        /* \"#utility.yul\":2832:2837   */\n      dup4\n        /* \"#utility.yul\":2762:2838   */\n      tag_166\n      jump\t// in\n    tag_165:\n        /* \"#utility.yul\":2861:2868   */\n      dup1\n        /* \"#utility.yul\":2892:2893   */\n      0x00\n        /* \"#utility.yul\":2877:3221   */\n    tag_167:\n        /* \"#utility.yul\":2902:2908   */\n      dup4\n        /* \"#utility.yul\":2899:2900   */\n      dup2\n        /* \"#utility.yul\":2896:2909   */\n      lt\n        /* \"#utility.yul\":2877:3221   */\n      iszero\n      tag_169\n      jumpi\n        /* \"#utility.yul\":2978:2984   */\n      dup2\n        /* \"#utility.yul\":2972:2985   */\n      mload\n        /* \"#utility.yul\":3005:3108   */\n      tag_170\n        /* \"#utility.yul\":3104:3107   */\n      dup9\n        /* \"#utility.yul\":3089:3102   */\n      dup3\n        /* \"#utility.yul\":3005:3108   */\n      tag_151\n      jump\t// in\n    tag_170:\n        /* \"#utility.yul\":2998:3108   */\n      swap8\n      pop\n        /* \"#utility.yul\":3131:3211   */\n      tag_171\n        /* \"#utility.yul\":3204:3210   */\n      dup4\n        /* \"#utility.yul\":3131:3211   */\n      tag_172\n      jump\t// in\n    tag_171:\n        /* \"#utility.yul\":3121:3211   */\n      swap3\n      pop\n        /* \"#utility.yul\":2937:3221   */\n      pop\n        /* \"#utility.yul\":2924:2925   */\n      0x01\n        /* \"#utility.yul\":2921:2922   */\n      dup2\n        /* \"#utility.yul\":2917:2926   */\n      add\n        /* \"#utility.yul\":2912:2926   */\n      swap1\n      pop\n        /* \"#utility.yul\":2877:3221   */\n      jump(tag_167)\n    tag_169:\n        /* \"#utility.yul\":2881:2895   */\n      pop\n        /* \"#utility.yul\":3237:3240   */\n      dup6\n        /* \"#utility.yul\":3230:3240   */\n      swap4\n      pop\n        /* \"#utility.yul\":2518:3246   */\n      pop\n      pop\n      pop\n        /* \"#utility.yul\":2354:3246   */\n      swap3\n      swap2\n      pop\n      pop\n      jump\t// out\n        /* \"#utility.yul\":3252:3618   */\n    tag_173:\n        /* \"#utility.yul\":3394:3397   */\n      0x00\n        /* \"#utility.yul\":3415:3482   */\n      tag_175\n        /* \"#utility.yul\":3479:3481   */\n      0x1c\n        /* \"#utility.yul\":3474:3477   */\n      dup4\n        /* \"#utility.yul\":3415:3482   */\n      tag_176\n      jump\t// in\n    tag_175:\n        /* \"#utility.yul\":3408:3482   */\n      swap2\n      pop\n        /* \"#utility.yul\":3491:3584   */\n      tag_177\n        /* \"#utility.yul\":3580:3583   */\n      dup3\n        /* \"#utility.yul\":3491:3584   */\n      tag_178\n      jump\t// in\n    tag_177:\n        /* \"#utility.yul\":3609:3611   */\n      0x20\n        /* \"#utility.yul\":3604:3607   */\n      dup3\n        /* \"#utility.yul\":3600:3612   */\n      add\n        /* \"#utility.yul\":3593:3612   */\n      swap1\n      pop\n        /* \"#utility.yul\":3252:3618   */\n      swap2\n      swap1\n      pop\n      jump\t// out\n        /* \"#utility.yul\":3668:4709   */\n    tag_154:\n        /* \"#utility.yul\":3795:3799   */\n      0xa0\n        /* \"#utility.yul\":3790:3793   */\n      dup3\n        /* \"#utility.yul\":3786:3800   */\n      add\n        /* \"#utility.yul\":3884:3888   */\n      0x00\n        /* \"#utility.yul\":3877:3882   */\n      dup3\n        /* \"#utility.yul\":3873:3889   */\n      add\n        /* \"#utility.yul\":3867:3890   */\n      mload\n        /* \"#utility.yul\":3903:3966   */\n      tag_180\n        /* \"#utility.yul\":3960:3964   */\n      0x00\n        /* \"#utility.yul\":3955:3958   */\n      dup6\n        /* \"#utility.yul\":3951:3965   */\n      add\n        /* \"#utility.yul\":3937:3949   */\n      dup3\n        /* \"#utility.yul\":3903:3966   */\n      tag_181\n      jump\t// in\n    tag_180:\n        /* \"#utility.yul\":3810:3976   */\n      pop\n        /* \"#utility.yul\":4064:4068   */\n      0x20\n        /* \"#utility.yul\":4057:4062   */\n      dup3\n        /* \"#utility.yul\":4053:4069   */\n      add\n        /* \"#utility.yul\":4047:4070   */\n      mload\n        /* \"#utility.yul\":4083:4146   */\n      tag_182\n        /* \"#utility.yul\":4140:4144   */\n      0x20\n        /* \"#utility.yul\":4135:4138   */\n      dup6\n        /* \"#utility.yul\":4131:4145   */\n      add\n        /* \"#utility.yul\":4117:4129   */\n      dup3\n        /* \"#utility.yul\":4083:4146   */\n      tag_155\n      jump\t// in\n    tag_182:\n        /* \"#utility.yul\":3986:4156   */\n      pop\n        /* \"#utility.yul\":4243:4247   */\n      0x40\n        /* \"#utility.yul\":4236:4241   */\n      dup3\n        /* \"#utility.yul\":4232:4248   */\n      add\n        /* \"#utility.yul\":4226:4249   */\n      mload\n        /* \"#utility.yul\":4262:4325   */\n      tag_183\n        /* \"#utility.yul\":4319:4323   */\n      0x40\n        /* \"#utility.yul\":4314:4317   */\n      dup6\n        /* \"#utility.yul\":4310:4324   */\n      add\n        /* \"#utility.yul\":4296:4308   */\n      dup3\n        /* \"#utility.yul\":4262:4325   */\n      tag_181\n      jump\t// in\n    tag_183:\n        /* \"#utility.yul\":4166:4335   */\n      pop\n        /* \"#utility.yul\":4429:4433   */\n      0x60\n        /* \"#utility.yul\":4422:4427   */\n      dup3\n        /* \"#utility.yul\":4418:4434   */\n      add\n        /* \"#utility.yul\":4412:4435   */\n      mload\n        /* \"#utility.yul\":4448:4511   */\n      tag_184\n        /* \"#utility.yul\":4505:4509   */\n      0x60\n        /* \"#utility.yul\":4500:4503   */\n      dup6\n        /* \"#utility.yul\":4496:4510   */\n      add\n        /* \"#utility.yul\":4482:4494   */\n      dup3\n        /* \"#utility.yul\":4448:4511   */\n      tag_181\n      jump\t// in\n    tag_184:\n        /* \"#utility.yul\":4345:4521   */\n      pop\n        /* \"#utility.yul\":4610:4614   */\n      0x80\n        /* \"#utility.yul\":4603:4608   */\n      dup3\n        /* \"#utility.yul\":4599:4615   */\n      add\n        /* \"#utility.yul\":4593:4616   */\n      mload\n        /* \"#utility.yul\":4629:4692   */\n      tag_185\n        /* \"#utility.yul\":4686:4690   */\n      0x80\n        /* \"#utility.yul\":4681:4684   */\n      dup6\n        /* \"#utility.yul\":4677:4691   */\n      add\n        /* \"#utility.yul\":4663:4675   */\n      dup3\n        /* \"#utility.yul\":4629:4692   */\n      tag_181\n      jump\t// in\n    tag_185:\n        /* \"#utility.yul\":4531:4702   */\n      pop\n        /* \"#utility.yul\":3764:4709   */\n      pop\n        /* \"#utility.yul\":3668:4709   */\n      pop\n      pop\n      jump\t// out\n        /* \"#utility.yul\":4715:4823   */\n    tag_181:\n        /* \"#utility.yul\":4792:4816   */\n      tag_187\n        /* \"#utility.yul\":4810:4815   */\n      dup2\n        /* \"#utility.yul\":4792:4816   */\n      tag_188\n      jump\t// in\n    tag_187:\n        /* \"#utility.yul\":4787:4790   */\n      dup3\n        /* \"#utility.yul\":4780:4817   */\n      mstore\n        /* \"#utility.yul\":4715:4823   */\n      pop\n      pop\n      jump\t// out\n        /* \"#utility.yul\":4829:4947   */\n    tag_189:\n        /* \"#utility.yul\":4916:4940   */\n      tag_191\n        /* \"#utility.yul\":4934:4939   */\n      dup2\n        /* \"#utility.yul\":4916:4940   */\n      tag_188\n      jump\t// in\n    tag_191:\n        /* \"#utility.yul\":4911:4914   */\n      dup3\n        /* \"#utility.yul\":4904:4941   */\n      mstore\n        /* \"#utility.yul\":4829:4947   */\n      pop\n      pop\n      jump\t// out\n        /* \"#utility.yul\":4953:5406   */\n    tag_24:\n        /* \"#utility.yul\":5136:5140   */\n      0x00\n        /* \"#utility.yul\":5174:5176   */\n      0x20\n        /* \"#utility.yul\":5163:5172   */\n      dup3\n        /* \"#utility.yul\":5159:5177   */\n      add\n        /* \"#utility.yul\":5151:5177   */\n      swap1\n      pop\n        /* \"#utility.yul\":5223:5232   */\n      dup2\n        /* \"#utility.yul\":5217:5221   */\n      dup2\n        /* \"#utility.yul\":5213:5233   */\n      sub\n        /* \"#utility.yul\":5209:5210   */\n      0x00\n        /* \"#utility.yul\":5198:5207   */\n      dup4\n        /* \"#utility.yul\":5194:5211   */\n      add\n        /* \"#utility.yul\":5187:5234   */\n      mstore\n        /* \"#utility.yul\":5251:5399   */\n      tag_193\n        /* \"#utility.yul\":5394:5398   */\n      dup2\n        /* \"#utility.yul\":5385:5391   */\n      dup5\n        /* \"#utility.yul\":5251:5399   */\n      tag_159\n      jump\t// in\n    tag_193:\n        /* \"#utility.yul\":5243:5399   */\n      swap1\n      pop\n        /* \"#utility.yul\":4953:5406   */\n      swap3\n      swap2\n      pop\n      pop\n      jump\t// out\n        /* \"#utility.yul\":5412:5831   */\n    tag_94:\n        /* \"#utility.yul\":5578:5582   */\n      0x00\n        /* \"#utility.yul\":5616:5618   */\n      0x20\n        /* \"#utility.yul\":5605:5614   */\n      dup3\n        /* \"#utility.yul\":5601:5619   */\n      add\n        /* \"#utility.yul\":5593:5619   */\n      swap1\n      pop\n        /* \"#utility.yul\":5665:5674   */\n      dup2\n        /* \"#utility.yul\":5659:5663   */\n      dup2\n        /* \"#utility.yul\":5655:5675   */\n      sub\n        /* \"#utility.yul\":5651:5652   */\n      0x00\n        /* \"#utility.yul\":5640:5649   */\n      dup4\n        /* \"#utility.yul\":5636:5653   */\n      add\n        /* \"#utility.yul\":5629:5676   */\n      mstore\n        /* \"#utility.yul\":5693:5824   */\n      tag_195\n        /* \"#utility.yul\":5819:5823   */\n      dup2\n        /* \"#utility.yul\":5693:5824   */\n      tag_173\n      jump\t// in\n    tag_195:\n        /* \"#utility.yul\":5685:5824   */\n      swap1\n      pop\n        /* \"#utility.yul\":5412:5831   */\n      swap2\n      swap1\n      pop\n      jump\t// out\n        /* \"#utility.yul\":5837:6059   */\n    tag_31:\n        /* \"#utility.yul\":5930:5934   */\n      0x00\n        /* \"#utility.yul\":5968:5970   */\n      0x20\n        /* \"#utility.yul\":5957:5966   */\n      dup3\n        /* \"#utility.yul\":5953:5971   */\n      add\n        /* \"#utility.yul\":5945:5971   */\n      swap1\n      pop\n        /* \"#utility.yul\":5981:6052   */\n      tag_197\n        /* \"#utility.yul\":6049:6050   */\n      0x00\n        /* \"#utility.yul\":6038:6047   */\n      dup4\n        /* \"#utility.yul\":6034:6051   */\n      add\n        /* \"#utility.yul\":6025:6031   */\n      dup5\n        /* \"#utility.yul\":5981:6052   */\n      tag_189\n      jump\t// in\n    tag_197:\n        /* \"#utility.yul\":5837:6059   */\n      swap3\n      swap2\n      pop\n      pop\n      jump\t// out\n        /* \"#utility.yul\":6146:6298   */\n    tag_166:\n        /* \"#utility.yul\":6233:6237   */\n      0x00\n        /* \"#utility.yul\":6256:6259   */\n      dup2\n        /* \"#utility.yul\":6248:6259   */\n      swap1\n      pop\n        /* \"#utility.yul\":6286:6290   */\n      0x20\n        /* \"#utility.yul\":6281:6284   */\n      dup3\n        /* \"#utility.yul\":6277:6291   */\n      add\n        /* \"#utility.yul\":6269:6291   */\n      swap1\n      pop\n        /* \"#utility.yul\":6146:6298   */\n      swap2\n      swap1\n      pop\n      jump\t// out\n        /* \"#utility.yul\":6304:6438   */\n    tag_162:\n        /* \"#utility.yul\":6391:6397   */\n      0x00\n        /* \"#utility.yul\":6425:6430   */\n      dup2\n        /* \"#utility.yul\":6419:6431   */\n      mload\n        /* \"#utility.yul\":6409:6431   */\n      swap1\n      pop\n        /* \"#utility.yul\":6304:6438   */\n      swap2\n      swap1\n      pop\n      jump\t// out\n        /* \"#utility.yul\":6444:6577   */\n    tag_172:\n        /* \"#utility.yul\":6534:6538   */\n      0x00\n        /* \"#utility.yul\":6566:6570   */\n      0x20\n        /* \"#utility.yul\":6561:6564   */\n      dup3\n        /* \"#utility.yul\":6557:6571   */\n      add\n        /* \"#utility.yul\":6549:6571   */\n      swap1\n      pop\n        /* \"#utility.yul\":6444:6577   */\n      swap2\n      swap1\n      pop\n      jump\t// out\n        /* \"#utility.yul\":6583:6787   */\n    tag_164:\n        /* \"#utility.yul\":6702:6713   */\n      0x00\n        /* \"#utility.yul\":6736:6742   */\n      dup3\n        /* \"#utility.yul\":6731:6734   */\n      dup3\n        /* \"#utility.yul\":6724:6743   */\n      mstore\n        /* \"#utility.yul\":6776:6780   */\n      0x20\n        /* \"#utility.yul\":6771:6774   */\n      dup3\n        /* \"#utility.yul\":6767:6781   */\n      add\n        /* \"#utility.yul\":6752:6781   */\n      swap1\n      pop\n        /* \"#utility.yul\":6583:6787   */\n      swap3\n      swap2\n      pop\n      pop\n      jump\t// out\n        /* \"#utility.yul\":6793:6962   */\n    tag_176:\n        /* \"#utility.yul\":6877:6888   */\n      0x00\n        /* \"#utility.yul\":6911:6917   */\n      dup3\n        /* \"#utility.yul\":6906:6909   */\n      dup3\n        /* \"#utility.yul\":6899:6918   */\n      mstore\n        /* \"#utility.yul\":6951:6955   */\n      0x20\n        /* \"#utility.yul\":6946:6949   */\n      dup3\n        /* \"#utility.yul\":6942:6956   */\n      add\n        /* \"#utility.yul\":6927:6956   */\n      swap1\n      pop\n        /* \"#utility.yul\":6793:6962   */\n      swap3\n      swap2\n      pop\n      pop\n      jump\t// out\n        /* \"#utility.yul\":6968:7273   */\n    tag_98:\n        /* \"#utility.yul\":7008:7011   */\n      0x00\n        /* \"#utility.yul\":7027:7047   */\n      tag_206\n        /* \"#utility.yul\":7045:7046   */\n      dup3\n        /* \"#utility.yul\":7027:7047   */\n      tag_188\n      jump\t// in\n    tag_206:\n        /* \"#utility.yul\":7022:7047   */\n      swap2\n      pop\n        /* \"#utility.yul\":7061:7081   */\n      tag_207\n        /* \"#utility.yul\":7079:7080   */\n      dup4\n        /* \"#utility.yul\":7061:7081   */\n      tag_188\n      jump\t// in\n    tag_207:\n        /* \"#utility.yul\":7056:7081   */\n      swap3\n      pop\n        /* \"#utility.yul\":7215:7216   */\n      dup3\n        /* \"#utility.yul\":7147:7213   */\n      0xffffffffffffffffffffffffffffffffffffffffffffffffffffffffffffffff\n        /* \"#utility.yul\":7143:7217   */\n      sub\n        /* \"#utility.yul\":7140:7141   */\n      dup3\n        /* \"#utility.yul\":7137:7218   */\n      gt\n        /* \"#utility.yul\":7134:7241   */\n      iszero\n      tag_208\n      jumpi\n        /* \"#utility.yul\":7221:7239   */\n      tag_209\n      tag_210\n      jump\t// in\n    tag_209:\n        /* \"#utility.yul\":7134:7241   */\n    tag_208:\n        /* \"#utility.yul\":7265:7266   */\n      dup3\n        /* \"#utility.yul\":7262:7263   */\n      dup3\n        /* \"#utility.yul\":7258:7267   */\n      add\n        /* \"#utility.yul\":7251:7267   */\n      swap1\n      pop\n        /* \"#utility.yul\":6968:7273   */\n      swap3\n      swap2\n      pop\n      pop\n      jump\t// out\n        /* \"#utility.yul\":7279:7470   */\n    tag_39:\n        /* \"#utility.yul\":7319:7323   */\n      0x00\n        /* \"#utility.yul\":7339:7359   */\n      tag_212\n        /* \"#utility.yul\":7357:7358   */\n      dup3\n        /* \"#utility.yul\":7339:7359   */\n      tag_188\n      jump\t// in\n    tag_212:\n        /* \"#utility.yul\":7334:7359   */\n      swap2\n      pop\n        /* \"#utility.yul\":7373:7393   */\n      tag_213\n        /* \"#utility.yul\":7391:7392   */\n      dup4\n        /* \"#utility.yul\":7373:7393   */\n      tag_188\n      jump\t// in\n    tag_213:\n        /* \"#utility.yul\":7368:7393   */\n      swap3\n      pop\n        /* \"#utility.yul\":7412:7413   */\n      dup3\n        /* \"#utility.yul\":7409:7410   */\n      dup3\n        /* \"#utility.yul\":7406:7414   */\n      lt\n        /* \"#utility.yul\":7403:7437   */\n      iszero\n      tag_214\n      jumpi\n        /* \"#utility.yul\":7417:7435   */\n      tag_215\n      tag_210\n      jump\t// in\n    tag_215:\n        /* \"#utility.yul\":7403:7437   */\n    tag_214:\n        /* \"#utility.yul\":7462:7463   */\n      dup3\n        /* \"#utility.yul\":7459:7460   */\n      dup3\n        /* \"#utility.yul\":7455:7464   */\n      sub\n        /* \"#utility.yul\":7447:7464   */\n      swap1\n      pop\n        /* \"#utility.yul\":7279:7470   */\n      swap3\n      swap2\n      pop\n      pop\n      jump\t// out\n        /* \"#utility.yul\":7476:7572   */\n    tag_158:\n        /* \"#utility.yul\":7513:7520   */\n      0x00\n        /* \"#utility.yul\":7542:7566   */\n      tag_217\n        /* \"#utility.yul\":7560:7565   */\n      dup3\n        /* \"#utility.yul\":7542:7566   */\n      tag_218\n      jump\t// in\n    tag_217:\n        /* \"#utility.yul\":7531:7566   */\n      swap1\n      pop\n        /* \"#utility.yul\":7476:7572   */\n      swap2\n      swap1\n      pop\n      jump\t// out\n        /* \"#utility.yul\":7578:7704   */\n    tag_218:\n        /* \"#utility.yul\":7615:7622   */\n      0x00\n        /* \"#utility.yul\":7655:7697   */\n      0xffffffffffffffffffffffffffffffffffffffff\n        /* \"#utility.yul\":7648:7653   */\n      dup3\n        /* \"#utility.yul\":7644:7698   */\n      and\n        /* \"#utility.yul\":7633:7698   */\n      swap1\n      pop\n        /* \"#utility.yul\":7578:7704   */\n      swap2\n      swap1\n      pop\n      jump\t// out\n        /* \"#utility.yul\":7710:7787   */\n    tag_188:\n        /* \"#utility.yul\":7747:7754   */\n      0x00\n        /* \"#utility.yul\":7776:7781   */\n      dup2\n        /* \"#utility.yul\":7765:7781   */\n      swap1\n      pop\n        /* \"#utility.yul\":7710:7787   */\n      swap2\n      swap1\n      pop\n      jump\t// out\n        /* \"#utility.yul\":7793:8026   */\n    tag_91:\n        /* \"#utility.yul\":7832:7835   */\n      0x00\n        /* \"#utility.yul\":7855:7879   */\n      tag_222\n        /* \"#utility.yul\":7873:7878   */\n      dup3\n        /* \"#utility.yul\":7855:7879   */\n      tag_188\n      jump\t// in\n    tag_222:\n        /* \"#utility.yul\":7846:7879   */\n      swap2\n      pop\n        /* \"#utility.yul\":7901:7967   */\n      0xffffffffffffffffffffffffffffffffffffffffffffffffffffffffffffffff\n        /* \"#utility.yul\":7894:7899   */\n      dup3\n        /* \"#utility.yul\":7891:7968   */\n      eq\n        /* \"#utility.yul\":7888:7991   */\n      iszero\n      tag_223\n      jumpi\n        /* \"#utility.yul\":7971:7989   */\n      tag_224\n      tag_210\n      jump\t// in\n    tag_224:\n        /* \"#utility.yul\":7888:7991   */\n    tag_223:\n        /* \"#utility.yul\":8018:8019   */\n      0x01\n        /* \"#utility.yul\":8011:8016   */\n      dup3\n        /* \"#utility.yul\":8007:8020   */\n      add\n        /* \"#utility.yul\":8000:8020   */\n      swap1\n      pop\n        /* \"#utility.yul\":7793:8026   */\n      swap2\n      swap1\n      pop\n      jump\t// out\n        /* \"#utility.yul\":8032:8212   */\n    tag_210:\n        /* \"#utility.yul\":8080:8157   */\n      0x4e487b7100000000000000000000000000000000000000000000000000000000\n        /* \"#utility.yul\":8077:8078   */\n      0x00\n        /* \"#utility.yul\":8070:8158   */\n      mstore\n        /* \"#utility.yul\":8177:8181   */\n      0x11\n        /* \"#utility.yul\":8174:8175   */\n      0x04\n        /* \"#utility.yul\":8167:8182   */\n      mstore\n        /* \"#utility.yul\":8201:8205   */\n      0x24\n        /* \"#utility.yul\":8198:8199   */\n      0x00\n        /* \"#utility.yul\":8191:8206   */\n      revert\n        /* \"#utility.yul\":8218:8398   */\n    tag_52:\n        /* \"#utility.yul\":8266:8343   */\n      0x4e487b7100000000000000000000000000000000000000000000000000000000\n        /* \"#utility.yul\":8263:8264   */\n      0x00\n        /* \"#utility.yul\":8256:8344   */\n      mstore\n        /* \"#utility.yul\":8363:8367   */\n      0x31\n        /* \"#utility.yul\":8360:8361   */\n      0x04\n        /* \"#utility.yul\":8353:8368   */\n      mstore\n        /* \"#utility.yul\":8387:8391   */\n      0x24\n        /* \"#utility.yul\":8384:8385   */\n      0x00\n        /* \"#utility.yul\":8377:8392   */\n      revert\n        /* \"#utility.yul\":8404:8584   */\n    tag_42:\n        /* \"#utility.yul\":8452:8529   */\n      0x4e487b7100000000000000000000000000000000000000000000000000000000\n        /* \"#utility.yul\":8449:8450   */\n      0x00\n        /* \"#utility.yul\":8442:8530   */\n      mstore\n        /* \"#utility.yul\":8549:8553   */\n      0x32\n        /* \"#utility.yul\":8546:8547   */\n      0x04\n        /* \"#utility.yul\":8539:8554   */\n      mstore\n        /* \"#utility.yul\":8573:8577   */\n      0x24\n        /* \"#utility.yul\":8570:8571   */\n      0x00\n        /* \"#utility.yul\":8563:8578   */\n      revert\n        /* \"#utility.yul\":8713:8830   */\n    tag_135:\n        /* \"#utility.yul\":8822:8823   */\n      0x00\n        /* \"#utility.yul\":8819:8820   */\n      dup1\n        /* \"#utility.yul\":8812:8824   */\n      revert\n        /* \"#utility.yul\":8836:9014   */\n    tag_178:\n        /* \"#utility.yul\":8976:9006   */\n      0x56616c7565206d7573742062652067726561746572207468616e203000000000\n        /* \"#utility.yul\":8972:8973   */\n      0x00\n        /* \"#utility.yul\":8964:8970   */\n      dup3\n        /* \"#utility.yul\":8960:8974   */\n      add\n        /* \"#utility.yul\":8953:9007   */\n      mstore\n        /* \"#utility.yul\":8836:9014   */\n      pop\n      jump\t// out\n        /* \"#utility.yul\":9020:9142   */\n    tag_127:\n        /* \"#utility.yul\":9093:9117   */\n      tag_233\n        /* \"#utility.yul\":9111:9116   */\n      dup2\n        /* \"#utility.yul\":9093:9117   */\n      tag_158\n      jump\t// in\n    tag_233:\n        /* \"#utility.yul\":9086:9091   */\n      dup2\n        /* \"#utility.yul\":9083:9118   */\n      eq\n        /* \"#utility.yul\":9073:9136   */\n      tag_234\n      jumpi\n        /* \"#utility.yul\":9132:9133   */\n      0x00\n        /* \"#utility.yul\":9129:9130   */\n      dup1\n        /* \"#utility.yul\":9122:9134   */\n      revert\n        /* \"#utility.yul\":9073:9136   */\n    tag_234:\n        /* \"#utility.yul\":9020:9142   */\n      pop\n      jump\t// out\n        /* \"#utility.yul\":9148:9270   */\n    tag_131:\n        /* \"#utility.yul\":9221:9245   */\n      tag_236\n        /* \"#utility.yul\":9239:9244   */\n      dup2\n        /* \"#utility.yul\":9221:9245   */\n      tag_188\n      jump\t// in\n    tag_236:\n        /* \"#utility.yul\":9214:9219   */\n      dup2\n        /* \"#utility.yul\":9211:9246   */\n      eq\n        /* \"#utility.yul\":9201:9264   */\n      tag_237\n      jumpi\n        /* \"#utility.yul\":9260:9261   */\n      0x00\n        /* \"#utility.yul\":9257:9258   */\n      dup1\n        /* \"#utility.yul\":9250:9262   */\n      revert\n        /* \"#utility.yul\":9201:9264   */\n    tag_237:\n        /* \"#utility.yul\":9148:9270   */\n      pop\n      jump\t// out\n\n    auxdata: 0xa2646970667358221220bb77d708cfe650d1573fd6ac8b79ab5bcb9d300e8210fd419e83c8c2db29f23164736f6c63430008070033\n}\n",
				"bytecode": {
					"linkReferences": {},
					"object": "608060405234801561001057600080fd5b503373ffffffffffffffffffffffffffffffffffffffff1631600260003373ffffffffffffffffffffffffffffffffffffffff1673ffffffffffffffffffffffffffffffffffffffff168152602001908152602001600020819055506113ed8061007b6000396000f3fe6080604052600436106100555760003560e01c8063094cd5ee1461005a5780631d69bd4814610076578063a9059cbb1461009f578063cc4ef2cc146100bb578063cca003f4146100e6578063eca8b56714610123575b600080fd5b610074600480360381019061006f9190610f7d565b61014c565b005b34801561008257600080fd5b5061009d60048036038101906100989190610f7d565b61095f565b005b6100b960048036038101906100b49190610f3d565b610ae7565b005b3480156100c757600080fd5b506100d0610c79565b6040516100dd9190611118565b60405180910390f35b3480156100f257600080fd5b5061010d60048036038101906101089190610f10565b610d93565b60405161011a919061115a565b60405180910390f35b34801561012f57600080fd5b5061014a60048036038101906101459190610faa565b610dab565b005b600160003373ffffffffffffffffffffffffffffffffffffffff1673ffffffffffffffffffffffffffffffffffffffff16815260200190815260200160002060018060003373ffffffffffffffffffffffffffffffffffffffff1673ffffffffffffffffffffffffffffffffffffffff168152602001908152602001600020805490506101d99190611215565b815481106101ea576101e961132c565b5b906000526020600020906005020160000154811415610370576102bc33600160003373ffffffffffffffffffffffffffffffffffffffff1673ffffffffffffffffffffffffffffffffffffffff16815260200190815260200160002060018060003373ffffffffffffffffffffffffffffffffffffffff1673ffffffffffffffffffffffffffffffffffffffff168152602001908152602001600020805490506102949190611215565b815481106102a5576102a461132c565b5b906000526020600020906005020160020154610ae7565b600160003373ffffffffffffffffffffffffffffffffffffffff1673ffffffffffffffffffffffffffffffffffffffff16815260200190815260200160002080548061030b5761030a6112fd565b5b60019003818190600052602060002090600502016000808201600090556001820160006101000a81549073ffffffffffffffffffffffffffffffffffffffff02191690556002820160009055600382016000905560048201600090555050905561095c565b60018060003373ffffffffffffffffffffffffffffffffffffffff1673ffffffffffffffffffffffffffffffffffffffff168152602001908152602001600020805490501480156104235750600160003373ffffffffffffffffffffffffffffffffffffffff1673ffffffffffffffffffffffffffffffffffffffff16815260200190815260200160002060008154811061040e5761040d61132c565b5b90600052602060002090600502016000015481145b156105495761049533600160003373ffffffffffffffffffffffffffffffffffffffff1673ffffffffffffffffffffffffffffffffffffffff16815260200190815260200160002060008154811061047e5761047d61132c565b5b906000526020600020906005020160020154610ae7565b600160003373ffffffffffffffffffffffffffffffffffffffff1673ffffffffffffffffffffffffffffffffffffffff1681526020019081526020016000208054806104e4576104e36112fd565b5b60019003818190600052602060002090600502016000808201600090556001820160006101000a81549073ffffffffffffffffffffffffffffffffffffffff02191690556002820160009055600382016000905560048201600090555050905561095b565b60018060003373ffffffffffffffffffffffffffffffffffffffff1673ffffffffffffffffffffffffffffffffffffffff168152602001908152602001600020805490501461091f5760005b600160003373ffffffffffffffffffffffffffffffffffffffff1673ffffffffffffffffffffffffffffffffffffffff1681526020019081526020016000208054905081101561091957600160003373ffffffffffffffffffffffffffffffffffffffff1673ffffffffffffffffffffffffffffffffffffffff16815260200190815260200160002081815481106106305761062f61132c565b5b906000526020600020906005020160000154821415610906576106b533600160003373ffffffffffffffffffffffffffffffffffffffff1673ffffffffffffffffffffffffffffffffffffffff168152602001908152602001600020838154811061069e5761069d61132c565b5b906000526020600020906005020160020154610ae7565b600160003373ffffffffffffffffffffffffffffffffffffffff1673ffffffffffffffffffffffffffffffffffffffff16815260200190815260200160002060018060003373ffffffffffffffffffffffffffffffffffffffff1673ffffffffffffffffffffffffffffffffffffffff168152602001908152602001600020805490506107429190611215565b815481106107535761075261132c565b5b9060005260206000209060050201600160003373ffffffffffffffffffffffffffffffffffffffff1673ffffffffffffffffffffffffffffffffffffffff16815260200190815260200160002082815481106107b2576107b161132c565b5b9060005260206000209060050201600082015481600001556001820160009054906101000a900473ffffffffffffffffffffffffffffffffffffffff168160010160006101000a81548173ffffffffffffffffffffffffffffffffffffffff021916908373ffffffffffffffffffffffffffffffffffffffff160217905550600282015481600201556003820154816003015560048201548160040155905050600160003373ffffffffffffffffffffffffffffffffffffffff1673ffffffffffffffffffffffffffffffffffffffff1681526020019081526020016000208054806108a1576108a06112fd565b5b60019003818190600052602060002090600502016000808201600090556001820160006101000a81549073ffffffffffffffffffffffffffffffffffffffff021916905560028201600090556003820160009055600482016000905550509055610919565b808061091190611285565b915050610595565b5061095a565b6040517f51a7f65c0000000000000000000000000000000000000000000000000000000081526004016109519061113a565b60405180910390fd5b5b5b50565b60006040518060a0016040528060005481526020013373ffffffffffffffffffffffffffffffffffffffff16815260200183815260200142815260200160008152509050600160003373ffffffffffffffffffffffffffffffffffffffff1673ffffffffffffffffffffffffffffffffffffffff1681526020019081526020016000208190806001815401808255809150506001900390600052602060002090600502016000909190919091506000820151816000015560208201518160010160006101000a81548173ffffffffffffffffffffffffffffffffffffffff021916908373ffffffffffffffffffffffffffffffffffffffff16021790555060408201518160020155606082015181600301556080820151816004015550506001600054610a8c91906111bf565b600081905550600260003373ffffffffffffffffffffffffffffffffffffffff1673ffffffffffffffffffffffffffffffffffffffff168152602001908152602001600020548211610ae357610ae23083610ae7565b5b5050565b80600260003373ffffffffffffffffffffffffffffffffffffffff1673ffffffffffffffffffffffffffffffffffffffff168152602001908152602001600020541015610b3357600080fd5b600260008373ffffffffffffffffffffffffffffffffffffffff1673ffffffffffffffffffffffffffffffffffffffff1681526020019081526020016000205481600260008573ffffffffffffffffffffffffffffffffffffffff1673ffffffffffffffffffffffffffffffffffffffff16815260200190815260200160002054610bbe91906111bf565b1015610bc957600080fd5b80600260003373ffffffffffffffffffffffffffffffffffffffff1673ffffffffffffffffffffffffffffffffffffffff1681526020019081526020016000206000828254610c189190611215565b9250508190555080600260008473ffffffffffffffffffffffffffffffffffffffff1673ffffffffffffffffffffffffffffffffffffffff1681526020019081526020016000206000828254610c6e91906111bf565b925050819055505050565b6060600160003373ffffffffffffffffffffffffffffffffffffffff1673ffffffffffffffffffffffffffffffffffffffff168152602001908152602001600020805480602002602001604051908101604052809291908181526020016000905b82821015610d8a57838290600052602060002090600502016040518060a0016040529081600082015481526020016001820160009054906101000a900473ffffffffffffffffffffffffffffffffffffffff1673ffffffffffffffffffffffffffffffffffffffff1673ffffffffffffffffffffffffffffffffffffffff168152602001600282015481526020016003820154815260200160048201548152505081526020019060010190610cda565b50505050905090565b60026020528060005260406000206000915090505481565b60005b600160003373ffffffffffffffffffffffffffffffffffffffff1673ffffffffffffffffffffffffffffffffffffffff16815260200190815260200160002080549050811015610ee157600160003373ffffffffffffffffffffffffffffffffffffffff1673ffffffffffffffffffffffffffffffffffffffff1681526020019081526020016000208181548110610e4957610e4861132c565b5b906000526020600020906005020160000154831415610ece5781600160003373ffffffffffffffffffffffffffffffffffffffff1673ffffffffffffffffffffffffffffffffffffffff1681526020019081526020016000208281548110610eb457610eb361132c565b5b906000526020600020906005020160040181905550610ee1565b8080610ed990611285565b915050610dae565b505050565b600081359050610ef581611389565b92915050565b600081359050610f0a816113a0565b92915050565b600060208284031215610f2657610f2561135b565b5b6000610f3484828501610ee6565b91505092915050565b60008060408385031215610f5457610f5361135b565b5b6000610f6285828601610ee6565b9250506020610f7385828601610efb565b9150509250929050565b600060208284031215610f9357610f9261135b565b5b6000610fa184828501610efb565b91505092915050565b60008060408385031215610fc157610fc061135b565b5b6000610fcf85828601610efb565b9250506020610fe085828601610efb565b9150509250929050565b6000610ff68383611092565b60a08301905092915050565b61100b81611249565b82525050565b600061101c82611185565b611026818561119d565b935061103183611175565b8060005b838110156110625781516110498882610fea565b975061105483611190565b925050600181019050611035565b5085935050505092915050565b600061107c601c836111ae565b915061108782611360565b602082019050919050565b60a0820160008201516110a860008501826110fa565b5060208201516110bb6020850182611002565b5060408201516110ce60408501826110fa565b5060608201516110e160608501826110fa565b5060808201516110f460808501826110fa565b50505050565b6111038161127b565b82525050565b6111128161127b565b82525050565b600060208201905081810360008301526111328184611011565b905092915050565b600060208201905081810360008301526111538161106f565b9050919050565b600060208201905061116f6000830184611109565b92915050565b6000819050602082019050919050565b600081519050919050565b6000602082019050919050565b600082825260208201905092915050565b600082825260208201905092915050565b60006111ca8261127b565b91506111d58361127b565b9250827fffffffffffffffffffffffffffffffffffffffffffffffffffffffffffffffff0382111561120a576112096112ce565b5b828201905092915050565b60006112208261127b565b915061122b8361127b565b92508282101561123e5761123d6112ce565b5b828203905092915050565b60006112548261125b565b9050919050565b600073ffffffffffffffffffffffffffffffffffffffff82169050919050565b6000819050919050565b60006112908261127b565b91507fffffffffffffffffffffffffffffffffffffffffffffffffffffffffffffffff8214156112c3576112c26112ce565b5b600182019050919050565b7f4e487b7100000000000000000000000000000000000000000000000000000000600052601160045260246000fd5b7f4e487b7100000000000000000000000000000000000000000000000000000000600052603160045260246000fd5b7f4e487b7100000000000000000000000000000000000000000000000000000000600052603260045260246000fd5b600080fd5b7f56616c7565206d7573742062652067726561746572207468616e203000000000600082015250565b61139281611249565b811461139d57600080fd5b50565b6113a98161127b565b81146113b457600080fd5b5056fea2646970667358221220bb77d708cfe650d1573fd6ac8b79ab5bcb9d300e8210fd419e83c8c2db29f23164736f6c63430008070033",
					"opcodes": "PUSH1 0x80 PUSH1 0x40 MSTORE CALLVALUE DUP1 ISZERO PUSH2 0x10 JUMPI PUSH1 0x0 DUP1 REVERT JUMPDEST POP CALLER PUSH20 0xFFFFFFFFFFFFFFFFFFFFFFFFFFFFFFFFFFFFFFFF AND BALANCE PUSH1 0x2 PUSH1 0x0 CALLER PUSH20 0xFFFFFFFFFFFFFFFFFFFFFFFFFFFFFFFFFFFFFFFF AND PUSH20 0xFFFFFFFFFFFFFFFFFFFFFFFFFFFFFFFFFFFFFFFF AND DUP2 MSTORE PUSH1 0x20 ADD SWAP1 DUP2 MSTORE PUSH1 0x20 ADD PUSH1 0x0 KECCAK256 DUP2 SWAP1 SSTORE POP PUSH2 0x13ED DUP1 PUSH2 0x7B PUSH1 0x0 CODECOPY PUSH1 0x0 RETURN INVALID PUSH1 0x80 PUSH1 0x40 MSTORE PUSH1 0x4 CALLDATASIZE LT PUSH2 0x55 JUMPI PUSH1 0x0 CALLDATALOAD PUSH1 0xE0 SHR DUP1 PUSH4 0x94CD5EE EQ PUSH2 0x5A JUMPI DUP1 PUSH4 0x1D69BD48 EQ PUSH2 0x76 JUMPI DUP1 PUSH4 0xA9059CBB EQ PUSH2 0x9F JUMPI DUP1 PUSH4 0xCC4EF2CC EQ PUSH2 0xBB JUMPI DUP1 PUSH4 0xCCA003F4 EQ PUSH2 0xE6 JUMPI DUP1 PUSH4 0xECA8B567 EQ PUSH2 0x123 JUMPI JUMPDEST PUSH1 0x0 DUP1 REVERT JUMPDEST PUSH2 0x74 PUSH1 0x4 DUP1 CALLDATASIZE SUB DUP2 ADD SWAP1 PUSH2 0x6F SWAP2 SWAP1 PUSH2 0xF7D JUMP JUMPDEST PUSH2 0x14C JUMP JUMPDEST STOP JUMPDEST CALLVALUE DUP1 ISZERO PUSH2 0x82 JUMPI PUSH1 0x0 DUP1 REVERT JUMPDEST POP PUSH2 0x9D PUSH1 0x4 DUP1 CALLDATASIZE SUB DUP2 ADD SWAP1 PUSH2 0x98 SWAP2 SWAP1 PUSH2 0xF7D JUMP JUMPDEST PUSH2 0x95F JUMP JUMPDEST STOP JUMPDEST PUSH2 0xB9 PUSH1 0x4 DUP1 CALLDATASIZE SUB DUP2 ADD SWAP1 PUSH2 0xB4 SWAP2 SWAP1 PUSH2 0xF3D JUMP JUMPDEST PUSH2 0xAE7 JUMP JUMPDEST STOP JUMPDEST CALLVALUE DUP1 ISZERO PUSH2 0xC7 JUMPI PUSH1 0x0 DUP1 REVERT JUMPDEST POP PUSH2 0xD0 PUSH2 0xC79 JUMP JUMPDEST PUSH1 0x40 MLOAD PUSH2 0xDD SWAP2 SWAP1 PUSH2 0x1118 JUMP JUMPDEST PUSH1 0x40 MLOAD DUP1 SWAP2 SUB SWAP1 RETURN JUMPDEST CALLVALUE DUP1 ISZERO PUSH2 0xF2 JUMPI PUSH1 0x0 DUP1 REVERT JUMPDEST POP PUSH2 0x10D PUSH1 0x4 DUP1 CALLDATASIZE SUB DUP2 ADD SWAP1 PUSH2 0x108 SWAP2 SWAP1 PUSH2 0xF10 JUMP JUMPDEST PUSH2 0xD93 JUMP JUMPDEST PUSH1 0x40 MLOAD PUSH2 0x11A SWAP2 SWAP1 PUSH2 0x115A JUMP JUMPDEST PUSH1 0x40 MLOAD DUP1 SWAP2 SUB SWAP1 RETURN JUMPDEST CALLVALUE DUP1 ISZERO PUSH2 0x12F JUMPI PUSH1 0x0 DUP1 REVERT JUMPDEST POP PUSH2 0x14A PUSH1 0x4 DUP1 CALLDATASIZE SUB DUP2 ADD SWAP1 PUSH2 0x145 SWAP2 SWAP1 PUSH2 0xFAA JUMP JUMPDEST PUSH2 0xDAB JUMP JUMPDEST STOP JUMPDEST PUSH1 0x1 PUSH1 0x0 CALLER PUSH20 0xFFFFFFFFFFFFFFFFFFFFFFFFFFFFFFFFFFFFFFFF AND PUSH20 0xFFFFFFFFFFFFFFFFFFFFFFFFFFFFFFFFFFFFFFFF AND DUP2 MSTORE PUSH1 0x20 ADD SWAP1 DUP2 MSTORE PUSH1 0x20 ADD PUSH1 0x0 KECCAK256 PUSH1 0x1 DUP1 PUSH1 0x0 CALLER PUSH20 0xFFFFFFFFFFFFFFFFFFFFFFFFFFFFFFFFFFFFFFFF AND PUSH20 0xFFFFFFFFFFFFFFFFFFFFFFFFFFFFFFFFFFFFFFFF AND DUP2 MSTORE PUSH1 0x20 ADD SWAP1 DUP2 MSTORE PUSH1 0x20 ADD PUSH1 0x0 KECCAK256 DUP1 SLOAD SWAP1 POP PUSH2 0x1D9 SWAP2 SWAP1 PUSH2 0x1215 JUMP JUMPDEST DUP2 SLOAD DUP2 LT PUSH2 0x1EA JUMPI PUSH2 0x1E9 PUSH2 0x132C JUMP JUMPDEST JUMPDEST SWAP1 PUSH1 0x0 MSTORE PUSH1 0x20 PUSH1 0x0 KECCAK256 SWAP1 PUSH1 0x5 MUL ADD PUSH1 0x0 ADD SLOAD DUP2 EQ ISZERO PUSH2 0x370 JUMPI PUSH2 0x2BC CALLER PUSH1 0x1 PUSH1 0x0 CALLER PUSH20 0xFFFFFFFFFFFFFFFFFFFFFFFFFFFFFFFFFFFFFFFF AND PUSH20 0xFFFFFFFFFFFFFFFFFFFFFFFFFFFFFFFFFFFFFFFF AND DUP2 MSTORE PUSH1 0x20 ADD SWAP1 DUP2 MSTORE PUSH1 0x20 ADD PUSH1 0x0 KECCAK256 PUSH1 0x1 DUP1 PUSH1 0x0 CALLER PUSH20 0xFFFFFFFFFFFFFFFFFFFFFFFFFFFFFFFFFFFFFFFF AND PUSH20 0xFFFFFFFFFFFFFFFFFFFFFFFFFFFFFFFFFFFFFFFF AND DUP2 MSTORE PUSH1 0x20 ADD SWAP1 DUP2 MSTORE PUSH1 0x20 ADD PUSH1 0x0 KECCAK256 DUP1 SLOAD SWAP1 POP PUSH2 0x294 SWAP2 SWAP1 PUSH2 0x1215 JUMP JUMPDEST DUP2 SLOAD DUP2 LT PUSH2 0x2A5 JUMPI PUSH2 0x2A4 PUSH2 0x132C JUMP JUMPDEST JUMPDEST SWAP1 PUSH1 0x0 MSTORE PUSH1 0x20 PUSH1 0x0 KECCAK256 SWAP1 PUSH1 0x5 MUL ADD PUSH1 0x2 ADD SLOAD PUSH2 0xAE7 JUMP JUMPDEST PUSH1 0x1 PUSH1 0x0 CALLER PUSH20 0xFFFFFFFFFFFFFFFFFFFFFFFFFFFFFFFFFFFFFFFF AND PUSH20 0xFFFFFFFFFFFFFFFFFFFFFFFFFFFFFFFFFFFFFFFF AND DUP2 MSTORE PUSH1 0x20 ADD SWAP1 DUP2 MSTORE PUSH1 0x20 ADD PUSH1 0x0 KECCAK256 DUP1 SLOAD DUP1 PUSH2 0x30B JUMPI PUSH2 0x30A PUSH2 0x12FD JUMP JUMPDEST JUMPDEST PUSH1 0x1 SWAP1 SUB DUP2 DUP2 SWAP1 PUSH1 0x0 MSTORE PUSH1 0x20 PUSH1 0x0 KECCAK256 SWAP1 PUSH1 0x5 MUL ADD PUSH1 0x0 DUP1 DUP3 ADD PUSH1 0x0 SWAP1 SSTORE PUSH1 0x1 DUP3 ADD PUSH1 0x0 PUSH2 0x100 EXP DUP2 SLOAD SWAP1 PUSH20 0xFFFFFFFFFFFFFFFFFFFFFFFFFFFFFFFFFFFFFFFF MUL NOT AND SWAP1 SSTORE PUSH1 0x2 DUP3 ADD PUSH1 0x0 SWAP1 SSTORE PUSH1 0x3 DUP3 ADD PUSH1 0x0 SWAP1 SSTORE PUSH1 0x4 DUP3 ADD PUSH1 0x0 SWAP1 SSTORE POP POP SWAP1 SSTORE PUSH2 0x95C JUMP JUMPDEST PUSH1 0x1 DUP1 PUSH1 0x0 CALLER PUSH20 0xFFFFFFFFFFFFFFFFFFFFFFFFFFFFFFFFFFFFFFFF AND PUSH20 0xFFFFFFFFFFFFFFFFFFFFFFFFFFFFFFFFFFFFFFFF AND DUP2 MSTORE PUSH1 0x20 ADD SWAP1 DUP2 MSTORE PUSH1 0x20 ADD PUSH1 0x0 KECCAK256 DUP1 SLOAD SWAP1 POP EQ DUP1 ISZERO PUSH2 0x423 JUMPI POP PUSH1 0x1 PUSH1 0x0 CALLER PUSH20 0xFFFFFFFFFFFFFFFFFFFFFFFFFFFFFFFFFFFFFFFF AND PUSH20 0xFFFFFFFFFFFFFFFFFFFFFFFFFFFFFFFFFFFFFFFF AND DUP2 MSTORE PUSH1 0x20 ADD SWAP1 DUP2 MSTORE PUSH1 0x20 ADD PUSH1 0x0 KECCAK256 PUSH1 0x0 DUP2 SLOAD DUP2 LT PUSH2 0x40E JUMPI PUSH2 0x40D PUSH2 0x132C JUMP JUMPDEST JUMPDEST SWAP1 PUSH1 0x0 MSTORE PUSH1 0x20 PUSH1 0x0 KECCAK256 SWAP1 PUSH1 0x5 MUL ADD PUSH1 0x0 ADD SLOAD DUP2 EQ JUMPDEST ISZERO PUSH2 0x549 JUMPI PUSH2 0x495 CALLER PUSH1 0x1 PUSH1 0x0 CALLER PUSH20 0xFFFFFFFFFFFFFFFFFFFFFFFFFFFFFFFFFFFFFFFF AND PUSH20 0xFFFFFFFFFFFFFFFFFFFFFFFFFFFFFFFFFFFFFFFF AND DUP2 MSTORE PUSH1 0x20 ADD SWAP1 DUP2 MSTORE PUSH1 0x20 ADD PUSH1 0x0 KECCAK256 PUSH1 0x0 DUP2 SLOAD DUP2 LT PUSH2 0x47E JUMPI PUSH2 0x47D PUSH2 0x132C JUMP JUMPDEST JUMPDEST SWAP1 PUSH1 0x0 MSTORE PUSH1 0x20 PUSH1 0x0 KECCAK256 SWAP1 PUSH1 0x5 MUL ADD PUSH1 0x2 ADD SLOAD PUSH2 0xAE7 JUMP JUMPDEST PUSH1 0x1 PUSH1 0x0 CALLER PUSH20 0xFFFFFFFFFFFFFFFFFFFFFFFFFFFFFFFFFFFFFFFF AND PUSH20 0xFFFFFFFFFFFFFFFFFFFFFFFFFFFFFFFFFFFFFFFF AND DUP2 MSTORE PUSH1 0x20 ADD SWAP1 DUP2 MSTORE PUSH1 0x20 ADD PUSH1 0x0 KECCAK256 DUP1 SLOAD DUP1 PUSH2 0x4E4 JUMPI PUSH2 0x4E3 PUSH2 0x12FD JUMP JUMPDEST JUMPDEST PUSH1 0x1 SWAP1 SUB DUP2 DUP2 SWAP1 PUSH1 0x0 MSTORE PUSH1 0x20 PUSH1 0x0 KECCAK256 SWAP1 PUSH1 0x5 MUL ADD PUSH1 0x0 DUP1 DUP3 ADD PUSH1 0x0 SWAP1 SSTORE PUSH1 0x1 DUP3 ADD PUSH1 0x0 PUSH2 0x100 EXP DUP2 SLOAD SWAP1 PUSH20 0xFFFFFFFFFFFFFFFFFFFFFFFFFFFFFFFFFFFFFFFF MUL NOT AND SWAP1 SSTORE PUSH1 0x2 DUP3 ADD PUSH1 0x0 SWAP1 SSTORE PUSH1 0x3 DUP3 ADD PUSH1 0x0 SWAP1 SSTORE PUSH1 0x4 DUP3 ADD PUSH1 0x0 SWAP1 SSTORE POP POP SWAP1 SSTORE PUSH2 0x95B JUMP JUMPDEST PUSH1 0x1 DUP1 PUSH1 0x0 CALLER PUSH20 0xFFFFFFFFFFFFFFFFFFFFFFFFFFFFFFFFFFFFFFFF AND PUSH20 0xFFFFFFFFFFFFFFFFFFFFFFFFFFFFFFFFFFFFFFFF AND DUP2 MSTORE PUSH1 0x20 ADD SWAP1 DUP2 MSTORE PUSH1 0x20 ADD PUSH1 0x0 KECCAK256 DUP1 SLOAD SWAP1 POP EQ PUSH2 0x91F JUMPI PUSH1 0x0 JUMPDEST PUSH1 0x1 PUSH1 0x0 CALLER PUSH20 0xFFFFFFFFFFFFFFFFFFFFFFFFFFFFFFFFFFFFFFFF AND PUSH20 0xFFFFFFFFFFFFFFFFFFFFFFFFFFFFFFFFFFFFFFFF AND DUP2 MSTORE PUSH1 0x20 ADD SWAP1 DUP2 MSTORE PUSH1 0x20 ADD PUSH1 0x0 KECCAK256 DUP1 SLOAD SWAP1 POP DUP2 LT ISZERO PUSH2 0x919 JUMPI PUSH1 0x1 PUSH1 0x0 CALLER PUSH20 0xFFFFFFFFFFFFFFFFFFFFFFFFFFFFFFFFFFFFFFFF AND PUSH20 0xFFFFFFFFFFFFFFFFFFFFFFFFFFFFFFFFFFFFFFFF AND DUP2 MSTORE PUSH1 0x20 ADD SWAP1 DUP2 MSTORE PUSH1 0x20 ADD PUSH1 0x0 KECCAK256 DUP2 DUP2 SLOAD DUP2 LT PUSH2 0x630 JUMPI PUSH2 0x62F PUSH2 0x132C JUMP JUMPDEST JUMPDEST SWAP1 PUSH1 0x0 MSTORE PUSH1 0x20 PUSH1 0x0 KECCAK256 SWAP1 PUSH1 0x5 MUL ADD PUSH1 0x0 ADD SLOAD DUP3 EQ ISZERO PUSH2 0x906 JUMPI PUSH2 0x6B5 CALLER PUSH1 0x1 PUSH1 0x0 CALLER PUSH20 0xFFFFFFFFFFFFFFFFFFFFFFFFFFFFFFFFFFFFFFFF AND PUSH20 0xFFFFFFFFFFFFFFFFFFFFFFFFFFFFFFFFFFFFFFFF AND DUP2 MSTORE PUSH1 0x20 ADD SWAP1 DUP2 MSTORE PUSH1 0x20 ADD PUSH1 0x0 KECCAK256 DUP4 DUP2 SLOAD DUP2 LT PUSH2 0x69E JUMPI PUSH2 0x69D PUSH2 0x132C JUMP JUMPDEST JUMPDEST SWAP1 PUSH1 0x0 MSTORE PUSH1 0x20 PUSH1 0x0 KECCAK256 SWAP1 PUSH1 0x5 MUL ADD PUSH1 0x2 ADD SLOAD PUSH2 0xAE7 JUMP JUMPDEST PUSH1 0x1 PUSH1 0x0 CALLER PUSH20 0xFFFFFFFFFFFFFFFFFFFFFFFFFFFFFFFFFFFFFFFF AND PUSH20 0xFFFFFFFFFFFFFFFFFFFFFFFFFFFFFFFFFFFFFFFF AND DUP2 MSTORE PUSH1 0x20 ADD SWAP1 DUP2 MSTORE PUSH1 0x20 ADD PUSH1 0x0 KECCAK256 PUSH1 0x1 DUP1 PUSH1 0x0 CALLER PUSH20 0xFFFFFFFFFFFFFFFFFFFFFFFFFFFFFFFFFFFFFFFF AND PUSH20 0xFFFFFFFFFFFFFFFFFFFFFFFFFFFFFFFFFFFFFFFF AND DUP2 MSTORE PUSH1 0x20 ADD SWAP1 DUP2 MSTORE PUSH1 0x20 ADD PUSH1 0x0 KECCAK256 DUP1 SLOAD SWAP1 POP PUSH2 0x742 SWAP2 SWAP1 PUSH2 0x1215 JUMP JUMPDEST DUP2 SLOAD DUP2 LT PUSH2 0x753 JUMPI PUSH2 0x752 PUSH2 0x132C JUMP JUMPDEST JUMPDEST SWAP1 PUSH1 0x0 MSTORE PUSH1 0x20 PUSH1 0x0 KECCAK256 SWAP1 PUSH1 0x5 MUL ADD PUSH1 0x1 PUSH1 0x0 CALLER PUSH20 0xFFFFFFFFFFFFFFFFFFFFFFFFFFFFFFFFFFFFFFFF AND PUSH20 0xFFFFFFFFFFFFFFFFFFFFFFFFFFFFFFFFFFFFFFFF AND DUP2 MSTORE PUSH1 0x20 ADD SWAP1 DUP2 MSTORE PUSH1 0x20 ADD PUSH1 0x0 KECCAK256 DUP3 DUP2 SLOAD DUP2 LT PUSH2 0x7B2 JUMPI PUSH2 0x7B1 PUSH2 0x132C JUMP JUMPDEST JUMPDEST SWAP1 PUSH1 0x0 MSTORE PUSH1 0x20 PUSH1 0x0 KECCAK256 SWAP1 PUSH1 0x5 MUL ADD PUSH1 0x0 DUP3 ADD SLOAD DUP2 PUSH1 0x0 ADD SSTORE PUSH1 0x1 DUP3 ADD PUSH1 0x0 SWAP1 SLOAD SWAP1 PUSH2 0x100 EXP SWAP1 DIV PUSH20 0xFFFFFFFFFFFFFFFFFFFFFFFFFFFFFFFFFFFFFFFF AND DUP2 PUSH1 0x1 ADD PUSH1 0x0 PUSH2 0x100 EXP DUP2 SLOAD DUP2 PUSH20 0xFFFFFFFFFFFFFFFFFFFFFFFFFFFFFFFFFFFFFFFF MUL NOT AND SWAP1 DUP4 PUSH20 0xFFFFFFFFFFFFFFFFFFFFFFFFFFFFFFFFFFFFFFFF AND MUL OR SWAP1 SSTORE POP PUSH1 0x2 DUP3 ADD SLOAD DUP2 PUSH1 0x2 ADD SSTORE PUSH1 0x3 DUP3 ADD SLOAD DUP2 PUSH1 0x3 ADD SSTORE PUSH1 0x4 DUP3 ADD SLOAD DUP2 PUSH1 0x4 ADD SSTORE SWAP1 POP POP PUSH1 0x1 PUSH1 0x0 CALLER PUSH20 0xFFFFFFFFFFFFFFFFFFFFFFFFFFFFFFFFFFFFFFFF AND PUSH20 0xFFFFFFFFFFFFFFFFFFFFFFFFFFFFFFFFFFFFFFFF AND DUP2 MSTORE PUSH1 0x20 ADD SWAP1 DUP2 MSTORE PUSH1 0x20 ADD PUSH1 0x0 KECCAK256 DUP1 SLOAD DUP1 PUSH2 0x8A1 JUMPI PUSH2 0x8A0 PUSH2 0x12FD JUMP JUMPDEST JUMPDEST PUSH1 0x1 SWAP1 SUB DUP2 DUP2 SWAP1 PUSH1 0x0 MSTORE PUSH1 0x20 PUSH1 0x0 KECCAK256 SWAP1 PUSH1 0x5 MUL ADD PUSH1 0x0 DUP1 DUP3 ADD PUSH1 0x0 SWAP1 SSTORE PUSH1 0x1 DUP3 ADD PUSH1 0x0 PUSH2 0x100 EXP DUP2 SLOAD SWAP1 PUSH20 0xFFFFFFFFFFFFFFFFFFFFFFFFFFFFFFFFFFFFFFFF MUL NOT AND SWAP1 SSTORE PUSH1 0x2 DUP3 ADD PUSH1 0x0 SWAP1 SSTORE PUSH1 0x3 DUP3 ADD PUSH1 0x0 SWAP1 SSTORE PUSH1 0x4 DUP3 ADD PUSH1 0x0 SWAP1 SSTORE POP POP SWAP1 SSTORE PUSH2 0x919 JUMP JUMPDEST DUP1 DUP1 PUSH2 0x911 SWAP1 PUSH2 0x1285 JUMP JUMPDEST SWAP2 POP POP PUSH2 0x595 JUMP JUMPDEST POP PUSH2 0x95A JUMP JUMPDEST PUSH1 0x40 MLOAD PUSH32 0x51A7F65C00000000000000000000000000000000000000000000000000000000 DUP2 MSTORE PUSH1 0x4 ADD PUSH2 0x951 SWAP1 PUSH2 0x113A JUMP JUMPDEST PUSH1 0x40 MLOAD DUP1 SWAP2 SUB SWAP1 REVERT JUMPDEST JUMPDEST JUMPDEST POP JUMP JUMPDEST PUSH1 0x0 PUSH1 0x40 MLOAD DUP1 PUSH1 0xA0 ADD PUSH1 0x40 MSTORE DUP1 PUSH1 0x0 SLOAD DUP2 MSTORE PUSH1 0x20 ADD CALLER PUSH20 0xFFFFFFFFFFFFFFFFFFFFFFFFFFFFFFFFFFFFFFFF AND DUP2 MSTORE PUSH1 0x20 ADD DUP4 DUP2 MSTORE PUSH1 0x20 ADD TIMESTAMP DUP2 MSTORE PUSH1 0x20 ADD PUSH1 0x0 DUP2 MSTORE POP SWAP1 POP PUSH1 0x1 PUSH1 0x0 CALLER PUSH20 0xFFFFFFFFFFFFFFFFFFFFFFFFFFFFFFFFFFFFFFFF AND PUSH20 0xFFFFFFFFFFFFFFFFFFFFFFFFFFFFFFFFFFFFFFFF AND DUP2 MSTORE PUSH1 0x20 ADD SWAP1 DUP2 MSTORE PUSH1 0x20 ADD PUSH1 0x0 KECCAK256 DUP2 SWAP1 DUP1 PUSH1 0x1 DUP2 SLOAD ADD DUP1 DUP3 SSTORE DUP1 SWAP2 POP POP PUSH1 0x1 SWAP1 SUB SWAP1 PUSH1 0x0 MSTORE PUSH1 0x20 PUSH1 0x0 KECCAK256 SWAP1 PUSH1 0x5 MUL ADD PUSH1 0x0 SWAP1 SWAP2 SWAP1 SWAP2 SWAP1 SWAP2 POP PUSH1 0x0 DUP3 ADD MLOAD DUP2 PUSH1 0x0 ADD SSTORE PUSH1 0x20 DUP3 ADD MLOAD DUP2 PUSH1 0x1 ADD PUSH1 0x0 PUSH2 0x100 EXP DUP2 SLOAD DUP2 PUSH20 0xFFFFFFFFFFFFFFFFFFFFFFFFFFFFFFFFFFFFFFFF MUL NOT AND SWAP1 DUP4 PUSH20 0xFFFFFFFFFFFFFFFFFFFFFFFFFFFFFFFFFFFFFFFF AND MUL OR SWAP1 SSTORE POP PUSH1 0x40 DUP3 ADD MLOAD DUP2 PUSH1 0x2 ADD SSTORE PUSH1 0x60 DUP3 ADD MLOAD DUP2 PUSH1 0x3 ADD SSTORE PUSH1 0x80 DUP3 ADD MLOAD DUP2 PUSH1 0x4 ADD SSTORE POP POP PUSH1 0x1 PUSH1 0x0 SLOAD PUSH2 0xA8C SWAP2 SWAP1 PUSH2 0x11BF JUMP JUMPDEST PUSH1 0x0 DUP2 SWAP1 SSTORE POP PUSH1 0x2 PUSH1 0x0 CALLER PUSH20 0xFFFFFFFFFFFFFFFFFFFFFFFFFFFFFFFFFFFFFFFF AND PUSH20 0xFFFFFFFFFFFFFFFFFFFFFFFFFFFFFFFFFFFFFFFF AND DUP2 MSTORE PUSH1 0x20 ADD SWAP1 DUP2 MSTORE PUSH1 0x20 ADD PUSH1 0x0 KECCAK256 SLOAD DUP3 GT PUSH2 0xAE3 JUMPI PUSH2 0xAE2 ADDRESS DUP4 PUSH2 0xAE7 JUMP JUMPDEST JUMPDEST POP POP JUMP JUMPDEST DUP1 PUSH1 0x2 PUSH1 0x0 CALLER PUSH20 0xFFFFFFFFFFFFFFFFFFFFFFFFFFFFFFFFFFFFFFFF AND PUSH20 0xFFFFFFFFFFFFFFFFFFFFFFFFFFFFFFFFFFFFFFFF AND DUP2 MSTORE PUSH1 0x20 ADD SWAP1 DUP2 MSTORE PUSH1 0x20 ADD PUSH1 0x0 KECCAK256 SLOAD LT ISZERO PUSH2 0xB33 JUMPI PUSH1 0x0 DUP1 REVERT JUMPDEST PUSH1 0x2 PUSH1 0x0 DUP4 PUSH20 0xFFFFFFFFFFFFFFFFFFFFFFFFFFFFFFFFFFFFFFFF AND PUSH20 0xFFFFFFFFFFFFFFFFFFFFFFFFFFFFFFFFFFFFFFFF AND DUP2 MSTORE PUSH1 0x20 ADD SWAP1 DUP2 MSTORE PUSH1 0x20 ADD PUSH1 0x0 KECCAK256 SLOAD DUP2 PUSH1 0x2 PUSH1 0x0 DUP6 PUSH20 0xFFFFFFFFFFFFFFFFFFFFFFFFFFFFFFFFFFFFFFFF AND PUSH20 0xFFFFFFFFFFFFFFFFFFFFFFFFFFFFFFFFFFFFFFFF AND DUP2 MSTORE PUSH1 0x20 ADD SWAP1 DUP2 MSTORE PUSH1 0x20 ADD PUSH1 0x0 KECCAK256 SLOAD PUSH2 0xBBE SWAP2 SWAP1 PUSH2 0x11BF JUMP JUMPDEST LT ISZERO PUSH2 0xBC9 JUMPI PUSH1 0x0 DUP1 REVERT JUMPDEST DUP1 PUSH1 0x2 PUSH1 0x0 CALLER PUSH20 0xFFFFFFFFFFFFFFFFFFFFFFFFFFFFFFFFFFFFFFFF AND PUSH20 0xFFFFFFFFFFFFFFFFFFFFFFFFFFFFFFFFFFFFFFFF AND DUP2 MSTORE PUSH1 0x20 ADD SWAP1 DUP2 MSTORE PUSH1 0x20 ADD PUSH1 0x0 KECCAK256 PUSH1 0x0 DUP3 DUP3 SLOAD PUSH2 0xC18 SWAP2 SWAP1 PUSH2 0x1215 JUMP JUMPDEST SWAP3 POP POP DUP2 SWAP1 SSTORE POP DUP1 PUSH1 0x2 PUSH1 0x0 DUP5 PUSH20 0xFFFFFFFFFFFFFFFFFFFFFFFFFFFFFFFFFFFFFFFF AND PUSH20 0xFFFFFFFFFFFFFFFFFFFFFFFFFFFFFFFFFFFFFFFF AND DUP2 MSTORE PUSH1 0x20 ADD SWAP1 DUP2 MSTORE PUSH1 0x20 ADD PUSH1 0x0 KECCAK256 PUSH1 0x0 DUP3 DUP3 SLOAD PUSH2 0xC6E SWAP2 SWAP1 PUSH2 0x11BF JUMP JUMPDEST SWAP3 POP POP DUP2 SWAP1 SSTORE POP POP POP JUMP JUMPDEST PUSH1 0x60 PUSH1 0x1 PUSH1 0x0 CALLER PUSH20 0xFFFFFFFFFFFFFFFFFFFFFFFFFFFFFFFFFFFFFFFF AND PUSH20 0xFFFFFFFFFFFFFFFFFFFFFFFFFFFFFFFFFFFFFFFF AND DUP2 MSTORE PUSH1 0x20 ADD SWAP1 DUP2 MSTORE PUSH1 0x20 ADD PUSH1 0x0 KECCAK256 DUP1 SLOAD DUP1 PUSH1 0x20 MUL PUSH1 0x20 ADD PUSH1 0x40 MLOAD SWAP1 DUP2 ADD PUSH1 0x40 MSTORE DUP1 SWAP3 SWAP2 SWAP1 DUP2 DUP2 MSTORE PUSH1 0x20 ADD PUSH1 0x0 SWAP1 JUMPDEST DUP3 DUP3 LT ISZERO PUSH2 0xD8A JUMPI DUP4 DUP3 SWAP1 PUSH1 0x0 MSTORE PUSH1 0x20 PUSH1 0x0 KECCAK256 SWAP1 PUSH1 0x5 MUL ADD PUSH1 0x40 MLOAD DUP1 PUSH1 0xA0 ADD PUSH1 0x40 MSTORE SWAP1 DUP2 PUSH1 0x0 DUP3 ADD SLOAD DUP2 MSTORE PUSH1 0x20 ADD PUSH1 0x1 DUP3 ADD PUSH1 0x0 SWAP1 SLOAD SWAP1 PUSH2 0x100 EXP SWAP1 DIV PUSH20 0xFFFFFFFFFFFFFFFFFFFFFFFFFFFFFFFFFFFFFFFF AND PUSH20 0xFFFFFFFFFFFFFFFFFFFFFFFFFFFFFFFFFFFFFFFF AND PUSH20 0xFFFFFFFFFFFFFFFFFFFFFFFFFFFFFFFFFFFFFFFF AND DUP2 MSTORE PUSH1 0x20 ADD PUSH1 0x2 DUP3 ADD SLOAD DUP2 MSTORE PUSH1 0x20 ADD PUSH1 0x3 DUP3 ADD SLOAD DUP2 MSTORE PUSH1 0x20 ADD PUSH1 0x4 DUP3 ADD SLOAD DUP2 MSTORE POP POP DUP2 MSTORE PUSH1 0x20 ADD SWAP1 PUSH1 0x1 ADD SWAP1 PUSH2 0xCDA JUMP JUMPDEST POP POP POP POP SWAP1 POP SWAP1 JUMP JUMPDEST PUSH1 0x2 PUSH1 0x20 MSTORE DUP1 PUSH1 0x0 MSTORE PUSH1 0x40 PUSH1 0x0 KECCAK256 PUSH1 0x0 SWAP2 POP SWAP1 POP SLOAD DUP2 JUMP JUMPDEST PUSH1 0x0 JUMPDEST PUSH1 0x1 PUSH1 0x0 CALLER PUSH20 0xFFFFFFFFFFFFFFFFFFFFFFFFFFFFFFFFFFFFFFFF AND PUSH20 0xFFFFFFFFFFFFFFFFFFFFFFFFFFFFFFFFFFFFFFFF AND DUP2 MSTORE PUSH1 0x20 ADD SWAP1 DUP2 MSTORE PUSH1 0x20 ADD PUSH1 0x0 KECCAK256 DUP1 SLOAD SWAP1 POP DUP2 LT ISZERO PUSH2 0xEE1 JUMPI PUSH1 0x1 PUSH1 0x0 CALLER PUSH20 0xFFFFFFFFFFFFFFFFFFFFFFFFFFFFFFFFFFFFFFFF AND PUSH20 0xFFFFFFFFFFFFFFFFFFFFFFFFFFFFFFFFFFFFFFFF AND DUP2 MSTORE PUSH1 0x20 ADD SWAP1 DUP2 MSTORE PUSH1 0x20 ADD PUSH1 0x0 KECCAK256 DUP2 DUP2 SLOAD DUP2 LT PUSH2 0xE49 JUMPI PUSH2 0xE48 PUSH2 0x132C JUMP JUMPDEST JUMPDEST SWAP1 PUSH1 0x0 MSTORE PUSH1 0x20 PUSH1 0x0 KECCAK256 SWAP1 PUSH1 0x5 MUL ADD PUSH1 0x0 ADD SLOAD DUP4 EQ ISZERO PUSH2 0xECE JUMPI DUP2 PUSH1 0x1 PUSH1 0x0 CALLER PUSH20 0xFFFFFFFFFFFFFFFFFFFFFFFFFFFFFFFFFFFFFFFF AND PUSH20 0xFFFFFFFFFFFFFFFFFFFFFFFFFFFFFFFFFFFFFFFF AND DUP2 MSTORE PUSH1 0x20 ADD SWAP1 DUP2 MSTORE PUSH1 0x20 ADD PUSH1 0x0 KECCAK256 DUP3 DUP2 SLOAD DUP2 LT PUSH2 0xEB4 JUMPI PUSH2 0xEB3 PUSH2 0x132C JUMP JUMPDEST JUMPDEST SWAP1 PUSH1 0x0 MSTORE PUSH1 0x20 PUSH1 0x0 KECCAK256 SWAP1 PUSH1 0x5 MUL ADD PUSH1 0x4 ADD DUP2 SWAP1 SSTORE POP PUSH2 0xEE1 JUMP JUMPDEST DUP1 DUP1 PUSH2 0xED9 SWAP1 PUSH2 0x1285 JUMP JUMPDEST SWAP2 POP POP PUSH2 0xDAE JUMP JUMPDEST POP POP POP JUMP JUMPDEST PUSH1 0x0 DUP2 CALLDATALOAD SWAP1 POP PUSH2 0xEF5 DUP2 PUSH2 0x1389 JUMP JUMPDEST SWAP3 SWAP2 POP POP JUMP JUMPDEST PUSH1 0x0 DUP2 CALLDATALOAD SWAP1 POP PUSH2 0xF0A DUP2 PUSH2 0x13A0 JUMP JUMPDEST SWAP3 SWAP2 POP POP JUMP JUMPDEST PUSH1 0x0 PUSH1 0x20 DUP3 DUP5 SUB SLT ISZERO PUSH2 0xF26 JUMPI PUSH2 0xF25 PUSH2 0x135B JUMP JUMPDEST JUMPDEST PUSH1 0x0 PUSH2 0xF34 DUP5 DUP3 DUP6 ADD PUSH2 0xEE6 JUMP JUMPDEST SWAP2 POP POP SWAP3 SWAP2 POP POP JUMP JUMPDEST PUSH1 0x0 DUP1 PUSH1 0x40 DUP4 DUP6 SUB SLT ISZERO PUSH2 0xF54 JUMPI PUSH2 0xF53 PUSH2 0x135B JUMP JUMPDEST JUMPDEST PUSH1 0x0 PUSH2 0xF62 DUP6 DUP3 DUP7 ADD PUSH2 0xEE6 JUMP JUMPDEST SWAP3 POP POP PUSH1 0x20 PUSH2 0xF73 DUP6 DUP3 DUP7 ADD PUSH2 0xEFB JUMP JUMPDEST SWAP2 POP POP SWAP3 POP SWAP3 SWAP1 POP JUMP JUMPDEST PUSH1 0x0 PUSH1 0x20 DUP3 DUP5 SUB SLT ISZERO PUSH2 0xF93 JUMPI PUSH2 0xF92 PUSH2 0x135B JUMP JUMPDEST JUMPDEST PUSH1 0x0 PUSH2 0xFA1 DUP5 DUP3 DUP6 ADD PUSH2 0xEFB JUMP JUMPDEST SWAP2 POP POP SWAP3 SWAP2 POP POP JUMP JUMPDEST PUSH1 0x0 DUP1 PUSH1 0x40 DUP4 DUP6 SUB SLT ISZERO PUSH2 0xFC1 JUMPI PUSH2 0xFC0 PUSH2 0x135B JUMP JUMPDEST JUMPDEST PUSH1 0x0 PUSH2 0xFCF DUP6 DUP3 DUP7 ADD PUSH2 0xEFB JUMP JUMPDEST SWAP3 POP POP PUSH1 0x20 PUSH2 0xFE0 DUP6 DUP3 DUP7 ADD PUSH2 0xEFB JUMP JUMPDEST SWAP2 POP POP SWAP3 POP SWAP3 SWAP1 POP JUMP JUMPDEST PUSH1 0x0 PUSH2 0xFF6 DUP4 DUP4 PUSH2 0x1092 JUMP JUMPDEST PUSH1 0xA0 DUP4 ADD SWAP1 POP SWAP3 SWAP2 POP POP JUMP JUMPDEST PUSH2 0x100B DUP2 PUSH2 0x1249 JUMP JUMPDEST DUP3 MSTORE POP POP JUMP JUMPDEST PUSH1 0x0 PUSH2 0x101C DUP3 PUSH2 0x1185 JUMP JUMPDEST PUSH2 0x1026 DUP2 DUP6 PUSH2 0x119D JUMP JUMPDEST SWAP4 POP PUSH2 0x1031 DUP4 PUSH2 0x1175 JUMP JUMPDEST DUP1 PUSH1 0x0 JUMPDEST DUP4 DUP2 LT ISZERO PUSH2 0x1062 JUMPI DUP2 MLOAD PUSH2 0x1049 DUP9 DUP3 PUSH2 0xFEA JUMP JUMPDEST SWAP8 POP PUSH2 0x1054 DUP4 PUSH2 0x1190 JUMP JUMPDEST SWAP3 POP POP PUSH1 0x1 DUP2 ADD SWAP1 POP PUSH2 0x1035 JUMP JUMPDEST POP DUP6 SWAP4 POP POP POP POP SWAP3 SWAP2 POP POP JUMP JUMPDEST PUSH1 0x0 PUSH2 0x107C PUSH1 0x1C DUP4 PUSH2 0x11AE JUMP JUMPDEST SWAP2 POP PUSH2 0x1087 DUP3 PUSH2 0x1360 JUMP JUMPDEST PUSH1 0x20 DUP3 ADD SWAP1 POP SWAP2 SWAP1 POP JUMP JUMPDEST PUSH1 0xA0 DUP3 ADD PUSH1 0x0 DUP3 ADD MLOAD PUSH2 0x10A8 PUSH1 0x0 DUP6 ADD DUP3 PUSH2 0x10FA JUMP JUMPDEST POP PUSH1 0x20 DUP3 ADD MLOAD PUSH2 0x10BB PUSH1 0x20 DUP6 ADD DUP3 PUSH2 0x1002 JUMP JUMPDEST POP PUSH1 0x40 DUP3 ADD MLOAD PUSH2 0x10CE PUSH1 0x40 DUP6 ADD DUP3 PUSH2 0x10FA JUMP JUMPDEST POP PUSH1 0x60 DUP3 ADD MLOAD PUSH2 0x10E1 PUSH1 0x60 DUP6 ADD DUP3 PUSH2 0x10FA JUMP JUMPDEST POP PUSH1 0x80 DUP3 ADD MLOAD PUSH2 0x10F4 PUSH1 0x80 DUP6 ADD DUP3 PUSH2 0x10FA JUMP JUMPDEST POP POP POP POP JUMP JUMPDEST PUSH2 0x1103 DUP2 PUSH2 0x127B JUMP JUMPDEST DUP3 MSTORE POP POP JUMP JUMPDEST PUSH2 0x1112 DUP2 PUSH2 0x127B JUMP JUMPDEST DUP3 MSTORE POP POP JUMP JUMPDEST PUSH1 0x0 PUSH1 0x20 DUP3 ADD SWAP1 POP DUP2 DUP2 SUB PUSH1 0x0 DUP4 ADD MSTORE PUSH2 0x1132 DUP2 DUP5 PUSH2 0x1011 JUMP JUMPDEST SWAP1 POP SWAP3 SWAP2 POP POP JUMP JUMPDEST PUSH1 0x0 PUSH1 0x20 DUP3 ADD SWAP1 POP DUP2 DUP2 SUB PUSH1 0x0 DUP4 ADD MSTORE PUSH2 0x1153 DUP2 PUSH2 0x106F JUMP JUMPDEST SWAP1 POP SWAP2 SWAP1 POP JUMP JUMPDEST PUSH1 0x0 PUSH1 0x20 DUP3 ADD SWAP1 POP PUSH2 0x116F PUSH1 0x0 DUP4 ADD DUP5 PUSH2 0x1109 JUMP JUMPDEST SWAP3 SWAP2 POP POP JUMP JUMPDEST PUSH1 0x0 DUP2 SWAP1 POP PUSH1 0x20 DUP3 ADD SWAP1 POP SWAP2 SWAP1 POP JUMP JUMPDEST PUSH1 0x0 DUP2 MLOAD SWAP1 POP SWAP2 SWAP1 POP JUMP JUMPDEST PUSH1 0x0 PUSH1 0x20 DUP3 ADD SWAP1 POP SWAP2 SWAP1 POP JUMP JUMPDEST PUSH1 0x0 DUP3 DUP3 MSTORE PUSH1 0x20 DUP3 ADD SWAP1 POP SWAP3 SWAP2 POP POP JUMP JUMPDEST PUSH1 0x0 DUP3 DUP3 MSTORE PUSH1 0x20 DUP3 ADD SWAP1 POP SWAP3 SWAP2 POP POP JUMP JUMPDEST PUSH1 0x0 PUSH2 0x11CA DUP3 PUSH2 0x127B JUMP JUMPDEST SWAP2 POP PUSH2 0x11D5 DUP4 PUSH2 0x127B JUMP JUMPDEST SWAP3 POP DUP3 PUSH32 0xFFFFFFFFFFFFFFFFFFFFFFFFFFFFFFFFFFFFFFFFFFFFFFFFFFFFFFFFFFFFFFFF SUB DUP3 GT ISZERO PUSH2 0x120A JUMPI PUSH2 0x1209 PUSH2 0x12CE JUMP JUMPDEST JUMPDEST DUP3 DUP3 ADD SWAP1 POP SWAP3 SWAP2 POP POP JUMP JUMPDEST PUSH1 0x0 PUSH2 0x1220 DUP3 PUSH2 0x127B JUMP JUMPDEST SWAP2 POP PUSH2 0x122B DUP4 PUSH2 0x127B JUMP JUMPDEST SWAP3 POP DUP3 DUP3 LT ISZERO PUSH2 0x123E JUMPI PUSH2 0x123D PUSH2 0x12CE JUMP JUMPDEST JUMPDEST DUP3 DUP3 SUB SWAP1 POP SWAP3 SWAP2 POP POP JUMP JUMPDEST PUSH1 0x0 PUSH2 0x1254 DUP3 PUSH2 0x125B JUMP JUMPDEST SWAP1 POP SWAP2 SWAP1 POP JUMP JUMPDEST PUSH1 0x0 PUSH20 0xFFFFFFFFFFFFFFFFFFFFFFFFFFFFFFFFFFFFFFFF DUP3 AND SWAP1 POP SWAP2 SWAP1 POP JUMP JUMPDEST PUSH1 0x0 DUP2 SWAP1 POP SWAP2 SWAP1 POP JUMP JUMPDEST PUSH1 0x0 PUSH2 0x1290 DUP3 PUSH2 0x127B JUMP JUMPDEST SWAP2 POP PUSH32 0xFFFFFFFFFFFFFFFFFFFFFFFFFFFFFFFFFFFFFFFFFFFFFFFFFFFFFFFFFFFFFFFF DUP3 EQ ISZERO PUSH2 0x12C3 JUMPI PUSH2 0x12C2 PUSH2 0x12CE JUMP JUMPDEST JUMPDEST PUSH1 0x1 DUP3 ADD SWAP1 POP SWAP2 SWAP1 POP JUMP JUMPDEST PUSH32 0x4E487B7100000000000000000000000000000000000000000000000000000000 PUSH1 0x0 MSTORE PUSH1 0x11 PUSH1 0x4 MSTORE PUSH1 0x24 PUSH1 0x0 REVERT JUMPDEST PUSH32 0x4E487B7100000000000000000000000000000000000000000000000000000000 PUSH1 0x0 MSTORE PUSH1 0x31 PUSH1 0x4 MSTORE PUSH1 0x24 PUSH1 0x0 REVERT JUMPDEST PUSH32 0x4E487B7100000000000000000000000000000000000000000000000000000000 PUSH1 0x0 MSTORE PUSH1 0x32 PUSH1 0x4 MSTORE PUSH1 0x24 PUSH1 0x0 REVERT JUMPDEST PUSH1 0x0 DUP1 REVERT JUMPDEST PUSH32 0x56616C7565206D7573742062652067726561746572207468616E203000000000 PUSH1 0x0 DUP3 ADD MSTORE POP JUMP JUMPDEST PUSH2 0x1392 DUP2 PUSH2 0x1249 JUMP JUMPDEST DUP2 EQ PUSH2 0x139D JUMPI PUSH1 0x0 DUP1 REVERT JUMPDEST POP JUMP JUMPDEST PUSH2 0x13A9 DUP2 PUSH2 0x127B JUMP JUMPDEST DUP2 EQ PUSH2 0x13B4 JUMPI PUSH1 0x0 DUP1 REVERT JUMPDEST POP JUMP INVALID LOG2 PUSH5 0x6970667358 0x22 SLT KECCAK256 0xBB PUSH24 0xD708CFE650D1573FD6AC8B79AB5BCB9D300E8210FD419E83 0xC8 0xC2 0xDB 0x29 CALLCODE BALANCE PUSH5 0x736F6C6343 STOP ADDMOD SMOD STOP CALLER "
				},
				"gasEstimates": {
					"creation": {
						"codeDepositCost": "1020200",
						"executionCost": "25869",
						"totalCost": "1046069"
					},
					"external": {
						"changeDeliveryTime(uint256,uint256)": "infinite",
						"createPost(uint256)": "infinite",
						"deletePost(uint256)": "infinite",
						"getUserPosts()": "infinite",
						"transfer(address,uint256)": "infinite",
						"usersBalnce(address)": "2880"
					}
				},
				"methodIdentifiers": {
					"changeDeliveryTime(uint256,uint256)": "eca8b567",
					"createPost(uint256)": "1d69bd48",
					"deletePost(uint256)": "094cd5ee",
					"getUserPosts()": "cc4ef2cc",
					"transfer(address,uint256)": "a9059cbb",
					"usersBalnce(address)": "cca003f4"
				}
			},
			"storageLayout": {
				"storage": [
					{
						"astId": 14,
						"contract": "ToPack/src/contarcts/Pack.sol:Pack",
						"label": "currentPostID",
						"offset": 0,
						"slot": "0",
						"type": "t_uint256"
					},
					{
						"astId": 20,
						"contract": "ToPack/src/contarcts/Pack.sol:Pack",
						"label": "postMap",
						"offset": 0,
						"slot": "1",
						"type": "t_mapping(t_address,t_array(t_struct(Post)12_storage)dyn_storage)"
					},
					{
						"astId": 24,
						"contract": "ToPack/src/contarcts/Pack.sol:Pack",
						"label": "usersBalnce",
						"offset": 0,
						"slot": "2",
						"type": "t_mapping(t_address,t_uint256)"
					}
				],
				"types": {
					"t_address": {
						"encoding": "inplace",
						"label": "address",
						"numberOfBytes": "20"
					},
					"t_array(t_struct(Post)12_storage)dyn_storage": {
						"base": "t_struct(Post)12_storage",
						"encoding": "dynamic_array",
						"label": "struct Pack.Post[]",
						"numberOfBytes": "32"
					},
					"t_mapping(t_address,t_array(t_struct(Post)12_storage)dyn_storage)": {
						"encoding": "mapping",
						"key": "t_address",
						"label": "mapping(address => struct Pack.Post[])",
						"numberOfBytes": "32",
						"value": "t_array(t_struct(Post)12_storage)dyn_storage"
					},
					"t_mapping(t_address,t_uint256)": {
						"encoding": "mapping",
						"key": "t_address",
						"label": "mapping(address => uint256)",
						"numberOfBytes": "32",
						"value": "t_uint256"
					},
					"t_struct(Post)12_storage": {
						"encoding": "inplace",
						"label": "struct Pack.Post",
						"members": [
							{
								"astId": 3,
								"contract": "ToPack/src/contarcts/Pack.sol:Pack",
								"label": "postID",
								"offset": 0,
								"slot": "0",
								"type": "t_uint256"
							},
							{
								"astId": 5,
								"contract": "ToPack/src/contarcts/Pack.sol:Pack",
								"label": "postAuthor",
								"offset": 0,
								"slot": "1",
								"type": "t_address"
							},
							{
								"astId": 7,
								"contract": "ToPack/src/contarcts/Pack.sol:Pack",
								"label": "postPrice",
								"offset": 0,
								"slot": "2",
								"type": "t_uint256"
							},
							{
								"astId": 9,
								"contract": "ToPack/src/contarcts/Pack.sol:Pack",
								"label": "postCreationTime",
								"offset": 0,
								"slot": "3",
								"type": "t_uint256"
							},
							{
								"astId": 11,
								"contract": "ToPack/src/contarcts/Pack.sol:Pack",
								"label": "deliverTime",
								"offset": 0,
								"slot": "4",
								"type": "t_uint256"
							}
						],
						"numberOfBytes": "160"
					},
					"t_uint256": {
						"encoding": "inplace",
						"label": "uint256",
						"numberOfBytes": "32"
					}
				}
			},
			"userdoc": {
				"kind": "user",
				"methods": {},
				"version": 1
			}
		}
	}
}