{
	"2Pack/src/contarcts/2Pack.sol": {
		"Pack": {
			"abi": [
				{
					"inputs": [
						{
							"internalType": "uint256",
							"name": "_postID",
							"type": "uint256"
						},
						{
							"internalType": "uint256",
							"name": "newPostPrice",
							"type": "uint256"
						}
					],
					"name": "changePrice",
					"outputs": [],
					"stateMutability": "nonpayable",
					"type": "function"
				},
				{
					"inputs": [
						{
							"internalType": "uint256",
							"name": "_postPrice",
							"type": "uint256"
						}
					],
					"name": "createPost",
					"outputs": [],
					"stateMutability": "nonpayable",
					"type": "function"
				},
				{
					"inputs": [],
					"name": "currentPostID",
					"outputs": [
						{
							"internalType": "uint256",
							"name": "",
							"type": "uint256"
						}
					],
					"stateMutability": "view",
					"type": "function"
				},
				{
					"inputs": [
						{
							"internalType": "uint256",
							"name": "_postID",
							"type": "uint256"
						}
					],
					"name": "deletePost",
					"outputs": [],
					"stateMutability": "nonpayable",
					"type": "function"
				},
				{
					"inputs": [],
					"name": "getUserPosts",
					"outputs": [
						{
							"components": [
								{
									"internalType": "uint256",
									"name": "postID",
									"type": "uint256"
								},
								{
									"internalType": "address",
									"name": "postAuthor",
									"type": "address"
								},
								{
									"internalType": "uint256",
									"name": "postPrice",
									"type": "uint256"
								},
								{
									"internalType": "uint256",
									"name": "postCreationTime",
									"type": "uint256"
								}
							],
							"internalType": "struct Pack.Post[]",
							"name": "",
							"type": "tuple[]"
						}
					],
					"stateMutability": "view",
					"type": "function"
				}
			],
			"devdoc": {
				"kind": "dev",
				"methods": {},
				"version": 1
			},
			"evm": {
				"assembly": "    /* \"2Pack/src/contarcts/2Pack.sol\":70:1780  contract Pack{... */\n  mstore(0x40, 0x80)\n  callvalue\n  dup1\n  iszero\n  tag_1\n  jumpi\n  0x00\n  dup1\n  revert\ntag_1:\n  pop\n  dataSize(sub_0)\n  dup1\n  dataOffset(sub_0)\n  0x00\n  codecopy\n  0x00\n  return\nstop\n\nsub_0: assembly {\n        /* \"2Pack/src/contarcts/2Pack.sol\":70:1780  contract Pack{... */\n      mstore(0x40, 0x80)\n      callvalue\n      dup1\n      iszero\n      tag_1\n      jumpi\n      0x00\n      dup1\n      revert\n    tag_1:\n      pop\n      jumpi(tag_2, lt(calldatasize, 0x04))\n      shr(0xe0, calldataload(0x00))\n      dup1\n      0x094cd5ee\n      eq\n      tag_3\n      jumpi\n      dup1\n      0x1d69bd48\n      eq\n      tag_4\n      jumpi\n      dup1\n      0x664b104b\n      eq\n      tag_5\n      jumpi\n      dup1\n      0xb3de019c\n      eq\n      tag_6\n      jumpi\n      dup1\n      0xcc4ef2cc\n      eq\n      tag_7\n      jumpi\n    tag_2:\n      0x00\n      dup1\n      revert\n        /* \"2Pack/src/contarcts/2Pack.sol\":851:1204  function deletePost(uint _postID) public{... */\n    tag_3:\n      tag_8\n      0x04\n      dup1\n      calldatasize\n      sub\n      dup2\n      add\n      swap1\n      tag_9\n      swap2\n      swap1\n      tag_10\n      jump\t// in\n    tag_9:\n      tag_11\n      jump\t// in\n    tag_8:\n      stop\n        /* \"2Pack/src/contarcts/2Pack.sol\":382:675  function createPost(uint _postPrice) public{  ... */\n    tag_4:\n      tag_12\n      0x04\n      dup1\n      calldatasize\n      sub\n      dup2\n      add\n      swap1\n      tag_13\n      swap2\n      swap1\n      tag_10\n      jump\t// in\n    tag_13:\n      tag_14\n      jump\t// in\n    tag_12:\n      stop\n        /* \"2Pack/src/contarcts/2Pack.sol\":307:332  uint public currentPostID */\n    tag_5:\n      tag_15\n      tag_16\n      jump\t// in\n    tag_15:\n      mload(0x40)\n      tag_17\n      swap2\n      swap1\n      tag_18\n      jump\t// in\n    tag_17:\n      mload(0x40)\n      dup1\n      swap2\n      sub\n      swap1\n      return\n        /* \"2Pack/src/contarcts/2Pack.sol\":1216:1776  function changePrice(uint _postID, uint newPostPrice) public{... */\n    tag_6:\n      tag_19\n      0x04\n      dup1\n      calldatasize\n      sub\n      dup2\n      add\n      swap1\n      tag_20\n      swap2\n      swap1\n      tag_21\n      jump\t// in\n    tag_20:\n      tag_22\n      jump\t// in\n    tag_19:\n      stop\n        /* \"2Pack/src/contarcts/2Pack.sol\":682:844  function getUserPosts() view public returns (Post[] memory ){... */\n    tag_7:\n      tag_23\n      tag_24\n      jump\t// in\n    tag_23:\n      mload(0x40)\n      tag_25\n      swap2\n      swap1\n      tag_26\n      jump\t// in\n    tag_25:\n      mload(0x40)\n      dup1\n      swap2\n      sub\n      swap1\n      return\n        /* \"2Pack/src/contarcts/2Pack.sol\":851:1204  function deletePost(uint _postID) public{... */\n    tag_11:\n        /* \"2Pack/src/contarcts/2Pack.sol\":906:912  uint i */\n      0x00\n        /* \"2Pack/src/contarcts/2Pack.sol\":901:1196  for (uint i = 0; i< (postMap[msg.sender]).length; i++){... */\n    tag_28:\n        /* \"2Pack/src/contarcts/2Pack.sol\":922:929  postMap */\n      0x01\n        /* \"2Pack/src/contarcts/2Pack.sol\":922:941  postMap[msg.sender] */\n      0x00\n        /* \"2Pack/src/contarcts/2Pack.sol\":930:940  msg.sender */\n      caller\n        /* \"2Pack/src/contarcts/2Pack.sol\":922:941  postMap[msg.sender] */\n      0xffffffffffffffffffffffffffffffffffffffff\n      and\n      0xffffffffffffffffffffffffffffffffffffffff\n      and\n      dup2\n      mstore\n      0x20\n      add\n      swap1\n      dup2\n      mstore\n      0x20\n      add\n      0x00\n      keccak256\n        /* \"2Pack/src/contarcts/2Pack.sol\":921:949  (postMap[msg.sender]).length */\n      dup1\n      sload\n      swap1\n      pop\n        /* \"2Pack/src/contarcts/2Pack.sol\":918:919  i */\n      dup2\n        /* \"2Pack/src/contarcts/2Pack.sol\":918:949  i< (postMap[msg.sender]).length */\n      lt\n        /* \"2Pack/src/contarcts/2Pack.sol\":901:1196  for (uint i = 0; i< (postMap[msg.sender]).length; i++){... */\n      iszero\n      tag_29\n      jumpi\n        /* \"2Pack/src/contarcts/2Pack.sol\":982:989  postMap */\n      0x01\n        /* \"2Pack/src/contarcts/2Pack.sol\":982:1001  postMap[msg.sender] */\n      0x00\n        /* \"2Pack/src/contarcts/2Pack.sol\":990:1000  msg.sender */\n      caller\n        /* \"2Pack/src/contarcts/2Pack.sol\":982:1001  postMap[msg.sender] */\n      0xffffffffffffffffffffffffffffffffffffffff\n      and\n      0xffffffffffffffffffffffffffffffffffffffff\n      and\n      dup2\n      mstore\n      0x20\n      add\n      swap1\n      dup2\n      mstore\n      0x20\n      add\n      0x00\n      keccak256\n        /* \"2Pack/src/contarcts/2Pack.sol\":1002:1003  i */\n      dup2\n        /* \"2Pack/src/contarcts/2Pack.sol\":982:1004  postMap[msg.sender][i] */\n      dup2\n      sload\n      dup2\n      lt\n      tag_31\n      jumpi\n      tag_32\n      tag_33\n      jump\t// in\n    tag_32:\n    tag_31:\n      swap1\n      0x00\n      mstore\n      keccak256(0x00, 0x20)\n      swap1\n      0x04\n      mul\n      add\n        /* \"2Pack/src/contarcts/2Pack.sol\":982:1011  postMap[msg.sender][i].postID */\n      0x00\n      add\n      sload\n        /* \"2Pack/src/contarcts/2Pack.sol\":973:980  _postID */\n      dup3\n        /* \"2Pack/src/contarcts/2Pack.sol\":973:1011  _postID==postMap[msg.sender][i].postID */\n      eq\n        /* \"2Pack/src/contarcts/2Pack.sol\":969:1186  if (_postID==postMap[msg.sender][i].postID){... */\n      iszero\n      tag_35\n      jumpi\n        /* \"2Pack/src/contarcts/2Pack.sol\":1053:1060  postMap */\n      0x01\n        /* \"2Pack/src/contarcts/2Pack.sol\":1053:1072  postMap[msg.sender] */\n      0x00\n        /* \"2Pack/src/contarcts/2Pack.sol\":1061:1071  msg.sender */\n      caller\n        /* \"2Pack/src/contarcts/2Pack.sol\":1053:1072  postMap[msg.sender] */\n      0xffffffffffffffffffffffffffffffffffffffff\n      and\n      0xffffffffffffffffffffffffffffffffffffffff\n      and\n      dup2\n      mstore\n      0x20\n      add\n      swap1\n      dup2\n      mstore\n      0x20\n      add\n      0x00\n      keccak256\n        /* \"2Pack/src/contarcts/2Pack.sol\":1102:1103  1 */\n      0x01\n        /* \"2Pack/src/contarcts/2Pack.sol\":1074:1081  postMap */\n      dup1\n        /* \"2Pack/src/contarcts/2Pack.sol\":1074:1093  postMap[msg.sender] */\n      0x00\n        /* \"2Pack/src/contarcts/2Pack.sol\":1082:1092  msg.sender */\n      caller\n        /* \"2Pack/src/contarcts/2Pack.sol\":1074:1093  postMap[msg.sender] */\n      0xffffffffffffffffffffffffffffffffffffffff\n      and\n      0xffffffffffffffffffffffffffffffffffffffff\n      and\n      dup2\n      mstore\n      0x20\n      add\n      swap1\n      dup2\n      mstore\n      0x20\n      add\n      0x00\n      keccak256\n        /* \"2Pack/src/contarcts/2Pack.sol\":1073:1101  (postMap[msg.sender]).length */\n      dup1\n      sload\n      swap1\n      pop\n        /* \"2Pack/src/contarcts/2Pack.sol\":1073:1103  (postMap[msg.sender]).length-1 */\n      tag_36\n      swap2\n      swap1\n      tag_37\n      jump\t// in\n    tag_36:\n        /* \"2Pack/src/contarcts/2Pack.sol\":1053:1104  postMap[msg.sender][(postMap[msg.sender]).length-1] */\n      dup2\n      sload\n      dup2\n      lt\n      tag_38\n      jumpi\n      tag_39\n      tag_33\n      jump\t// in\n    tag_39:\n    tag_38:\n      swap1\n      0x00\n      mstore\n      keccak256(0x00, 0x20)\n      swap1\n      0x04\n      mul\n      add\n        /* \"2Pack/src/contarcts/2Pack.sol\":1030:1037  postMap */\n      0x01\n        /* \"2Pack/src/contarcts/2Pack.sol\":1030:1049  postMap[msg.sender] */\n      0x00\n        /* \"2Pack/src/contarcts/2Pack.sol\":1038:1048  msg.sender */\n      caller\n        /* \"2Pack/src/contarcts/2Pack.sol\":1030:1049  postMap[msg.sender] */\n      0xffffffffffffffffffffffffffffffffffffffff\n      and\n      0xffffffffffffffffffffffffffffffffffffffff\n      and\n      dup2\n      mstore\n      0x20\n      add\n      swap1\n      dup2\n      mstore\n      0x20\n      add\n      0x00\n      keccak256\n        /* \"2Pack/src/contarcts/2Pack.sol\":1050:1051  i */\n      dup3\n        /* \"2Pack/src/contarcts/2Pack.sol\":1030:1052  postMap[msg.sender][i] */\n      dup2\n      sload\n      dup2\n      lt\n      tag_41\n      jumpi\n      tag_42\n      tag_33\n      jump\t// in\n    tag_42:\n    tag_41:\n      swap1\n      0x00\n      mstore\n      keccak256(0x00, 0x20)\n      swap1\n      0x04\n      mul\n      add\n        /* \"2Pack/src/contarcts/2Pack.sol\":1030:1104  postMap[msg.sender][i]=postMap[msg.sender][(postMap[msg.sender]).length-1] */\n      0x00\n      dup3\n      add\n      sload\n      dup2\n      0x00\n      add\n      sstore\n      0x01\n      dup3\n      add\n      0x00\n      swap1\n      sload\n      swap1\n      0x0100\n      exp\n      swap1\n      div\n      0xffffffffffffffffffffffffffffffffffffffff\n      and\n      dup2\n      0x01\n      add\n      exp(0x0100, 0x00)\n      dup2\n      sload\n      dup2\n      0xffffffffffffffffffffffffffffffffffffffff\n      mul\n      not\n      and\n      swap1\n      dup4\n      0xffffffffffffffffffffffffffffffffffffffff\n      and\n      mul\n      or\n      swap1\n      sstore\n      pop\n      0x02\n      dup3\n      add\n      sload\n      dup2\n      0x02\n      add\n      sstore\n      0x03\n      dup3\n      add\n      sload\n      dup2\n      0x03\n      add\n      sstore\n      swap1\n      pop\n      pop\n        /* \"2Pack/src/contarcts/2Pack.sol\":1122:1129  postMap */\n      0x01\n        /* \"2Pack/src/contarcts/2Pack.sol\":1122:1141  postMap[msg.sender] */\n      0x00\n        /* \"2Pack/src/contarcts/2Pack.sol\":1130:1140  msg.sender */\n      caller\n        /* \"2Pack/src/contarcts/2Pack.sol\":1122:1141  postMap[msg.sender] */\n      0xffffffffffffffffffffffffffffffffffffffff\n      and\n      0xffffffffffffffffffffffffffffffffffffffff\n      and\n      dup2\n      mstore\n      0x20\n      add\n      swap1\n      dup2\n      mstore\n      0x20\n      add\n      0x00\n      keccak256\n        /* \"2Pack/src/contarcts/2Pack.sol\":1122:1147  postMap[msg.sender].pop() */\n      dup1\n      sload\n      dup1\n      tag_44\n      jumpi\n      tag_45\n      tag_46\n      jump\t// in\n    tag_45:\n    tag_44:\n      0x01\n      swap1\n      sub\n      dup2\n      dup2\n      swap1\n      0x00\n      mstore\n      keccak256(0x00, 0x20)\n      swap1\n      0x04\n      mul\n      add\n      0x00\n      dup1\n      dup3\n      add\n      0x00\n      swap1\n      sstore\n      0x01\n      dup3\n      add\n      exp(0x0100, 0x00)\n      dup2\n      sload\n      swap1\n      0xffffffffffffffffffffffffffffffffffffffff\n      mul\n      not\n      and\n      swap1\n      sstore\n      0x02\n      dup3\n      add\n      0x00\n      swap1\n      sstore\n      0x03\n      dup3\n      add\n      0x00\n      swap1\n      sstore\n      pop\n      pop\n      swap1\n      sstore\n        /* \"2Pack/src/contarcts/2Pack.sol\":1166:1171  break */\n      jump(tag_29)\n        /* \"2Pack/src/contarcts/2Pack.sol\":969:1186  if (_postID==postMap[msg.sender][i].postID){... */\n    tag_35:\n        /* \"2Pack/src/contarcts/2Pack.sol\":951:954  i++ */\n      dup1\n      dup1\n      tag_48\n      swap1\n      tag_49\n      jump\t// in\n    tag_48:\n      swap2\n      pop\n      pop\n        /* \"2Pack/src/contarcts/2Pack.sol\":901:1196  for (uint i = 0; i< (postMap[msg.sender]).length; i++){... */\n      jump(tag_28)\n    tag_29:\n      pop\n        /* \"2Pack/src/contarcts/2Pack.sol\":851:1204  function deletePost(uint _postID) public{... */\n      pop\n      jump\t// out\n        /* \"2Pack/src/contarcts/2Pack.sol\":382:675  function createPost(uint _postPrice) public{  ... */\n    tag_14:\n        /* \"2Pack/src/contarcts/2Pack.sol\":437:456  Post memory newPost */\n      0x00\n        /* \"2Pack/src/contarcts/2Pack.sol\":459:580  Post({postID: currentPostID, postAuthor: msg.sender,... */\n      mload(0x40)\n      dup1\n      0x80\n      add\n      0x40\n      mstore\n      dup1\n        /* \"2Pack/src/contarcts/2Pack.sol\":473:486  currentPostID */\n      sload(0x00)\n        /* \"2Pack/src/contarcts/2Pack.sol\":459:580  Post({postID: currentPostID, postAuthor: msg.sender,... */\n      dup2\n      mstore\n      0x20\n      add\n        /* \"2Pack/src/contarcts/2Pack.sol\":500:510  msg.sender */\n      caller\n        /* \"2Pack/src/contarcts/2Pack.sol\":459:580  Post({postID: currentPostID, postAuthor: msg.sender,... */\n      0xffffffffffffffffffffffffffffffffffffffff\n      and\n      dup2\n      mstore\n      0x20\n      add\n        /* \"2Pack/src/contarcts/2Pack.sol\":531:541  _postPrice */\n      dup4\n        /* \"2Pack/src/contarcts/2Pack.sol\":459:580  Post({postID: currentPostID, postAuthor: msg.sender,... */\n      dup2\n      mstore\n      0x20\n      add\n        /* \"2Pack/src/contarcts/2Pack.sol\":563:578  block.timestamp */\n      timestamp\n        /* \"2Pack/src/contarcts/2Pack.sol\":459:580  Post({postID: currentPostID, postAuthor: msg.sender,... */\n      dup2\n      mstore\n      pop\n        /* \"2Pack/src/contarcts/2Pack.sol\":437:580  Post memory newPost = Post({postID: currentPostID, postAuthor: msg.sender,... */\n      swap1\n      pop\n        /* \"2Pack/src/contarcts/2Pack.sol\":590:597  postMap */\n      0x01\n        /* \"2Pack/src/contarcts/2Pack.sol\":590:609  postMap[msg.sender] */\n      0x00\n        /* \"2Pack/src/contarcts/2Pack.sol\":598:608  msg.sender */\n      caller\n        /* \"2Pack/src/contarcts/2Pack.sol\":590:609  postMap[msg.sender] */\n      0xffffffffffffffffffffffffffffffffffffffff\n      and\n      0xffffffffffffffffffffffffffffffffffffffff\n      and\n      dup2\n      mstore\n      0x20\n      add\n      swap1\n      dup2\n      mstore\n      0x20\n      add\n      0x00\n      keccak256\n        /* \"2Pack/src/contarcts/2Pack.sol\":615:622  newPost */\n      dup2\n        /* \"2Pack/src/contarcts/2Pack.sol\":590:623  postMap[msg.sender].push(newPost) */\n      swap1\n      dup1\n      0x01\n      dup2\n      sload\n      add\n      dup1\n      dup3\n      sstore\n      dup1\n      swap2\n      pop\n      pop\n      0x01\n      swap1\n      sub\n      swap1\n      0x00\n      mstore\n      keccak256(0x00, 0x20)\n      swap1\n      0x04\n      mul\n      add\n      0x00\n      swap1\n      swap2\n      swap1\n      swap2\n      swap1\n      swap2\n      pop\n      0x00\n      dup3\n      add\n      mload\n      dup2\n      0x00\n      add\n      sstore\n      0x20\n      dup3\n      add\n      mload\n      dup2\n      0x01\n      add\n      exp(0x0100, 0x00)\n      dup2\n      sload\n      dup2\n      0xffffffffffffffffffffffffffffffffffffffff\n      mul\n      not\n      and\n      swap1\n      dup4\n      0xffffffffffffffffffffffffffffffffffffffff\n      and\n      mul\n      or\n      swap1\n      sstore\n      pop\n      0x40\n      dup3\n      add\n      mload\n      dup2\n      0x02\n      add\n      sstore\n      0x60\n      dup3\n      add\n      mload\n      dup2\n      0x03\n      add\n      sstore\n      pop\n      pop\n        /* \"2Pack/src/contarcts/2Pack.sol\":664:665  1 */\n      0x01\n        /* \"2Pack/src/contarcts/2Pack.sol\":649:662  currentPostID */\n      sload(0x00)\n        /* \"2Pack/src/contarcts/2Pack.sol\":649:665  currentPostID +1 */\n      tag_52\n      swap2\n      swap1\n      tag_53\n      jump\t// in\n    tag_52:\n        /* \"2Pack/src/contarcts/2Pack.sol\":633:646  currentPostID */\n      0x00\n        /* \"2Pack/src/contarcts/2Pack.sol\":633:665  currentPostID = currentPostID +1 */\n      dup2\n      swap1\n      sstore\n      pop\n        /* \"2Pack/src/contarcts/2Pack.sol\":425:675  {  ... */\n      pop\n        /* \"2Pack/src/contarcts/2Pack.sol\":382:675  function createPost(uint _postPrice) public{  ... */\n      pop\n      jump\t// out\n        /* \"2Pack/src/contarcts/2Pack.sol\":307:332  uint public currentPostID */\n    tag_16:\n      sload(0x00)\n      dup2\n      jump\t// out\n        /* \"2Pack/src/contarcts/2Pack.sol\":1216:1776  function changePrice(uint _postID, uint newPostPrice) public{... */\n    tag_22:\n        /* \"2Pack/src/contarcts/2Pack.sol\":1302:1309  postMap */\n      0x01\n        /* \"2Pack/src/contarcts/2Pack.sol\":1302:1321  postMap[msg.sender] */\n      0x00\n        /* \"2Pack/src/contarcts/2Pack.sol\":1310:1320  msg.sender */\n      caller\n        /* \"2Pack/src/contarcts/2Pack.sol\":1302:1321  postMap[msg.sender] */\n      0xffffffffffffffffffffffffffffffffffffffff\n      and\n      0xffffffffffffffffffffffffffffffffffffffff\n      and\n      dup2\n      mstore\n      0x20\n      add\n      swap1\n      dup2\n      mstore\n      0x20\n      add\n      0x00\n      keccak256\n        /* \"2Pack/src/contarcts/2Pack.sol\":1301:1329  (postMap[msg.sender]).length */\n      dup1\n      sload\n      swap1\n      pop\n        /* \"2Pack/src/contarcts/2Pack.sol\":1290:1297  _postID */\n      dup3\n        /* \"2Pack/src/contarcts/2Pack.sol\":1290:1329  _postID >= (postMap[msg.sender]).length */\n      lt\n        /* \"2Pack/src/contarcts/2Pack.sol\":1286:1770  if (_postID >= (postMap[msg.sender]).length) return;... */\n      tag_55\n      jumpi\n        /* \"2Pack/src/contarcts/2Pack.sol\":1331:1338  return; */\n      jump(tag_54)\n        /* \"2Pack/src/contarcts/2Pack.sol\":1286:1770  if (_postID >= (postMap[msg.sender]).length) return;... */\n    tag_55:\n        /* \"2Pack/src/contarcts/2Pack.sol\":1470:1476  uint i */\n      0x00\n        /* \"2Pack/src/contarcts/2Pack.sol\":1465:1760  for (uint i; i< (postMap[msg.sender]).length; i++){... */\n    tag_57:\n        /* \"2Pack/src/contarcts/2Pack.sol\":1482:1489  postMap */\n      0x01\n        /* \"2Pack/src/contarcts/2Pack.sol\":1482:1501  postMap[msg.sender] */\n      0x00\n        /* \"2Pack/src/contarcts/2Pack.sol\":1490:1500  msg.sender */\n      caller\n        /* \"2Pack/src/contarcts/2Pack.sol\":1482:1501  postMap[msg.sender] */\n      0xffffffffffffffffffffffffffffffffffffffff\n      and\n      0xffffffffffffffffffffffffffffffffffffffff\n      and\n      dup2\n      mstore\n      0x20\n      add\n      swap1\n      dup2\n      mstore\n      0x20\n      add\n      0x00\n      keccak256\n        /* \"2Pack/src/contarcts/2Pack.sol\":1481:1509  (postMap[msg.sender]).length */\n      dup1\n      sload\n      swap1\n      pop\n        /* \"2Pack/src/contarcts/2Pack.sol\":1478:1479  i */\n      dup2\n        /* \"2Pack/src/contarcts/2Pack.sol\":1478:1509  i< (postMap[msg.sender]).length */\n      lt\n        /* \"2Pack/src/contarcts/2Pack.sol\":1465:1760  for (uint i; i< (postMap[msg.sender]).length; i++){... */\n      iszero\n      tag_58\n      jumpi\n        /* \"2Pack/src/contarcts/2Pack.sol\":1546:1553  postMap */\n      0x01\n        /* \"2Pack/src/contarcts/2Pack.sol\":1546:1565  postMap[msg.sender] */\n      0x00\n        /* \"2Pack/src/contarcts/2Pack.sol\":1554:1564  msg.sender */\n      caller\n        /* \"2Pack/src/contarcts/2Pack.sol\":1546:1565  postMap[msg.sender] */\n      0xffffffffffffffffffffffffffffffffffffffff\n      and\n      0xffffffffffffffffffffffffffffffffffffffff\n      and\n      dup2\n      mstore\n      0x20\n      add\n      swap1\n      dup2\n      mstore\n      0x20\n      add\n      0x00\n      keccak256\n        /* \"2Pack/src/contarcts/2Pack.sol\":1566:1567  i */\n      dup2\n        /* \"2Pack/src/contarcts/2Pack.sol\":1546:1568  postMap[msg.sender][i] */\n      dup2\n      sload\n      dup2\n      lt\n      tag_60\n      jumpi\n      tag_61\n      tag_33\n      jump\t// in\n    tag_61:\n    tag_60:\n      swap1\n      0x00\n      mstore\n      keccak256(0x00, 0x20)\n      swap1\n      0x04\n      mul\n      add\n        /* \"2Pack/src/contarcts/2Pack.sol\":1546:1575  postMap[msg.sender][i].postID */\n      0x00\n      add\n      sload\n        /* \"2Pack/src/contarcts/2Pack.sol\":1537:1544  _postID */\n      dup4\n        /* \"2Pack/src/contarcts/2Pack.sol\":1537:1575  _postID==postMap[msg.sender][i].postID */\n      eq\n        /* \"2Pack/src/contarcts/2Pack.sol\":1533:1746  if (_postID==postMap[msg.sender][i].postID){... */\n      iszero\n      tag_63\n      jumpi\n        /* \"2Pack/src/contarcts/2Pack.sol\":1631:1643  newPostPrice */\n      dup2\n        /* \"2Pack/src/contarcts/2Pack.sol\":1598:1605  postMap */\n      0x01\n        /* \"2Pack/src/contarcts/2Pack.sol\":1598:1617  postMap[msg.sender] */\n      0x00\n        /* \"2Pack/src/contarcts/2Pack.sol\":1606:1616  msg.sender */\n      caller\n        /* \"2Pack/src/contarcts/2Pack.sol\":1598:1617  postMap[msg.sender] */\n      0xffffffffffffffffffffffffffffffffffffffff\n      and\n      0xffffffffffffffffffffffffffffffffffffffff\n      and\n      dup2\n      mstore\n      0x20\n      add\n      swap1\n      dup2\n      mstore\n      0x20\n      add\n      0x00\n      keccak256\n        /* \"2Pack/src/contarcts/2Pack.sol\":1618:1619  i */\n      dup3\n        /* \"2Pack/src/contarcts/2Pack.sol\":1598:1620  postMap[msg.sender][i] */\n      dup2\n      sload\n      dup2\n      lt\n      tag_64\n      jumpi\n      tag_65\n      tag_33\n      jump\t// in\n    tag_65:\n    tag_64:\n      swap1\n      0x00\n      mstore\n      keccak256(0x00, 0x20)\n      swap1\n      0x04\n      mul\n      add\n        /* \"2Pack/src/contarcts/2Pack.sol\":1598:1630  postMap[msg.sender][i].postPrice */\n      0x02\n      add\n        /* \"2Pack/src/contarcts/2Pack.sol\":1598:1643  postMap[msg.sender][i].postPrice=newPostPrice */\n      dup2\n      swap1\n      sstore\n      pop\n        /* \"2Pack/src/contarcts/2Pack.sol\":1533:1746  if (_postID==postMap[msg.sender][i].postID){... */\n      jump(tag_67)\n    tag_63:\n        /* \"2Pack/src/contarcts/2Pack.sol\":1705:1712  return; */\n      pop\n      jump(tag_54)\n        /* \"2Pack/src/contarcts/2Pack.sol\":1533:1746  if (_postID==postMap[msg.sender][i].postID){... */\n    tag_67:\n        /* \"2Pack/src/contarcts/2Pack.sol\":1511:1514  i++ */\n      dup1\n      dup1\n      tag_68\n      swap1\n      tag_49\n      jump\t// in\n    tag_68:\n      swap2\n      pop\n      pop\n        /* \"2Pack/src/contarcts/2Pack.sol\":1465:1760  for (uint i; i< (postMap[msg.sender]).length; i++){... */\n      jump(tag_57)\n    tag_58:\n      pop\n        /* \"2Pack/src/contarcts/2Pack.sol\":1216:1776  function changePrice(uint _postID, uint newPostPrice) public{... */\n    tag_54:\n      pop\n      pop\n      jump\t// out\n        /* \"2Pack/src/contarcts/2Pack.sol\":682:844  function getUserPosts() view public returns (Post[] memory ){... */\n    tag_24:\n        /* \"2Pack/src/contarcts/2Pack.sol\":727:740  Post[] memory */\n      0x60\n        /* \"2Pack/src/contarcts/2Pack.sol\":818:825  postMap */\n      0x01\n        /* \"2Pack/src/contarcts/2Pack.sol\":818:837  postMap[msg.sender] */\n      0x00\n        /* \"2Pack/src/contarcts/2Pack.sol\":826:836  msg.sender */\n      caller\n        /* \"2Pack/src/contarcts/2Pack.sol\":818:837  postMap[msg.sender] */\n      0xffffffffffffffffffffffffffffffffffffffff\n      and\n      0xffffffffffffffffffffffffffffffffffffffff\n      and\n      dup2\n      mstore\n      0x20\n      add\n      swap1\n      dup2\n      mstore\n      0x20\n      add\n      0x00\n      keccak256\n        /* \"2Pack/src/contarcts/2Pack.sol\":810:837  return  postMap[msg.sender] */\n      dup1\n      sload\n      dup1\n      0x20\n      mul\n      0x20\n      add\n      mload(0x40)\n      swap1\n      dup2\n      add\n      0x40\n      mstore\n      dup1\n      swap3\n      swap2\n      swap1\n      dup2\n      dup2\n      mstore\n      0x20\n      add\n      0x00\n      swap1\n    tag_70:\n      dup3\n      dup3\n      lt\n      iszero\n      tag_71\n      jumpi\n      dup4\n      dup3\n      swap1\n      0x00\n      mstore\n      keccak256(0x00, 0x20)\n      swap1\n      0x04\n      mul\n      add\n      mload(0x40)\n      dup1\n      0x80\n      add\n      0x40\n      mstore\n      swap1\n      dup2\n      0x00\n      dup3\n      add\n      sload\n      dup2\n      mstore\n      0x20\n      add\n      0x01\n      dup3\n      add\n      0x00\n      swap1\n      sload\n      swap1\n      0x0100\n      exp\n      swap1\n      div\n      0xffffffffffffffffffffffffffffffffffffffff\n      and\n      0xffffffffffffffffffffffffffffffffffffffff\n      and\n      0xffffffffffffffffffffffffffffffffffffffff\n      and\n      dup2\n      mstore\n      0x20\n      add\n      0x02\n      dup3\n      add\n      sload\n      dup2\n      mstore\n      0x20\n      add\n      0x03\n      dup3\n      add\n      sload\n      dup2\n      mstore\n      pop\n      pop\n      dup2\n      mstore\n      0x20\n      add\n      swap1\n      0x01\n      add\n      swap1\n      jump(tag_70)\n    tag_71:\n      pop\n      pop\n      pop\n      pop\n      swap1\n      pop\n        /* \"2Pack/src/contarcts/2Pack.sol\":682:844  function getUserPosts() view public returns (Post[] memory ){... */\n      swap1\n      jump\t// out\n        /* \"#utility.yul\":7:146   */\n    tag_74:\n        /* \"#utility.yul\":53:58   */\n      0x00\n        /* \"#utility.yul\":91:97   */\n      dup2\n        /* \"#utility.yul\":78:98   */\n      calldataload\n        /* \"#utility.yul\":69:98   */\n      swap1\n      pop\n        /* \"#utility.yul\":107:140   */\n      tag_76\n        /* \"#utility.yul\":134:139   */\n      dup2\n        /* \"#utility.yul\":107:140   */\n      tag_77\n      jump\t// in\n    tag_76:\n        /* \"#utility.yul\":7:146   */\n      swap3\n      swap2\n      pop\n      pop\n      jump\t// out\n        /* \"#utility.yul\":152:481   */\n    tag_10:\n        /* \"#utility.yul\":211:217   */\n      0x00\n        /* \"#utility.yul\":260:262   */\n      0x20\n        /* \"#utility.yul\":248:257   */\n      dup3\n        /* \"#utility.yul\":239:246   */\n      dup5\n        /* \"#utility.yul\":235:258   */\n      sub\n        /* \"#utility.yul\":231:263   */\n      slt\n        /* \"#utility.yul\":228:347   */\n      iszero\n      tag_79\n      jumpi\n        /* \"#utility.yul\":266:345   */\n      tag_80\n      tag_81\n      jump\t// in\n    tag_80:\n        /* \"#utility.yul\":228:347   */\n    tag_79:\n        /* \"#utility.yul\":386:387   */\n      0x00\n        /* \"#utility.yul\":411:464   */\n      tag_82\n        /* \"#utility.yul\":456:463   */\n      dup5\n        /* \"#utility.yul\":447:453   */\n      dup3\n        /* \"#utility.yul\":436:445   */\n      dup6\n        /* \"#utility.yul\":432:454   */\n      add\n        /* \"#utility.yul\":411:464   */\n      tag_74\n      jump\t// in\n    tag_82:\n        /* \"#utility.yul\":401:464   */\n      swap2\n      pop\n        /* \"#utility.yul\":357:474   */\n      pop\n        /* \"#utility.yul\":152:481   */\n      swap3\n      swap2\n      pop\n      pop\n      jump\t// out\n        /* \"#utility.yul\":487:961   */\n    tag_21:\n        /* \"#utility.yul\":555:561   */\n      0x00\n        /* \"#utility.yul\":563:569   */\n      dup1\n        /* \"#utility.yul\":612:614   */\n      0x40\n        /* \"#utility.yul\":600:609   */\n      dup4\n        /* \"#utility.yul\":591:598   */\n      dup6\n        /* \"#utility.yul\":587:610   */\n      sub\n        /* \"#utility.yul\":583:615   */\n      slt\n        /* \"#utility.yul\":580:699   */\n      iszero\n      tag_84\n      jumpi\n        /* \"#utility.yul\":618:697   */\n      tag_85\n      tag_81\n      jump\t// in\n    tag_85:\n        /* \"#utility.yul\":580:699   */\n    tag_84:\n        /* \"#utility.yul\":738:739   */\n      0x00\n        /* \"#utility.yul\":763:816   */\n      tag_86\n        /* \"#utility.yul\":808:815   */\n      dup6\n        /* \"#utility.yul\":799:805   */\n      dup3\n        /* \"#utility.yul\":788:797   */\n      dup7\n        /* \"#utility.yul\":784:806   */\n      add\n        /* \"#utility.yul\":763:816   */\n      tag_74\n      jump\t// in\n    tag_86:\n        /* \"#utility.yul\":753:816   */\n      swap3\n      pop\n        /* \"#utility.yul\":709:826   */\n      pop\n        /* \"#utility.yul\":865:867   */\n      0x20\n        /* \"#utility.yul\":891:944   */\n      tag_87\n        /* \"#utility.yul\":936:943   */\n      dup6\n        /* \"#utility.yul\":927:933   */\n      dup3\n        /* \"#utility.yul\":916:925   */\n      dup7\n        /* \"#utility.yul\":912:934   */\n      add\n        /* \"#utility.yul\":891:944   */\n      tag_74\n      jump\t// in\n    tag_87:\n        /* \"#utility.yul\":881:944   */\n      swap2\n      pop\n        /* \"#utility.yul\":836:954   */\n      pop\n        /* \"#utility.yul\":487:961   */\n      swap3\n      pop\n      swap3\n      swap1\n      pop\n      jump\t// out\n        /* \"#utility.yul\":967:1226   */\n    tag_88:\n        /* \"#utility.yul\":1076:1086   */\n      0x00\n        /* \"#utility.yul\":1097:1183   */\n      tag_90\n        /* \"#utility.yul\":1179:1182   */\n      dup4\n        /* \"#utility.yul\":1171:1177   */\n      dup4\n        /* \"#utility.yul\":1097:1183   */\n      tag_91\n      jump\t// in\n    tag_90:\n        /* \"#utility.yul\":1215:1219   */\n      0x80\n        /* \"#utility.yul\":1210:1213   */\n      dup4\n        /* \"#utility.yul\":1206:1220   */\n      add\n        /* \"#utility.yul\":1192:1220   */\n      swap1\n      pop\n        /* \"#utility.yul\":967:1226   */\n      swap3\n      swap2\n      pop\n      pop\n      jump\t// out\n        /* \"#utility.yul\":1232:1340   */\n    tag_92:\n        /* \"#utility.yul\":1309:1333   */\n      tag_94\n        /* \"#utility.yul\":1327:1332   */\n      dup2\n        /* \"#utility.yul\":1309:1333   */\n      tag_95\n      jump\t// in\n    tag_94:\n        /* \"#utility.yul\":1304:1307   */\n      dup3\n        /* \"#utility.yul\":1297:1334   */\n      mstore\n        /* \"#utility.yul\":1232:1340   */\n      pop\n      pop\n      jump\t// out\n        /* \"#utility.yul\":1394:2286   */\n    tag_96:\n        /* \"#utility.yul\":1553:1556   */\n      0x00\n        /* \"#utility.yul\":1582:1656   */\n      tag_98\n        /* \"#utility.yul\":1650:1655   */\n      dup3\n        /* \"#utility.yul\":1582:1656   */\n      tag_99\n      jump\t// in\n    tag_98:\n        /* \"#utility.yul\":1672:1778   */\n      tag_100\n        /* \"#utility.yul\":1771:1777   */\n      dup2\n        /* \"#utility.yul\":1766:1769   */\n      dup6\n        /* \"#utility.yul\":1672:1778   */\n      tag_101\n      jump\t// in\n    tag_100:\n        /* \"#utility.yul\":1665:1778   */\n      swap4\n      pop\n        /* \"#utility.yul\":1802:1878   */\n      tag_102\n        /* \"#utility.yul\":1872:1877   */\n      dup4\n        /* \"#utility.yul\":1802:1878   */\n      tag_103\n      jump\t// in\n    tag_102:\n        /* \"#utility.yul\":1901:1908   */\n      dup1\n        /* \"#utility.yul\":1932:1933   */\n      0x00\n        /* \"#utility.yul\":1917:2261   */\n    tag_104:\n        /* \"#utility.yul\":1942:1948   */\n      dup4\n        /* \"#utility.yul\":1939:1940   */\n      dup2\n        /* \"#utility.yul\":1936:1949   */\n      lt\n        /* \"#utility.yul\":1917:2261   */\n      iszero\n      tag_106\n      jumpi\n        /* \"#utility.yul\":2018:2024   */\n      dup2\n        /* \"#utility.yul\":2012:2025   */\n      mload\n        /* \"#utility.yul\":2045:2148   */\n      tag_107\n        /* \"#utility.yul\":2144:2147   */\n      dup9\n        /* \"#utility.yul\":2129:2142   */\n      dup3\n        /* \"#utility.yul\":2045:2148   */\n      tag_88\n      jump\t// in\n    tag_107:\n        /* \"#utility.yul\":2038:2148   */\n      swap8\n      pop\n        /* \"#utility.yul\":2171:2251   */\n      tag_108\n        /* \"#utility.yul\":2244:2250   */\n      dup4\n        /* \"#utility.yul\":2171:2251   */\n      tag_109\n      jump\t// in\n    tag_108:\n        /* \"#utility.yul\":2161:2251   */\n      swap3\n      pop\n        /* \"#utility.yul\":1977:2261   */\n      pop\n        /* \"#utility.yul\":1964:1965   */\n      0x01\n        /* \"#utility.yul\":1961:1962   */\n      dup2\n        /* \"#utility.yul\":1957:1966   */\n      add\n        /* \"#utility.yul\":1952:1966   */\n      swap1\n      pop\n        /* \"#utility.yul\":1917:2261   */\n      jump(tag_104)\n    tag_106:\n        /* \"#utility.yul\":1921:1935   */\n      pop\n        /* \"#utility.yul\":2277:2280   */\n      dup6\n        /* \"#utility.yul\":2270:2280   */\n      swap4\n      pop\n        /* \"#utility.yul\":1558:2286   */\n      pop\n      pop\n      pop\n        /* \"#utility.yul\":1394:2286   */\n      swap3\n      swap2\n      pop\n      pop\n      jump\t// out\n        /* \"#utility.yul\":2336:3196   */\n    tag_91:\n        /* \"#utility.yul\":2463:2467   */\n      0x80\n        /* \"#utility.yul\":2458:2461   */\n      dup3\n        /* \"#utility.yul\":2454:2468   */\n      add\n        /* \"#utility.yul\":2552:2556   */\n      0x00\n        /* \"#utility.yul\":2545:2550   */\n      dup3\n        /* \"#utility.yul\":2541:2557   */\n      add\n        /* \"#utility.yul\":2535:2558   */\n      mload\n        /* \"#utility.yul\":2571:2634   */\n      tag_111\n        /* \"#utility.yul\":2628:2632   */\n      0x00\n        /* \"#utility.yul\":2623:2626   */\n      dup6\n        /* \"#utility.yul\":2619:2633   */\n      add\n        /* \"#utility.yul\":2605:2617   */\n      dup3\n        /* \"#utility.yul\":2571:2634   */\n      tag_112\n      jump\t// in\n    tag_111:\n        /* \"#utility.yul\":2478:2644   */\n      pop\n        /* \"#utility.yul\":2732:2736   */\n      0x20\n        /* \"#utility.yul\":2725:2730   */\n      dup3\n        /* \"#utility.yul\":2721:2737   */\n      add\n        /* \"#utility.yul\":2715:2738   */\n      mload\n        /* \"#utility.yul\":2751:2814   */\n      tag_113\n        /* \"#utility.yul\":2808:2812   */\n      0x20\n        /* \"#utility.yul\":2803:2806   */\n      dup6\n        /* \"#utility.yul\":2799:2813   */\n      add\n        /* \"#utility.yul\":2785:2797   */\n      dup3\n        /* \"#utility.yul\":2751:2814   */\n      tag_92\n      jump\t// in\n    tag_113:\n        /* \"#utility.yul\":2654:2824   */\n      pop\n        /* \"#utility.yul\":2911:2915   */\n      0x40\n        /* \"#utility.yul\":2904:2909   */\n      dup3\n        /* \"#utility.yul\":2900:2916   */\n      add\n        /* \"#utility.yul\":2894:2917   */\n      mload\n        /* \"#utility.yul\":2930:2993   */\n      tag_114\n        /* \"#utility.yul\":2987:2991   */\n      0x40\n        /* \"#utility.yul\":2982:2985   */\n      dup6\n        /* \"#utility.yul\":2978:2992   */\n      add\n        /* \"#utility.yul\":2964:2976   */\n      dup3\n        /* \"#utility.yul\":2930:2993   */\n      tag_112\n      jump\t// in\n    tag_114:\n        /* \"#utility.yul\":2834:3003   */\n      pop\n        /* \"#utility.yul\":3097:3101   */\n      0x60\n        /* \"#utility.yul\":3090:3095   */\n      dup3\n        /* \"#utility.yul\":3086:3102   */\n      add\n        /* \"#utility.yul\":3080:3103   */\n      mload\n        /* \"#utility.yul\":3116:3179   */\n      tag_115\n        /* \"#utility.yul\":3173:3177   */\n      0x60\n        /* \"#utility.yul\":3168:3171   */\n      dup6\n        /* \"#utility.yul\":3164:3178   */\n      add\n        /* \"#utility.yul\":3150:3162   */\n      dup3\n        /* \"#utility.yul\":3116:3179   */\n      tag_112\n      jump\t// in\n    tag_115:\n        /* \"#utility.yul\":3013:3189   */\n      pop\n        /* \"#utility.yul\":2432:3196   */\n      pop\n        /* \"#utility.yul\":2336:3196   */\n      pop\n      pop\n      jump\t// out\n        /* \"#utility.yul\":3202:3310   */\n    tag_112:\n        /* \"#utility.yul\":3279:3303   */\n      tag_117\n        /* \"#utility.yul\":3297:3302   */\n      dup2\n        /* \"#utility.yul\":3279:3303   */\n      tag_118\n      jump\t// in\n    tag_117:\n        /* \"#utility.yul\":3274:3277   */\n      dup3\n        /* \"#utility.yul\":3267:3304   */\n      mstore\n        /* \"#utility.yul\":3202:3310   */\n      pop\n      pop\n      jump\t// out\n        /* \"#utility.yul\":3316:3434   */\n    tag_119:\n        /* \"#utility.yul\":3403:3427   */\n      tag_121\n        /* \"#utility.yul\":3421:3426   */\n      dup2\n        /* \"#utility.yul\":3403:3427   */\n      tag_118\n      jump\t// in\n    tag_121:\n        /* \"#utility.yul\":3398:3401   */\n      dup3\n        /* \"#utility.yul\":3391:3428   */\n      mstore\n        /* \"#utility.yul\":3316:3434   */\n      pop\n      pop\n      jump\t// out\n        /* \"#utility.yul\":3440:3893   */\n    tag_26:\n        /* \"#utility.yul\":3623:3627   */\n      0x00\n        /* \"#utility.yul\":3661:3663   */\n      0x20\n        /* \"#utility.yul\":3650:3659   */\n      dup3\n        /* \"#utility.yul\":3646:3664   */\n      add\n        /* \"#utility.yul\":3638:3664   */\n      swap1\n      pop\n        /* \"#utility.yul\":3710:3719   */\n      dup2\n        /* \"#utility.yul\":3704:3708   */\n      dup2\n        /* \"#utility.yul\":3700:3720   */\n      sub\n        /* \"#utility.yul\":3696:3697   */\n      0x00\n        /* \"#utility.yul\":3685:3694   */\n      dup4\n        /* \"#utility.yul\":3681:3698   */\n      add\n        /* \"#utility.yul\":3674:3721   */\n      mstore\n        /* \"#utility.yul\":3738:3886   */\n      tag_123\n        /* \"#utility.yul\":3881:3885   */\n      dup2\n        /* \"#utility.yul\":3872:3878   */\n      dup5\n        /* \"#utility.yul\":3738:3886   */\n      tag_96\n      jump\t// in\n    tag_123:\n        /* \"#utility.yul\":3730:3886   */\n      swap1\n      pop\n        /* \"#utility.yul\":3440:3893   */\n      swap3\n      swap2\n      pop\n      pop\n      jump\t// out\n        /* \"#utility.yul\":3899:4121   */\n    tag_18:\n        /* \"#utility.yul\":3992:3996   */\n      0x00\n        /* \"#utility.yul\":4030:4032   */\n      0x20\n        /* \"#utility.yul\":4019:4028   */\n      dup3\n        /* \"#utility.yul\":4015:4033   */\n      add\n        /* \"#utility.yul\":4007:4033   */\n      swap1\n      pop\n        /* \"#utility.yul\":4043:4114   */\n      tag_125\n        /* \"#utility.yul\":4111:4112   */\n      0x00\n        /* \"#utility.yul\":4100:4109   */\n      dup4\n        /* \"#utility.yul\":4096:4113   */\n      add\n        /* \"#utility.yul\":4087:4093   */\n      dup5\n        /* \"#utility.yul\":4043:4114   */\n      tag_119\n      jump\t// in\n    tag_125:\n        /* \"#utility.yul\":3899:4121   */\n      swap3\n      swap2\n      pop\n      pop\n      jump\t// out\n        /* \"#utility.yul\":4208:4360   */\n    tag_103:\n        /* \"#utility.yul\":4295:4299   */\n      0x00\n        /* \"#utility.yul\":4318:4321   */\n      dup2\n        /* \"#utility.yul\":4310:4321   */\n      swap1\n      pop\n        /* \"#utility.yul\":4348:4352   */\n      0x20\n        /* \"#utility.yul\":4343:4346   */\n      dup3\n        /* \"#utility.yul\":4339:4353   */\n      add\n        /* \"#utility.yul\":4331:4353   */\n      swap1\n      pop\n        /* \"#utility.yul\":4208:4360   */\n      swap2\n      swap1\n      pop\n      jump\t// out\n        /* \"#utility.yul\":4366:4500   */\n    tag_99:\n        /* \"#utility.yul\":4453:4459   */\n      0x00\n        /* \"#utility.yul\":4487:4492   */\n      dup2\n        /* \"#utility.yul\":4481:4493   */\n      mload\n        /* \"#utility.yul\":4471:4493   */\n      swap1\n      pop\n        /* \"#utility.yul\":4366:4500   */\n      swap2\n      swap1\n      pop\n      jump\t// out\n        /* \"#utility.yul\":4506:4639   */\n    tag_109:\n        /* \"#utility.yul\":4596:4600   */\n      0x00\n        /* \"#utility.yul\":4628:4632   */\n      0x20\n        /* \"#utility.yul\":4623:4626   */\n      dup3\n        /* \"#utility.yul\":4619:4633   */\n      add\n        /* \"#utility.yul\":4611:4633   */\n      swap1\n      pop\n        /* \"#utility.yul\":4506:4639   */\n      swap2\n      swap1\n      pop\n      jump\t// out\n        /* \"#utility.yul\":4645:4849   */\n    tag_101:\n        /* \"#utility.yul\":4764:4775   */\n      0x00\n        /* \"#utility.yul\":4798:4804   */\n      dup3\n        /* \"#utility.yul\":4793:4796   */\n      dup3\n        /* \"#utility.yul\":4786:4805   */\n      mstore\n        /* \"#utility.yul\":4838:4842   */\n      0x20\n        /* \"#utility.yul\":4833:4836   */\n      dup3\n        /* \"#utility.yul\":4829:4843   */\n      add\n        /* \"#utility.yul\":4814:4843   */\n      swap1\n      pop\n        /* \"#utility.yul\":4645:4849   */\n      swap3\n      swap2\n      pop\n      pop\n      jump\t// out\n        /* \"#utility.yul\":4855:5160   */\n    tag_53:\n        /* \"#utility.yul\":4895:4898   */\n      0x00\n        /* \"#utility.yul\":4914:4934   */\n      tag_133\n        /* \"#utility.yul\":4932:4933   */\n      dup3\n        /* \"#utility.yul\":4914:4934   */\n      tag_118\n      jump\t// in\n    tag_133:\n        /* \"#utility.yul\":4909:4934   */\n      swap2\n      pop\n        /* \"#utility.yul\":4948:4968   */\n      tag_134\n        /* \"#utility.yul\":4966:4967   */\n      dup4\n        /* \"#utility.yul\":4948:4968   */\n      tag_118\n      jump\t// in\n    tag_134:\n        /* \"#utility.yul\":4943:4968   */\n      swap3\n      pop\n        /* \"#utility.yul\":5102:5103   */\n      dup3\n        /* \"#utility.yul\":5034:5100   */\n      0xffffffffffffffffffffffffffffffffffffffffffffffffffffffffffffffff\n        /* \"#utility.yul\":5030:5104   */\n      sub\n        /* \"#utility.yul\":5027:5028   */\n      dup3\n        /* \"#utility.yul\":5024:5105   */\n      gt\n        /* \"#utility.yul\":5021:5128   */\n      iszero\n      tag_135\n      jumpi\n        /* \"#utility.yul\":5108:5126   */\n      tag_136\n      tag_137\n      jump\t// in\n    tag_136:\n        /* \"#utility.yul\":5021:5128   */\n    tag_135:\n        /* \"#utility.yul\":5152:5153   */\n      dup3\n        /* \"#utility.yul\":5149:5150   */\n      dup3\n        /* \"#utility.yul\":5145:5154   */\n      add\n        /* \"#utility.yul\":5138:5154   */\n      swap1\n      pop\n        /* \"#utility.yul\":4855:5160   */\n      swap3\n      swap2\n      pop\n      pop\n      jump\t// out\n        /* \"#utility.yul\":5166:5357   */\n    tag_37:\n        /* \"#utility.yul\":5206:5210   */\n      0x00\n        /* \"#utility.yul\":5226:5246   */\n      tag_139\n        /* \"#utility.yul\":5244:5245   */\n      dup3\n        /* \"#utility.yul\":5226:5246   */\n      tag_118\n      jump\t// in\n    tag_139:\n        /* \"#utility.yul\":5221:5246   */\n      swap2\n      pop\n        /* \"#utility.yul\":5260:5280   */\n      tag_140\n        /* \"#utility.yul\":5278:5279   */\n      dup4\n        /* \"#utility.yul\":5260:5280   */\n      tag_118\n      jump\t// in\n    tag_140:\n        /* \"#utility.yul\":5255:5280   */\n      swap3\n      pop\n        /* \"#utility.yul\":5299:5300   */\n      dup3\n        /* \"#utility.yul\":5296:5297   */\n      dup3\n        /* \"#utility.yul\":5293:5301   */\n      lt\n        /* \"#utility.yul\":5290:5324   */\n      iszero\n      tag_141\n      jumpi\n        /* \"#utility.yul\":5304:5322   */\n      tag_142\n      tag_137\n      jump\t// in\n    tag_142:\n        /* \"#utility.yul\":5290:5324   */\n    tag_141:\n        /* \"#utility.yul\":5349:5350   */\n      dup3\n        /* \"#utility.yul\":5346:5347   */\n      dup3\n        /* \"#utility.yul\":5342:5351   */\n      sub\n        /* \"#utility.yul\":5334:5351   */\n      swap1\n      pop\n        /* \"#utility.yul\":5166:5357   */\n      swap3\n      swap2\n      pop\n      pop\n      jump\t// out\n        /* \"#utility.yul\":5363:5459   */\n    tag_95:\n        /* \"#utility.yul\":5400:5407   */\n      0x00\n        /* \"#utility.yul\":5429:5453   */\n      tag_144\n        /* \"#utility.yul\":5447:5452   */\n      dup3\n        /* \"#utility.yul\":5429:5453   */\n      tag_145\n      jump\t// in\n    tag_144:\n        /* \"#utility.yul\":5418:5453   */\n      swap1\n      pop\n        /* \"#utility.yul\":5363:5459   */\n      swap2\n      swap1\n      pop\n      jump\t// out\n        /* \"#utility.yul\":5465:5591   */\n    tag_145:\n        /* \"#utility.yul\":5502:5509   */\n      0x00\n        /* \"#utility.yul\":5542:5584   */\n      0xffffffffffffffffffffffffffffffffffffffff\n        /* \"#utility.yul\":5535:5540   */\n      dup3\n        /* \"#utility.yul\":5531:5585   */\n      and\n        /* \"#utility.yul\":5520:5585   */\n      swap1\n      pop\n        /* \"#utility.yul\":5465:5591   */\n      swap2\n      swap1\n      pop\n      jump\t// out\n        /* \"#utility.yul\":5597:5674   */\n    tag_118:\n        /* \"#utility.yul\":5634:5641   */\n      0x00\n        /* \"#utility.yul\":5663:5668   */\n      dup2\n        /* \"#utility.yul\":5652:5668   */\n      swap1\n      pop\n        /* \"#utility.yul\":5597:5674   */\n      swap2\n      swap1\n      pop\n      jump\t// out\n        /* \"#utility.yul\":5680:5913   */\n    tag_49:\n        /* \"#utility.yul\":5719:5722   */\n      0x00\n        /* \"#utility.yul\":5742:5766   */\n      tag_149\n        /* \"#utility.yul\":5760:5765   */\n      dup3\n        /* \"#utility.yul\":5742:5766   */\n      tag_118\n      jump\t// in\n    tag_149:\n        /* \"#utility.yul\":5733:5766   */\n      swap2\n      pop\n        /* \"#utility.yul\":5788:5854   */\n      0xffffffffffffffffffffffffffffffffffffffffffffffffffffffffffffffff\n        /* \"#utility.yul\":5781:5786   */\n      dup3\n        /* \"#utility.yul\":5778:5855   */\n      eq\n        /* \"#utility.yul\":5775:5878   */\n      iszero\n      tag_150\n      jumpi\n        /* \"#utility.yul\":5858:5876   */\n      tag_151\n      tag_137\n      jump\t// in\n    tag_151:\n        /* \"#utility.yul\":5775:5878   */\n    tag_150:\n        /* \"#utility.yul\":5905:5906   */\n      0x01\n        /* \"#utility.yul\":5898:5903   */\n      dup3\n        /* \"#utility.yul\":5894:5907   */\n      add\n        /* \"#utility.yul\":5887:5907   */\n      swap1\n      pop\n        /* \"#utility.yul\":5680:5913   */\n      swap2\n      swap1\n      pop\n      jump\t// out\n        /* \"#utility.yul\":5919:6099   */\n    tag_137:\n        /* \"#utility.yul\":5967:6044   */\n      0x4e487b7100000000000000000000000000000000000000000000000000000000\n        /* \"#utility.yul\":5964:5965   */\n      0x00\n        /* \"#utility.yul\":5957:6045   */\n      mstore\n        /* \"#utility.yul\":6064:6068   */\n      0x11\n        /* \"#utility.yul\":6061:6062   */\n      0x04\n        /* \"#utility.yul\":6054:6069   */\n      mstore\n        /* \"#utility.yul\":6088:6092   */\n      0x24\n        /* \"#utility.yul\":6085:6086   */\n      0x00\n        /* \"#utility.yul\":6078:6093   */\n      revert\n        /* \"#utility.yul\":6105:6285   */\n    tag_46:\n        /* \"#utility.yul\":6153:6230   */\n      0x4e487b7100000000000000000000000000000000000000000000000000000000\n        /* \"#utility.yul\":6150:6151   */\n      0x00\n        /* \"#utility.yul\":6143:6231   */\n      mstore\n        /* \"#utility.yul\":6250:6254   */\n      0x31\n        /* \"#utility.yul\":6247:6248   */\n      0x04\n        /* \"#utility.yul\":6240:6255   */\n      mstore\n        /* \"#utility.yul\":6274:6278   */\n      0x24\n        /* \"#utility.yul\":6271:6272   */\n      0x00\n        /* \"#utility.yul\":6264:6279   */\n      revert\n        /* \"#utility.yul\":6291:6471   */\n    tag_33:\n        /* \"#utility.yul\":6339:6416   */\n      0x4e487b7100000000000000000000000000000000000000000000000000000000\n        /* \"#utility.yul\":6336:6337   */\n      0x00\n        /* \"#utility.yul\":6329:6417   */\n      mstore\n        /* \"#utility.yul\":6436:6440   */\n      0x32\n        /* \"#utility.yul\":6433:6434   */\n      0x04\n        /* \"#utility.yul\":6426:6441   */\n      mstore\n        /* \"#utility.yul\":6460:6464   */\n      0x24\n        /* \"#utility.yul\":6457:6458   */\n      0x00\n        /* \"#utility.yul\":6450:6465   */\n      revert\n        /* \"#utility.yul\":6600:6717   */\n    tag_81:\n        /* \"#utility.yul\":6709:6710   */\n      0x00\n        /* \"#utility.yul\":6706:6707   */\n      dup1\n        /* \"#utility.yul\":6699:6711   */\n      revert\n        /* \"#utility.yul\":6723:6845   */\n    tag_77:\n        /* \"#utility.yul\":6796:6820   */\n      tag_159\n        /* \"#utility.yul\":6814:6819   */\n      dup2\n        /* \"#utility.yul\":6796:6820   */\n      tag_118\n      jump\t// in\n    tag_159:\n        /* \"#utility.yul\":6789:6794   */\n      dup2\n        /* \"#utility.yul\":6786:6821   */\n      eq\n        /* \"#utility.yul\":6776:6839   */\n      tag_160\n      jumpi\n        /* \"#utility.yul\":6835:6836   */\n      0x00\n        /* \"#utility.yul\":6832:6833   */\n      dup1\n        /* \"#utility.yul\":6825:6837   */\n      revert\n        /* \"#utility.yul\":6776:6839   */\n    tag_160:\n        /* \"#utility.yul\":6723:6845   */\n      pop\n      jump\t// out\n\n    auxdata: 0xa264697066735822122020123842d1accf5a3409eca473087a33165efb9900f062b88ed29c0e272420d664736f6c63430008070033\n}\n",
				"bytecode": {
					"linkReferences": {},
					"object": "608060405234801561001057600080fd5b50610ba3806100206000396000f3fe608060405234801561001057600080fd5b50600436106100575760003560e01c8063094cd5ee1461005c5780631d69bd4814610078578063664b104b14610094578063b3de019c146100b2578063cc4ef2cc146100ce575b600080fd5b610076600480360381019061007191906107da565b6100ec565b005b610092600480360381019061008d91906107da565b6103f9565b005b61009c61051f565b6040516100a99190610961565b60405180910390f35b6100cc60048036038101906100c79190610807565b610525565b005b6100d66106b5565b6040516100e3919061093f565b60405180910390f35b60005b600160003373ffffffffffffffffffffffffffffffffffffffff1673ffffffffffffffffffffffffffffffffffffffff168152602001908152602001600020805490508110156103f557600160003373ffffffffffffffffffffffffffffffffffffffff1673ffffffffffffffffffffffffffffffffffffffff168152602001908152602001600020818154811061018a57610189610b22565b5b9060005260206000209060040201600001548214156103e257600160003373ffffffffffffffffffffffffffffffffffffffff1673ffffffffffffffffffffffffffffffffffffffff16815260200190815260200160002060018060003373ffffffffffffffffffffffffffffffffffffffff1673ffffffffffffffffffffffffffffffffffffffff168152602001908152602001600020805490506102309190610a0b565b8154811061024157610240610b22565b5b9060005260206000209060040201600160003373ffffffffffffffffffffffffffffffffffffffff1673ffffffffffffffffffffffffffffffffffffffff16815260200190815260200160002082815481106102a05761029f610b22565b5b9060005260206000209060040201600082015481600001556001820160009054906101000a900473ffffffffffffffffffffffffffffffffffffffff168160010160006101000a81548173ffffffffffffffffffffffffffffffffffffffff021916908373ffffffffffffffffffffffffffffffffffffffff1602179055506002820154816002015560038201548160030155905050600160003373ffffffffffffffffffffffffffffffffffffffff1673ffffffffffffffffffffffffffffffffffffffff16815260200190815260200160002080548061038557610384610af3565b5b60019003818190600052602060002090600402016000808201600090556001820160006101000a81549073ffffffffffffffffffffffffffffffffffffffff021916905560028201600090556003820160009055505090556103f5565b80806103ed90610a7b565b9150506100ef565b5050565b6000604051806080016040528060005481526020013373ffffffffffffffffffffffffffffffffffffffff168152602001838152602001428152509050600160003373ffffffffffffffffffffffffffffffffffffffff1673ffffffffffffffffffffffffffffffffffffffff1681526020019081526020016000208190806001815401808255809150506001900390600052602060002090600402016000909190919091506000820151816000015560208201518160010160006101000a81548173ffffffffffffffffffffffffffffffffffffffff021916908373ffffffffffffffffffffffffffffffffffffffff16021790555060408201518160020155606082015181600301555050600160005461051591906109b5565b6000819055505050565b60005481565b600160003373ffffffffffffffffffffffffffffffffffffffff1673ffffffffffffffffffffffffffffffffffffffff168152602001908152602001600020805490508210610573576106b1565b60005b600160003373ffffffffffffffffffffffffffffffffffffffff1673ffffffffffffffffffffffffffffffffffffffff168152602001908152602001600020805490508110156106af57600160003373ffffffffffffffffffffffffffffffffffffffff1673ffffffffffffffffffffffffffffffffffffffff168152602001908152602001600020818154811061061157610610610b22565b5b9060005260206000209060040201600001548314156106965781600160003373ffffffffffffffffffffffffffffffffffffffff1673ffffffffffffffffffffffffffffffffffffffff168152602001908152602001600020828154811061067c5761067b610b22565b5b90600052602060002090600402016002018190555061069c565b506106b1565b80806106a790610a7b565b915050610576565b505b5050565b6060600160003373ffffffffffffffffffffffffffffffffffffffff1673ffffffffffffffffffffffffffffffffffffffff168152602001908152602001600020805480602002602001604051908101604052809291908181526020016000905b828210156107bc5783829060005260206000209060040201604051806080016040529081600082015481526020016001820160009054906101000a900473ffffffffffffffffffffffffffffffffffffffff1673ffffffffffffffffffffffffffffffffffffffff1673ffffffffffffffffffffffffffffffffffffffff1681526020016002820154815260200160038201548152505081526020019060010190610716565b50505050905090565b6000813590506107d481610b56565b92915050565b6000602082840312156107f0576107ef610b51565b5b60006107fe848285016107c5565b91505092915050565b6000806040838503121561081e5761081d610b51565b5b600061082c858286016107c5565b925050602061083d858286016107c5565b9150509250929050565b600061085383836108cc565b60808301905092915050565b61086881610a3f565b82525050565b60006108798261098c565b61088381856109a4565b935061088e8361097c565b8060005b838110156108bf5781516108a68882610847565b97506108b183610997565b925050600181019050610892565b5085935050505092915050565b6080820160008201516108e26000850182610921565b5060208201516108f5602085018261085f565b5060408201516109086040850182610921565b50606082015161091b6060850182610921565b50505050565b61092a81610a71565b82525050565b61093981610a71565b82525050565b60006020820190508181036000830152610959818461086e565b905092915050565b60006020820190506109766000830184610930565b92915050565b6000819050602082019050919050565b600081519050919050565b6000602082019050919050565b600082825260208201905092915050565b60006109c082610a71565b91506109cb83610a71565b9250827fffffffffffffffffffffffffffffffffffffffffffffffffffffffffffffffff03821115610a00576109ff610ac4565b5b828201905092915050565b6000610a1682610a71565b9150610a2183610a71565b925082821015610a3457610a33610ac4565b5b828203905092915050565b6000610a4a82610a51565b9050919050565b600073ffffffffffffffffffffffffffffffffffffffff82169050919050565b6000819050919050565b6000610a8682610a71565b91507fffffffffffffffffffffffffffffffffffffffffffffffffffffffffffffffff821415610ab957610ab8610ac4565b5b600182019050919050565b7f4e487b7100000000000000000000000000000000000000000000000000000000600052601160045260246000fd5b7f4e487b7100000000000000000000000000000000000000000000000000000000600052603160045260246000fd5b7f4e487b7100000000000000000000000000000000000000000000000000000000600052603260045260246000fd5b600080fd5b610b5f81610a71565b8114610b6a57600080fd5b5056fea264697066735822122020123842d1accf5a3409eca473087a33165efb9900f062b88ed29c0e272420d664736f6c63430008070033",
					"opcodes": "PUSH1 0x80 PUSH1 0x40 MSTORE CALLVALUE DUP1 ISZERO PUSH2 0x10 JUMPI PUSH1 0x0 DUP1 REVERT JUMPDEST POP PUSH2 0xBA3 DUP1 PUSH2 0x20 PUSH1 0x0 CODECOPY PUSH1 0x0 RETURN INVALID PUSH1 0x80 PUSH1 0x40 MSTORE CALLVALUE DUP1 ISZERO PUSH2 0x10 JUMPI PUSH1 0x0 DUP1 REVERT JUMPDEST POP PUSH1 0x4 CALLDATASIZE LT PUSH2 0x57 JUMPI PUSH1 0x0 CALLDATALOAD PUSH1 0xE0 SHR DUP1 PUSH4 0x94CD5EE EQ PUSH2 0x5C JUMPI DUP1 PUSH4 0x1D69BD48 EQ PUSH2 0x78 JUMPI DUP1 PUSH4 0x664B104B EQ PUSH2 0x94 JUMPI DUP1 PUSH4 0xB3DE019C EQ PUSH2 0xB2 JUMPI DUP1 PUSH4 0xCC4EF2CC EQ PUSH2 0xCE JUMPI JUMPDEST PUSH1 0x0 DUP1 REVERT JUMPDEST PUSH2 0x76 PUSH1 0x4 DUP1 CALLDATASIZE SUB DUP2 ADD SWAP1 PUSH2 0x71 SWAP2 SWAP1 PUSH2 0x7DA JUMP JUMPDEST PUSH2 0xEC JUMP JUMPDEST STOP JUMPDEST PUSH2 0x92 PUSH1 0x4 DUP1 CALLDATASIZE SUB DUP2 ADD SWAP1 PUSH2 0x8D SWAP2 SWAP1 PUSH2 0x7DA JUMP JUMPDEST PUSH2 0x3F9 JUMP JUMPDEST STOP JUMPDEST PUSH2 0x9C PUSH2 0x51F JUMP JUMPDEST PUSH1 0x40 MLOAD PUSH2 0xA9 SWAP2 SWAP1 PUSH2 0x961 JUMP JUMPDEST PUSH1 0x40 MLOAD DUP1 SWAP2 SUB SWAP1 RETURN JUMPDEST PUSH2 0xCC PUSH1 0x4 DUP1 CALLDATASIZE SUB DUP2 ADD SWAP1 PUSH2 0xC7 SWAP2 SWAP1 PUSH2 0x807 JUMP JUMPDEST PUSH2 0x525 JUMP JUMPDEST STOP JUMPDEST PUSH2 0xD6 PUSH2 0x6B5 JUMP JUMPDEST PUSH1 0x40 MLOAD PUSH2 0xE3 SWAP2 SWAP1 PUSH2 0x93F JUMP JUMPDEST PUSH1 0x40 MLOAD DUP1 SWAP2 SUB SWAP1 RETURN JUMPDEST PUSH1 0x0 JUMPDEST PUSH1 0x1 PUSH1 0x0 CALLER PUSH20 0xFFFFFFFFFFFFFFFFFFFFFFFFFFFFFFFFFFFFFFFF AND PUSH20 0xFFFFFFFFFFFFFFFFFFFFFFFFFFFFFFFFFFFFFFFF AND DUP2 MSTORE PUSH1 0x20 ADD SWAP1 DUP2 MSTORE PUSH1 0x20 ADD PUSH1 0x0 KECCAK256 DUP1 SLOAD SWAP1 POP DUP2 LT ISZERO PUSH2 0x3F5 JUMPI PUSH1 0x1 PUSH1 0x0 CALLER PUSH20 0xFFFFFFFFFFFFFFFFFFFFFFFFFFFFFFFFFFFFFFFF AND PUSH20 0xFFFFFFFFFFFFFFFFFFFFFFFFFFFFFFFFFFFFFFFF AND DUP2 MSTORE PUSH1 0x20 ADD SWAP1 DUP2 MSTORE PUSH1 0x20 ADD PUSH1 0x0 KECCAK256 DUP2 DUP2 SLOAD DUP2 LT PUSH2 0x18A JUMPI PUSH2 0x189 PUSH2 0xB22 JUMP JUMPDEST JUMPDEST SWAP1 PUSH1 0x0 MSTORE PUSH1 0x20 PUSH1 0x0 KECCAK256 SWAP1 PUSH1 0x4 MUL ADD PUSH1 0x0 ADD SLOAD DUP3 EQ ISZERO PUSH2 0x3E2 JUMPI PUSH1 0x1 PUSH1 0x0 CALLER PUSH20 0xFFFFFFFFFFFFFFFFFFFFFFFFFFFFFFFFFFFFFFFF AND PUSH20 0xFFFFFFFFFFFFFFFFFFFFFFFFFFFFFFFFFFFFFFFF AND DUP2 MSTORE PUSH1 0x20 ADD SWAP1 DUP2 MSTORE PUSH1 0x20 ADD PUSH1 0x0 KECCAK256 PUSH1 0x1 DUP1 PUSH1 0x0 CALLER PUSH20 0xFFFFFFFFFFFFFFFFFFFFFFFFFFFFFFFFFFFFFFFF AND PUSH20 0xFFFFFFFFFFFFFFFFFFFFFFFFFFFFFFFFFFFFFFFF AND DUP2 MSTORE PUSH1 0x20 ADD SWAP1 DUP2 MSTORE PUSH1 0x20 ADD PUSH1 0x0 KECCAK256 DUP1 SLOAD SWAP1 POP PUSH2 0x230 SWAP2 SWAP1 PUSH2 0xA0B JUMP JUMPDEST DUP2 SLOAD DUP2 LT PUSH2 0x241 JUMPI PUSH2 0x240 PUSH2 0xB22 JUMP JUMPDEST JUMPDEST SWAP1 PUSH1 0x0 MSTORE PUSH1 0x20 PUSH1 0x0 KECCAK256 SWAP1 PUSH1 0x4 MUL ADD PUSH1 0x1 PUSH1 0x0 CALLER PUSH20 0xFFFFFFFFFFFFFFFFFFFFFFFFFFFFFFFFFFFFFFFF AND PUSH20 0xFFFFFFFFFFFFFFFFFFFFFFFFFFFFFFFFFFFFFFFF AND DUP2 MSTORE PUSH1 0x20 ADD SWAP1 DUP2 MSTORE PUSH1 0x20 ADD PUSH1 0x0 KECCAK256 DUP3 DUP2 SLOAD DUP2 LT PUSH2 0x2A0 JUMPI PUSH2 0x29F PUSH2 0xB22 JUMP JUMPDEST JUMPDEST SWAP1 PUSH1 0x0 MSTORE PUSH1 0x20 PUSH1 0x0 KECCAK256 SWAP1 PUSH1 0x4 MUL ADD PUSH1 0x0 DUP3 ADD SLOAD DUP2 PUSH1 0x0 ADD SSTORE PUSH1 0x1 DUP3 ADD PUSH1 0x0 SWAP1 SLOAD SWAP1 PUSH2 0x100 EXP SWAP1 DIV PUSH20 0xFFFFFFFFFFFFFFFFFFFFFFFFFFFFFFFFFFFFFFFF AND DUP2 PUSH1 0x1 ADD PUSH1 0x0 PUSH2 0x100 EXP DUP2 SLOAD DUP2 PUSH20 0xFFFFFFFFFFFFFFFFFFFFFFFFFFFFFFFFFFFFFFFF MUL NOT AND SWAP1 DUP4 PUSH20 0xFFFFFFFFFFFFFFFFFFFFFFFFFFFFFFFFFFFFFFFF AND MUL OR SWAP1 SSTORE POP PUSH1 0x2 DUP3 ADD SLOAD DUP2 PUSH1 0x2 ADD SSTORE PUSH1 0x3 DUP3 ADD SLOAD DUP2 PUSH1 0x3 ADD SSTORE SWAP1 POP POP PUSH1 0x1 PUSH1 0x0 CALLER PUSH20 0xFFFFFFFFFFFFFFFFFFFFFFFFFFFFFFFFFFFFFFFF AND PUSH20 0xFFFFFFFFFFFFFFFFFFFFFFFFFFFFFFFFFFFFFFFF AND DUP2 MSTORE PUSH1 0x20 ADD SWAP1 DUP2 MSTORE PUSH1 0x20 ADD PUSH1 0x0 KECCAK256 DUP1 SLOAD DUP1 PUSH2 0x385 JUMPI PUSH2 0x384 PUSH2 0xAF3 JUMP JUMPDEST JUMPDEST PUSH1 0x1 SWAP1 SUB DUP2 DUP2 SWAP1 PUSH1 0x0 MSTORE PUSH1 0x20 PUSH1 0x0 KECCAK256 SWAP1 PUSH1 0x4 MUL ADD PUSH1 0x0 DUP1 DUP3 ADD PUSH1 0x0 SWAP1 SSTORE PUSH1 0x1 DUP3 ADD PUSH1 0x0 PUSH2 0x100 EXP DUP2 SLOAD SWAP1 PUSH20 0xFFFFFFFFFFFFFFFFFFFFFFFFFFFFFFFFFFFFFFFF MUL NOT AND SWAP1 SSTORE PUSH1 0x2 DUP3 ADD PUSH1 0x0 SWAP1 SSTORE PUSH1 0x3 DUP3 ADD PUSH1 0x0 SWAP1 SSTORE POP POP SWAP1 SSTORE PUSH2 0x3F5 JUMP JUMPDEST DUP1 DUP1 PUSH2 0x3ED SWAP1 PUSH2 0xA7B JUMP JUMPDEST SWAP2 POP POP PUSH2 0xEF JUMP JUMPDEST POP POP JUMP JUMPDEST PUSH1 0x0 PUSH1 0x40 MLOAD DUP1 PUSH1 0x80 ADD PUSH1 0x40 MSTORE DUP1 PUSH1 0x0 SLOAD DUP2 MSTORE PUSH1 0x20 ADD CALLER PUSH20 0xFFFFFFFFFFFFFFFFFFFFFFFFFFFFFFFFFFFFFFFF AND DUP2 MSTORE PUSH1 0x20 ADD DUP4 DUP2 MSTORE PUSH1 0x20 ADD TIMESTAMP DUP2 MSTORE POP SWAP1 POP PUSH1 0x1 PUSH1 0x0 CALLER PUSH20 0xFFFFFFFFFFFFFFFFFFFFFFFFFFFFFFFFFFFFFFFF AND PUSH20 0xFFFFFFFFFFFFFFFFFFFFFFFFFFFFFFFFFFFFFFFF AND DUP2 MSTORE PUSH1 0x20 ADD SWAP1 DUP2 MSTORE PUSH1 0x20 ADD PUSH1 0x0 KECCAK256 DUP2 SWAP1 DUP1 PUSH1 0x1 DUP2 SLOAD ADD DUP1 DUP3 SSTORE DUP1 SWAP2 POP POP PUSH1 0x1 SWAP1 SUB SWAP1 PUSH1 0x0 MSTORE PUSH1 0x20 PUSH1 0x0 KECCAK256 SWAP1 PUSH1 0x4 MUL ADD PUSH1 0x0 SWAP1 SWAP2 SWAP1 SWAP2 SWAP1 SWAP2 POP PUSH1 0x0 DUP3 ADD MLOAD DUP2 PUSH1 0x0 ADD SSTORE PUSH1 0x20 DUP3 ADD MLOAD DUP2 PUSH1 0x1 ADD PUSH1 0x0 PUSH2 0x100 EXP DUP2 SLOAD DUP2 PUSH20 0xFFFFFFFFFFFFFFFFFFFFFFFFFFFFFFFFFFFFFFFF MUL NOT AND SWAP1 DUP4 PUSH20 0xFFFFFFFFFFFFFFFFFFFFFFFFFFFFFFFFFFFFFFFF AND MUL OR SWAP1 SSTORE POP PUSH1 0x40 DUP3 ADD MLOAD DUP2 PUSH1 0x2 ADD SSTORE PUSH1 0x60 DUP3 ADD MLOAD DUP2 PUSH1 0x3 ADD SSTORE POP POP PUSH1 0x1 PUSH1 0x0 SLOAD PUSH2 0x515 SWAP2 SWAP1 PUSH2 0x9B5 JUMP JUMPDEST PUSH1 0x0 DUP2 SWAP1 SSTORE POP POP POP JUMP JUMPDEST PUSH1 0x0 SLOAD DUP2 JUMP JUMPDEST PUSH1 0x1 PUSH1 0x0 CALLER PUSH20 0xFFFFFFFFFFFFFFFFFFFFFFFFFFFFFFFFFFFFFFFF AND PUSH20 0xFFFFFFFFFFFFFFFFFFFFFFFFFFFFFFFFFFFFFFFF AND DUP2 MSTORE PUSH1 0x20 ADD SWAP1 DUP2 MSTORE PUSH1 0x20 ADD PUSH1 0x0 KECCAK256 DUP1 SLOAD SWAP1 POP DUP3 LT PUSH2 0x573 JUMPI PUSH2 0x6B1 JUMP JUMPDEST PUSH1 0x0 JUMPDEST PUSH1 0x1 PUSH1 0x0 CALLER PUSH20 0xFFFFFFFFFFFFFFFFFFFFFFFFFFFFFFFFFFFFFFFF AND PUSH20 0xFFFFFFFFFFFFFFFFFFFFFFFFFFFFFFFFFFFFFFFF AND DUP2 MSTORE PUSH1 0x20 ADD SWAP1 DUP2 MSTORE PUSH1 0x20 ADD PUSH1 0x0 KECCAK256 DUP1 SLOAD SWAP1 POP DUP2 LT ISZERO PUSH2 0x6AF JUMPI PUSH1 0x1 PUSH1 0x0 CALLER PUSH20 0xFFFFFFFFFFFFFFFFFFFFFFFFFFFFFFFFFFFFFFFF AND PUSH20 0xFFFFFFFFFFFFFFFFFFFFFFFFFFFFFFFFFFFFFFFF AND DUP2 MSTORE PUSH1 0x20 ADD SWAP1 DUP2 MSTORE PUSH1 0x20 ADD PUSH1 0x0 KECCAK256 DUP2 DUP2 SLOAD DUP2 LT PUSH2 0x611 JUMPI PUSH2 0x610 PUSH2 0xB22 JUMP JUMPDEST JUMPDEST SWAP1 PUSH1 0x0 MSTORE PUSH1 0x20 PUSH1 0x0 KECCAK256 SWAP1 PUSH1 0x4 MUL ADD PUSH1 0x0 ADD SLOAD DUP4 EQ ISZERO PUSH2 0x696 JUMPI DUP2 PUSH1 0x1 PUSH1 0x0 CALLER PUSH20 0xFFFFFFFFFFFFFFFFFFFFFFFFFFFFFFFFFFFFFFFF AND PUSH20 0xFFFFFFFFFFFFFFFFFFFFFFFFFFFFFFFFFFFFFFFF AND DUP2 MSTORE PUSH1 0x20 ADD SWAP1 DUP2 MSTORE PUSH1 0x20 ADD PUSH1 0x0 KECCAK256 DUP3 DUP2 SLOAD DUP2 LT PUSH2 0x67C JUMPI PUSH2 0x67B PUSH2 0xB22 JUMP JUMPDEST JUMPDEST SWAP1 PUSH1 0x0 MSTORE PUSH1 0x20 PUSH1 0x0 KECCAK256 SWAP1 PUSH1 0x4 MUL ADD PUSH1 0x2 ADD DUP2 SWAP1 SSTORE POP PUSH2 0x69C JUMP JUMPDEST POP PUSH2 0x6B1 JUMP JUMPDEST DUP1 DUP1 PUSH2 0x6A7 SWAP1 PUSH2 0xA7B JUMP JUMPDEST SWAP2 POP POP PUSH2 0x576 JUMP JUMPDEST POP JUMPDEST POP POP JUMP JUMPDEST PUSH1 0x60 PUSH1 0x1 PUSH1 0x0 CALLER PUSH20 0xFFFFFFFFFFFFFFFFFFFFFFFFFFFFFFFFFFFFFFFF AND PUSH20 0xFFFFFFFFFFFFFFFFFFFFFFFFFFFFFFFFFFFFFFFF AND DUP2 MSTORE PUSH1 0x20 ADD SWAP1 DUP2 MSTORE PUSH1 0x20 ADD PUSH1 0x0 KECCAK256 DUP1 SLOAD DUP1 PUSH1 0x20 MUL PUSH1 0x20 ADD PUSH1 0x40 MLOAD SWAP1 DUP2 ADD PUSH1 0x40 MSTORE DUP1 SWAP3 SWAP2 SWAP1 DUP2 DUP2 MSTORE PUSH1 0x20 ADD PUSH1 0x0 SWAP1 JUMPDEST DUP3 DUP3 LT ISZERO PUSH2 0x7BC JUMPI DUP4 DUP3 SWAP1 PUSH1 0x0 MSTORE PUSH1 0x20 PUSH1 0x0 KECCAK256 SWAP1 PUSH1 0x4 MUL ADD PUSH1 0x40 MLOAD DUP1 PUSH1 0x80 ADD PUSH1 0x40 MSTORE SWAP1 DUP2 PUSH1 0x0 DUP3 ADD SLOAD DUP2 MSTORE PUSH1 0x20 ADD PUSH1 0x1 DUP3 ADD PUSH1 0x0 SWAP1 SLOAD SWAP1 PUSH2 0x100 EXP SWAP1 DIV PUSH20 0xFFFFFFFFFFFFFFFFFFFFFFFFFFFFFFFFFFFFFFFF AND PUSH20 0xFFFFFFFFFFFFFFFFFFFFFFFFFFFFFFFFFFFFFFFF AND PUSH20 0xFFFFFFFFFFFFFFFFFFFFFFFFFFFFFFFFFFFFFFFF AND DUP2 MSTORE PUSH1 0x20 ADD PUSH1 0x2 DUP3 ADD SLOAD DUP2 MSTORE PUSH1 0x20 ADD PUSH1 0x3 DUP3 ADD SLOAD DUP2 MSTORE POP POP DUP2 MSTORE PUSH1 0x20 ADD SWAP1 PUSH1 0x1 ADD SWAP1 PUSH2 0x716 JUMP JUMPDEST POP POP POP POP SWAP1 POP SWAP1 JUMP JUMPDEST PUSH1 0x0 DUP2 CALLDATALOAD SWAP1 POP PUSH2 0x7D4 DUP2 PUSH2 0xB56 JUMP JUMPDEST SWAP3 SWAP2 POP POP JUMP JUMPDEST PUSH1 0x0 PUSH1 0x20 DUP3 DUP5 SUB SLT ISZERO PUSH2 0x7F0 JUMPI PUSH2 0x7EF PUSH2 0xB51 JUMP JUMPDEST JUMPDEST PUSH1 0x0 PUSH2 0x7FE DUP5 DUP3 DUP6 ADD PUSH2 0x7C5 JUMP JUMPDEST SWAP2 POP POP SWAP3 SWAP2 POP POP JUMP JUMPDEST PUSH1 0x0 DUP1 PUSH1 0x40 DUP4 DUP6 SUB SLT ISZERO PUSH2 0x81E JUMPI PUSH2 0x81D PUSH2 0xB51 JUMP JUMPDEST JUMPDEST PUSH1 0x0 PUSH2 0x82C DUP6 DUP3 DUP7 ADD PUSH2 0x7C5 JUMP JUMPDEST SWAP3 POP POP PUSH1 0x20 PUSH2 0x83D DUP6 DUP3 DUP7 ADD PUSH2 0x7C5 JUMP JUMPDEST SWAP2 POP POP SWAP3 POP SWAP3 SWAP1 POP JUMP JUMPDEST PUSH1 0x0 PUSH2 0x853 DUP4 DUP4 PUSH2 0x8CC JUMP JUMPDEST PUSH1 0x80 DUP4 ADD SWAP1 POP SWAP3 SWAP2 POP POP JUMP JUMPDEST PUSH2 0x868 DUP2 PUSH2 0xA3F JUMP JUMPDEST DUP3 MSTORE POP POP JUMP JUMPDEST PUSH1 0x0 PUSH2 0x879 DUP3 PUSH2 0x98C JUMP JUMPDEST PUSH2 0x883 DUP2 DUP6 PUSH2 0x9A4 JUMP JUMPDEST SWAP4 POP PUSH2 0x88E DUP4 PUSH2 0x97C JUMP JUMPDEST DUP1 PUSH1 0x0 JUMPDEST DUP4 DUP2 LT ISZERO PUSH2 0x8BF JUMPI DUP2 MLOAD PUSH2 0x8A6 DUP9 DUP3 PUSH2 0x847 JUMP JUMPDEST SWAP8 POP PUSH2 0x8B1 DUP4 PUSH2 0x997 JUMP JUMPDEST SWAP3 POP POP PUSH1 0x1 DUP2 ADD SWAP1 POP PUSH2 0x892 JUMP JUMPDEST POP DUP6 SWAP4 POP POP POP POP SWAP3 SWAP2 POP POP JUMP JUMPDEST PUSH1 0x80 DUP3 ADD PUSH1 0x0 DUP3 ADD MLOAD PUSH2 0x8E2 PUSH1 0x0 DUP6 ADD DUP3 PUSH2 0x921 JUMP JUMPDEST POP PUSH1 0x20 DUP3 ADD MLOAD PUSH2 0x8F5 PUSH1 0x20 DUP6 ADD DUP3 PUSH2 0x85F JUMP JUMPDEST POP PUSH1 0x40 DUP3 ADD MLOAD PUSH2 0x908 PUSH1 0x40 DUP6 ADD DUP3 PUSH2 0x921 JUMP JUMPDEST POP PUSH1 0x60 DUP3 ADD MLOAD PUSH2 0x91B PUSH1 0x60 DUP6 ADD DUP3 PUSH2 0x921 JUMP JUMPDEST POP POP POP POP JUMP JUMPDEST PUSH2 0x92A DUP2 PUSH2 0xA71 JUMP JUMPDEST DUP3 MSTORE POP POP JUMP JUMPDEST PUSH2 0x939 DUP2 PUSH2 0xA71 JUMP JUMPDEST DUP3 MSTORE POP POP JUMP JUMPDEST PUSH1 0x0 PUSH1 0x20 DUP3 ADD SWAP1 POP DUP2 DUP2 SUB PUSH1 0x0 DUP4 ADD MSTORE PUSH2 0x959 DUP2 DUP5 PUSH2 0x86E JUMP JUMPDEST SWAP1 POP SWAP3 SWAP2 POP POP JUMP JUMPDEST PUSH1 0x0 PUSH1 0x20 DUP3 ADD SWAP1 POP PUSH2 0x976 PUSH1 0x0 DUP4 ADD DUP5 PUSH2 0x930 JUMP JUMPDEST SWAP3 SWAP2 POP POP JUMP JUMPDEST PUSH1 0x0 DUP2 SWAP1 POP PUSH1 0x20 DUP3 ADD SWAP1 POP SWAP2 SWAP1 POP JUMP JUMPDEST PUSH1 0x0 DUP2 MLOAD SWAP1 POP SWAP2 SWAP1 POP JUMP JUMPDEST PUSH1 0x0 PUSH1 0x20 DUP3 ADD SWAP1 POP SWAP2 SWAP1 POP JUMP JUMPDEST PUSH1 0x0 DUP3 DUP3 MSTORE PUSH1 0x20 DUP3 ADD SWAP1 POP SWAP3 SWAP2 POP POP JUMP JUMPDEST PUSH1 0x0 PUSH2 0x9C0 DUP3 PUSH2 0xA71 JUMP JUMPDEST SWAP2 POP PUSH2 0x9CB DUP4 PUSH2 0xA71 JUMP JUMPDEST SWAP3 POP DUP3 PUSH32 0xFFFFFFFFFFFFFFFFFFFFFFFFFFFFFFFFFFFFFFFFFFFFFFFFFFFFFFFFFFFFFFFF SUB DUP3 GT ISZERO PUSH2 0xA00 JUMPI PUSH2 0x9FF PUSH2 0xAC4 JUMP JUMPDEST JUMPDEST DUP3 DUP3 ADD SWAP1 POP SWAP3 SWAP2 POP POP JUMP JUMPDEST PUSH1 0x0 PUSH2 0xA16 DUP3 PUSH2 0xA71 JUMP JUMPDEST SWAP2 POP PUSH2 0xA21 DUP4 PUSH2 0xA71 JUMP JUMPDEST SWAP3 POP DUP3 DUP3 LT ISZERO PUSH2 0xA34 JUMPI PUSH2 0xA33 PUSH2 0xAC4 JUMP JUMPDEST JUMPDEST DUP3 DUP3 SUB SWAP1 POP SWAP3 SWAP2 POP POP JUMP JUMPDEST PUSH1 0x0 PUSH2 0xA4A DUP3 PUSH2 0xA51 JUMP JUMPDEST SWAP1 POP SWAP2 SWAP1 POP JUMP JUMPDEST PUSH1 0x0 PUSH20 0xFFFFFFFFFFFFFFFFFFFFFFFFFFFFFFFFFFFFFFFF DUP3 AND SWAP1 POP SWAP2 SWAP1 POP JUMP JUMPDEST PUSH1 0x0 DUP2 SWAP1 POP SWAP2 SWAP1 POP JUMP JUMPDEST PUSH1 0x0 PUSH2 0xA86 DUP3 PUSH2 0xA71 JUMP JUMPDEST SWAP2 POP PUSH32 0xFFFFFFFFFFFFFFFFFFFFFFFFFFFFFFFFFFFFFFFFFFFFFFFFFFFFFFFFFFFFFFFF DUP3 EQ ISZERO PUSH2 0xAB9 JUMPI PUSH2 0xAB8 PUSH2 0xAC4 JUMP JUMPDEST JUMPDEST PUSH1 0x1 DUP3 ADD SWAP1 POP SWAP2 SWAP1 POP JUMP JUMPDEST PUSH32 0x4E487B7100000000000000000000000000000000000000000000000000000000 PUSH1 0x0 MSTORE PUSH1 0x11 PUSH1 0x4 MSTORE PUSH1 0x24 PUSH1 0x0 REVERT JUMPDEST PUSH32 0x4E487B7100000000000000000000000000000000000000000000000000000000 PUSH1 0x0 MSTORE PUSH1 0x31 PUSH1 0x4 MSTORE PUSH1 0x24 PUSH1 0x0 REVERT JUMPDEST PUSH32 0x4E487B7100000000000000000000000000000000000000000000000000000000 PUSH1 0x0 MSTORE PUSH1 0x32 PUSH1 0x4 MSTORE PUSH1 0x24 PUSH1 0x0 REVERT JUMPDEST PUSH1 0x0 DUP1 REVERT JUMPDEST PUSH2 0xB5F DUP2 PUSH2 0xA71 JUMP JUMPDEST DUP2 EQ PUSH2 0xB6A JUMPI PUSH1 0x0 DUP1 REVERT JUMPDEST POP JUMP INVALID LOG2 PUSH5 0x6970667358 0x22 SLT KECCAK256 KECCAK256 SLT CODESIZE TIMESTAMP 0xD1 0xAC 0xCF GAS CALLVALUE MULMOD 0xEC LOG4 PUSH20 0x87A33165EFB9900F062B88ED29C0E272420D664 PUSH20 0x6F6C634300080700330000000000000000000000 "
				},
				"gasEstimates": {
					"creation": {
						"codeDepositCost": "595800",
						"executionCost": "632",
						"totalCost": "596432"
					},
					"external": {
						"changePrice(uint256,uint256)": "infinite",
						"createPost(uint256)": "infinite",
						"currentPostID()": "2451",
						"deletePost(uint256)": "infinite",
						"getUserPosts()": "infinite"
					}
				},
				"methodIdentifiers": {
					"changePrice(uint256,uint256)": "b3de019c",
					"createPost(uint256)": "1d69bd48",
					"currentPostID()": "664b104b",
					"deletePost(uint256)": "094cd5ee",
					"getUserPosts()": "cc4ef2cc"
				}
			},
			"storageLayout": {
				"storage": [
					{
						"astId": 12,
						"contract": "2Pack/src/contarcts/2Pack.sol:Pack",
						"label": "currentPostID",
						"offset": 0,
						"slot": "0",
						"type": "t_uint256"
					},
					{
						"astId": 18,
						"contract": "2Pack/src/contarcts/2Pack.sol:Pack",
						"label": "postMap",
						"offset": 0,
						"slot": "1",
						"type": "t_mapping(t_address,t_array(t_struct(Post)10_storage)dyn_storage)"
					}
				],
				"types": {
					"t_address": {
						"encoding": "inplace",
						"label": "address",
						"numberOfBytes": "20"
					},
					"t_array(t_struct(Post)10_storage)dyn_storage": {
						"base": "t_struct(Post)10_storage",
						"encoding": "dynamic_array",
						"label": "struct Pack.Post[]",
						"numberOfBytes": "32"
					},
					"t_mapping(t_address,t_array(t_struct(Post)10_storage)dyn_storage)": {
						"encoding": "mapping",
						"key": "t_address",
						"label": "mapping(address => struct Pack.Post[])",
						"numberOfBytes": "32",
						"value": "t_array(t_struct(Post)10_storage)dyn_storage"
					},
					"t_struct(Post)10_storage": {
						"encoding": "inplace",
						"label": "struct Pack.Post",
						"members": [
							{
								"astId": 3,
								"contract": "2Pack/src/contarcts/2Pack.sol:Pack",
								"label": "postID",
								"offset": 0,
								"slot": "0",
								"type": "t_uint256"
							},
							{
								"astId": 5,
								"contract": "2Pack/src/contarcts/2Pack.sol:Pack",
								"label": "postAuthor",
								"offset": 0,
								"slot": "1",
								"type": "t_address"
							},
							{
								"astId": 7,
								"contract": "2Pack/src/contarcts/2Pack.sol:Pack",
								"label": "postPrice",
								"offset": 0,
								"slot": "2",
								"type": "t_uint256"
							},
							{
								"astId": 9,
								"contract": "2Pack/src/contarcts/2Pack.sol:Pack",
								"label": "postCreationTime",
								"offset": 0,
								"slot": "3",
								"type": "t_uint256"
							}
						],
						"numberOfBytes": "128"
					},
					"t_uint256": {
						"encoding": "inplace",
						"label": "uint256",
						"numberOfBytes": "32"
					}
				}
			},
			"userdoc": {
				"kind": "user",
				"methods": {},
				"version": 1
			}
		}
	}
}