{
  "contractName": "Pack",
  "abi": [
    {
      "inputs": [],
      "stateMutability": "nonpayable",
      "type": "constructor"
    },
    {
      "inputs": [
        {
          "internalType": "string",
          "name": "message",
          "type": "string"
        }
      ],
      "name": "Message",
      "type": "error"
    },
    {
      "inputs": [
        {
          "internalType": "address",
          "name": "",
          "type": "address"
        }
      ],
      "name": "usersBalnce",
      "outputs": [
        {
          "internalType": "uint256",
          "name": "",
          "type": "uint256"
        }
      ],
      "stateMutability": "view",
      "type": "function"
    },
    {
      "inputs": [
        {
          "internalType": "uint256",
          "name": "_postPrice",
          "type": "uint256"
        }
      ],
      "name": "createPost",
      "outputs": [],
      "stateMutability": "nonpayable",
      "type": "function"
    },
    {
      "inputs": [],
      "name": "getUserPosts",
      "outputs": [
        {
          "components": [
            {
              "internalType": "uint256",
              "name": "postID",
              "type": "uint256"
            },
            {
              "internalType": "address",
              "name": "postAuthor",
              "type": "address"
            },
            {
              "internalType": "uint256",
              "name": "postPrice",
              "type": "uint256"
            },
            {
              "internalType": "uint256",
              "name": "postCreationTime",
              "type": "uint256"
            },
            {
              "internalType": "uint256",
              "name": "deliverTime",
              "type": "uint256"
            }
          ],
          "internalType": "struct Pack.Post[]",
          "name": "",
          "type": "tuple[]"
        }
      ],
      "stateMutability": "view",
      "type": "function"
    },
    {
      "inputs": [
        {
          "internalType": "uint256",
          "name": "_postID",
          "type": "uint256"
        }
      ],
      "name": "deletePost",
      "outputs": [],
      "stateMutability": "payable",
      "type": "function"
    },
    {
      "inputs": [
        {
          "internalType": "uint256",
          "name": "_postID",
          "type": "uint256"
        },
        {
          "internalType": "uint256",
          "name": "newDeliveryTime",
          "type": "uint256"
        }
      ],
      "name": "changeDeliveryTime",
      "outputs": [],
      "stateMutability": "nonpayable",
      "type": "function"
    },
    {
      "inputs": [
        {
          "internalType": "address",
          "name": "receiver",
          "type": "address"
        },
        {
          "internalType": "uint256",
          "name": "amount",
          "type": "uint256"
        }
      ],
      "name": "transfer",
      "outputs": [],
      "stateMutability": "payable",
      "type": "function"
    }
  ],
  "bytecode": "0x608060405234801561001057600080fd5b503373ffffffffffffffffffffffffffffffffffffffff1631600260003373ffffffffffffffffffffffffffffffffffffffff1673ffffffffffffffffffffffffffffffffffffffff168152602001908152602001600020819055506113c78061007b6000396000f3fe6080604052600436106100555760003560e01c8063094cd5ee1461005a5780631d69bd4814610076578063a9059cbb1461009f578063cc4ef2cc146100bb578063cca003f4146100e6578063eca8b56714610123575b600080fd5b610074600480360381019061006f9190610f1e565b61014c565b005b34801561008257600080fd5b5061009d60048036038101906100989190610f1e565b61095d565b005b6100b960048036038101906100b49190610fa9565b610ae5565b005b3480156100c757600080fd5b506100d0610c77565b6040516100dd919061111e565b60405180910390f35b3480156100f257600080fd5b5061010d60048036038101906101089190611140565b610d91565b60405161011a919061117c565b60405180910390f35b34801561012f57600080fd5b5061014a60048036038101906101459190611197565b610da9565b005b600160003373ffffffffffffffffffffffffffffffffffffffff1673ffffffffffffffffffffffffffffffffffffffff16815260200190815260200160002060018060003373ffffffffffffffffffffffffffffffffffffffff1673ffffffffffffffffffffffffffffffffffffffff168152602001908152602001600020805490506101d99190611206565b815481106101ea576101e961123a565b5b906000526020600020906005020160000154810361036f576102bb33600160003373ffffffffffffffffffffffffffffffffffffffff1673ffffffffffffffffffffffffffffffffffffffff16815260200190815260200160002060018060003373ffffffffffffffffffffffffffffffffffffffff1673ffffffffffffffffffffffffffffffffffffffff168152602001908152602001600020805490506102939190611206565b815481106102a4576102a361123a565b5b906000526020600020906005020160020154610ae5565b600160003373ffffffffffffffffffffffffffffffffffffffff1673ffffffffffffffffffffffffffffffffffffffff16815260200190815260200160002080548061030a57610309611269565b5b60019003818190600052602060002090600502016000808201600090556001820160006101000a81549073ffffffffffffffffffffffffffffffffffffffff02191690556002820160009055600382016000905560048201600090555050905561095a565b60018060003373ffffffffffffffffffffffffffffffffffffffff1673ffffffffffffffffffffffffffffffffffffffff168152602001908152602001600020805490501480156104225750600160003373ffffffffffffffffffffffffffffffffffffffff1673ffffffffffffffffffffffffffffffffffffffff16815260200190815260200160002060008154811061040d5761040c61123a565b5b90600052602060002090600502016000015481145b156105485761049433600160003373ffffffffffffffffffffffffffffffffffffffff1673ffffffffffffffffffffffffffffffffffffffff16815260200190815260200160002060008154811061047d5761047c61123a565b5b906000526020600020906005020160020154610ae5565b600160003373ffffffffffffffffffffffffffffffffffffffff1673ffffffffffffffffffffffffffffffffffffffff1681526020019081526020016000208054806104e3576104e2611269565b5b60019003818190600052602060002090600502016000808201600090556001820160006101000a81549073ffffffffffffffffffffffffffffffffffffffff021916905560028201600090556003820160009055600482016000905550509055610959565b60018060003373ffffffffffffffffffffffffffffffffffffffff1673ffffffffffffffffffffffffffffffffffffffff168152602001908152602001600020805490501461091d5760005b600160003373ffffffffffffffffffffffffffffffffffffffff1673ffffffffffffffffffffffffffffffffffffffff1681526020019081526020016000208054905081101561091757600160003373ffffffffffffffffffffffffffffffffffffffff1673ffffffffffffffffffffffffffffffffffffffff168152602001908152602001600020818154811061062f5761062e61123a565b5b9060005260206000209060050201600001548203610904576106b333600160003373ffffffffffffffffffffffffffffffffffffffff1673ffffffffffffffffffffffffffffffffffffffff168152602001908152602001600020838154811061069c5761069b61123a565b5b906000526020600020906005020160020154610ae5565b600160003373ffffffffffffffffffffffffffffffffffffffff1673ffffffffffffffffffffffffffffffffffffffff16815260200190815260200160002060018060003373ffffffffffffffffffffffffffffffffffffffff1673ffffffffffffffffffffffffffffffffffffffff168152602001908152602001600020805490506107409190611206565b815481106107515761075061123a565b5b9060005260206000209060050201600160003373ffffffffffffffffffffffffffffffffffffffff1673ffffffffffffffffffffffffffffffffffffffff16815260200190815260200160002082815481106107b0576107af61123a565b5b9060005260206000209060050201600082015481600001556001820160009054906101000a900473ffffffffffffffffffffffffffffffffffffffff168160010160006101000a81548173ffffffffffffffffffffffffffffffffffffffff021916908373ffffffffffffffffffffffffffffffffffffffff160217905550600282015481600201556003820154816003015560048201548160040155905050600160003373ffffffffffffffffffffffffffffffffffffffff1673ffffffffffffffffffffffffffffffffffffffff16815260200190815260200160002080548061089f5761089e611269565b5b60019003818190600052602060002090600502016000808201600090556001820160006101000a81549073ffffffffffffffffffffffffffffffffffffffff021916905560028201600090556003820160009055600482016000905550509055610917565b808061090f90611298565b915050610594565b50610958565b6040517f51a7f65c00000000000000000000000000000000000000000000000000000000815260040161094f9061133d565b60405180910390fd5b5b5b50565b60006040518060a0016040528060005481526020013373ffffffffffffffffffffffffffffffffffffffff16815260200183815260200142815260200160008152509050600160003373ffffffffffffffffffffffffffffffffffffffff1673ffffffffffffffffffffffffffffffffffffffff1681526020019081526020016000208190806001815401808255809150506001900390600052602060002090600502016000909190919091506000820151816000015560208201518160010160006101000a81548173ffffffffffffffffffffffffffffffffffffffff021916908373ffffffffffffffffffffffffffffffffffffffff16021790555060408201518160020155606082015181600301556080820151816004015550506001600054610a8a919061135d565b600081905550600260003373ffffffffffffffffffffffffffffffffffffffff1673ffffffffffffffffffffffffffffffffffffffff168152602001908152602001600020548211610ae157610ae03083610ae5565b5b5050565b80600260003373ffffffffffffffffffffffffffffffffffffffff1673ffffffffffffffffffffffffffffffffffffffff168152602001908152602001600020541015610b3157600080fd5b600260008373ffffffffffffffffffffffffffffffffffffffff1673ffffffffffffffffffffffffffffffffffffffff1681526020019081526020016000205481600260008573ffffffffffffffffffffffffffffffffffffffff1673ffffffffffffffffffffffffffffffffffffffff16815260200190815260200160002054610bbc919061135d565b1015610bc757600080fd5b80600260003373ffffffffffffffffffffffffffffffffffffffff1673ffffffffffffffffffffffffffffffffffffffff1681526020019081526020016000206000828254610c169190611206565b9250508190555080600260008473ffffffffffffffffffffffffffffffffffffffff1673ffffffffffffffffffffffffffffffffffffffff1681526020019081526020016000206000828254610c6c919061135d565b925050819055505050565b6060600160003373ffffffffffffffffffffffffffffffffffffffff1673ffffffffffffffffffffffffffffffffffffffff168152602001908152602001600020805480602002602001604051908101604052809291908181526020016000905b82821015610d8857838290600052602060002090600502016040518060a0016040529081600082015481526020016001820160009054906101000a900473ffffffffffffffffffffffffffffffffffffffff1673ffffffffffffffffffffffffffffffffffffffff1673ffffffffffffffffffffffffffffffffffffffff168152602001600282015481526020016003820154815260200160048201548152505081526020019060010190610cd8565b50505050905090565b60026020528060005260406000206000915090505481565b60005b600160003373ffffffffffffffffffffffffffffffffffffffff1673ffffffffffffffffffffffffffffffffffffffff16815260200190815260200160002080549050811015610ede57600160003373ffffffffffffffffffffffffffffffffffffffff1673ffffffffffffffffffffffffffffffffffffffff1681526020019081526020016000208181548110610e4757610e4661123a565b5b9060005260206000209060050201600001548303610ecb5781600160003373ffffffffffffffffffffffffffffffffffffffff1673ffffffffffffffffffffffffffffffffffffffff1681526020019081526020016000208281548110610eb157610eb061123a565b5b906000526020600020906005020160040181905550610ede565b8080610ed690611298565b915050610dac565b505050565b600080fd5b6000819050919050565b610efb81610ee8565b8114610f0657600080fd5b50565b600081359050610f1881610ef2565b92915050565b600060208284031215610f3457610f33610ee3565b5b6000610f4284828501610f09565b91505092915050565b600073ffffffffffffffffffffffffffffffffffffffff82169050919050565b6000610f7682610f4b565b9050919050565b610f8681610f6b565b8114610f9157600080fd5b50565b600081359050610fa381610f7d565b92915050565b60008060408385031215610fc057610fbf610ee3565b5b6000610fce85828601610f94565b9250506020610fdf85828601610f09565b9150509250929050565b600081519050919050565b600082825260208201905092915050565b6000819050602082019050919050565b61101e81610ee8565b82525050565b61102d81610f6b565b82525050565b60a0820160008201516110496000850182611015565b50602082015161105c6020850182611024565b50604082015161106f6040850182611015565b5060608201516110826060850182611015565b5060808201516110956080850182611015565b50505050565b60006110a78383611033565b60a08301905092915050565b6000602082019050919050565b60006110cb82610fe9565b6110d58185610ff4565b93506110e083611005565b8060005b838110156111115781516110f8888261109b565b9750611103836110b3565b9250506001810190506110e4565b5085935050505092915050565b6000602082019050818103600083015261113881846110c0565b905092915050565b60006020828403121561115657611155610ee3565b5b600061116484828501610f94565b91505092915050565b61117681610ee8565b82525050565b6000602082019050611191600083018461116d565b92915050565b600080604083850312156111ae576111ad610ee3565b5b60006111bc85828601610f09565b92505060206111cd85828601610f09565b9150509250929050565b7f4e487b7100000000000000000000000000000000000000000000000000000000600052601160045260246000fd5b600061121182610ee8565b915061121c83610ee8565b9250828203905081811115611234576112336111d7565b5b92915050565b7f4e487b7100000000000000000000000000000000000000000000000000000000600052603260045260246000fd5b7f4e487b7100000000000000000000000000000000000000000000000000000000600052603160045260246000fd5b60006112a382610ee8565b91507fffffffffffffffffffffffffffffffffffffffffffffffffffffffffffffffff82036112d5576112d46111d7565b5b600182019050919050565b600082825260208201905092915050565b7f56616c7565206d7573742062652067726561746572207468616e203000000000600082015250565b6000611327601c836112e0565b9150611332826112f1565b602082019050919050565b600060208201905081810360008301526113568161131a565b9050919050565b600061136882610ee8565b915061137383610ee8565b925082820190508082111561138b5761138a6111d7565b5b9291505056fea26469706673582212208a3dd9848f00c2f29e780355a6c240868669446197ada6694f0f8108b1fca5dc64736f6c63430008110033",
  "immutableReferences": {},
  "source": "// SPDX-License-Identifier: GPL-3.0\npragma solidity >=0.7.0 <0.9.0;\n\n\ncontract Pack{\n\n    struct Post{\n        uint postID;   \n        address postAuthor; \n        uint postPrice;\n        // time are in Epoch time (number of seconds from 1 jannuary 1970)\n        uint postCreationTime;  \n        uint deliverTime;       // this have to been taken from the frontend, for the moment it's setted to 0\n    }\n\n    uint currentPostID;  \n    mapping (address => Post[])  postMap;   // map of psot of all users\n\tmapping (address => uint) public usersBalnce; // map of balances of users\n\n\n    constructor()  {\n        usersBalnce[msg.sender]=address(msg.sender).balance;\n    }\n\n    error Message(string message); \n\n    function createPost(uint _postPrice) public{  \n        // create a new post, insert the post in the array of posts of the sender \n        \n        Post memory newPost = Post({postID: currentPostID, postAuthor: msg.sender,\n        postPrice: _postPrice, postCreationTime: block.timestamp, deliverTime: 0 });\n        postMap[msg.sender].push(newPost);\n\n        currentPostID = currentPostID +1;   \n\n        if (_postPrice  <= usersBalnce[msg.sender]){\n            // check if the sender have enough money included the gas\n            // transfer the money to the contract\n            transfer(address(this), _postPrice); // address(this) address of the contract\n        }\n    }\n\n\n    function getUserPosts() view public returns (Post[] memory ){\n        // get the list of posts created by the msg.sender\n\n        return  postMap[msg.sender];\n    }\n\n\n    function deletePost(uint _postID) public payable {\n        // delete a post of the user, the post is selected by the postID \n        // if _postID is the ID of the last post in the array \n        if(_postID==(postMap[msg.sender][(postMap[msg.sender]).length-1].postID)) {\n                transfer(msg.sender, postMap[msg.sender][(postMap[msg.sender]).length-1].postPrice); \n                postMap[msg.sender].pop(); \n        }\n        // if _postID is the ID of the first (and only) post in the array\n        else if ((postMap[msg.sender]).length==1 && _postID==postMap[msg.sender][0].postID){\n                transfer(msg.sender, postMap[msg.sender][0].postPrice); \n                postMap[msg.sender].pop(); \n        } \n\n        else if ((postMap[msg.sender]).length!=1){   \n            for (uint i = 0; i< (postMap[msg.sender]).length; i++){\n                if (_postID==postMap[msg.sender][i].postID){\n                    //gives back the money used to \"create\" the post to the sender (creator)\n                    transfer(msg.sender, postMap[msg.sender][i].postPrice); \n                    // move the post to delete as last position of the array abd then poop it\n                    postMap[msg.sender][i]=postMap[msg.sender][(postMap[msg.sender]).length-1]; \n                    postMap[msg.sender].pop();\n                    break;\n                }\n            } \n        }\n        // if the post with ID == _postId doesn't exists\n        else{\n            // the user hve to receive back the gas used to call this function\n            // transfer(msg.sender,usedGas );  \n            revert Message( \"Value must be greater than 0\");\n        }\n    }      \n\n\n    function changeDeliveryTime(uint _postID, uint newDeliveryTime) public{\n        // change the date and time of the selected (with the postID) post\n        // NOTE: the date is in Epoch time form, it's must be taken from the frontend\n\n        for (uint i = 0; i< (postMap[msg.sender]).length; i++){\n            if (_postID==postMap[msg.sender][i].postID){\n                postMap[msg.sender][i].deliverTime=newDeliveryTime;\n                break;\n            }\n        }\n    }\n\n\n    function transfer(address receiver, uint amount) public payable{\n        // used to transfer an amount of money to a specific address\n\n        require(usersBalnce[msg.sender] >=amount);           \n        require(usersBalnce[receiver] +amount >= usersBalnce[receiver]);\n        usersBalnce[msg.sender] -=amount;                    \n        usersBalnce[receiver] +=amount; \n    }\n\n} \n\n\n\n\n",
  "sourcePath": "/home/miche/git/ToPack/src/contracts/Pack.sol",
  "compiler": {
    "name": "solc",
    "version": "0.8.17+commit.8df45f5f.Emscripten.clang"
  },
  "schemaVersion": "3.4.11",
  "updatedAt": "2023-01-20T08:05:56.414Z",
  "devdoc": {
    "kind": "dev",
    "methods": {},
    "version": 1
  },
  "userdoc": {
    "kind": "user",
    "methods": {},
    "version": 1
  }
}