{
  "contractName": "Pack",
  "abi": [
    {
      "inputs": [],
      "stateMutability": "nonpayable",
      "type": "constructor"
    },
    {
      "inputs": [
        {
          "internalType": "string",
          "name": "message",
          "type": "string"
        }
      ],
      "name": "Message",
      "type": "error"
    },
    {
      "inputs": [
        {
          "internalType": "address",
          "name": "",
          "type": "address"
        }
      ],
      "name": "usersBalnce",
      "outputs": [
        {
          "internalType": "uint256",
          "name": "",
          "type": "uint256"
        }
      ],
      "stateMutability": "view",
      "type": "function",
      "constant": true
    },
    {
      "inputs": [
        {
          "internalType": "address",
          "name": "user",
          "type": "address"
        },
        {
          "internalType": "uint256",
          "name": "_postPrice",
          "type": "uint256"
        }
      ],
      "name": "createPost",
      "outputs": [],
      "stateMutability": "nonpayable",
      "type": "function"
    },
    {
      "inputs": [
        {
          "internalType": "address",
          "name": "user",
          "type": "address"
        }
      ],
      "name": "getUserPosts",
      "outputs": [
        {
          "components": [
            {
              "internalType": "uint256",
              "name": "postID",
              "type": "uint256"
            },
            {
              "internalType": "address",
              "name": "postAuthor",
              "type": "address"
            },
            {
              "internalType": "uint256",
              "name": "postPrice",
              "type": "uint256"
            },
            {
              "internalType": "uint256",
              "name": "postCreationTime",
              "type": "uint256"
            },
            {
              "internalType": "uint256",
              "name": "deliverTime",
              "type": "uint256"
            }
          ],
          "internalType": "struct Pack.Post[]",
          "name": "",
          "type": "tuple[]"
        }
      ],
      "stateMutability": "view",
      "type": "function",
      "constant": true
    },
    {
      "inputs": [
        {
          "internalType": "uint256",
          "name": "_postID",
          "type": "uint256"
        }
      ],
      "name": "deletePost",
      "outputs": [],
      "stateMutability": "payable",
      "type": "function",
      "payable": true
    },
    {
      "inputs": [
        {
          "internalType": "uint256",
          "name": "_postID",
          "type": "uint256"
        },
        {
          "internalType": "uint256",
          "name": "newDeliveryTime",
          "type": "uint256"
        }
      ],
      "name": "changeDeliveryTime",
      "outputs": [],
      "stateMutability": "nonpayable",
      "type": "function"
    },
    {
      "inputs": [
        {
          "internalType": "address",
          "name": "receiver",
          "type": "address"
        },
        {
          "internalType": "uint256",
          "name": "amount",
          "type": "uint256"
        }
      ],
      "name": "transfer",
      "outputs": [],
      "stateMutability": "payable",
      "type": "function",
      "payable": true
    }
  ],
  "bytecode": "0x608060405234801561001057600080fd5b503373ffffffffffffffffffffffffffffffffffffffff1631600260003373ffffffffffffffffffffffffffffffffffffffff1673ffffffffffffffffffffffffffffffffffffffff168152602001908152602001600020819055506113dc8061007b6000396000f3fe6080604052600436106100555760003560e01c8063094cd5ee1461005a57806349be81f7146100765780639a2194a91461009f578063a9059cbb146100dc578063cca003f4146100f8578063eca8b56714610135575b600080fd5b610074600480360381019061006f9190610f33565b61015e565b005b34801561008257600080fd5b5061009d60048036038101906100989190610fbe565b61096f565b005b3480156100ab57600080fd5b506100c660048036038101906100c19190610ffe565b610af8565b6040516100d39190611160565b60405180910390f35b6100f660048036038101906100f19190610fbe565b610c14565b005b34801561010457600080fd5b5061011f600480360381019061011a9190610ffe565b610da6565b60405161012c9190611191565b60405180910390f35b34801561014157600080fd5b5061015c600480360381019061015791906111ac565b610dbe565b005b600160003373ffffffffffffffffffffffffffffffffffffffff1673ffffffffffffffffffffffffffffffffffffffff16815260200190815260200160002060018060003373ffffffffffffffffffffffffffffffffffffffff1673ffffffffffffffffffffffffffffffffffffffff168152602001908152602001600020805490506101eb919061121b565b815481106101fc576101fb61124f565b5b9060005260206000209060050201600001548103610381576102cd33600160003373ffffffffffffffffffffffffffffffffffffffff1673ffffffffffffffffffffffffffffffffffffffff16815260200190815260200160002060018060003373ffffffffffffffffffffffffffffffffffffffff1673ffffffffffffffffffffffffffffffffffffffff168152602001908152602001600020805490506102a5919061121b565b815481106102b6576102b561124f565b5b906000526020600020906005020160020154610c14565b600160003373ffffffffffffffffffffffffffffffffffffffff1673ffffffffffffffffffffffffffffffffffffffff16815260200190815260200160002080548061031c5761031b61127e565b5b60019003818190600052602060002090600502016000808201600090556001820160006101000a81549073ffffffffffffffffffffffffffffffffffffffff02191690556002820160009055600382016000905560048201600090555050905561096c565b60018060003373ffffffffffffffffffffffffffffffffffffffff1673ffffffffffffffffffffffffffffffffffffffff168152602001908152602001600020805490501480156104345750600160003373ffffffffffffffffffffffffffffffffffffffff1673ffffffffffffffffffffffffffffffffffffffff16815260200190815260200160002060008154811061041f5761041e61124f565b5b90600052602060002090600502016000015481145b1561055a576104a633600160003373ffffffffffffffffffffffffffffffffffffffff1673ffffffffffffffffffffffffffffffffffffffff16815260200190815260200160002060008154811061048f5761048e61124f565b5b906000526020600020906005020160020154610c14565b600160003373ffffffffffffffffffffffffffffffffffffffff1673ffffffffffffffffffffffffffffffffffffffff1681526020019081526020016000208054806104f5576104f461127e565b5b60019003818190600052602060002090600502016000808201600090556001820160006101000a81549073ffffffffffffffffffffffffffffffffffffffff02191690556002820160009055600382016000905560048201600090555050905561096b565b60018060003373ffffffffffffffffffffffffffffffffffffffff1673ffffffffffffffffffffffffffffffffffffffff168152602001908152602001600020805490501461092f5760005b600160003373ffffffffffffffffffffffffffffffffffffffff1673ffffffffffffffffffffffffffffffffffffffff1681526020019081526020016000208054905081101561092957600160003373ffffffffffffffffffffffffffffffffffffffff1673ffffffffffffffffffffffffffffffffffffffff16815260200190815260200160002081815481106106415761064061124f565b5b9060005260206000209060050201600001548203610916576106c533600160003373ffffffffffffffffffffffffffffffffffffffff1673ffffffffffffffffffffffffffffffffffffffff16815260200190815260200160002083815481106106ae576106ad61124f565b5b906000526020600020906005020160020154610c14565b600160003373ffffffffffffffffffffffffffffffffffffffff1673ffffffffffffffffffffffffffffffffffffffff16815260200190815260200160002060018060003373ffffffffffffffffffffffffffffffffffffffff1673ffffffffffffffffffffffffffffffffffffffff16815260200190815260200160002080549050610752919061121b565b815481106107635761076261124f565b5b9060005260206000209060050201600160003373ffffffffffffffffffffffffffffffffffffffff1673ffffffffffffffffffffffffffffffffffffffff16815260200190815260200160002082815481106107c2576107c161124f565b5b9060005260206000209060050201600082015481600001556001820160009054906101000a900473ffffffffffffffffffffffffffffffffffffffff168160010160006101000a81548173ffffffffffffffffffffffffffffffffffffffff021916908373ffffffffffffffffffffffffffffffffffffffff160217905550600282015481600201556003820154816003015560048201548160040155905050600160003373ffffffffffffffffffffffffffffffffffffffff1673ffffffffffffffffffffffffffffffffffffffff1681526020019081526020016000208054806108b1576108b061127e565b5b60019003818190600052602060002090600502016000808201600090556001820160006101000a81549073ffffffffffffffffffffffffffffffffffffffff021916905560028201600090556003820160009055600482016000905550509055610929565b8080610921906112ad565b9150506105a6565b5061096a565b6040517f51a7f65c00000000000000000000000000000000000000000000000000000000815260040161096190611352565b60405180910390fd5b5b5b50565b60006040518060a0016040528060005481526020018473ffffffffffffffffffffffffffffffffffffffff16815260200183815260200142815260200160008152509050600160008473ffffffffffffffffffffffffffffffffffffffff1673ffffffffffffffffffffffffffffffffffffffff1681526020019081526020016000208190806001815401808255809150506001900390600052602060002090600502016000909190919091506000820151816000015560208201518160010160006101000a81548173ffffffffffffffffffffffffffffffffffffffff021916908373ffffffffffffffffffffffffffffffffffffffff16021790555060408201518160020155606082015181600301556080820151816004015550506001600054610a9c9190611372565b600081905550600260008473ffffffffffffffffffffffffffffffffffffffff1673ffffffffffffffffffffffffffffffffffffffff168152602001908152602001600020548211610af357610af23083610c14565b5b505050565b6060600160008373ffffffffffffffffffffffffffffffffffffffff1673ffffffffffffffffffffffffffffffffffffffff168152602001908152602001600020805480602002602001604051908101604052809291908181526020016000905b82821015610c0957838290600052602060002090600502016040518060a0016040529081600082015481526020016001820160009054906101000a900473ffffffffffffffffffffffffffffffffffffffff1673ffffffffffffffffffffffffffffffffffffffff1673ffffffffffffffffffffffffffffffffffffffff168152602001600282015481526020016003820154815260200160048201548152505081526020019060010190610b59565b505050509050919050565b80600260003373ffffffffffffffffffffffffffffffffffffffff1673ffffffffffffffffffffffffffffffffffffffff168152602001908152602001600020541015610c6057600080fd5b600260008373ffffffffffffffffffffffffffffffffffffffff1673ffffffffffffffffffffffffffffffffffffffff1681526020019081526020016000205481600260008573ffffffffffffffffffffffffffffffffffffffff1673ffffffffffffffffffffffffffffffffffffffff16815260200190815260200160002054610ceb9190611372565b1015610cf657600080fd5b80600260003373ffffffffffffffffffffffffffffffffffffffff1673ffffffffffffffffffffffffffffffffffffffff1681526020019081526020016000206000828254610d45919061121b565b9250508190555080600260008473ffffffffffffffffffffffffffffffffffffffff1673ffffffffffffffffffffffffffffffffffffffff1681526020019081526020016000206000828254610d9b9190611372565b925050819055505050565b60026020528060005260406000206000915090505481565b60005b600160003373ffffffffffffffffffffffffffffffffffffffff1673ffffffffffffffffffffffffffffffffffffffff16815260200190815260200160002080549050811015610ef357600160003373ffffffffffffffffffffffffffffffffffffffff1673ffffffffffffffffffffffffffffffffffffffff1681526020019081526020016000208181548110610e5c57610e5b61124f565b5b9060005260206000209060050201600001548303610ee05781600160003373ffffffffffffffffffffffffffffffffffffffff1673ffffffffffffffffffffffffffffffffffffffff1681526020019081526020016000208281548110610ec657610ec561124f565b5b906000526020600020906005020160040181905550610ef3565b8080610eeb906112ad565b915050610dc1565b505050565b600080fd5b6000819050919050565b610f1081610efd565b8114610f1b57600080fd5b50565b600081359050610f2d81610f07565b92915050565b600060208284031215610f4957610f48610ef8565b5b6000610f5784828501610f1e565b91505092915050565b600073ffffffffffffffffffffffffffffffffffffffff82169050919050565b6000610f8b82610f60565b9050919050565b610f9b81610f80565b8114610fa657600080fd5b50565b600081359050610fb881610f92565b92915050565b60008060408385031215610fd557610fd4610ef8565b5b6000610fe385828601610fa9565b9250506020610ff485828601610f1e565b9150509250929050565b60006020828403121561101457611013610ef8565b5b600061102284828501610fa9565b91505092915050565b600081519050919050565b600082825260208201905092915050565b6000819050602082019050919050565b61106081610efd565b82525050565b61106f81610f80565b82525050565b60a08201600082015161108b6000850182611057565b50602082015161109e6020850182611066565b5060408201516110b16040850182611057565b5060608201516110c46060850182611057565b5060808201516110d76080850182611057565b50505050565b60006110e98383611075565b60a08301905092915050565b6000602082019050919050565b600061110d8261102b565b6111178185611036565b935061112283611047565b8060005b8381101561115357815161113a88826110dd565b9750611145836110f5565b925050600181019050611126565b5085935050505092915050565b6000602082019050818103600083015261117a8184611102565b905092915050565b61118b81610efd565b82525050565b60006020820190506111a66000830184611182565b92915050565b600080604083850312156111c3576111c2610ef8565b5b60006111d185828601610f1e565b92505060206111e285828601610f1e565b9150509250929050565b7f4e487b7100000000000000000000000000000000000000000000000000000000600052601160045260246000fd5b600061122682610efd565b915061123183610efd565b9250828203905081811115611249576112486111ec565b5b92915050565b7f4e487b7100000000000000000000000000000000000000000000000000000000600052603260045260246000fd5b7f4e487b7100000000000000000000000000000000000000000000000000000000600052603160045260246000fd5b60006112b882610efd565b91507fffffffffffffffffffffffffffffffffffffffffffffffffffffffffffffffff82036112ea576112e96111ec565b5b600182019050919050565b600082825260208201905092915050565b7f56616c7565206d7573742062652067726561746572207468616e203000000000600082015250565b600061133c601c836112f5565b915061134782611306565b602082019050919050565b6000602082019050818103600083015261136b8161132f565b9050919050565b600061137d82610efd565b915061138883610efd565b92508282019050808211156113a05761139f6111ec565b5b9291505056fea2646970667358221220209a67cf8e6cbd47d7362b4b38537b748c970cce7b54a265f4c54253c860128e64736f6c63430008110033",
  "immutableReferences": {},
  "source": "// SPDX-License-Identifier: GPL-3.0\npragma solidity >=0.7.0 <0.9.0;\n\n\ncontract Pack{\n\n    struct Post{\n        uint postID;   \n        address postAuthor; \n        uint postPrice;\n        // time are in Epoch time (number of seconds from 1 jannuary 1970)\n        uint postCreationTime;  \n        uint deliverTime;       // this have to been taken from the frontend, for the moment it's setted to 0\n    }\n\n    uint currentPostID;  \n    mapping (address => Post[])  postMap;   // map of psot of all users\n\tmapping (address => uint) public usersBalnce; // map of balances of users\n\n\n    constructor()  {\n        usersBalnce[msg.sender]=address(msg.sender).balance;\n    }\n\n    error Message(string message); \n\n    function createPost(address user, uint _postPrice) public{  \n        // create a new post, insert the post in the array of posts of the sender \n        \n        Post memory newPost = Post({postID: currentPostID, postAuthor: user,\n        postPrice: _postPrice, postCreationTime: block.timestamp, deliverTime: 0 });\n        postMap[user].push(newPost);\n\n        currentPostID = currentPostID +1;   \n\n        if (_postPrice  <= usersBalnce[user]){\n            // check if the sender have enough money included the gas\n            // transfer the money to the contract\n            transfer(address(this), _postPrice); // address(this) address of the contract\n        }\n    }\n\n   function getUserPosts(address user) view public returns (Post[] memory ){\n        // get the list of posts created by the msg.sender\n\n        return  postMap[user];\n    }\n\n\n    function deletePost(uint _postID) public payable {\n        // delete a post of the user, the post is selected by the postID \n        // if _postID is the ID of the last post in the array \n        if(_postID==(postMap[msg.sender][(postMap[msg.sender]).length-1].postID)) {\n                transfer(msg.sender, postMap[msg.sender][(postMap[msg.sender]).length-1].postPrice); \n                postMap[msg.sender].pop(); \n        }\n        // if _postID is the ID of the first (and only) post in the array\n        else if ((postMap[msg.sender]).length==1 && _postID==postMap[msg.sender][0].postID){\n                transfer(msg.sender, postMap[msg.sender][0].postPrice); \n                postMap[msg.sender].pop(); \n        } \n\n        else if ((postMap[msg.sender]).length!=1){   \n            for (uint i = 0; i< (postMap[msg.sender]).length; i++){\n                if (_postID==postMap[msg.sender][i].postID){\n                    //gives back the money used to \"create\" the post to the sender (creator)\n                    transfer(msg.sender, postMap[msg.sender][i].postPrice); \n                    // move the post to delete as last position of the array abd then poop it\n                    postMap[msg.sender][i]=postMap[msg.sender][(postMap[msg.sender]).length-1]; \n                    postMap[msg.sender].pop();\n                    break;\n                }\n            } \n        }\n        // if the post with ID == _postId doesn't exists\n        else{\n            // the user hve to receive back the gas used to call this function\n            // transfer(msg.sender,usedGas );  \n            revert Message( \"Value must be greater than 0\");\n        }\n    }      \n\n\n    function changeDeliveryTime(uint _postID, uint newDeliveryTime) public{\n        // change the date and time of the selected (with the postID) post\n        // NOTE: the date is in Epoch time form, it's must be taken from the frontend\n\n        for (uint i = 0; i< (postMap[msg.sender]).length; i++){\n            if (_postID==postMap[msg.sender][i].postID){\n                postMap[msg.sender][i].deliverTime=newDeliveryTime;\n                break;\n            }\n        }\n    }\n\n\n    function transfer(address receiver, uint amount) public payable{\n        // used to transfer an amount of money to a specific address\n\n        require(usersBalnce[msg.sender] >=amount);           \n        require(usersBalnce[receiver] +amount >= usersBalnce[receiver]);\n        usersBalnce[msg.sender] -=amount;                    \n        usersBalnce[receiver] +=amount; \n    }\n\n} \n\n\n\n\n",
  "sourcePath": "/home/lorenzo/projects/ToPack/src/contracts/Pack.sol",
  "compiler": {
    "name": "solc",
    "version": "0.8.17+commit.8df45f5f.Emscripten.clang"
  },
  "schemaVersion": "3.4.11",
  "updatedAt": "2023-01-20T09:38:09.843Z",
  "networkType": "ethereum",
  "devdoc": {
    "kind": "dev",
    "methods": {},
    "version": 1
  },
  "userdoc": {
    "kind": "user",
    "methods": {},
    "version": 1
  }
}