{
  "contractName": "Pack",
  "abi": [
    {
      "inputs": [],
      "stateMutability": "nonpayable",
      "type": "constructor"
    },
    {
      "inputs": [
        {
          "internalType": "string",
          "name": "message",
          "type": "string"
        }
      ],
      "name": "Message",
      "type": "error"
    },
    {
      "inputs": [
        {
          "internalType": "uint256",
          "name": "",
          "type": "uint256"
        }
      ],
      "name": "addressesArray",
      "outputs": [
        {
          "internalType": "address",
          "name": "",
          "type": "address"
        }
      ],
      "stateMutability": "view",
      "type": "function",
      "constant": true
    },
    {
      "inputs": [
        {
          "internalType": "address",
          "name": "",
          "type": "address"
        },
        {
          "internalType": "uint256",
          "name": "",
          "type": "uint256"
        }
      ],
      "name": "postMap",
      "outputs": [
        {
          "internalType": "uint256",
          "name": "postID",
          "type": "uint256"
        },
        {
          "internalType": "address",
          "name": "postAuthor",
          "type": "address"
        },
        {
          "internalType": "address",
          "name": "senderAddress",
          "type": "address"
        },
        {
          "internalType": "uint256",
          "name": "shippingCost",
          "type": "uint256"
        },
        {
          "internalType": "uint256",
          "name": "packValue",
          "type": "uint256"
        },
        {
          "internalType": "uint256",
          "name": "postCreationTime",
          "type": "uint256"
        },
        {
          "internalType": "uint256",
          "name": "deliverTime",
          "type": "uint256"
        }
      ],
      "stateMutability": "view",
      "type": "function",
      "constant": true
    },
    {
      "inputs": [
        {
          "internalType": "address",
          "name": "",
          "type": "address"
        }
      ],
      "name": "usersBalnce",
      "outputs": [
        {
          "internalType": "uint256",
          "name": "",
          "type": "uint256"
        }
      ],
      "stateMutability": "view",
      "type": "function",
      "constant": true
    },
    {
      "inputs": [
        {
          "internalType": "address",
          "name": "_postAuthor",
          "type": "address"
        },
        {
          "internalType": "address",
          "name": "_senderAddress",
          "type": "address"
        },
        {
          "internalType": "uint256",
          "name": "_shippingCost",
          "type": "uint256"
        },
        {
          "internalType": "uint256",
          "name": "_packValue",
          "type": "uint256"
        }
      ],
      "name": "createPost",
      "outputs": [],
      "stateMutability": "nonpayable",
      "type": "function"
    },
    {
      "inputs": [
        {
          "internalType": "address",
          "name": "user",
          "type": "address"
        }
      ],
      "name": "getUserPosts",
      "outputs": [
        {
          "components": [
            {
              "internalType": "uint256",
              "name": "postID",
              "type": "uint256"
            },
            {
              "internalType": "address",
              "name": "postAuthor",
              "type": "address"
            },
            {
              "internalType": "address",
              "name": "senderAddress",
              "type": "address"
            },
            {
              "internalType": "uint256",
              "name": "shippingCost",
              "type": "uint256"
            },
            {
              "internalType": "uint256",
              "name": "packValue",
              "type": "uint256"
            },
            {
              "internalType": "uint256",
              "name": "postCreationTime",
              "type": "uint256"
            },
            {
              "internalType": "uint256",
              "name": "deliverTime",
              "type": "uint256"
            }
          ],
          "internalType": "struct Pack.Post[]",
          "name": "",
          "type": "tuple[]"
        }
      ],
      "stateMutability": "view",
      "type": "function",
      "constant": true
    },
    {
      "inputs": [
        {
          "internalType": "address",
          "name": "receiver",
          "type": "address"
        },
        {
          "internalType": "uint256",
          "name": "amount",
          "type": "uint256"
        }
      ],
      "name": "transfer",
      "outputs": [],
      "stateMutability": "payable",
      "type": "function",
      "payable": true
    }
  ],
  "bytecode": "0x608060405234801561001057600080fd5b503373ffffffffffffffffffffffffffffffffffffffff1631600260003373ffffffffffffffffffffffffffffffffffffffff1673ffffffffffffffffffffffffffffffffffffffff16815260200190815260200160002081905550610c548061007b6000396000f3fe6080604052600436106100555760003560e01c8063996f65041461005a5780639a2194a914610083578063a9059cbb146100c0578063c900e204146100dc578063cca003f41461011f578063dd21e6de1461015c575b600080fd5b34801561006657600080fd5b50610081600480360381019061007c9190610846565b610199565b005b34801561008f57600080fd5b506100aa60048036038101906100a591906108ad565b6103a9565b6040516100b79190610a35565b60405180910390f35b6100da60048036038101906100d59190610a57565b610525565b005b3480156100e857600080fd5b5061010360048036038101906100fe9190610a57565b6106b7565b6040516101169796959493929190610ab5565b60405180910390f35b34801561012b57600080fd5b50610146600480360381019061014191906108ad565b610756565b6040516101539190610b24565b60405180910390f35b34801561016857600080fd5b50610183600480360381019061017e9190610b3f565b61076e565b6040516101909190610b6c565b60405180910390f35b60006040518060e0016040528060005481526020018673ffffffffffffffffffffffffffffffffffffffff1681526020018573ffffffffffffffffffffffffffffffffffffffff16815260200184815260200183815260200142815260200160008152509050600160008673ffffffffffffffffffffffffffffffffffffffff1673ffffffffffffffffffffffffffffffffffffffff1681526020019081526020016000208190806001815401808255809150506001900390600052602060002090600702016000909190919091506000820151816000015560208201518160010160006101000a81548173ffffffffffffffffffffffffffffffffffffffff021916908373ffffffffffffffffffffffffffffffffffffffff16021790555060408201518160020160006101000a81548173ffffffffffffffffffffffffffffffffffffffff021916908373ffffffffffffffffffffffffffffffffffffffff160217905550606082015181600301556080820151816004015560a0820151816005015560c0820151816006015550506003859080600181540180825580915050600190039060005260206000200160009091909190916101000a81548173ffffffffffffffffffffffffffffffffffffffff021916908373ffffffffffffffffffffffffffffffffffffffff160217905550600160005461039c9190610bb6565b6000819055505050505050565b6060600160008373ffffffffffffffffffffffffffffffffffffffff1673ffffffffffffffffffffffffffffffffffffffff168152602001908152602001600020805480602002602001604051908101604052809291908181526020016000905b8282101561051a57838290600052602060002090600702016040518060e0016040529081600082015481526020016001820160009054906101000a900473ffffffffffffffffffffffffffffffffffffffff1673ffffffffffffffffffffffffffffffffffffffff1673ffffffffffffffffffffffffffffffffffffffff1681526020016002820160009054906101000a900473ffffffffffffffffffffffffffffffffffffffff1673ffffffffffffffffffffffffffffffffffffffff1673ffffffffffffffffffffffffffffffffffffffff1681526020016003820154815260200160048201548152602001600582015481526020016006820154815250508152602001906001019061040a565b505050509050919050565b80600260003373ffffffffffffffffffffffffffffffffffffffff1673ffffffffffffffffffffffffffffffffffffffff16815260200190815260200160002054101561057157600080fd5b600260008373ffffffffffffffffffffffffffffffffffffffff1673ffffffffffffffffffffffffffffffffffffffff1681526020019081526020016000205481600260008573ffffffffffffffffffffffffffffffffffffffff1673ffffffffffffffffffffffffffffffffffffffff168152602001908152602001600020546105fc9190610bb6565b101561060757600080fd5b80600260003373ffffffffffffffffffffffffffffffffffffffff1673ffffffffffffffffffffffffffffffffffffffff16815260200190815260200160002060008282546106569190610bea565b9250508190555080600260008473ffffffffffffffffffffffffffffffffffffffff1673ffffffffffffffffffffffffffffffffffffffff16815260200190815260200160002060008282546106ac9190610bb6565b925050819055505050565b600160205281600052604060002081815481106106d357600080fd5b9060005260206000209060070201600091509150508060000154908060010160009054906101000a900473ffffffffffffffffffffffffffffffffffffffff16908060020160009054906101000a900473ffffffffffffffffffffffffffffffffffffffff16908060030154908060040154908060050154908060060154905087565b60026020528060005260406000206000915090505481565b6003818154811061077e57600080fd5b906000526020600020016000915054906101000a900473ffffffffffffffffffffffffffffffffffffffff1681565b600080fd5b600073ffffffffffffffffffffffffffffffffffffffff82169050919050565b60006107dd826107b2565b9050919050565b6107ed816107d2565b81146107f857600080fd5b50565b60008135905061080a816107e4565b92915050565b6000819050919050565b61082381610810565b811461082e57600080fd5b50565b6000813590506108408161081a565b92915050565b600080600080608085870312156108605761085f6107ad565b5b600061086e878288016107fb565b945050602061087f878288016107fb565b935050604061089087828801610831565b92505060606108a187828801610831565b91505092959194509250565b6000602082840312156108c3576108c26107ad565b5b60006108d1848285016107fb565b91505092915050565b600081519050919050565b600082825260208201905092915050565b6000819050602082019050919050565b61090f81610810565b82525050565b61091e816107d2565b82525050565b60e08201600082015161093a6000850182610906565b50602082015161094d6020850182610915565b5060408201516109606040850182610915565b5060608201516109736060850182610906565b5060808201516109866080850182610906565b5060a082015161099960a0850182610906565b5060c08201516109ac60c0850182610906565b50505050565b60006109be8383610924565b60e08301905092915050565b6000602082019050919050565b60006109e2826108da565b6109ec81856108e5565b93506109f7836108f6565b8060005b83811015610a28578151610a0f88826109b2565b9750610a1a836109ca565b9250506001810190506109fb565b5085935050505092915050565b60006020820190508181036000830152610a4f81846109d7565b905092915050565b60008060408385031215610a6e57610a6d6107ad565b5b6000610a7c858286016107fb565b9250506020610a8d85828601610831565b9150509250929050565b610aa081610810565b82525050565b610aaf816107d2565b82525050565b600060e082019050610aca600083018a610a97565b610ad76020830189610aa6565b610ae46040830188610aa6565b610af16060830187610a97565b610afe6080830186610a97565b610b0b60a0830185610a97565b610b1860c0830184610a97565b98975050505050505050565b6000602082019050610b396000830184610a97565b92915050565b600060208284031215610b5557610b546107ad565b5b6000610b6384828501610831565b91505092915050565b6000602082019050610b816000830184610aa6565b92915050565b7f4e487b7100000000000000000000000000000000000000000000000000000000600052601160045260246000fd5b6000610bc182610810565b9150610bcc83610810565b9250828201905080821115610be457610be3610b87565b5b92915050565b6000610bf582610810565b9150610c0083610810565b9250828203905081811115610c1857610c17610b87565b5b9291505056fea26469706673582212205ce8841d68e4f034a95eaf64e15138901c9f781cbef5c25702e14b957ef06a2464736f6c63430008110033",
  "immutableReferences": {},
  "source": "// SPDX-License-Identifier: GPL-3.0\npragma solidity >=0.7.0 <0.9.0;\n\n\ncontract Pack{\n\n    struct Post{\n        uint postID;   \n        address postAuthor; \n        address senderAddress; \n        uint shippingCost;\n        uint packValue;\n        // time are in Epoch time (number of seconds from 1 jannuary 1970)\n        uint postCreationTime;  \n        uint deliverTime;       // this have to been taken from the frontend, for the moment it's setted to 0\n    }\n\n    uint currentPostID; \n    mapping (address => Post[]) public postMap;   // map of psot of all users\n\tmapping (address => uint) public usersBalnce; // map of balances of users\n    address[] public addressesArray;\n\n    constructor()  {\n        usersBalnce[msg.sender]=address(msg.sender).balance;\n    }\n\n    error Message(string message); \n   // event array(uint addressesArray.length)\n\n\n    function createPost(address _postAuthor,address _senderAddress, uint _shippingCost, uint _packValue) public{  \n        // create a new post, insert the post in the array of posts of the sender \n        \n        Post memory newPost = Post({postID: currentPostID, postAuthor: _postAuthor, \n        senderAddress: _senderAddress, packValue: _packValue, shippingCost: _shippingCost, \n        postCreationTime: block.timestamp, deliverTime: 0 });\n        postMap[_postAuthor].push(newPost);\n\n        addressesArray.push(_postAuthor);\n        currentPostID = currentPostID +1;   \n    }\n\n    \n   function getUserPosts(address user) view public returns (Post[] memory ){\n        // get the list of posts created by the msg.sender\n\n        return  postMap[user];\n    }\n\n\n\n    function transfer(address receiver, uint amount) public payable{\n        // used to transfer an amount of money to a specific address\n\n        require(usersBalnce[msg.sender] >=amount);           \n        require(usersBalnce[receiver] +amount >= usersBalnce[receiver]);\n        usersBalnce[msg.sender] -=amount;                    \n        usersBalnce[receiver] +=amount; \n    }\n\n} \n\n\n\n\n",
  "sourcePath": "/home/lorenzo/projects/ToPack/src/contracts/Pack.sol",
  "compiler": {
    "name": "solc",
    "version": "0.8.17+commit.8df45f5f.Emscripten.clang"
  },
  "schemaVersion": "3.4.11",
  "updatedAt": "2023-01-20T21:19:14.105Z",
  "networkType": "ethereum",
  "devdoc": {
    "kind": "dev",
    "methods": {},
    "version": 1
  },
  "userdoc": {
    "kind": "user",
    "methods": {},
    "version": 1
  }
}