{
  "contractName": "Pack",
  "abi": [
    {
      "inputs": [],
      "stateMutability": "nonpayable",
      "type": "constructor"
    },
    {
      "inputs": [
        {
          "internalType": "string",
          "name": "message",
          "type": "string"
        }
      ],
      "name": "Message",
      "type": "error"
    },
    {
      "inputs": [
        {
          "internalType": "uint256",
          "name": "",
          "type": "uint256"
        }
      ],
      "name": "addressesArray",
      "outputs": [
        {
          "internalType": "address",
          "name": "",
          "type": "address"
        }
      ],
      "stateMutability": "view",
      "type": "function"
    },
    {
      "inputs": [
        {
          "internalType": "uint256",
          "name": "",
          "type": "uint256"
        }
      ],
      "name": "boxesArray",
      "outputs": [
        {
          "internalType": "uint256",
          "name": "boxID",
          "type": "uint256"
        },
        {
          "internalType": "address",
          "name": "senderAddr",
          "type": "address"
        },
        {
          "internalType": "address",
          "name": "travellerAddr",
          "type": "address"
        },
        {
          "internalType": "address",
          "name": "receiverAddr",
          "type": "address"
        },
        {
          "internalType": "uint256",
          "name": "shippingCost",
          "type": "uint256"
        },
        {
          "internalType": "uint256",
          "name": "boxValue",
          "type": "uint256"
        }
      ],
      "stateMutability": "view",
      "type": "function"
    },
    {
      "inputs": [
        {
          "internalType": "address",
          "name": "",
          "type": "address"
        },
        {
          "internalType": "uint256",
          "name": "",
          "type": "uint256"
        }
      ],
      "name": "postMap",
      "outputs": [
        {
          "internalType": "uint256",
          "name": "postID",
          "type": "uint256"
        },
        {
          "internalType": "address",
          "name": "postAuthor",
          "type": "address"
        },
        {
          "internalType": "address",
          "name": "senderAddress",
          "type": "address"
        },
        {
          "internalType": "uint256",
          "name": "shippingCost",
          "type": "uint256"
        },
        {
          "internalType": "uint256",
          "name": "packValue",
          "type": "uint256"
        },
        {
          "internalType": "uint256",
          "name": "postCreationTime",
          "type": "uint256"
        },
        {
          "internalType": "uint256",
          "name": "deliverTime",
          "type": "uint256"
        }
      ],
      "stateMutability": "view",
      "type": "function"
    },
    {
      "inputs": [
        {
          "internalType": "address",
          "name": "",
          "type": "address"
        },
        {
          "internalType": "uint256",
          "name": "",
          "type": "uint256"
        }
      ],
      "name": "sentMap",
      "outputs": [
        {
          "internalType": "uint256",
          "name": "",
          "type": "uint256"
        }
      ],
      "stateMutability": "view",
      "type": "function"
    },
    {
      "inputs": [
        {
          "internalType": "address",
          "name": "",
          "type": "address"
        },
        {
          "internalType": "uint256",
          "name": "",
          "type": "uint256"
        }
      ],
      "name": "travellingMap",
      "outputs": [
        {
          "internalType": "uint256",
          "name": "",
          "type": "uint256"
        }
      ],
      "stateMutability": "view",
      "type": "function"
    },
    {
      "inputs": [
        {
          "internalType": "address",
          "name": "",
          "type": "address"
        }
      ],
      "name": "usersBalance",
      "outputs": [
        {
          "internalType": "uint256",
          "name": "",
          "type": "uint256"
        }
      ],
      "stateMutability": "view",
      "type": "function"
    },
    {
      "inputs": [
        {
          "internalType": "address",
          "name": "",
          "type": "address"
        }
      ],
      "name": "usersBalnce",
      "outputs": [
        {
          "internalType": "uint256",
          "name": "",
          "type": "uint256"
        }
      ],
      "stateMutability": "view",
      "type": "function"
    },
    {
      "inputs": [
        {
          "internalType": "address",
          "name": "_postAuthor",
          "type": "address"
        },
        {
          "internalType": "address",
          "name": "_senderAddress",
          "type": "address"
        },
        {
          "internalType": "uint256",
          "name": "_shippingCost",
          "type": "uint256"
        },
        {
          "internalType": "uint256",
          "name": "_packValue",
          "type": "uint256"
        }
      ],
      "name": "createPost",
      "outputs": [],
      "stateMutability": "nonpayable",
      "type": "function"
    },
    {
      "inputs": [
        {
          "internalType": "address",
          "name": "user",
          "type": "address"
        }
      ],
      "name": "getUserPosts",
      "outputs": [
        {
          "components": [
            {
              "internalType": "uint256",
              "name": "postID",
              "type": "uint256"
            },
            {
              "internalType": "address",
              "name": "postAuthor",
              "type": "address"
            },
            {
              "internalType": "address",
              "name": "senderAddress",
              "type": "address"
            },
            {
              "internalType": "uint256",
              "name": "shippingCost",
              "type": "uint256"
            },
            {
              "internalType": "uint256",
              "name": "packValue",
              "type": "uint256"
            },
            {
              "internalType": "uint256",
              "name": "postCreationTime",
              "type": "uint256"
            },
            {
              "internalType": "uint256",
              "name": "deliverTime",
              "type": "uint256"
            }
          ],
          "internalType": "struct Pack.Post[]",
          "name": "",
          "type": "tuple[]"
        }
      ],
      "stateMutability": "view",
      "type": "function"
    },
    {
      "inputs": [
        {
          "internalType": "address",
          "name": "receiver",
          "type": "address"
        },
        {
          "internalType": "uint256",
          "name": "amount",
          "type": "uint256"
        }
      ],
      "name": "transfer",
      "outputs": [],
      "stateMutability": "payable",
      "type": "function"
    },
    {
      "inputs": [
        {
          "internalType": "address",
          "name": "_senderAddr",
          "type": "address"
        },
        {
          "internalType": "address",
          "name": "_travellerAddr",
          "type": "address"
        },
        {
          "internalType": "address",
          "name": "_receiverAddr",
          "type": "address"
        },
        {
          "internalType": "uint256",
          "name": "_shippingCost",
          "type": "uint256"
        },
        {
          "internalType": "uint256",
          "name": "_boxValue",
          "type": "uint256"
        }
      ],
      "name": "sendBox",
      "outputs": [],
      "stateMutability": "nonpayable",
      "type": "function"
    }
  ],
  "bytecode": "0x608060405234801561001057600080fd5b503373ffffffffffffffffffffffffffffffffffffffff1631600260003373ffffffffffffffffffffffffffffffffffffffff1673ffffffffffffffffffffffffffffffffffffffff168152602001908152602001600020819055506111da8061007b6000396000f3fe60806040526004361061009c5760003560e01c80639a2194a9116100645780639a2194a9146101aa578063a9059cbb146101e7578063c900e20414610203578063cca003f414610246578063dd21e6de14610283578063f82f60b5146102c05761009c565b80630bbe21bc146100a15780635160ae36146100de57806358324335146101075780638506125a14610144578063996f650414610181575b600080fd5b3480156100ad57600080fd5b506100c860048036038101906100c39190610cf0565b610302565b6040516100d59190610d3f565b60405180910390f35b3480156100ea57600080fd5b5061010560048036038101906101009190610d5a565b610333565b005b34801561011357600080fd5b5061012e60048036038101906101299190610dd5565b61054e565b60405161013b9190610d3f565b60405180910390f35b34801561015057600080fd5b5061016b60048036038101906101669190610cf0565b610566565b6040516101789190610d3f565b60405180910390f35b34801561018d57600080fd5b506101a860048036038101906101a39190610e02565b610597565b005b3480156101b657600080fd5b506101d160048036038101906101cc9190610dd5565b6107a7565b6040516101de9190610fc4565b60405180910390f35b61020160048036038101906101fc9190610cf0565b610923565b005b34801561020f57600080fd5b5061022a60048036038101906102259190610cf0565b610ab5565b60405161023d9796959493929190610ff5565b60405180910390f35b34801561025257600080fd5b5061026d60048036038101906102689190610dd5565b610b54565b60405161027a9190610d3f565b60405180910390f35b34801561028f57600080fd5b506102aa60048036038101906102a59190611064565b610b6c565b6040516102b79190611091565b60405180910390f35b3480156102cc57600080fd5b506102e760048036038101906102e29190611064565b610bab565b6040516102f9969594939291906110ac565b60405180910390f35b6006602052816000526040600020818154811061031e57600080fd5b90600052602060002001600091509150505481565b60006040518060c0016040528060045481526020018773ffffffffffffffffffffffffffffffffffffffff1681526020018673ffffffffffffffffffffffffffffffffffffffff1681526020018573ffffffffffffffffffffffffffffffffffffffff168152602001848152602001838152509050600560008773ffffffffffffffffffffffffffffffffffffffff1673ffffffffffffffffffffffffffffffffffffffff168152602001908152602001600020600454908060018154018082558091505060019003906000526020600020016000909190919091505560088190806001815401808255809150506001900390600052602060002090600602016000909190919091506000820151816000015560208201518160010160006101000a81548173ffffffffffffffffffffffffffffffffffffffff021916908373ffffffffffffffffffffffffffffffffffffffff16021790555060408201518160020160006101000a81548173ffffffffffffffffffffffffffffffffffffffff021916908373ffffffffffffffffffffffffffffffffffffffff16021790555060608201518160030160006101000a81548173ffffffffffffffffffffffffffffffffffffffff021916908373ffffffffffffffffffffffffffffffffffffffff1602179055506080820151816004015560a0820151816005015550506001600454610540919061113c565b600481905550505050505050565b60076020528060005260406000206000915090505481565b6005602052816000526040600020818154811061058257600080fd5b90600052602060002001600091509150505481565b60006040518060e0016040528060005481526020018673ffffffffffffffffffffffffffffffffffffffff1681526020018573ffffffffffffffffffffffffffffffffffffffff16815260200184815260200183815260200142815260200160008152509050600160008673ffffffffffffffffffffffffffffffffffffffff1673ffffffffffffffffffffffffffffffffffffffff1681526020019081526020016000208190806001815401808255809150506001900390600052602060002090600702016000909190919091506000820151816000015560208201518160010160006101000a81548173ffffffffffffffffffffffffffffffffffffffff021916908373ffffffffffffffffffffffffffffffffffffffff16021790555060408201518160020160006101000a81548173ffffffffffffffffffffffffffffffffffffffff021916908373ffffffffffffffffffffffffffffffffffffffff160217905550606082015181600301556080820151816004015560a0820151816005015560c0820151816006015550506003859080600181540180825580915050600190039060005260206000200160009091909190916101000a81548173ffffffffffffffffffffffffffffffffffffffff021916908373ffffffffffffffffffffffffffffffffffffffff160217905550600160005461079a919061113c565b6000819055505050505050565b6060600160008373ffffffffffffffffffffffffffffffffffffffff1673ffffffffffffffffffffffffffffffffffffffff168152602001908152602001600020805480602002602001604051908101604052809291908181526020016000905b8282101561091857838290600052602060002090600702016040518060e0016040529081600082015481526020016001820160009054906101000a900473ffffffffffffffffffffffffffffffffffffffff1673ffffffffffffffffffffffffffffffffffffffff1673ffffffffffffffffffffffffffffffffffffffff1681526020016002820160009054906101000a900473ffffffffffffffffffffffffffffffffffffffff1673ffffffffffffffffffffffffffffffffffffffff1673ffffffffffffffffffffffffffffffffffffffff16815260200160038201548152602001600482015481526020016005820154815260200160068201548152505081526020019060010190610808565b505050509050919050565b80600260003373ffffffffffffffffffffffffffffffffffffffff1673ffffffffffffffffffffffffffffffffffffffff16815260200190815260200160002054101561096f57600080fd5b600260008373ffffffffffffffffffffffffffffffffffffffff1673ffffffffffffffffffffffffffffffffffffffff1681526020019081526020016000205481600260008573ffffffffffffffffffffffffffffffffffffffff1673ffffffffffffffffffffffffffffffffffffffff168152602001908152602001600020546109fa919061113c565b1015610a0557600080fd5b80600260003373ffffffffffffffffffffffffffffffffffffffff1673ffffffffffffffffffffffffffffffffffffffff1681526020019081526020016000206000828254610a549190611170565b9250508190555080600260008473ffffffffffffffffffffffffffffffffffffffff1673ffffffffffffffffffffffffffffffffffffffff1681526020019081526020016000206000828254610aaa919061113c565b925050819055505050565b60016020528160005260406000208181548110610ad157600080fd5b9060005260206000209060070201600091509150508060000154908060010160009054906101000a900473ffffffffffffffffffffffffffffffffffffffff16908060020160009054906101000a900473ffffffffffffffffffffffffffffffffffffffff16908060030154908060040154908060050154908060060154905087565b60026020528060005260406000206000915090505481565b60038181548110610b7c57600080fd5b906000526020600020016000915054906101000a900473ffffffffffffffffffffffffffffffffffffffff1681565b60088181548110610bbb57600080fd5b90600052602060002090600602016000915090508060000154908060010160009054906101000a900473ffffffffffffffffffffffffffffffffffffffff16908060020160009054906101000a900473ffffffffffffffffffffffffffffffffffffffff16908060030160009054906101000a900473ffffffffffffffffffffffffffffffffffffffff16908060040154908060050154905086565b600080fd5b600073ffffffffffffffffffffffffffffffffffffffff82169050919050565b6000610c8782610c5c565b9050919050565b610c9781610c7c565b8114610ca257600080fd5b50565b600081359050610cb481610c8e565b92915050565b6000819050919050565b610ccd81610cba565b8114610cd857600080fd5b50565b600081359050610cea81610cc4565b92915050565b60008060408385031215610d0757610d06610c57565b5b6000610d1585828601610ca5565b9250506020610d2685828601610cdb565b9150509250929050565b610d3981610cba565b82525050565b6000602082019050610d546000830184610d30565b92915050565b600080600080600060a08688031215610d7657610d75610c57565b5b6000610d8488828901610ca5565b9550506020610d9588828901610ca5565b9450506040610da688828901610ca5565b9350506060610db788828901610cdb565b9250506080610dc888828901610cdb565b9150509295509295909350565b600060208284031215610deb57610dea610c57565b5b6000610df984828501610ca5565b91505092915050565b60008060008060808587031215610e1c57610e1b610c57565b5b6000610e2a87828801610ca5565b9450506020610e3b87828801610ca5565b9350506040610e4c87828801610cdb565b9250506060610e5d87828801610cdb565b91505092959194509250565b600081519050919050565b600082825260208201905092915050565b6000819050602082019050919050565b610e9e81610cba565b82525050565b610ead81610c7c565b82525050565b60e082016000820151610ec96000850182610e95565b506020820151610edc6020850182610ea4565b506040820151610eef6040850182610ea4565b506060820151610f026060850182610e95565b506080820151610f156080850182610e95565b5060a0820151610f2860a0850182610e95565b5060c0820151610f3b60c0850182610e95565b50505050565b6000610f4d8383610eb3565b60e08301905092915050565b6000602082019050919050565b6000610f7182610e69565b610f7b8185610e74565b9350610f8683610e85565b8060005b83811015610fb7578151610f9e8882610f41565b9750610fa983610f59565b925050600181019050610f8a565b5085935050505092915050565b60006020820190508181036000830152610fde8184610f66565b905092915050565b610fef81610c7c565b82525050565b600060e08201905061100a600083018a610d30565b6110176020830189610fe6565b6110246040830188610fe6565b6110316060830187610d30565b61103e6080830186610d30565b61104b60a0830185610d30565b61105860c0830184610d30565b98975050505050505050565b60006020828403121561107a57611079610c57565b5b600061108884828501610cdb565b91505092915050565b60006020820190506110a66000830184610fe6565b92915050565b600060c0820190506110c16000830189610d30565b6110ce6020830188610fe6565b6110db6040830187610fe6565b6110e86060830186610fe6565b6110f56080830185610d30565b61110260a0830184610d30565b979650505050505050565b7f4e487b7100000000000000000000000000000000000000000000000000000000600052601160045260246000fd5b600061114782610cba565b915061115283610cba565b925082820190508082111561116a5761116961110d565b5b92915050565b600061117b82610cba565b915061118683610cba565b925082820390508181111561119e5761119d61110d565b5b9291505056fea26469706673582212202e35f841bc86917196805a8fe1a6f1b76c87f97174c14a309d8ad7126f4a7f0f64736f6c63430008110033",
  "immutableReferences": {},
  "source": "// SPDX-License-Identifier: GPL-3.0\npragma solidity >=0.7.0 <0.9.0;\n\n\ncontract Pack{\n\n    struct Post{\n        uint postID;   \n        address postAuthor; \n        address senderAddress; \n        uint shippingCost;\n        uint packValue;\n        // time are in Epoch time (number of seconds from 1 jannuary 1970)\n        uint postCreationTime;  \n        uint deliverTime;       // this have to been taken from the frontend, for the moment it's setted to 0\n    }\n\n    uint currentPostID; \n    mapping (address => Post[]) public postMap;   // map of psot of all users\n\tmapping (address => uint) public usersBalnce; // map of balances of users\n    address[] public addressesArray;\n\n    constructor()  {\n        usersBalnce[msg.sender]=address(msg.sender).balance;\n    }\n\n    error Message(string message); \n   // event array(uint addressesArray.length)\n\n\n    function createPost(address _postAuthor,address _senderAddress, uint _shippingCost, uint _packValue) public{  \n        // create a new post, insert the post in the array of posts of the sender \n        \n        Post memory newPost = Post({postID: currentPostID, postAuthor: _postAuthor, \n        senderAddress: _senderAddress, packValue: _packValue, shippingCost: _shippingCost, \n        postCreationTime: block.timestamp, deliverTime: 0 });\n        postMap[_postAuthor].push(newPost);\n\n        addressesArray.push(_postAuthor);\n        currentPostID = currentPostID +1;   \n    }\n\n    \n   function getUserPosts(address user) view public returns (Post[] memory ){\n        // get the list of posts created by the msg.sender\n\n        return  postMap[user];\n    }\n\n\n\n    function transfer(address receiver, uint amount) public payable{\n        // used to transfer an amount of money to a specific address\n\n        require(usersBalnce[msg.sender] >=amount);           \n        require(usersBalnce[receiver] +amount >= usersBalnce[receiver]);\n        usersBalnce[msg.sender] -=amount;                    \n        usersBalnce[receiver] +=amount; \n    }\n\n        struct Box {\n        uint256 boxID;\n        address senderAddr;\n        address travellerAddr;\n        address receiverAddr;\n        uint256 shippingCost;\n        uint256 boxValue;\n    }\n\n    uint256 currentBoxID;\n\n    mapping(address => uint256[]) public sentMap; // each user has associated the ID of all the box sent\n    mapping(address => uint256[]) public travellingMap; // each user has associated the IDs of all box he/she's trasferring\n    //mapping(address => uint256[]) public receivedMap; // each user has associated the IDs of all the box received\n    \n    mapping(address => uint256) public usersBalance; // map of balance of users\n    \n    Box[] public boxesArray;\n\n    // event array(uint addressesArray.length)\n\n        function sendBox(\n        address _senderAddr,\n        address _travellerAddr,\n        address _receiverAddr,\n        uint256 _shippingCost,\n        uint256 _boxValue\n    ) public {\n        //give the box to the traveller: block money trasferring them to the contract, add the box to each user\n        Box memory newBox = Box({boxID: currentBoxID, senderAddr: _senderAddr, \n        travellerAddr: _travellerAddr, receiverAddr: _receiverAddr, shippingCost: _shippingCost, boxValue: _boxValue});\n        sentMap[_senderAddr].push(currentBoxID);\n\n        boxesArray.push(newBox);\n        //boxesArray.push(Box(currentBoxID, _senderAddr, _travellerAddr, _receiverAddr, _shippingCost, _boxValue));\n\n       // addressesArray.push(_senderAddr);\n        currentBoxID = currentBoxID +1;\n\n        \n    }\n\n} \n\n\n\n\n",
  "sourcePath": "/home/miche/git/ToPack/src/contracts/Pack.sol",
  "compiler": {
    "name": "solc",
    "version": "0.8.17+commit.8df45f5f.Emscripten.clang"
  },
  "schemaVersion": "3.4.11",
  "updatedAt": "2023-01-31T08:37:38.018Z",
  "devdoc": {
    "kind": "dev",
    "methods": {},
    "version": 1
  },
  "userdoc": {
    "kind": "user",
    "methods": {},
    "version": 1
  }
}