{
  "contractName": "TPCoin",
  "abi": [
    {
      "inputs": [
        {
          "internalType": "address",
          "name": "_owner",
          "type": "address"
        },
        {
          "internalType": "uint256",
          "name": "_value",
          "type": "uint256"
        },
        {
          "internalType": "uint256",
          "name": "_relatedShippingID",
          "type": "uint256"
        }
      ],
      "name": "mint",
      "outputs": [],
      "stateMutability": "payable",
      "type": "function"
    },
    {
      "inputs": [
        {
          "internalType": "address",
          "name": "owner",
          "type": "address"
        }
      ],
      "name": "userTokens",
      "outputs": [
        {
          "components": [
            {
              "internalType": "uint256",
              "name": "id",
              "type": "uint256"
            },
            {
              "internalType": "address",
              "name": "owner",
              "type": "address"
            },
            {
              "internalType": "uint256",
              "name": "value",
              "type": "uint256"
            },
            {
              "internalType": "uint256",
              "name": "relatedShippingID",
              "type": "uint256"
            }
          ],
          "internalType": "struct TPCoin.TPtoken[]",
          "name": "",
          "type": "tuple[]"
        }
      ],
      "stateMutability": "view",
      "type": "function"
    },
    {
      "inputs": [
        {
          "internalType": "address",
          "name": "_owner",
          "type": "address"
        },
        {
          "internalType": "uint256",
          "name": "_id",
          "type": "uint256"
        }
      ],
      "name": "burn",
      "outputs": [],
      "stateMutability": "nonpayable",
      "type": "function"
    }
  ],
  "bytecode": "0x608060405234801561001057600080fd5b50610a0a806100206000396000f3fe6080604052600436106100345760003560e01c8063156e29f6146100395780639dc29fac14610055578063ed498fa81461007e575b600080fd5b610053600480360381019061004e9190610693565b6100bb565b005b34801561006157600080fd5b5061007c600480360381019061007791906106e6565b6101e1565b005b34801561008a57600080fd5b506100a560048036038101906100a09190610726565b6104e9565b6040516100b29190610875565b60405180910390f35b6000604051806080016040528060015481526020018573ffffffffffffffffffffffffffffffffffffffff1681526020018481526020018381525090506000808573ffffffffffffffffffffffffffffffffffffffff1673ffffffffffffffffffffffffffffffffffffffff1681526020019081526020016000208190806001815401808255809150506001900390600052602060002090600402016000909190919091506000820151816000015560208201518160010160006101000a81548173ffffffffffffffffffffffffffffffffffffffff021916908373ffffffffffffffffffffffffffffffffffffffff16021790555060408201518160020155606082015181600301555050600180546101d591906108c6565b60018190555050505050565b60005b6000808473ffffffffffffffffffffffffffffffffffffffff1673ffffffffffffffffffffffffffffffffffffffff168152602001908152602001600020805490508110156104e4576000808473ffffffffffffffffffffffffffffffffffffffff1673ffffffffffffffffffffffffffffffffffffffff168152602001908152602001600020818154811061027d5761027c6108fa565b5b90600052602060002090600402016000015482036104d1576000808473ffffffffffffffffffffffffffffffffffffffff1673ffffffffffffffffffffffffffffffffffffffff16815260200190815260200160002060016000808673ffffffffffffffffffffffffffffffffffffffff1673ffffffffffffffffffffffffffffffffffffffff168152602001908152602001600020805490506103219190610929565b81548110610332576103316108fa565b5b90600052602060002090600402016000808573ffffffffffffffffffffffffffffffffffffffff1673ffffffffffffffffffffffffffffffffffffffff16815260200190815260200160002082815481106103905761038f6108fa565b5b9060005260206000209060040201600082015481600001556001820160009054906101000a900473ffffffffffffffffffffffffffffffffffffffff168160010160006101000a81548173ffffffffffffffffffffffffffffffffffffffff021916908373ffffffffffffffffffffffffffffffffffffffff16021790555060028201548160020155600382015481600301559050506000808473ffffffffffffffffffffffffffffffffffffffff1673ffffffffffffffffffffffffffffffffffffffff1681526020019081526020016000208054806104745761047361095d565b5b60019003818190600052602060002090600402016000808201600090556001820160006101000a81549073ffffffffffffffffffffffffffffffffffffffff021916905560028201600090556003820160009055505090556104e4565b80806104dc9061098c565b9150506101e4565b505050565b60606000808373ffffffffffffffffffffffffffffffffffffffff1673ffffffffffffffffffffffffffffffffffffffff168152602001908152602001600020805480602002602001604051908101604052809291908181526020016000905b828210156105ef5783829060005260206000209060040201604051806080016040529081600082015481526020016001820160009054906101000a900473ffffffffffffffffffffffffffffffffffffffff1673ffffffffffffffffffffffffffffffffffffffff1673ffffffffffffffffffffffffffffffffffffffff1681526020016002820154815260200160038201548152505081526020019060010190610549565b505050509050919050565b600080fd5b600073ffffffffffffffffffffffffffffffffffffffff82169050919050565b600061062a826105ff565b9050919050565b61063a8161061f565b811461064557600080fd5b50565b60008135905061065781610631565b92915050565b6000819050919050565b6106708161065d565b811461067b57600080fd5b50565b60008135905061068d81610667565b92915050565b6000806000606084860312156106ac576106ab6105fa565b5b60006106ba86828701610648565b93505060206106cb8682870161067e565b92505060406106dc8682870161067e565b9150509250925092565b600080604083850312156106fd576106fc6105fa565b5b600061070b85828601610648565b925050602061071c8582860161067e565b9150509250929050565b60006020828403121561073c5761073b6105fa565b5b600061074a84828501610648565b91505092915050565b600081519050919050565b600082825260208201905092915050565b6000819050602082019050919050565b6107888161065d565b82525050565b6107978161061f565b82525050565b6080820160008201516107b3600085018261077f565b5060208201516107c6602085018261078e565b5060408201516107d9604085018261077f565b5060608201516107ec606085018261077f565b50505050565b60006107fe838361079d565b60808301905092915050565b6000602082019050919050565b600061082282610753565b61082c818561075e565b93506108378361076f565b8060005b8381101561086857815161084f88826107f2565b975061085a8361080a565b92505060018101905061083b565b5085935050505092915050565b6000602082019050818103600083015261088f8184610817565b905092915050565b7f4e487b7100000000000000000000000000000000000000000000000000000000600052601160045260246000fd5b60006108d18261065d565b91506108dc8361065d565b92508282019050808211156108f4576108f3610897565b5b92915050565b7f4e487b7100000000000000000000000000000000000000000000000000000000600052603260045260246000fd5b60006109348261065d565b915061093f8361065d565b925082820390508181111561095757610956610897565b5b92915050565b7f4e487b7100000000000000000000000000000000000000000000000000000000600052603160045260246000fd5b60006109978261065d565b91507fffffffffffffffffffffffffffffffffffffffffffffffffffffffffffffffff82036109c9576109c8610897565b5b60018201905091905056fea2646970667358221220ef1f64805d374783a190d58226c8d373fe49da185d71f3e8798e18c36b83e9aa64736f6c63430008110033",
  "immutableReferences": {},
  "source": "// SPDX-License-Identifier: GPL-3.0\npragma solidity >=0.7.0 <0.9.0;\n\n\ncontract TPCoin {\n\n    struct TPtoken {\n        uint256 id;\n        address owner;\n        uint256 value;\n        uint256 relatedShippingID;\n    }\n\n\n\n    mapping(address => TPtoken[]) tokensMap;\n    // alternative mapping (uint id = > TPCOIN)\n    uint256 lastCreatedID;\n\n  \n\n    function mint(\n        address _owner,\n        uint256 _value,\n        uint256 _relatedShippingID\n    ) external payable   {\n        TPtoken memory newToken = TPtoken({\n            id: lastCreatedID,\n            owner: _owner,\n            value: _value,\n            relatedShippingID: _relatedShippingID\n        });\n        tokensMap[_owner].push(newToken);\n        lastCreatedID = lastCreatedID + 1;\n    }\n\n    function userTokens(address owner) external view returns (TPtoken[] memory) {\n        return tokensMap[owner];\n    }\n\n    function burn(address _owner, uint256 _id) public {\n        for (uint256 i = 0; i < (tokensMap[_owner]).length; i++) {\n            if (_id == tokensMap[_owner][i].id) {\n                tokensMap[_owner][i] = tokensMap[_owner][\n                    (tokensMap[_owner]).length - 1\n                ];\n                tokensMap[_owner].pop();\n                break;\n            }\n        }\n    }\n}\n",
  "sourcePath": "/home/lorenzo/projects/ToPack/src/contracts/TPCoin.sol",
  "compiler": {
    "name": "solc",
    "version": "0.8.17+commit.8df45f5f.Emscripten.clang"
  },
  "schemaVersion": "3.4.11",
  "updatedAt": "2023-01-27T08:14:28.783Z",
  "devdoc": {
    "kind": "dev",
    "methods": {},
    "version": 1
  },
  "userdoc": {
    "kind": "user",
    "methods": {},
    "version": 1
  }
}